{
  "_format": "hh-sol-artifact-1",
  "contractName": "VotingToken",
  "sourceName": "contracts/ERC20/VotingToken.sol",
  "abi": [
    {
      "inputs": [
        {
          "internalType": "string",
          "name": "name",
          "type": "string"
        },
        {
          "internalType": "string",
          "name": "symbol",
          "type": "string"
        },
        {
          "internalType": "uint256",
          "name": "totalSupply",
          "type": "uint256"
        }
      ],
      "stateMutability": "payable",
      "type": "constructor"
    },
    {
      "inputs": [],
      "name": "InvalidShortString",
      "type": "error"
    },
    {
      "inputs": [
        {
          "internalType": "string",
          "name": "str",
          "type": "string"
        }
      ],
      "name": "StringTooLong",
      "type": "error"
    },
    {
      "anonymous": false,
      "inputs": [
        {
          "indexed": true,
          "internalType": "address",
          "name": "owner",
          "type": "address"
        },
        {
          "indexed": true,
          "internalType": "address",
          "name": "spender",
          "type": "address"
        },
        {
          "indexed": false,
          "internalType": "uint256",
          "name": "value",
          "type": "uint256"
        }
      ],
      "name": "Approval",
      "type": "event"
    },
    {
      "anonymous": false,
      "inputs": [
        {
          "indexed": true,
          "internalType": "address",
          "name": "delegator",
          "type": "address"
        },
        {
          "indexed": true,
          "internalType": "address",
          "name": "fromDelegate",
          "type": "address"
        },
        {
          "indexed": true,
          "internalType": "address",
          "name": "toDelegate",
          "type": "address"
        }
      ],
      "name": "DelegateChanged",
      "type": "event"
    },
    {
      "anonymous": false,
      "inputs": [
        {
          "indexed": true,
          "internalType": "address",
          "name": "delegate",
          "type": "address"
        },
        {
          "indexed": false,
          "internalType": "uint256",
          "name": "previousBalance",
          "type": "uint256"
        },
        {
          "indexed": false,
          "internalType": "uint256",
          "name": "newBalance",
          "type": "uint256"
        }
      ],
      "name": "DelegateVotesChanged",
      "type": "event"
    },
    {
      "anonymous": false,
      "inputs": [],
      "name": "EIP712DomainChanged",
      "type": "event"
    },
    {
      "anonymous": false,
      "inputs": [
        {
          "indexed": true,
          "internalType": "address",
          "name": "from",
          "type": "address"
        },
        {
          "indexed": true,
          "internalType": "address",
          "name": "to",
          "type": "address"
        },
        {
          "indexed": false,
          "internalType": "uint256",
          "name": "value",
          "type": "uint256"
        }
      ],
      "name": "Transfer",
      "type": "event"
    },
    {
      "inputs": [],
      "name": "CLOCK_MODE",
      "outputs": [
        {
          "internalType": "string",
          "name": "",
          "type": "string"
        }
      ],
      "stateMutability": "view",
      "type": "function"
    },
    {
      "inputs": [],
      "name": "DOMAIN_SEPARATOR",
      "outputs": [
        {
          "internalType": "bytes32",
          "name": "",
          "type": "bytes32"
        }
      ],
      "stateMutability": "view",
      "type": "function"
    },
    {
      "inputs": [
        {
          "internalType": "address",
          "name": "owner",
          "type": "address"
        },
        {
          "internalType": "address",
          "name": "spender",
          "type": "address"
        }
      ],
      "name": "allowance",
      "outputs": [
        {
          "internalType": "uint256",
          "name": "",
          "type": "uint256"
        }
      ],
      "stateMutability": "view",
      "type": "function"
    },
    {
      "inputs": [
        {
          "internalType": "address",
          "name": "spender",
          "type": "address"
        },
        {
          "internalType": "uint256",
          "name": "amount",
          "type": "uint256"
        }
      ],
      "name": "approve",
      "outputs": [
        {
          "internalType": "bool",
          "name": "",
          "type": "bool"
        }
      ],
      "stateMutability": "nonpayable",
      "type": "function"
    },
    {
      "inputs": [
        {
          "internalType": "address",
          "name": "account",
          "type": "address"
        }
      ],
      "name": "balanceOf",
      "outputs": [
        {
          "internalType": "uint256",
          "name": "",
          "type": "uint256"
        }
      ],
      "stateMutability": "view",
      "type": "function"
    },
    {
      "inputs": [
        {
          "internalType": "address",
          "name": "account",
          "type": "address"
        },
        {
          "internalType": "uint32",
          "name": "pos",
          "type": "uint32"
        }
      ],
      "name": "checkpoints",
      "outputs": [
        {
          "components": [
            {
              "internalType": "uint32",
              "name": "fromBlock",
              "type": "uint32"
            },
            {
              "internalType": "uint224",
              "name": "votes",
              "type": "uint224"
            }
          ],
          "internalType": "struct ERC20Votes.Checkpoint",
          "name": "",
          "type": "tuple"
        }
      ],
      "stateMutability": "view",
      "type": "function"
    },
    {
      "inputs": [],
      "name": "clock",
      "outputs": [
        {
          "internalType": "uint48",
          "name": "",
          "type": "uint48"
        }
      ],
      "stateMutability": "view",
      "type": "function"
    },
    {
      "inputs": [],
      "name": "decimals",
      "outputs": [
        {
          "internalType": "uint8",
          "name": "",
          "type": "uint8"
        }
      ],
      "stateMutability": "view",
      "type": "function"
    },
    {
      "inputs": [
        {
          "internalType": "address",
          "name": "spender",
          "type": "address"
        },
        {
          "internalType": "uint256",
          "name": "subtractedValue",
          "type": "uint256"
        }
      ],
      "name": "decreaseAllowance",
      "outputs": [
        {
          "internalType": "bool",
          "name": "",
          "type": "bool"
        }
      ],
      "stateMutability": "nonpayable",
      "type": "function"
    },
    {
      "inputs": [
        {
          "internalType": "address",
          "name": "delegatee",
          "type": "address"
        }
      ],
      "name": "delegate",
      "outputs": [],
      "stateMutability": "nonpayable",
      "type": "function"
    },
    {
      "inputs": [
        {
          "internalType": "address",
          "name": "delegatee",
          "type": "address"
        },
        {
          "internalType": "uint256",
          "name": "nonce",
          "type": "uint256"
        },
        {
          "internalType": "uint256",
          "name": "expiry",
          "type": "uint256"
        },
        {
          "internalType": "uint8",
          "name": "v",
          "type": "uint8"
        },
        {
          "internalType": "bytes32",
          "name": "r",
          "type": "bytes32"
        },
        {
          "internalType": "bytes32",
          "name": "s",
          "type": "bytes32"
        }
      ],
      "name": "delegateBySig",
      "outputs": [],
      "stateMutability": "nonpayable",
      "type": "function"
    },
    {
      "inputs": [
        {
          "internalType": "address",
          "name": "account",
          "type": "address"
        }
      ],
      "name": "delegates",
      "outputs": [
        {
          "internalType": "address",
          "name": "",
          "type": "address"
        }
      ],
      "stateMutability": "view",
      "type": "function"
    },
    {
      "inputs": [],
      "name": "eip712Domain",
      "outputs": [
        {
          "internalType": "bytes1",
          "name": "fields",
          "type": "bytes1"
        },
        {
          "internalType": "string",
          "name": "name",
          "type": "string"
        },
        {
          "internalType": "string",
          "name": "version",
          "type": "string"
        },
        {
          "internalType": "uint256",
          "name": "chainId",
          "type": "uint256"
        },
        {
          "internalType": "address",
          "name": "verifyingContract",
          "type": "address"
        },
        {
          "internalType": "bytes32",
          "name": "salt",
          "type": "bytes32"
        },
        {
          "internalType": "uint256[]",
          "name": "extensions",
          "type": "uint256[]"
        }
      ],
      "stateMutability": "view",
      "type": "function"
    },
    {
      "inputs": [
        {
          "internalType": "uint256",
          "name": "timepoint",
          "type": "uint256"
        }
      ],
      "name": "getPastTotalSupply",
      "outputs": [
        {
          "internalType": "uint256",
          "name": "",
          "type": "uint256"
        }
      ],
      "stateMutability": "view",
      "type": "function"
    },
    {
      "inputs": [
        {
          "internalType": "address",
          "name": "account",
          "type": "address"
        },
        {
          "internalType": "uint256",
          "name": "timepoint",
          "type": "uint256"
        }
      ],
      "name": "getPastVotes",
      "outputs": [
        {
          "internalType": "uint256",
          "name": "",
          "type": "uint256"
        }
      ],
      "stateMutability": "view",
      "type": "function"
    },
    {
      "inputs": [
        {
          "internalType": "address",
          "name": "account",
          "type": "address"
        }
      ],
      "name": "getVotes",
      "outputs": [
        {
          "internalType": "uint256",
          "name": "",
          "type": "uint256"
        }
      ],
      "stateMutability": "view",
      "type": "function"
    },
    {
      "inputs": [
        {
          "internalType": "address",
          "name": "spender",
          "type": "address"
        },
        {
          "internalType": "uint256",
          "name": "addedValue",
          "type": "uint256"
        }
      ],
      "name": "increaseAllowance",
      "outputs": [
        {
          "internalType": "bool",
          "name": "",
          "type": "bool"
        }
      ],
      "stateMutability": "nonpayable",
      "type": "function"
    },
    {
      "inputs": [],
      "name": "name",
      "outputs": [
        {
          "internalType": "string",
          "name": "",
          "type": "string"
        }
      ],
      "stateMutability": "view",
      "type": "function"
    },
    {
      "inputs": [
        {
          "internalType": "address",
          "name": "owner",
          "type": "address"
        }
      ],
      "name": "nonces",
      "outputs": [
        {
          "internalType": "uint256",
          "name": "",
          "type": "uint256"
        }
      ],
      "stateMutability": "view",
      "type": "function"
    },
    {
      "inputs": [
        {
          "internalType": "address",
          "name": "account",
          "type": "address"
        }
      ],
      "name": "numCheckpoints",
      "outputs": [
        {
          "internalType": "uint32",
          "name": "",
          "type": "uint32"
        }
      ],
      "stateMutability": "view",
      "type": "function"
    },
    {
      "inputs": [
        {
          "internalType": "address",
          "name": "owner",
          "type": "address"
        },
        {
          "internalType": "address",
          "name": "spender",
          "type": "address"
        },
        {
          "internalType": "uint256",
          "name": "value",
          "type": "uint256"
        },
        {
          "internalType": "uint256",
          "name": "deadline",
          "type": "uint256"
        },
        {
          "internalType": "uint8",
          "name": "v",
          "type": "uint8"
        },
        {
          "internalType": "bytes32",
          "name": "r",
          "type": "bytes32"
        },
        {
          "internalType": "bytes32",
          "name": "s",
          "type": "bytes32"
        }
      ],
      "name": "permit",
      "outputs": [],
      "stateMutability": "nonpayable",
      "type": "function"
    },
    {
      "inputs": [],
      "name": "symbol",
      "outputs": [
        {
          "internalType": "string",
          "name": "",
          "type": "string"
        }
      ],
      "stateMutability": "view",
      "type": "function"
    },
    {
      "inputs": [],
      "name": "totalSupply",
      "outputs": [
        {
          "internalType": "uint256",
          "name": "",
          "type": "uint256"
        }
      ],
      "stateMutability": "view",
      "type": "function"
    },
    {
      "inputs": [
        {
          "internalType": "address",
          "name": "to",
          "type": "address"
        },
        {
          "internalType": "uint256",
          "name": "amount",
          "type": "uint256"
        }
      ],
      "name": "transfer",
      "outputs": [
        {
          "internalType": "bool",
          "name": "",
          "type": "bool"
        }
      ],
      "stateMutability": "nonpayable",
      "type": "function"
    },
    {
      "inputs": [
        {
          "internalType": "address",
          "name": "from",
          "type": "address"
        },
        {
          "internalType": "address",
          "name": "to",
          "type": "address"
        },
        {
          "internalType": "uint256",
          "name": "amount",
          "type": "uint256"
        }
      ],
      "name": "transferFrom",
      "outputs": [
        {
          "internalType": "bool",
          "name": "",
          "type": "bool"
        }
      ],
      "stateMutability": "nonpayable",
      "type": "function"
    }
  ],
  "bytecode": "0x610160604052604051620057773803806200577783398181016040528101906200002a919062000f49565b82806040518060400160405280600181526020017f3100000000000000000000000000000000000000000000000000000000000000815250858581600390805190602001906200007c92919062000cc1565b5080600490805190602001906200009592919062000cc1565b505050620000b36005836200016e60201b620010c11790919060201c565b6101208181525050620000d66006826200016e60201b620010c11790919060201c565b6101408181525050818051906020012060e08181525050808051906020012061010081815250504660a0818152505062000115620001d260201b60201c565b608081815250503073ffffffffffffffffffffffffffffffffffffffff1660c08173ffffffffffffffffffffffffffffffffffffffff16815250505050506200016533826200022f60201b60201c565b50505062001629565b600060208351101562000194576200018c836200024a60201b60201c565b9050620001cc565b82620001ab83620002b760201b6200110c1760201c565b6000019080519060200190620001c392919062000cc1565b5060ff60001b90505b92915050565b60007f8b73c3c69bb8fe3d512ecc4cf759cc79239f7b179b0ffacaa9a75d522b39400f60e0516101005146306040516020016200021495949392919062001054565b60405160208183030381529060405280519060200120905090565b620002468282620002c160201b620011161760201c565b5050565b600080829050601f815111156200029a57826040517f305a27a90000000000000000000000000000000000000000000000000000000081526004016200029191906200110e565b60405180910390fd5b805181620002a89062001171565b60001c1760001b915050919050565b6000819050919050565b620002d882826200037f60201b620011a31760201c565b620002e8620004ed60201b60201c565b7bffffffffffffffffffffffffffffffffffffffffffffffffffffffff16620003166200051160201b60201c565b11156200035a576040517f08c379a0000000000000000000000000000000000000000000000000000000008152600401620003519062001257565b60405180910390fd5b62000379600b6200051b60201b620012fa17836200053360201b60201c565b50505050565b600073ffffffffffffffffffffffffffffffffffffffff168273ffffffffffffffffffffffffffffffffffffffff161415620003f2576040517f08c379a0000000000000000000000000000000000000000000000000000000008152600401620003e990620012c9565b60405180910390fd5b62000406600083836200085860201b60201c565b80600260008282546200041a91906200131a565b92505081905550806000808473ffffffffffffffffffffffffffffffffffffffff1673ffffffffffffffffffffffffffffffffffffffff168152602001908152602001600020600082825401925050819055508173ffffffffffffffffffffffffffffffffffffffff16600073ffffffffffffffffffffffffffffffffffffffff167fddf252ad1be2c89b69c2b068fc378daa952ba7f163c4a11628f55a4df523b3ef83604051620004cd919062001377565b60405180910390a3620004e9600083836200085d60201b60201c565b5050565b60007bffffffffffffffffffffffffffffffffffffffffffffffffffffffff905090565b6000600254905090565b600081836200052b91906200131a565b905092915050565b600080600085805490509050600080821462000603576200055e87600184036200087a60201b60201c565b6040518060400160405290816000820160009054906101000a900463ffffffff1663ffffffff1663ffffffff1681526020016000820160049054906101000a90047bffffffffffffffffffffffffffffffffffffffffffffffffffffffff167bffffffffffffffffffffffffffffffffffffffffffffffffffffffff167bffffffffffffffffffffffffffffffffffffffffffffffffffffffff16815250506200063f565b6040518060400160405280600063ffffffff16815260200160007bffffffffffffffffffffffffffffffffffffffffffffffffffffffff168152505b905080602001517bffffffffffffffffffffffffffffffffffffffffffffffffffffffff1693506200067284868860201c565b9250600082118015620006a55750620006906200088f60201b60201c565b65ffffffffffff16816000015163ffffffff16145b156200072d57620006c183620008ac60201b620013101760201c565b620006d688600185036200087a60201b60201c565b60000160046101000a8154817bffffffffffffffffffffffffffffffffffffffffffffffffffffffff02191690837bffffffffffffffffffffffffffffffffffffffffffffffffffffffff1602179055506200084e565b866040518060400160405280620007666200074d6200088f60201b60201c565b65ffffffffffff166200091a60201b6200137b1760201c565b63ffffffff1681526020016200078786620008ac60201b620013101760201c565b7bffffffffffffffffffffffffffffffffffffffffffffffffffffffff168152509080600181540180825580915050600190039060005260206000200160009091909190915060008201518160000160006101000a81548163ffffffff021916908363ffffffff16021790555060208201518160000160046101000a8154817bffffffffffffffffffffffffffffffffffffffffffffffffffffffff02191690837bffffffffffffffffffffffffffffffffffffffffffffffffffffffff16021790555050505b5050935093915050565b505050565b620008758383836200097060201b620013ce1760201c565b505050565b60008260005281602060002001905092915050565b6000620008a743620009c060201b620013f91760201c565b905090565b60007bffffffffffffffffffffffffffffffffffffffffffffffffffffffff801682111562000912576040517f08c379a000000000000000000000000000000000000000000000000000000000815260040162000909906200140a565b60405180910390fd5b819050919050565b600063ffffffff801682111562000968576040517f08c379a00000000000000000000000000000000000000000000000000000000081526004016200095f90620014a2565b60405180910390fd5b819050919050565b6200098883838362000a1860201b6200144e1760201c565b620009bb6200099d8462000a1d60201b60201c565b620009ae8462000a1d60201b60201c565b8362000a8660201b60201c565b505050565b600065ffffffffffff801682111562000a10576040517f08c379a000000000000000000000000000000000000000000000000000000000815260040162000a07906200153a565b60405180910390fd5b819050919050565b505050565b6000600960008373ffffffffffffffffffffffffffffffffffffffff1673ffffffffffffffffffffffffffffffffffffffff16815260200190815260200160002060009054906101000a900473ffffffffffffffffffffffffffffffffffffffff169050919050565b8173ffffffffffffffffffffffffffffffffffffffff168373ffffffffffffffffffffffffffffffffffffffff161415801562000ac35750600081115b1562000ca457600073ffffffffffffffffffffffffffffffffffffffff168373ffffffffffffffffffffffffffffffffffffffff161462000bb65760008062000b5d600a60008773ffffffffffffffffffffffffffffffffffffffff1673ffffffffffffffffffffffffffffffffffffffff16815260200190815260200160002062000ca960201b6200145317856200053360201b60201c565b915091508473ffffffffffffffffffffffffffffffffffffffff167fdec2bacdd2f05b59de34da9b523dff8be42e5e38e818c82fdb0bae774387a724838360405162000bab9291906200155c565b60405180910390a250505b600073ffffffffffffffffffffffffffffffffffffffff168273ffffffffffffffffffffffffffffffffffffffff161462000ca35760008062000c4a600a60008673ffffffffffffffffffffffffffffffffffffffff1673ffffffffffffffffffffffffffffffffffffffff1681526020019081526020016000206200051b60201b620012fa17856200053360201b60201c565b915091508373ffffffffffffffffffffffffffffffffffffffff167fdec2bacdd2f05b59de34da9b523dff8be42e5e38e818c82fdb0bae774387a724838360405162000c989291906200155c565b60405180910390a250505b5b505050565b6000818362000cb9919062001589565b905092915050565b82805462000ccf90620015f3565b90600052602060002090601f01602090048101928262000cf3576000855562000d3f565b82601f1062000d0e57805160ff191683800117855562000d3f565b8280016001018555821562000d3f579182015b8281111562000d3e57825182559160200191906001019062000d21565b5b50905062000d4e919062000d52565b5090565b5b8082111562000d6d57600081600090555060010162000d53565b5090565b6000604051905090565b600080fd5b600080fd5b600080fd5b600080fd5b6000601f19601f8301169050919050565b7f4e487b7100000000000000000000000000000000000000000000000000000000600052604160045260246000fd5b62000dda8262000d8f565b810181811067ffffffffffffffff8211171562000dfc5762000dfb62000da0565b5b80604052505050565b600062000e1162000d71565b905062000e1f828262000dcf565b919050565b600067ffffffffffffffff82111562000e425762000e4162000da0565b5b62000e4d8262000d8f565b9050602081019050919050565b60005b8381101562000e7a57808201518184015260208101905062000e5d565b8381111562000e8a576000848401525b50505050565b600062000ea762000ea18462000e24565b62000e05565b90508281526020810184848401111562000ec65762000ec562000d8a565b5b62000ed384828562000e5a565b509392505050565b600082601f83011262000ef35762000ef262000d85565b5b815162000f0584826020860162000e90565b91505092915050565b6000819050919050565b62000f238162000f0e565b811462000f2f57600080fd5b50565b60008151905062000f438162000f18565b92915050565b60008060006060848603121562000f655762000f6462000d7b565b5b600084015167ffffffffffffffff81111562000f865762000f8562000d80565b5b62000f948682870162000edb565b935050602084015167ffffffffffffffff81111562000fb85762000fb762000d80565b5b62000fc68682870162000edb565b925050604062000fd98682870162000f32565b9150509250925092565b6000819050919050565b62000ff88162000fe3565b82525050565b620010098162000f0e565b82525050565b600073ffffffffffffffffffffffffffffffffffffffff82169050919050565b60006200103c826200100f565b9050919050565b6200104e816200102f565b82525050565b600060a0820190506200106b600083018862000fed565b6200107a602083018762000fed565b62001089604083018662000fed565b62001098606083018562000ffe565b620010a7608083018462001043565b9695505050505050565b600081519050919050565b600082825260208201905092915050565b6000620010da82620010b1565b620010e68185620010bc565b9350620010f881856020860162000e5a565b620011038162000d8f565b840191505092915050565b600060208201905081810360008301526200112a8184620010cd565b905092915050565b600081519050919050565b6000819050602082019050919050565b60006200115b825162000fe3565b80915050919050565b600082821b905092915050565b60006200117e8262001132565b826200118a846200113d565b905062001197816200114d565b92506020821015620011da57620011d57fffffffffffffffffffffffffffffffffffffffffffffffffffffffffffffffff8360200360080262001164565b831692505b5050919050565b7f4552433230566f7465733a20746f74616c20737570706c79207269736b73206f60008201527f766572666c6f77696e6720766f74657300000000000000000000000000000000602082015250565b60006200123f603083620010bc565b91506200124c82620011e1565b604082019050919050565b60006020820190508181036000830152620012728162001230565b9050919050565b7f45524332303a206d696e7420746f20746865207a65726f206164647265737300600082015250565b6000620012b1601f83620010bc565b9150620012be8262001279565b602082019050919050565b60006020820190508181036000830152620012e481620012a2565b9050919050565b7f4e487b7100000000000000000000000000000000000000000000000000000000600052601160045260246000fd5b6000620013278262000f0e565b9150620013348362000f0e565b9250827fffffffffffffffffffffffffffffffffffffffffffffffffffffffffffffffff038211156200136c576200136b620012eb565b5b828201905092915050565b60006020820190506200138e600083018462000ffe565b92915050565b7f53616665436173743a2076616c756520646f65736e27742066697420696e203260008201527f3234206269747300000000000000000000000000000000000000000000000000602082015250565b6000620013f2602783620010bc565b9150620013ff8262001394565b604082019050919050565b600060208201905081810360008301526200142581620013e3565b9050919050565b7f53616665436173743a2076616c756520646f65736e27742066697420696e203360008201527f3220626974730000000000000000000000000000000000000000000000000000602082015250565b60006200148a602683620010bc565b915062001497826200142c565b604082019050919050565b60006020820190508181036000830152620014bd816200147b565b9050919050565b7f53616665436173743a2076616c756520646f65736e27742066697420696e203460008201527f3820626974730000000000000000000000000000000000000000000000000000602082015250565b600062001522602683620010bc565b91506200152f82620014c4565b604082019050919050565b60006020820190508181036000830152620015558162001513565b9050919050565b600060408201905062001573600083018562000ffe565b62001582602083018462000ffe565b9392505050565b6000620015968262000f0e565b9150620015a38362000f0e565b925082821015620015b957620015b8620012eb565b5b828203905092915050565b7f4e487b7100000000000000000000000000000000000000000000000000000000600052602260045260246000fd5b600060028204905060018216806200160c57607f821691505b60208210811415620016235762001622620015c4565b5b50919050565b60805160a05160c05160e0516101005161012051610140516140f36200168460003960006109800152600061094c0152600061237501526000612354015260006119440152600061199a015260006119c301526140f36000f3fe608060405234801561001057600080fd5b50600436106101735760003560e01c806370a08231116100de5780639ab24eb011610097578063c3cda52011610071578063c3cda520146104ca578063d505accf146104e6578063dd62ed3e14610502578063f1127ed81461053257610173565b80639ab24eb01461043a578063a457c2d71461046a578063a9059cbb1461049a57610173565b806370a082311461034a5780637ecebe001461037a57806384b0196e146103aa5780638e539e8c146103ce57806391ddadf4146103fe57806395d89b411461041c57610173565b8063395093511161013057806339509351146102505780633a46b1a8146102805780634bf5d7e9146102b0578063587cde1e146102ce5780635c19a95c146102fe5780636fcfff451461031a57610173565b806306fdde0314610178578063095ea7b31461019657806318160ddd146101c657806323b872dd146101e4578063313ce567146102145780633644e51514610232575b600080fd5b610180610562565b60405161018d9190612ada565b60405180910390f35b6101b060048036038101906101ab9190612b95565b6105f4565b6040516101bd9190612bf0565b60405180910390f35b6101ce610617565b6040516101db9190612c1a565b60405180910390f35b6101fe60048036038101906101f99190612c35565b610621565b60405161020b9190612bf0565b60405180910390f35b61021c610650565b6040516102299190612ca4565b60405180910390f35b61023a610659565b6040516102479190612cd8565b60405180910390f35b61026a60048036038101906102659190612b95565b610668565b6040516102779190612bf0565b60405180910390f35b61029a60048036038101906102959190612b95565b61069f565b6040516102a79190612c1a565b60405180910390f35b6102b8610742565b6040516102c59190612ada565b60405180910390f35b6102e860048036038101906102e39190612cf3565b6107d0565b6040516102f59190612d2f565b60405180910390f35b61031860048036038101906103139190612cf3565b610839565b005b610334600480360381019061032f9190612cf3565b61084d565b6040516103419190612d69565b60405180910390f35b610364600480360381019061035f9190612cf3565b6108a1565b6040516103719190612c1a565b60405180910390f35b610394600480360381019061038f9190612cf3565b6108e9565b6040516103a19190612c1a565b60405180910390f35b6103b2610939565b6040516103c59796959493929190612e7d565b60405180910390f35b6103e860048036038101906103e39190612f01565b610a3b565b6040516103f59190612c1a565b60405180910390f35b610406610aa0565b6040516104139190612f4f565b60405180910390f35b610424610ab0565b6040516104319190612ada565b60405180910390f35b610454600480360381019061044f9190612cf3565b610b42565b6040516104619190612c1a565b60405180910390f35b610484600480360381019061047f9190612b95565b610c4a565b6040516104919190612bf0565b60405180910390f35b6104b460048036038101906104af9190612b95565b610cc1565b6040516104c19190612bf0565b60405180910390f35b6104e460048036038101906104df9190612fc2565b610ce4565b005b61050060048036038101906104fb919061304f565b610de8565b005b61051c600480360381019061051791906130f1565b610f2a565b6040516105299190612c1a565b60405180910390f35b61054c6004803603810190610547919061315d565b610fb1565b6040516105599190613212565b60405180910390f35b6060600380546105719061325c565b80601f016020809104026020016040519081016040528092919081815260200182805461059d9061325c565b80156105ea5780601f106105bf576101008083540402835291602001916105ea565b820191906000526020600020905b8154815290600101906020018083116105cd57829003601f168201915b5050505050905090565b6000806105ff611469565b905061060c818585611471565b600191505092915050565b6000600254905090565b60008061062c611469565b905061063985828561163c565b6106448585856116c8565b60019150509392505050565b60006012905090565b6000610663611940565b905090565b600080610673611469565b90506106948185856106858589610f2a565b61068f91906132bd565b611471565b600191505092915050565b60006106a9610aa0565b65ffffffffffff1682106106f2576040517f08c379a00000000000000000000000000000000000000000000000000000000081526004016106e99061335f565b60405180910390fd5b61073a600a60008573ffffffffffffffffffffffffffffffffffffffff1673ffffffffffffffffffffffffffffffffffffffff168152602001908152602001600020836119f7565b905092915050565b60604361074d610aa0565b65ffffffffffff1614610795576040517f08c379a000000000000000000000000000000000000000000000000000000000815260040161078c906133cb565b60405180910390fd5b6040518060400160405280601d81526020017f6d6f64653d626c6f636b6e756d6265722666726f6d3d64656661756c74000000815250905090565b6000600960008373ffffffffffffffffffffffffffffffffffffffff1673ffffffffffffffffffffffffffffffffffffffff16815260200190815260200160002060009054906101000a900473ffffffffffffffffffffffffffffffffffffffff169050919050565b61084a610844611469565b82611b3f565b50565b600061089a600a60008473ffffffffffffffffffffffffffffffffffffffff1673ffffffffffffffffffffffffffffffffffffffff1681526020019081526020016000208054905061137b565b9050919050565b60008060008373ffffffffffffffffffffffffffffffffffffffff1673ffffffffffffffffffffffffffffffffffffffff168152602001908152602001600020549050919050565b6000610932600760008473ffffffffffffffffffffffffffffffffffffffff1673ffffffffffffffffffffffffffffffffffffffff168152602001908152602001600020611c59565b9050919050565b60006060806000806000606061097960057f0000000000000000000000000000000000000000000000000000000000000000611c6790919063ffffffff16565b6109ad60067f0000000000000000000000000000000000000000000000000000000000000000611c6790919063ffffffff16565b46306000801b600067ffffffffffffffff8111156109ce576109cd6133eb565b5b6040519080825280602002602001820160405280156109fc5781602001602082028036833780820191505090505b507f0f00000000000000000000000000000000000000000000000000000000000000959493929190965096509650965096509650965090919293949596565b6000610a45610aa0565b65ffffffffffff168210610a8e576040517f08c379a0000000000000000000000000000000000000000000000000000000008152600401610a859061335f565b60405180910390fd5b610a99600b836119f7565b9050919050565b6000610aab436113f9565b905090565b606060048054610abf9061325c565b80601f0160208091040260200160405190810160405280929190818152602001828054610aeb9061325c565b8015610b385780601f10610b0d57610100808354040283529160200191610b38565b820191906000526020600020905b815481529060010190602001808311610b1b57829003601f168201915b5050505050905090565b600080600a60008473ffffffffffffffffffffffffffffffffffffffff1673ffffffffffffffffffffffffffffffffffffffff16815260200190815260200160002080549050905060008114610c2157600a60008473ffffffffffffffffffffffffffffffffffffffff1673ffffffffffffffffffffffffffffffffffffffff1681526020019081526020016000206001820381548110610be657610be561341a565b5b9060005260206000200160000160049054906101000a90047bffffffffffffffffffffffffffffffffffffffffffffffffffffffff16610c24565b60005b7bffffffffffffffffffffffffffffffffffffffffffffffffffffffff16915050919050565b600080610c55611469565b90506000610c638286610f2a565b905083811015610ca8576040517f08c379a0000000000000000000000000000000000000000000000000000000008152600401610c9f906134bb565b60405180910390fd5b610cb58286868403611471565b60019250505092915050565b600080610ccc611469565b9050610cd98185856116c8565b600191505092915050565b83421115610d27576040517f08c379a0000000000000000000000000000000000000000000000000000000008152600401610d1e90613527565b60405180910390fd5b6000610d89610d817fe48329057bfd03d55e49b547132e39cffd9c1820ad7b9d4c5307691425d15adf898989604051602001610d669493929190613547565b60405160208183030381529060405280519060200120611d17565b858585611d31565b9050610d9481611d5c565b8614610dd5576040517f08c379a0000000000000000000000000000000000000000000000000000000008152600401610dcc906135d8565b60405180910390fd5b610ddf8188611b3f565b50505050505050565b83421115610e2b576040517f08c379a0000000000000000000000000000000000000000000000000000000008152600401610e2290613644565b60405180910390fd5b60007f6e71edae12b1b97f4d1f60370fef10105fa2faae0126114a169c64845d6126c9888888610e5a8c611d5c565b89604051602001610e7096959493929190613664565b6040516020818303038152906040528051906020012090506000610e9382611d17565b90506000610ea382878787611d31565b90508973ffffffffffffffffffffffffffffffffffffffff168173ffffffffffffffffffffffffffffffffffffffff1614610f13576040517f08c379a0000000000000000000000000000000000000000000000000000000008152600401610f0a90613711565b60405180910390fd5b610f1e8a8a8a611471565b50505050505050505050565b6000600160008473ffffffffffffffffffffffffffffffffffffffff1673ffffffffffffffffffffffffffffffffffffffff16815260200190815260200160002060008373ffffffffffffffffffffffffffffffffffffffff1673ffffffffffffffffffffffffffffffffffffffff16815260200190815260200160002054905092915050565b610fb9612960565b600a60008473ffffffffffffffffffffffffffffffffffffffff1673ffffffffffffffffffffffffffffffffffffffff1681526020019081526020016000208263ffffffff16815481106110105761100f61341a565b5b906000526020600020016040518060400160405290816000820160009054906101000a900463ffffffff1663ffffffff1663ffffffff1681526020016000820160049054906101000a90047bffffffffffffffffffffffffffffffffffffffffffffffffffffffff167bffffffffffffffffffffffffffffffffffffffffffffffffffffffff167bffffffffffffffffffffffffffffffffffffffffffffffffffffffff1681525050905092915050565b60006020835110156110dd576110d683611dba565b9050611106565b826110e78361110c565b60000190805190602001906110fd92919061299e565b5060ff60001b90505b92915050565b6000819050919050565b61112082826111a3565b611128611e22565b7bffffffffffffffffffffffffffffffffffffffffffffffffffffffff1661114e610617565b111561118f576040517f08c379a0000000000000000000000000000000000000000000000000000000008152600401611186906137a3565b60405180910390fd5b61119d600b6112fa83611e46565b50505050565b600073ffffffffffffffffffffffffffffffffffffffff168273ffffffffffffffffffffffffffffffffffffffff161415611213576040517f08c379a000000000000000000000000000000000000000000000000000000000815260040161120a9061380f565b60405180910390fd5b61121f60008383612121565b806002600082825461123191906132bd565b92505081905550806000808473ffffffffffffffffffffffffffffffffffffffff1673ffffffffffffffffffffffffffffffffffffffff168152602001908152602001600020600082825401925050819055508173ffffffffffffffffffffffffffffffffffffffff16600073ffffffffffffffffffffffffffffffffffffffff167fddf252ad1be2c89b69c2b068fc378daa952ba7f163c4a11628f55a4df523b3ef836040516112e29190612c1a565b60405180910390a36112f660008383612126565b5050565b6000818361130891906132bd565b905092915050565b60007bffffffffffffffffffffffffffffffffffffffffffffffffffffffff8016821115611373576040517f08c379a000000000000000000000000000000000000000000000000000000000815260040161136a906138a1565b60405180910390fd5b819050919050565b600063ffffffff80168211156113c6576040517f08c379a00000000000000000000000000000000000000000000000000000000081526004016113bd90613933565b60405180910390fd5b819050919050565b6113d983838361144e565b6113f46113e5846107d0565b6113ee846107d0565b83612136565b505050565b600065ffffffffffff8016821115611446576040517f08c379a000000000000000000000000000000000000000000000000000000000815260040161143d906139c5565b60405180910390fd5b819050919050565b505050565b6000818361146191906139e5565b905092915050565b600033905090565b600073ffffffffffffffffffffffffffffffffffffffff168373ffffffffffffffffffffffffffffffffffffffff1614156114e1576040517f08c379a00000000000000000000000000000000000000000000000000000000081526004016114d890613a8b565b60405180910390fd5b600073ffffffffffffffffffffffffffffffffffffffff168273ffffffffffffffffffffffffffffffffffffffff161415611551576040517f08c379a000000000000000000000000000000000000000000000000000000000815260040161154890613b1d565b60405180910390fd5b80600160008573ffffffffffffffffffffffffffffffffffffffff1673ffffffffffffffffffffffffffffffffffffffff16815260200190815260200160002060008473ffffffffffffffffffffffffffffffffffffffff1673ffffffffffffffffffffffffffffffffffffffff168152602001908152602001600020819055508173ffffffffffffffffffffffffffffffffffffffff168373ffffffffffffffffffffffffffffffffffffffff167f8c5be1e5ebec7d5bd14f71427d1e84f3dd0314c0f7b2291e5b200ac8c7c3b9258360405161162f9190612c1a565b60405180910390a3505050565b60006116488484610f2a565b90507fffffffffffffffffffffffffffffffffffffffffffffffffffffffffffffffff81146116c257818110156116b4576040517f08c379a00000000000000000000000000000000000000000000000000000000081526004016116ab90613b89565b60405180910390fd5b6116c18484848403611471565b5b50505050565b600073ffffffffffffffffffffffffffffffffffffffff168373ffffffffffffffffffffffffffffffffffffffff161415611738576040517f08c379a000000000000000000000000000000000000000000000000000000000815260040161172f90613c1b565b60405180910390fd5b600073ffffffffffffffffffffffffffffffffffffffff168273ffffffffffffffffffffffffffffffffffffffff1614156117a8576040517f08c379a000000000000000000000000000000000000000000000000000000000815260040161179f90613cad565b60405180910390fd5b6117b3838383612121565b60008060008573ffffffffffffffffffffffffffffffffffffffff1673ffffffffffffffffffffffffffffffffffffffff16815260200190815260200160002054905081811015611839576040517f08c379a000000000000000000000000000000000000000000000000000000000815260040161183090613d3f565b60405180910390fd5b8181036000808673ffffffffffffffffffffffffffffffffffffffff1673ffffffffffffffffffffffffffffffffffffffff16815260200190815260200160002081905550816000808573ffffffffffffffffffffffffffffffffffffffff1673ffffffffffffffffffffffffffffffffffffffff168152602001908152602001600020600082825401925050819055508273ffffffffffffffffffffffffffffffffffffffff168473ffffffffffffffffffffffffffffffffffffffff167fddf252ad1be2c89b69c2b068fc378daa952ba7f163c4a11628f55a4df523b3ef846040516119279190612c1a565b60405180910390a361193a848484612126565b50505050565b60007f000000000000000000000000000000000000000000000000000000000000000073ffffffffffffffffffffffffffffffffffffffff163073ffffffffffffffffffffffffffffffffffffffff161480156119bc57507f000000000000000000000000000000000000000000000000000000000000000046145b156119e9577f000000000000000000000000000000000000000000000000000000000000000090506119f4565b6119f161232f565b90505b90565b600080838054905090506000808290506005831115611a6d576000611a1b846123c5565b84611a2691906139e5565b905085611a3388836124bf565b60000160009054906101000a900463ffffffff1663ffffffff161115611a5b57809150611a6b565b600181611a6891906132bd565b92505b505b5b80821015611acd576000611a8283836124d4565b905085611a8f88836124bf565b60000160009054906101000a900463ffffffff1663ffffffff161115611ab757809150611ac7565b600181611ac491906132bd565b92505b50611a6e565b60008114611b1357611ae286600183036124bf565b60000160049054906101000a90047bffffffffffffffffffffffffffffffffffffffffffffffffffffffff16611b16565b60005b7bffffffffffffffffffffffffffffffffffffffffffffffffffffffff16935050505092915050565b6000611b4a836107d0565b90506000611b57846108a1565b905082600960008673ffffffffffffffffffffffffffffffffffffffff1673ffffffffffffffffffffffffffffffffffffffff16815260200190815260200160002060006101000a81548173ffffffffffffffffffffffffffffffffffffffff021916908373ffffffffffffffffffffffffffffffffffffffff1602179055508273ffffffffffffffffffffffffffffffffffffffff168273ffffffffffffffffffffffffffffffffffffffff168573ffffffffffffffffffffffffffffffffffffffff167f3134e8a2e6d97e929a7e54011ea5485d7d196dd5f0ba4d4ef95803e8e3fc257f60405160405180910390a4611c53828483612136565b50505050565b600081600001549050919050565b606060ff60001b8314611c8457611c7d836124fa565b9050611d11565b818054611c909061325c565b80601f0160208091040260200160405190810160405280929190818152602001828054611cbc9061325c565b8015611d095780601f10611cde57610100808354040283529160200191611d09565b820191906000526020600020905b815481529060010190602001808311611cec57829003601f168201915b505050505090505b92915050565b6000611d2a611d24611940565b8361256e565b9050919050565b6000806000611d42878787876125af565b91509150611d4f81612692565b8192505050949350505050565b600080600760008473ffffffffffffffffffffffffffffffffffffffff1673ffffffffffffffffffffffffffffffffffffffff1681526020019081526020016000209050611da981611c59565b9150611db481612800565b50919050565b600080829050601f81511115611e0757826040517f305a27a9000000000000000000000000000000000000000000000000000000008152600401611dfe9190612ada565b60405180910390fd5b805181611e1390613d9c565b60001c1760001b915050919050565b60007bffffffffffffffffffffffffffffffffffffffffffffffffffffffff905090565b6000806000858054905090506000808214611f0c57611e6887600184036124bf565b6040518060400160405290816000820160009054906101000a900463ffffffff1663ffffffff1663ffffffff1681526020016000820160049054906101000a90047bffffffffffffffffffffffffffffffffffffffffffffffffffffffff167bffffffffffffffffffffffffffffffffffffffffffffffffffffffff167bffffffffffffffffffffffffffffffffffffffffffffffffffffffff1681525050611f48565b6040518060400160405280600063ffffffff16815260200160007bffffffffffffffffffffffffffffffffffffffffffffffffffffffff168152505b905080602001517bffffffffffffffffffffffffffffffffffffffffffffffffffffffff169350611f7d84868863ffffffff16565b9250600082118015611fa75750611f92610aa0565b65ffffffffffff16816000015163ffffffff16145b1561201857611fb583611310565b611fc288600185036124bf565b60000160046101000a8154817bffffffffffffffffffffffffffffffffffffffffffffffffffffffff02191690837bffffffffffffffffffffffffffffffffffffffffffffffffffffffff160217905550612117565b86604051806040016040528061203c61202f610aa0565b65ffffffffffff1661137b565b63ffffffff16815260200161205086611310565b7bffffffffffffffffffffffffffffffffffffffffffffffffffffffff168152509080600181540180825580915050600190039060005260206000200160009091909190915060008201518160000160006101000a81548163ffffffff021916908363ffffffff16021790555060208201518160000160046101000a8154817bffffffffffffffffffffffffffffffffffffffffffffffffffffffff02191690837bffffffffffffffffffffffffffffffffffffffffffffffffffffffff16021790555050505b5050935093915050565b505050565b6121318383836113ce565b505050565b8173ffffffffffffffffffffffffffffffffffffffff168373ffffffffffffffffffffffffffffffffffffffff16141580156121725750600081115b1561232a57600073ffffffffffffffffffffffffffffffffffffffff168373ffffffffffffffffffffffffffffffffffffffff1614612250576000806121f9600a60008773ffffffffffffffffffffffffffffffffffffffff1673ffffffffffffffffffffffffffffffffffffffff16815260200190815260200160002061145385611e46565b915091508473ffffffffffffffffffffffffffffffffffffffff167fdec2bacdd2f05b59de34da9b523dff8be42e5e38e818c82fdb0bae774387a7248383604051612245929190613e03565b60405180910390a250505b600073ffffffffffffffffffffffffffffffffffffffff168273ffffffffffffffffffffffffffffffffffffffff1614612329576000806122d2600a60008673ffffffffffffffffffffffffffffffffffffffff1673ffffffffffffffffffffffffffffffffffffffff1681526020019081526020016000206112fa85611e46565b915091508373ffffffffffffffffffffffffffffffffffffffff167fdec2bacdd2f05b59de34da9b523dff8be42e5e38e818c82fdb0bae774387a724838360405161231e929190613e03565b60405180910390a250505b5b505050565b60007f8b73c3c69bb8fe3d512ecc4cf759cc79239f7b179b0ffacaa9a75d522b39400f7f00000000000000000000000000000000000000000000000000000000000000007f000000000000000000000000000000000000000000000000000000000000000046306040516020016123aa959493929190613e2c565b60405160208183030381529060405280519060200120905090565b6000808214156123d857600090506124ba565b600060016123e584612816565b901c6001901b905060018184816123ff576123fe613e7f565b5b048201901c9050600181848161241857612417613e7f565b5b048201901c9050600181848161243157612430613e7f565b5b048201901c9050600181848161244a57612449613e7f565b5b048201901c9050600181848161246357612462613e7f565b5b048201901c9050600181848161247c5761247b613e7f565b5b048201901c9050600181848161249557612494613e7f565b5b048201901c90506124b6818285816124b0576124af613e7f565b5b046128f7565b9150505b919050565b60008260005281602060002001905092915050565b600060028284186124e59190613eae565b8284166124f291906132bd565b905092915050565b6060600061250783612910565b90506000602067ffffffffffffffff811115612526576125256133eb565b5b6040519080825280601f01601f1916602001820160405280156125585781602001600182028036833780820191505090505b5090508181528360208201528092505050919050565b60006040517f190100000000000000000000000000000000000000000000000000000000000081528360028201528260228201526042812091505092915050565b6000807f7fffffffffffffffffffffffffffffff5d576e7357a4501ddfe92f46681b20a08360001c11156125ea576000600391509150612689565b60006001878787876040516000815260200160405260405161260f9493929190613edf565b6020604051602081039080840390855afa158015612631573d6000803e3d6000fd5b505050602060405103519050600073ffffffffffffffffffffffffffffffffffffffff168173ffffffffffffffffffffffffffffffffffffffff16141561268057600060019250925050612689565b80600092509250505b94509492505050565b600060048111156126a6576126a5613f24565b5b8160048111156126b9576126b8613f24565b5b14156126c4576127fd565b600160048111156126d8576126d7613f24565b5b8160048111156126eb576126ea613f24565b5b141561272c576040517f08c379a000000000000000000000000000000000000000000000000000000000815260040161272390613f9f565b60405180910390fd5b600260048111156127405761273f613f24565b5b81600481111561275357612752613f24565b5b1415612794576040517f08c379a000000000000000000000000000000000000000000000000000000000815260040161278b9061400b565b60405180910390fd5b600360048111156127a8576127a7613f24565b5b8160048111156127bb576127ba613f24565b5b14156127fc576040517f08c379a00000000000000000000000000000000000000000000000000000000081526004016127f39061409d565b60405180910390fd5b5b50565b6001816000016000828254019250508190555050565b600080600090506000608084901c111561283857608083901c92506080810190505b6000604084901c111561285357604083901c92506040810190505b6000602084901c111561286e57602083901c92506020810190505b6000601084901c111561288957601083901c92506010810190505b6000600884901c11156128a457600883901c92506008810190505b6000600484901c11156128bf57600483901c92506004810190505b6000600284901c11156128da57600283901c92506002810190505b6000600184901c11156128ee576001810190505b80915050919050565b60008183106129065781612908565b825b905092915050565b60008060ff8360001c169050601f811115612957576040517fb3512b0c00000000000000000000000000000000000000000000000000000000815260040160405180910390fd5b80915050919050565b6040518060400160405280600063ffffffff16815260200160007bffffffffffffffffffffffffffffffffffffffffffffffffffffffff1681525090565b8280546129aa9061325c565b90600052602060002090601f0160209004810192826129cc5760008555612a13565b82601f106129e557805160ff1916838001178555612a13565b82800160010185558215612a13579182015b82811115612a125782518255916020019190600101906129f7565b5b509050612a209190612a24565b5090565b5b80821115612a3d576000816000905550600101612a25565b5090565b600081519050919050565b600082825260208201905092915050565b60005b83811015612a7b578082015181840152602081019050612a60565b83811115612a8a576000848401525b50505050565b6000601f19601f8301169050919050565b6000612aac82612a41565b612ab68185612a4c565b9350612ac6818560208601612a5d565b612acf81612a90565b840191505092915050565b60006020820190508181036000830152612af48184612aa1565b905092915050565b600080fd5b600073ffffffffffffffffffffffffffffffffffffffff82169050919050565b6000612b2c82612b01565b9050919050565b612b3c81612b21565b8114612b4757600080fd5b50565b600081359050612b5981612b33565b92915050565b6000819050919050565b612b7281612b5f565b8114612b7d57600080fd5b50565b600081359050612b8f81612b69565b92915050565b60008060408385031215612bac57612bab612afc565b5b6000612bba85828601612b4a565b9250506020612bcb85828601612b80565b9150509250929050565b60008115159050919050565b612bea81612bd5565b82525050565b6000602082019050612c056000830184612be1565b92915050565b612c1481612b5f565b82525050565b6000602082019050612c2f6000830184612c0b565b92915050565b600080600060608486031215612c4e57612c4d612afc565b5b6000612c5c86828701612b4a565b9350506020612c6d86828701612b4a565b9250506040612c7e86828701612b80565b9150509250925092565b600060ff82169050919050565b612c9e81612c88565b82525050565b6000602082019050612cb96000830184612c95565b92915050565b6000819050919050565b612cd281612cbf565b82525050565b6000602082019050612ced6000830184612cc9565b92915050565b600060208284031215612d0957612d08612afc565b5b6000612d1784828501612b4a565b91505092915050565b612d2981612b21565b82525050565b6000602082019050612d446000830184612d20565b92915050565b600063ffffffff82169050919050565b612d6381612d4a565b82525050565b6000602082019050612d7e6000830184612d5a565b92915050565b60007fff0000000000000000000000000000000000000000000000000000000000000082169050919050565b612db981612d84565b82525050565b600081519050919050565b600082825260208201905092915050565b6000819050602082019050919050565b612df481612b5f565b82525050565b6000612e068383612deb565b60208301905092915050565b6000602082019050919050565b6000612e2a82612dbf565b612e348185612dca565b9350612e3f83612ddb565b8060005b83811015612e70578151612e578882612dfa565b9750612e6283612e12565b925050600181019050612e43565b5085935050505092915050565b600060e082019050612e92600083018a612db0565b8181036020830152612ea48189612aa1565b90508181036040830152612eb88188612aa1565b9050612ec76060830187612c0b565b612ed46080830186612d20565b612ee160a0830185612cc9565b81810360c0830152612ef38184612e1f565b905098975050505050505050565b600060208284031215612f1757612f16612afc565b5b6000612f2584828501612b80565b91505092915050565b600065ffffffffffff82169050919050565b612f4981612f2e565b82525050565b6000602082019050612f646000830184612f40565b92915050565b612f7381612c88565b8114612f7e57600080fd5b50565b600081359050612f9081612f6a565b92915050565b612f9f81612cbf565b8114612faa57600080fd5b50565b600081359050612fbc81612f96565b92915050565b60008060008060008060c08789031215612fdf57612fde612afc565b5b6000612fed89828a01612b4a565b9650506020612ffe89828a01612b80565b955050604061300f89828a01612b80565b945050606061302089828a01612f81565b935050608061303189828a01612fad565b92505060a061304289828a01612fad565b9150509295509295509295565b600080600080600080600060e0888a03121561306e5761306d612afc565b5b600061307c8a828b01612b4a565b975050602061308d8a828b01612b4a565b965050604061309e8a828b01612b80565b95505060606130af8a828b01612b80565b94505060806130c08a828b01612f81565b93505060a06130d18a828b01612fad565b92505060c06130e28a828b01612fad565b91505092959891949750929550565b6000806040838503121561310857613107612afc565b5b600061311685828601612b4a565b925050602061312785828601612b4a565b9150509250929050565b61313a81612d4a565b811461314557600080fd5b50565b60008135905061315781613131565b92915050565b6000806040838503121561317457613173612afc565b5b600061318285828601612b4a565b925050602061319385828601613148565b9150509250929050565b6131a681612d4a565b82525050565b60007bffffffffffffffffffffffffffffffffffffffffffffffffffffffff82169050919050565b6131dd816131ac565b82525050565b6040820160008201516131f9600085018261319d565b50602082015161320c60208501826131d4565b50505050565b600060408201905061322760008301846131e3565b92915050565b7f4e487b7100000000000000000000000000000000000000000000000000000000600052602260045260246000fd5b6000600282049050600182168061327457607f821691505b602082108114156132885761328761322d565b5b50919050565b7f4e487b7100000000000000000000000000000000000000000000000000000000600052601160045260246000fd5b60006132c882612b5f565b91506132d383612b5f565b9250827fffffffffffffffffffffffffffffffffffffffffffffffffffffffffffffffff038211156133085761330761328e565b5b828201905092915050565b7f4552433230566f7465733a20667574757265206c6f6f6b757000000000000000600082015250565b6000613349601983612a4c565b915061335482613313565b602082019050919050565b600060208201905081810360008301526133788161333c565b9050919050565b7f4552433230566f7465733a2062726f6b656e20636c6f636b206d6f6465000000600082015250565b60006133b5601d83612a4c565b91506133c08261337f565b602082019050919050565b600060208201905081810360008301526133e4816133a8565b9050919050565b7f4e487b7100000000000000000000000000000000000000000000000000000000600052604160045260246000fd5b7f4e487b7100000000000000000000000000000000000000000000000000000000600052603260045260246000fd5b7f45524332303a2064656372656173656420616c6c6f77616e63652062656c6f7760008201527f207a65726f000000000000000000000000000000000000000000000000000000602082015250565b60006134a5602583612a4c565b91506134b082613449565b604082019050919050565b600060208201905081810360008301526134d481613498565b9050919050565b7f4552433230566f7465733a207369676e61747572652065787069726564000000600082015250565b6000613511601d83612a4c565b915061351c826134db565b602082019050919050565b6000602082019050818103600083015261354081613504565b9050919050565b600060808201905061355c6000830187612cc9565b6135696020830186612d20565b6135766040830185612c0b565b6135836060830184612c0b565b95945050505050565b7f4552433230566f7465733a20696e76616c6964206e6f6e636500000000000000600082015250565b60006135c2601983612a4c565b91506135cd8261358c565b602082019050919050565b600060208201905081810360008301526135f1816135b5565b9050919050565b7f45524332305065726d69743a206578706972656420646561646c696e65000000600082015250565b600061362e601d83612a4c565b9150613639826135f8565b602082019050919050565b6000602082019050818103600083015261365d81613621565b9050919050565b600060c0820190506136796000830189612cc9565b6136866020830188612d20565b6136936040830187612d20565b6136a06060830186612c0b565b6136ad6080830185612c0b565b6136ba60a0830184612c0b565b979650505050505050565b7f45524332305065726d69743a20696e76616c6964207369676e61747572650000600082015250565b60006136fb601e83612a4c565b9150613706826136c5565b602082019050919050565b6000602082019050818103600083015261372a816136ee565b9050919050565b7f4552433230566f7465733a20746f74616c20737570706c79207269736b73206f60008201527f766572666c6f77696e6720766f74657300000000000000000000000000000000602082015250565b600061378d603083612a4c565b915061379882613731565b604082019050919050565b600060208201905081810360008301526137bc81613780565b9050919050565b7f45524332303a206d696e7420746f20746865207a65726f206164647265737300600082015250565b60006137f9601f83612a4c565b9150613804826137c3565b602082019050919050565b60006020820190508181036000830152613828816137ec565b9050919050565b7f53616665436173743a2076616c756520646f65736e27742066697420696e203260008201527f3234206269747300000000000000000000000000000000000000000000000000602082015250565b600061388b602783612a4c565b91506138968261382f565b604082019050919050565b600060208201905081810360008301526138ba8161387e565b9050919050565b7f53616665436173743a2076616c756520646f65736e27742066697420696e203360008201527f3220626974730000000000000000000000000000000000000000000000000000602082015250565b600061391d602683612a4c565b9150613928826138c1565b604082019050919050565b6000602082019050818103600083015261394c81613910565b9050919050565b7f53616665436173743a2076616c756520646f65736e27742066697420696e203460008201527f3820626974730000000000000000000000000000000000000000000000000000602082015250565b60006139af602683612a4c565b91506139ba82613953565b604082019050919050565b600060208201905081810360008301526139de816139a2565b9050919050565b60006139f082612b5f565b91506139fb83612b5f565b925082821015613a0e57613a0d61328e565b5b828203905092915050565b7f45524332303a20617070726f76652066726f6d20746865207a65726f2061646460008201527f7265737300000000000000000000000000000000000000000000000000000000602082015250565b6000613a75602483612a4c565b9150613a8082613a19565b604082019050919050565b60006020820190508181036000830152613aa481613a68565b9050919050565b7f45524332303a20617070726f766520746f20746865207a65726f20616464726560008201527f7373000000000000000000000000000000000000000000000000000000000000602082015250565b6000613b07602283612a4c565b9150613b1282613aab565b604082019050919050565b60006020820190508181036000830152613b3681613afa565b9050919050565b7f45524332303a20696e73756666696369656e7420616c6c6f77616e6365000000600082015250565b6000613b73601d83612a4c565b9150613b7e82613b3d565b602082019050919050565b60006020820190508181036000830152613ba281613b66565b9050919050565b7f45524332303a207472616e736665722066726f6d20746865207a65726f20616460008201527f6472657373000000000000000000000000000000000000000000000000000000602082015250565b6000613c05602583612a4c565b9150613c1082613ba9565b604082019050919050565b60006020820190508181036000830152613c3481613bf8565b9050919050565b7f45524332303a207472616e7366657220746f20746865207a65726f206164647260008201527f6573730000000000000000000000000000000000000000000000000000000000602082015250565b6000613c97602383612a4c565b9150613ca282613c3b565b604082019050919050565b60006020820190508181036000830152613cc681613c8a565b9050919050565b7f45524332303a207472616e7366657220616d6f756e742065786365656473206260008201527f616c616e63650000000000000000000000000000000000000000000000000000602082015250565b6000613d29602683612a4c565b9150613d3482613ccd565b604082019050919050565b60006020820190508181036000830152613d5881613d1c565b9050919050565b600081519050919050565b6000819050602082019050919050565b6000613d868251612cbf565b80915050919050565b600082821b905092915050565b6000613da782613d5f565b82613db184613d6a565b9050613dbc81613d7a565b92506020821015613dfc57613df77fffffffffffffffffffffffffffffffffffffffffffffffffffffffffffffffff83602003600802613d8f565b831692505b5050919050565b6000604082019050613e186000830185612c0b565b613e256020830184612c0b565b9392505050565b600060a082019050613e416000830188612cc9565b613e4e6020830187612cc9565b613e5b6040830186612cc9565b613e686060830185612c0b565b613e756080830184612d20565b9695505050505050565b7f4e487b7100000000000000000000000000000000000000000000000000000000600052601260045260246000fd5b6000613eb982612b5f565b9150613ec483612b5f565b925082613ed457613ed3613e7f565b5b828204905092915050565b6000608082019050613ef46000830187612cc9565b613f016020830186612c95565b613f0e6040830185612cc9565b613f1b6060830184612cc9565b95945050505050565b7f4e487b7100000000000000000000000000000000000000000000000000000000600052602160045260246000fd5b7f45434453413a20696e76616c6964207369676e61747572650000000000000000600082015250565b6000613f89601883612a4c565b9150613f9482613f53565b602082019050919050565b60006020820190508181036000830152613fb881613f7c565b9050919050565b7f45434453413a20696e76616c6964207369676e6174757265206c656e67746800600082015250565b6000613ff5601f83612a4c565b915061400082613fbf565b602082019050919050565b6000602082019050818103600083015261402481613fe8565b9050919050565b7f45434453413a20696e76616c6964207369676e6174757265202773272076616c60008201527f7565000000000000000000000000000000000000000000000000000000000000602082015250565b6000614087602283612a4c565b91506140928261402b565b604082019050919050565b600060208201905081810360008301526140b68161407a565b905091905056fea2646970667358221220e83758e35d5a11dc205d82785497ee38a6ee9fd5bed4d956fc44c3f2d3cb617c64736f6c634300080a0033",
  "linkReferences": {},
  "deployedLinkReferences": {}
}