{
  "_format": "hh-sol-artifact-1",
  "contractName": "PausableERC1155",
  "sourceName": "contracts/ERC1155/ERC1155-pausable.sol",
  "abi": [
    {
      "inputs": [
        {
          "internalType": "string",
          "name": "_uri",
          "type": "string"
        }
      ],
      "stateMutability": "payable",
      "type": "constructor"
    },
    {
      "anonymous": false,
      "inputs": [
        {
          "indexed": true,
          "internalType": "address",
          "name": "account",
          "type": "address"
        },
        {
          "indexed": true,
          "internalType": "address",
          "name": "operator",
          "type": "address"
        },
        {
          "indexed": false,
          "internalType": "bool",
          "name": "approved",
          "type": "bool"
        }
      ],
      "name": "ApprovalForAll",
      "type": "event"
    },
    {
      "anonymous": false,
      "inputs": [
        {
          "indexed": true,
          "internalType": "address",
          "name": "previousOwner",
          "type": "address"
        },
        {
          "indexed": true,
          "internalType": "address",
          "name": "newOwner",
          "type": "address"
        }
      ],
      "name": "OwnershipTransferred",
      "type": "event"
    },
    {
      "anonymous": false,
      "inputs": [
        {
          "indexed": false,
          "internalType": "address",
          "name": "account",
          "type": "address"
        }
      ],
      "name": "Paused",
      "type": "event"
    },
    {
      "anonymous": false,
      "inputs": [
        {
          "indexed": true,
          "internalType": "address",
          "name": "operator",
          "type": "address"
        },
        {
          "indexed": true,
          "internalType": "address",
          "name": "from",
          "type": "address"
        },
        {
          "indexed": true,
          "internalType": "address",
          "name": "to",
          "type": "address"
        },
        {
          "indexed": false,
          "internalType": "uint256[]",
          "name": "ids",
          "type": "uint256[]"
        },
        {
          "indexed": false,
          "internalType": "uint256[]",
          "name": "values",
          "type": "uint256[]"
        }
      ],
      "name": "TransferBatch",
      "type": "event"
    },
    {
      "anonymous": false,
      "inputs": [
        {
          "indexed": true,
          "internalType": "address",
          "name": "operator",
          "type": "address"
        },
        {
          "indexed": true,
          "internalType": "address",
          "name": "from",
          "type": "address"
        },
        {
          "indexed": true,
          "internalType": "address",
          "name": "to",
          "type": "address"
        },
        {
          "indexed": false,
          "internalType": "uint256",
          "name": "id",
          "type": "uint256"
        },
        {
          "indexed": false,
          "internalType": "uint256",
          "name": "value",
          "type": "uint256"
        }
      ],
      "name": "TransferSingle",
      "type": "event"
    },
    {
      "anonymous": false,
      "inputs": [
        {
          "indexed": false,
          "internalType": "string",
          "name": "value",
          "type": "string"
        },
        {
          "indexed": true,
          "internalType": "uint256",
          "name": "id",
          "type": "uint256"
        }
      ],
      "name": "URI",
      "type": "event"
    },
    {
      "anonymous": false,
      "inputs": [
        {
          "indexed": false,
          "internalType": "address",
          "name": "account",
          "type": "address"
        }
      ],
      "name": "Unpaused",
      "type": "event"
    },
    {
      "inputs": [
        {
          "internalType": "address",
          "name": "account",
          "type": "address"
        },
        {
          "internalType": "uint256",
          "name": "id",
          "type": "uint256"
        }
      ],
      "name": "balanceOf",
      "outputs": [
        {
          "internalType": "uint256",
          "name": "",
          "type": "uint256"
        }
      ],
      "stateMutability": "view",
      "type": "function"
    },
    {
      "inputs": [
        {
          "internalType": "address[]",
          "name": "accounts",
          "type": "address[]"
        },
        {
          "internalType": "uint256[]",
          "name": "ids",
          "type": "uint256[]"
        }
      ],
      "name": "balanceOfBatch",
      "outputs": [
        {
          "internalType": "uint256[]",
          "name": "",
          "type": "uint256[]"
        }
      ],
      "stateMutability": "view",
      "type": "function"
    },
    {
      "inputs": [
        {
          "internalType": "uint256",
          "name": "id",
          "type": "uint256"
        }
      ],
      "name": "exists",
      "outputs": [
        {
          "internalType": "bool",
          "name": "",
          "type": "bool"
        }
      ],
      "stateMutability": "view",
      "type": "function"
    },
    {
      "inputs": [
        {
          "internalType": "address",
          "name": "account",
          "type": "address"
        },
        {
          "internalType": "address",
          "name": "operator",
          "type": "address"
        }
      ],
      "name": "isApprovedForAll",
      "outputs": [
        {
          "internalType": "bool",
          "name": "",
          "type": "bool"
        }
      ],
      "stateMutability": "view",
      "type": "function"
    },
    {
      "inputs": [
        {
          "internalType": "address",
          "name": "account",
          "type": "address"
        },
        {
          "internalType": "uint256",
          "name": "id",
          "type": "uint256"
        },
        {
          "internalType": "uint256",
          "name": "amount",
          "type": "uint256"
        },
        {
          "internalType": "bytes",
          "name": "data",
          "type": "bytes"
        }
      ],
      "name": "mint",
      "outputs": [],
      "stateMutability": "nonpayable",
      "type": "function"
    },
    {
      "inputs": [
        {
          "internalType": "address",
          "name": "to",
          "type": "address"
        },
        {
          "internalType": "uint256[]",
          "name": "ids",
          "type": "uint256[]"
        },
        {
          "internalType": "uint256[]",
          "name": "amounts",
          "type": "uint256[]"
        },
        {
          "internalType": "bytes",
          "name": "data",
          "type": "bytes"
        }
      ],
      "name": "mintBatch",
      "outputs": [],
      "stateMutability": "nonpayable",
      "type": "function"
    },
    {
      "inputs": [],
      "name": "owner",
      "outputs": [
        {
          "internalType": "address",
          "name": "",
          "type": "address"
        }
      ],
      "stateMutability": "view",
      "type": "function"
    },
    {
      "inputs": [],
      "name": "pause",
      "outputs": [],
      "stateMutability": "nonpayable",
      "type": "function"
    },
    {
      "inputs": [],
      "name": "paused",
      "outputs": [
        {
          "internalType": "bool",
          "name": "",
          "type": "bool"
        }
      ],
      "stateMutability": "view",
      "type": "function"
    },
    {
      "inputs": [],
      "name": "renounceOwnership",
      "outputs": [],
      "stateMutability": "nonpayable",
      "type": "function"
    },
    {
      "inputs": [
        {
          "internalType": "address",
          "name": "from",
          "type": "address"
        },
        {
          "internalType": "address",
          "name": "to",
          "type": "address"
        },
        {
          "internalType": "uint256[]",
          "name": "ids",
          "type": "uint256[]"
        },
        {
          "internalType": "uint256[]",
          "name": "amounts",
          "type": "uint256[]"
        },
        {
          "internalType": "bytes",
          "name": "data",
          "type": "bytes"
        }
      ],
      "name": "safeBatchTransferFrom",
      "outputs": [],
      "stateMutability": "nonpayable",
      "type": "function"
    },
    {
      "inputs": [
        {
          "internalType": "address",
          "name": "from",
          "type": "address"
        },
        {
          "internalType": "address",
          "name": "to",
          "type": "address"
        },
        {
          "internalType": "uint256",
          "name": "id",
          "type": "uint256"
        },
        {
          "internalType": "uint256",
          "name": "amount",
          "type": "uint256"
        },
        {
          "internalType": "bytes",
          "name": "data",
          "type": "bytes"
        }
      ],
      "name": "safeTransferFrom",
      "outputs": [],
      "stateMutability": "nonpayable",
      "type": "function"
    },
    {
      "inputs": [
        {
          "internalType": "address",
          "name": "operator",
          "type": "address"
        },
        {
          "internalType": "bool",
          "name": "approved",
          "type": "bool"
        }
      ],
      "name": "setApprovalForAll",
      "outputs": [],
      "stateMutability": "nonpayable",
      "type": "function"
    },
    {
      "inputs": [
        {
          "internalType": "string",
          "name": "newuri",
          "type": "string"
        }
      ],
      "name": "setURI",
      "outputs": [],
      "stateMutability": "nonpayable",
      "type": "function"
    },
    {
      "inputs": [
        {
          "internalType": "bytes4",
          "name": "interfaceId",
          "type": "bytes4"
        }
      ],
      "name": "supportsInterface",
      "outputs": [
        {
          "internalType": "bool",
          "name": "",
          "type": "bool"
        }
      ],
      "stateMutability": "view",
      "type": "function"
    },
    {
      "inputs": [
        {
          "internalType": "uint256",
          "name": "id",
          "type": "uint256"
        }
      ],
      "name": "totalSupply",
      "outputs": [
        {
          "internalType": "uint256",
          "name": "",
          "type": "uint256"
        }
      ],
      "stateMutability": "view",
      "type": "function"
    },
    {
      "inputs": [
        {
          "internalType": "address",
          "name": "newOwner",
          "type": "address"
        }
      ],
      "name": "transferOwnership",
      "outputs": [],
      "stateMutability": "nonpayable",
      "type": "function"
    },
    {
      "inputs": [],
      "name": "unpause",
      "outputs": [],
      "stateMutability": "nonpayable",
      "type": "function"
    },
    {
      "inputs": [
        {
          "internalType": "uint256",
          "name": "",
          "type": "uint256"
        }
      ],
      "name": "uri",
      "outputs": [
        {
          "internalType": "string",
          "name": "",
          "type": "string"
        }
      ],
      "stateMutability": "view",
      "type": "function"
    }
  ],
  "bytecode": "0x608060405260405162003b7638038062003b768339818101604052810190620000299190620003b5565b806200003b816200007e60201b60201c565b506200005c620000506200009a60201b60201c565b620000a260201b60201c565b6000600360146101000a81548160ff021916908315150217905550506200046b565b80600290805190602001906200009692919062000168565b5050565b600033905090565b6000600360009054906101000a900473ffffffffffffffffffffffffffffffffffffffff16905081600360006101000a81548173ffffffffffffffffffffffffffffffffffffffff021916908373ffffffffffffffffffffffffffffffffffffffff1602179055508173ffffffffffffffffffffffffffffffffffffffff168173ffffffffffffffffffffffffffffffffffffffff167f8be0079c531659141344cd1fd0a4f28419497f9722a3daafe3b4186f6b6457e060405160405180910390a35050565b828054620001769062000435565b90600052602060002090601f0160209004810192826200019a5760008555620001e6565b82601f10620001b557805160ff1916838001178555620001e6565b82800160010185558215620001e6579182015b82811115620001e5578251825591602001919060010190620001c8565b5b509050620001f59190620001f9565b5090565b5b8082111562000214576000816000905550600101620001fa565b5090565b6000604051905090565b600080fd5b600080fd5b600080fd5b600080fd5b6000601f19601f8301169050919050565b7f4e487b7100000000000000000000000000000000000000000000000000000000600052604160045260246000fd5b620002818262000236565b810181811067ffffffffffffffff82111715620002a357620002a262000247565b5b80604052505050565b6000620002b862000218565b9050620002c6828262000276565b919050565b600067ffffffffffffffff821115620002e957620002e862000247565b5b620002f48262000236565b9050602081019050919050565b60005b838110156200032157808201518184015260208101905062000304565b8381111562000331576000848401525b50505050565b60006200034e6200034884620002cb565b620002ac565b9050828152602081018484840111156200036d576200036c62000231565b5b6200037a84828562000301565b509392505050565b600082601f8301126200039a57620003996200022c565b5b8151620003ac84826020860162000337565b91505092915050565b600060208284031215620003ce57620003cd62000222565b5b600082015167ffffffffffffffff811115620003ef57620003ee62000227565b5b620003fd8482850162000382565b91505092915050565b7f4e487b7100000000000000000000000000000000000000000000000000000000600052602260045260246000fd5b600060028204905060018216806200044e57607f821691505b6020821081141562000465576200046462000406565b5b50919050565b6136fb806200047b6000396000f3fe608060405234801561001057600080fd5b50600436106101205760003560e01c80635c975abb116100ad578063a22cb46511610071578063a22cb465146102df578063bd85b039146102fb578063e985e9c51461032b578063f242432a1461035b578063f2fde38b1461037757610120565b80635c975abb14610273578063715018a614610291578063731133e91461029b5780638456cb59146102b75780638da5cb5b146102c157610120565b80631f7fdffa116100f45780631f7fdffa146101d15780632eb2c2d6146101ed5780633f4ba83a146102095780634e1273f4146102135780634f558e791461024357610120565b8062fdd58e1461012557806301ffc9a71461015557806302fe5305146101855780630e89341c146101a1575b600080fd5b61013f600480360381019061013a9190612017565b610393565b60405161014c9190612066565b60405180910390f35b61016f600480360381019061016a91906120d9565b61045c565b60405161017c9190612121565b60405180910390f35b61019f600480360381019061019a9190612282565b61053e565b005b6101bb60048036038101906101b691906122cb565b610552565b6040516101c89190612380565b60405180910390f35b6101eb60048036038101906101e6919061250b565b6105e6565b005b610207600480360381019061020291906125c6565b610600565b005b6102116106a1565b005b61022d60048036038101906102289190612758565b6106b3565b60405161023a919061288e565b60405180910390f35b61025d600480360381019061025891906122cb565b6107cc565b60405161026a9190612121565b60405180910390f35b61027b6107e0565b6040516102889190612121565b60405180910390f35b6102996107f7565b005b6102b560048036038101906102b091906128b0565b61080b565b005b6102bf610825565b005b6102c9610837565b6040516102d69190612942565b60405180910390f35b6102f960048036038101906102f49190612989565b610861565b005b610315600480360381019061031091906122cb565b610877565b6040516103229190612066565b60405180910390f35b610345600480360381019061034091906129c9565b610894565b6040516103529190612121565b60405180910390f35b61037560048036038101906103709190612a09565b610928565b005b610391600480360381019061038c9190612aa0565b6109c9565b005b60008073ffffffffffffffffffffffffffffffffffffffff168373ffffffffffffffffffffffffffffffffffffffff161415610404576040517f08c379a00000000000000000000000000000000000000000000000000000000081526004016103fb90612b3f565b60405180910390fd5b60008083815260200190815260200160002060008473ffffffffffffffffffffffffffffffffffffffff1673ffffffffffffffffffffffffffffffffffffffff16815260200190815260200160002054905092915050565b60007fd9b67a26000000000000000000000000000000000000000000000000000000007bffffffffffffffffffffffffffffffffffffffffffffffffffffffff1916827bffffffffffffffffffffffffffffffffffffffffffffffffffffffff1916148061052757507f0e89341c000000000000000000000000000000000000000000000000000000007bffffffffffffffffffffffffffffffffffffffffffffffffffffffff1916827bffffffffffffffffffffffffffffffffffffffffffffffffffffffff1916145b80610537575061053682610a4d565b5b9050919050565b610546610ab7565b61054f81610b35565b50565b60606002805461056190612b8e565b80601f016020809104026020016040519081016040528092919081815260200182805461058d90612b8e565b80156105da5780601f106105af576101008083540402835291602001916105da565b820191906000526020600020905b8154815290600101906020018083116105bd57829003601f168201915b50505050509050919050565b6105ee610ab7565b6105fa84848484610b4f565b50505050565b610608610d7c565b73ffffffffffffffffffffffffffffffffffffffff168573ffffffffffffffffffffffffffffffffffffffff16148061064e575061064d85610648610d7c565b610894565b5b61068d576040517f08c379a000000000000000000000000000000000000000000000000000000000815260040161068490612c32565b60405180910390fd5b61069a8585858585610d84565b5050505050565b6106a9610ab7565b6106b16110a6565b565b606081518351146106f9576040517f08c379a00000000000000000000000000000000000000000000000000000000081526004016106f090612cc4565b60405180910390fd5b6000835167ffffffffffffffff81111561071657610715612157565b5b6040519080825280602002602001820160405280156107445781602001602082028036833780820191505090505b50905060005b84518110156107c15761079185828151811061076957610768612ce4565b5b602002602001015185838151811061078457610783612ce4565b5b6020026020010151610393565b8282815181106107a4576107a3612ce4565b5b602002602001018181525050806107ba90612d42565b905061074a565b508091505092915050565b6000806107d883610877565b119050919050565b6000600360149054906101000a900460ff16905090565b6107ff610ab7565b6108096000611109565b565b610813610ab7565b61081f848484846111cf565b50505050565b61082d610ab7565b610835611380565b565b6000600360009054906101000a900473ffffffffffffffffffffffffffffffffffffffff16905090565b61087361086c610d7c565b83836113e3565b5050565b600060046000838152602001908152602001600020549050919050565b6000600160008473ffffffffffffffffffffffffffffffffffffffff1673ffffffffffffffffffffffffffffffffffffffff16815260200190815260200160002060008373ffffffffffffffffffffffffffffffffffffffff1673ffffffffffffffffffffffffffffffffffffffff16815260200190815260200160002060009054906101000a900460ff16905092915050565b610930610d7c565b73ffffffffffffffffffffffffffffffffffffffff168573ffffffffffffffffffffffffffffffffffffffff161480610976575061097585610970610d7c565b610894565b5b6109b5576040517f08c379a00000000000000000000000000000000000000000000000000000000081526004016109ac90612c32565b60405180910390fd5b6109c28585858585611550565b5050505050565b6109d1610ab7565b600073ffffffffffffffffffffffffffffffffffffffff168173ffffffffffffffffffffffffffffffffffffffff161415610a41576040517f08c379a0000000000000000000000000000000000000000000000000000000008152600401610a3890612dfd565b60405180910390fd5b610a4a81611109565b50565b60007f01ffc9a7000000000000000000000000000000000000000000000000000000007bffffffffffffffffffffffffffffffffffffffffffffffffffffffff1916827bffffffffffffffffffffffffffffffffffffffffffffffffffffffff1916149050919050565b610abf610d7c565b73ffffffffffffffffffffffffffffffffffffffff16610add610837565b73ffffffffffffffffffffffffffffffffffffffff1614610b33576040517f08c379a0000000000000000000000000000000000000000000000000000000008152600401610b2a90612e69565b60405180910390fd5b565b8060029080519060200190610b4b929190611ecc565b5050565b600073ffffffffffffffffffffffffffffffffffffffff168473ffffffffffffffffffffffffffffffffffffffff161415610bbf576040517f08c379a0000000000000000000000000000000000000000000000000000000008152600401610bb690612efb565b60405180910390fd5b8151835114610c03576040517f08c379a0000000000000000000000000000000000000000000000000000000008152600401610bfa90612f8d565b60405180910390fd5b6000610c0d610d7c565b9050610c1e816000878787876117ec565b60005b8451811015610cd757838181518110610c3d57610c3c612ce4565b5b6020026020010151600080878481518110610c5b57610c5a612ce4565b5b6020026020010151815260200190815260200160002060008873ffffffffffffffffffffffffffffffffffffffff1673ffffffffffffffffffffffffffffffffffffffff1681526020019081526020016000206000828254610cbd9190612fad565b925050819055508080610ccf90612d42565b915050610c21565b508473ffffffffffffffffffffffffffffffffffffffff16600073ffffffffffffffffffffffffffffffffffffffff168273ffffffffffffffffffffffffffffffffffffffff167f4a39dc06d4c0dbc64b70af90fd698a233a518aa5d07e595d983b8c0526c8f7fb8787604051610d4f929190613003565b60405180910390a4610d668160008787878761180a565b610d7581600087878787611812565b5050505050565b600033905090565b8151835114610dc8576040517f08c379a0000000000000000000000000000000000000000000000000000000008152600401610dbf90612f8d565b60405180910390fd5b600073ffffffffffffffffffffffffffffffffffffffff168473ffffffffffffffffffffffffffffffffffffffff161415610e38576040517f08c379a0000000000000000000000000000000000000000000000000000000008152600401610e2f906130ac565b60405180910390fd5b6000610e42610d7c565b9050610e528187878787876117ec565b60005b8451811015611003576000858281518110610e7357610e72612ce4565b5b602002602001015190506000858381518110610e9257610e91612ce4565b5b60200260200101519050600080600084815260200190815260200160002060008b73ffffffffffffffffffffffffffffffffffffffff1673ffffffffffffffffffffffffffffffffffffffff16815260200190815260200160002054905081811015610f33576040517f08c379a0000000000000000000000000000000000000000000000000000000008152600401610f2a9061313e565b60405180910390fd5b81810360008085815260200190815260200160002060008c73ffffffffffffffffffffffffffffffffffffffff1673ffffffffffffffffffffffffffffffffffffffff168152602001908152602001600020819055508160008085815260200190815260200160002060008b73ffffffffffffffffffffffffffffffffffffffff1673ffffffffffffffffffffffffffffffffffffffff1681526020019081526020016000206000828254610fe89190612fad565b9250508190555050505080610ffc90612d42565b9050610e55565b508473ffffffffffffffffffffffffffffffffffffffff168673ffffffffffffffffffffffffffffffffffffffff168273ffffffffffffffffffffffffffffffffffffffff167f4a39dc06d4c0dbc64b70af90fd698a233a518aa5d07e595d983b8c0526c8f7fb878760405161107a929190613003565b60405180910390a461109081878787878761180a565b61109e818787878787611812565b505050505050565b6110ae6119ea565b6000600360146101000a81548160ff0219169083151502179055507f5db9ee0a495bf2e6ff9c91a7834c1ba4fdd244a5e8aa4e537bd38aeae4b073aa6110f2610d7c565b6040516110ff9190612942565b60405180910390a1565b6000600360009054906101000a900473ffffffffffffffffffffffffffffffffffffffff16905081600360006101000a81548173ffffffffffffffffffffffffffffffffffffffff021916908373ffffffffffffffffffffffffffffffffffffffff1602179055508173ffffffffffffffffffffffffffffffffffffffff168173ffffffffffffffffffffffffffffffffffffffff167f8be0079c531659141344cd1fd0a4f28419497f9722a3daafe3b4186f6b6457e060405160405180910390a35050565b600073ffffffffffffffffffffffffffffffffffffffff168473ffffffffffffffffffffffffffffffffffffffff16141561123f576040517f08c379a000000000000000000000000000000000000000000000000000000000815260040161123690612efb565b60405180910390fd5b6000611249610d7c565b9050600061125685611a33565b9050600061126385611a33565b9050611274836000898585896117ec565b8460008088815260200190815260200160002060008973ffffffffffffffffffffffffffffffffffffffff1673ffffffffffffffffffffffffffffffffffffffff16815260200190815260200160002060008282546112d39190612fad565b925050819055508673ffffffffffffffffffffffffffffffffffffffff16600073ffffffffffffffffffffffffffffffffffffffff168473ffffffffffffffffffffffffffffffffffffffff167fc3d58168c5ae7397731d063d5bbf3d657854427343f4c083240f7aacaa2d0f62898960405161135192919061315e565b60405180910390a46113688360008985858961180a565b61137783600089898989611aad565b50505050505050565b611388611c85565b6001600360146101000a81548160ff0219169083151502179055507f62e78cea01bee320cd4e420270b5ea74000d11b0c9f74754ebdbfc544b05a2586113cc610d7c565b6040516113d99190612942565b60405180910390a1565b8173ffffffffffffffffffffffffffffffffffffffff168373ffffffffffffffffffffffffffffffffffffffff161415611452576040517f08c379a0000000000000000000000000000000000000000000000000000000008152600401611449906131f9565b60405180910390fd5b80600160008573ffffffffffffffffffffffffffffffffffffffff1673ffffffffffffffffffffffffffffffffffffffff16815260200190815260200160002060008473ffffffffffffffffffffffffffffffffffffffff1673ffffffffffffffffffffffffffffffffffffffff16815260200190815260200160002060006101000a81548160ff0219169083151502179055508173ffffffffffffffffffffffffffffffffffffffff168373ffffffffffffffffffffffffffffffffffffffff167f17307eab39ab6107e8899845ad3d59bd9653f200f220920489ca2b5937696c31836040516115439190612121565b60405180910390a3505050565b600073ffffffffffffffffffffffffffffffffffffffff168473ffffffffffffffffffffffffffffffffffffffff1614156115c0576040517f08c379a00000000000000000000000000000000000000000000000000000000081526004016115b7906130ac565b60405180910390fd5b60006115ca610d7c565b905060006115d785611a33565b905060006115e485611a33565b90506115f48389898585896117ec565b600080600088815260200190815260200160002060008a73ffffffffffffffffffffffffffffffffffffffff1673ffffffffffffffffffffffffffffffffffffffff1681526020019081526020016000205490508581101561168b576040517f08c379a00000000000000000000000000000000000000000000000000000000081526004016116829061313e565b60405180910390fd5b85810360008089815260200190815260200160002060008b73ffffffffffffffffffffffffffffffffffffffff1673ffffffffffffffffffffffffffffffffffffffff168152602001908152602001600020819055508560008089815260200190815260200160002060008a73ffffffffffffffffffffffffffffffffffffffff1673ffffffffffffffffffffffffffffffffffffffff16815260200190815260200160002060008282546117409190612fad565b925050819055508773ffffffffffffffffffffffffffffffffffffffff168973ffffffffffffffffffffffffffffffffffffffff168573ffffffffffffffffffffffffffffffffffffffff167fc3d58168c5ae7397731d063d5bbf3d657854427343f4c083240f7aacaa2d0f628a8a6040516117bd92919061315e565b60405180910390a46117d3848a8a86868a61180a565b6117e1848a8a8a8a8a611aad565b505050505050505050565b6117f4611c85565b611802868686868686611ccf565b505050505050565b505050505050565b6118318473ffffffffffffffffffffffffffffffffffffffff16611ea1565b156119e2578373ffffffffffffffffffffffffffffffffffffffff1663bc197c8187878686866040518663ffffffff1660e01b815260040161187795949392919061326e565b6020604051808303816000875af19250505080156118b357506040513d601f19601f820116820180604052508101906118b091906132eb565b60015b611959576118bf613325565b806308c379a0141561191c57506118d4613347565b806118df575061191e565b806040517f08c379a00000000000000000000000000000000000000000000000000000000081526004016119139190612380565b60405180910390fd5b505b6040517f08c379a00000000000000000000000000000000000000000000000000000000081526004016119509061344f565b60405180910390fd5b63bc197c8160e01b7bffffffffffffffffffffffffffffffffffffffffffffffffffffffff1916817bffffffffffffffffffffffffffffffffffffffffffffffffffffffff1916146119e0576040517f08c379a00000000000000000000000000000000000000000000000000000000081526004016119d7906134e1565b60405180910390fd5b505b505050505050565b6119f26107e0565b611a31576040517f08c379a0000000000000000000000000000000000000000000000000000000008152600401611a289061354d565b60405180910390fd5b565b60606000600167ffffffffffffffff811115611a5257611a51612157565b5b604051908082528060200260200182016040528015611a805781602001602082028036833780820191505090505b5090508281600081518110611a9857611a97612ce4565b5b60200260200101818152505080915050919050565b611acc8473ffffffffffffffffffffffffffffffffffffffff16611ea1565b15611c7d578373ffffffffffffffffffffffffffffffffffffffff1663f23a6e6187878686866040518663ffffffff1660e01b8152600401611b1295949392919061356d565b6020604051808303816000875af1925050508015611b4e57506040513d601f19601f82011682018060405250810190611b4b91906132eb565b60015b611bf457611b5a613325565b806308c379a01415611bb75750611b6f613347565b80611b7a5750611bb9565b806040517f08c379a0000000000000000000000000000000000000000000000000000000008152600401611bae9190612380565b60405180910390fd5b505b6040517f08c379a0000000000000000000000000000000000000000000000000000000008152600401611beb9061344f565b60405180910390fd5b63f23a6e6160e01b7bffffffffffffffffffffffffffffffffffffffffffffffffffffffff1916817bffffffffffffffffffffffffffffffffffffffffffffffffffffffff191614611c7b576040517f08c379a0000000000000000000000000000000000000000000000000000000008152600401611c72906134e1565b60405180910390fd5b505b505050505050565b611c8d6107e0565b15611ccd576040517f08c379a0000000000000000000000000000000000000000000000000000000008152600401611cc490613613565b60405180910390fd5b565b611cdd868686868686611ec4565b600073ffffffffffffffffffffffffffffffffffffffff168573ffffffffffffffffffffffffffffffffffffffff161415611d8f5760005b8351811015611d8d57828181518110611d3157611d30612ce4565b5b602002602001015160046000868481518110611d5057611d4f612ce4565b5b602002602001015181526020019081526020016000206000828254611d759190612fad565b9250508190555080611d8690612d42565b9050611d15565b505b600073ffffffffffffffffffffffffffffffffffffffff168473ffffffffffffffffffffffffffffffffffffffff161415611e995760005b8351811015611e97576000848281518110611de557611de4612ce4565b5b602002602001015190506000848381518110611e0457611e03612ce4565b5b6020026020010151905060006004600084815260200190815260200160002054905081811015611e69576040517f08c379a0000000000000000000000000000000000000000000000000000000008152600401611e60906136a5565b60405180910390fd5b818103600460008581526020019081526020016000208190555050505080611e9090612d42565b9050611dc7565b505b505050505050565b6000808273ffffffffffffffffffffffffffffffffffffffff163b119050919050565b505050505050565b828054611ed890612b8e565b90600052602060002090601f016020900481019282611efa5760008555611f41565b82601f10611f1357805160ff1916838001178555611f41565b82800160010185558215611f41579182015b82811115611f40578251825591602001919060010190611f25565b5b509050611f4e9190611f52565b5090565b5b80821115611f6b576000816000905550600101611f53565b5090565b6000604051905090565b600080fd5b600080fd5b600073ffffffffffffffffffffffffffffffffffffffff82169050919050565b6000611fae82611f83565b9050919050565b611fbe81611fa3565b8114611fc957600080fd5b50565b600081359050611fdb81611fb5565b92915050565b6000819050919050565b611ff481611fe1565b8114611fff57600080fd5b50565b60008135905061201181611feb565b92915050565b6000806040838503121561202e5761202d611f79565b5b600061203c85828601611fcc565b925050602061204d85828601612002565b9150509250929050565b61206081611fe1565b82525050565b600060208201905061207b6000830184612057565b92915050565b60007fffffffff0000000000000000000000000000000000000000000000000000000082169050919050565b6120b681612081565b81146120c157600080fd5b50565b6000813590506120d3816120ad565b92915050565b6000602082840312156120ef576120ee611f79565b5b60006120fd848285016120c4565b91505092915050565b60008115159050919050565b61211b81612106565b82525050565b60006020820190506121366000830184612112565b92915050565b600080fd5b600080fd5b6000601f19601f8301169050919050565b7f4e487b7100000000000000000000000000000000000000000000000000000000600052604160045260246000fd5b61218f82612146565b810181811067ffffffffffffffff821117156121ae576121ad612157565b5b80604052505050565b60006121c1611f6f565b90506121cd8282612186565b919050565b600067ffffffffffffffff8211156121ed576121ec612157565b5b6121f682612146565b9050602081019050919050565b82818337600083830152505050565b6000612225612220846121d2565b6121b7565b90508281526020810184848401111561224157612240612141565b5b61224c848285612203565b509392505050565b600082601f8301126122695761226861213c565b5b8135612279848260208601612212565b91505092915050565b60006020828403121561229857612297611f79565b5b600082013567ffffffffffffffff8111156122b6576122b5611f7e565b5b6122c284828501612254565b91505092915050565b6000602082840312156122e1576122e0611f79565b5b60006122ef84828501612002565b91505092915050565b600081519050919050565b600082825260208201905092915050565b60005b83811015612332578082015181840152602081019050612317565b83811115612341576000848401525b50505050565b6000612352826122f8565b61235c8185612303565b935061236c818560208601612314565b61237581612146565b840191505092915050565b6000602082019050818103600083015261239a8184612347565b905092915050565b600067ffffffffffffffff8211156123bd576123bc612157565b5b602082029050602081019050919050565b600080fd5b60006123e66123e1846123a2565b6121b7565b90508083825260208201905060208402830185811115612409576124086123ce565b5b835b81811015612432578061241e8882612002565b84526020840193505060208101905061240b565b5050509392505050565b600082601f8301126124515761245061213c565b5b81356124618482602086016123d3565b91505092915050565b600067ffffffffffffffff82111561248557612484612157565b5b61248e82612146565b9050602081019050919050565b60006124ae6124a98461246a565b6121b7565b9050828152602081018484840111156124ca576124c9612141565b5b6124d5848285612203565b509392505050565b600082601f8301126124f2576124f161213c565b5b813561250284826020860161249b565b91505092915050565b6000806000806080858703121561252557612524611f79565b5b600061253387828801611fcc565b945050602085013567ffffffffffffffff81111561255457612553611f7e565b5b6125608782880161243c565b935050604085013567ffffffffffffffff81111561258157612580611f7e565b5b61258d8782880161243c565b925050606085013567ffffffffffffffff8111156125ae576125ad611f7e565b5b6125ba878288016124dd565b91505092959194509250565b600080600080600060a086880312156125e2576125e1611f79565b5b60006125f088828901611fcc565b955050602061260188828901611fcc565b945050604086013567ffffffffffffffff81111561262257612621611f7e565b5b61262e8882890161243c565b935050606086013567ffffffffffffffff81111561264f5761264e611f7e565b5b61265b8882890161243c565b925050608086013567ffffffffffffffff81111561267c5761267b611f7e565b5b612688888289016124dd565b9150509295509295909350565b600067ffffffffffffffff8211156126b0576126af612157565b5b602082029050602081019050919050565b60006126d46126cf84612695565b6121b7565b905080838252602082019050602084028301858111156126f7576126f66123ce565b5b835b81811015612720578061270c8882611fcc565b8452602084019350506020810190506126f9565b5050509392505050565b600082601f83011261273f5761273e61213c565b5b813561274f8482602086016126c1565b91505092915050565b6000806040838503121561276f5761276e611f79565b5b600083013567ffffffffffffffff81111561278d5761278c611f7e565b5b6127998582860161272a565b925050602083013567ffffffffffffffff8111156127ba576127b9611f7e565b5b6127c68582860161243c565b9150509250929050565b600081519050919050565b600082825260208201905092915050565b6000819050602082019050919050565b61280581611fe1565b82525050565b600061281783836127fc565b60208301905092915050565b6000602082019050919050565b600061283b826127d0565b61284581856127db565b9350612850836127ec565b8060005b83811015612881578151612868888261280b565b975061287383612823565b925050600181019050612854565b5085935050505092915050565b600060208201905081810360008301526128a88184612830565b905092915050565b600080600080608085870312156128ca576128c9611f79565b5b60006128d887828801611fcc565b94505060206128e987828801612002565b93505060406128fa87828801612002565b925050606085013567ffffffffffffffff81111561291b5761291a611f7e565b5b612927878288016124dd565b91505092959194509250565b61293c81611fa3565b82525050565b60006020820190506129576000830184612933565b92915050565b61296681612106565b811461297157600080fd5b50565b6000813590506129838161295d565b92915050565b600080604083850312156129a05761299f611f79565b5b60006129ae85828601611fcc565b92505060206129bf85828601612974565b9150509250929050565b600080604083850312156129e0576129df611f79565b5b60006129ee85828601611fcc565b92505060206129ff85828601611fcc565b9150509250929050565b600080600080600060a08688031215612a2557612a24611f79565b5b6000612a3388828901611fcc565b9550506020612a4488828901611fcc565b9450506040612a5588828901612002565b9350506060612a6688828901612002565b925050608086013567ffffffffffffffff811115612a8757612a86611f7e565b5b612a93888289016124dd565b9150509295509295909350565b600060208284031215612ab657612ab5611f79565b5b6000612ac484828501611fcc565b91505092915050565b7f455243313135353a2061646472657373207a65726f206973206e6f742061207660008201527f616c6964206f776e657200000000000000000000000000000000000000000000602082015250565b6000612b29602a83612303565b9150612b3482612acd565b604082019050919050565b60006020820190508181036000830152612b5881612b1c565b9050919050565b7f4e487b7100000000000000000000000000000000000000000000000000000000600052602260045260246000fd5b60006002820490506001821680612ba657607f821691505b60208210811415612bba57612bb9612b5f565b5b50919050565b7f455243313135353a2063616c6c6572206973206e6f7420746f6b656e206f776e60008201527f6572206f7220617070726f766564000000000000000000000000000000000000602082015250565b6000612c1c602e83612303565b9150612c2782612bc0565b604082019050919050565b60006020820190508181036000830152612c4b81612c0f565b9050919050565b7f455243313135353a206163636f756e747320616e6420696473206c656e67746860008201527f206d69736d617463680000000000000000000000000000000000000000000000602082015250565b6000612cae602983612303565b9150612cb982612c52565b604082019050919050565b60006020820190508181036000830152612cdd81612ca1565b9050919050565b7f4e487b7100000000000000000000000000000000000000000000000000000000600052603260045260246000fd5b7f4e487b7100000000000000000000000000000000000000000000000000000000600052601160045260246000fd5b6000612d4d82611fe1565b91507fffffffffffffffffffffffffffffffffffffffffffffffffffffffffffffffff821415612d8057612d7f612d13565b5b600182019050919050565b7f4f776e61626c653a206e6577206f776e657220697320746865207a65726f206160008201527f6464726573730000000000000000000000000000000000000000000000000000602082015250565b6000612de7602683612303565b9150612df282612d8b565b604082019050919050565b60006020820190508181036000830152612e1681612dda565b9050919050565b7f4f776e61626c653a2063616c6c6572206973206e6f7420746865206f776e6572600082015250565b6000612e53602083612303565b9150612e5e82612e1d565b602082019050919050565b60006020820190508181036000830152612e8281612e46565b9050919050565b7f455243313135353a206d696e7420746f20746865207a65726f2061646472657360008201527f7300000000000000000000000000000000000000000000000000000000000000602082015250565b6000612ee5602183612303565b9150612ef082612e89565b604082019050919050565b60006020820190508181036000830152612f1481612ed8565b9050919050565b7f455243313135353a2069647320616e6420616d6f756e7473206c656e6774682060008201527f6d69736d61746368000000000000000000000000000000000000000000000000602082015250565b6000612f77602883612303565b9150612f8282612f1b565b604082019050919050565b60006020820190508181036000830152612fa681612f6a565b9050919050565b6000612fb882611fe1565b9150612fc383611fe1565b9250827fffffffffffffffffffffffffffffffffffffffffffffffffffffffffffffffff03821115612ff857612ff7612d13565b5b828201905092915050565b6000604082019050818103600083015261301d8185612830565b905081810360208301526130318184612830565b90509392505050565b7f455243313135353a207472616e7366657220746f20746865207a65726f20616460008201527f6472657373000000000000000000000000000000000000000000000000000000602082015250565b6000613096602583612303565b91506130a18261303a565b604082019050919050565b600060208201905081810360008301526130c581613089565b9050919050565b7f455243313135353a20696e73756666696369656e742062616c616e636520666f60008201527f72207472616e7366657200000000000000000000000000000000000000000000602082015250565b6000613128602a83612303565b9150613133826130cc565b604082019050919050565b600060208201905081810360008301526131578161311b565b9050919050565b60006040820190506131736000830185612057565b6131806020830184612057565b9392505050565b7f455243313135353a2073657474696e6720617070726f76616c2073746174757360008201527f20666f722073656c660000000000000000000000000000000000000000000000602082015250565b60006131e3602983612303565b91506131ee82613187565b604082019050919050565b60006020820190508181036000830152613212816131d6565b9050919050565b600081519050919050565b600082825260208201905092915050565b600061324082613219565b61324a8185613224565b935061325a818560208601612314565b61326381612146565b840191505092915050565b600060a0820190506132836000830188612933565b6132906020830187612933565b81810360408301526132a28186612830565b905081810360608301526132b68185612830565b905081810360808301526132ca8184613235565b90509695505050505050565b6000815190506132e5816120ad565b92915050565b60006020828403121561330157613300611f79565b5b600061330f848285016132d6565b91505092915050565b60008160e01c9050919050565b600060033d11156133445760046000803e613341600051613318565b90505b90565b600060443d1015613357576133da565b61335f611f6f565b60043d036004823e80513d602482011167ffffffffffffffff821117156133875750506133da565b808201805167ffffffffffffffff8111156133a557505050506133da565b80602083010160043d0385018111156133c25750505050506133da565b6133d182602001850186612186565b82955050505050505b90565b7f455243313135353a207472616e7366657220746f206e6f6e2d4552433131353560008201527f526563656976657220696d706c656d656e746572000000000000000000000000602082015250565b6000613439603483612303565b9150613444826133dd565b604082019050919050565b600060208201905081810360008301526134688161342c565b9050919050565b7f455243313135353a204552433131353552656365697665722072656a6563746560008201527f6420746f6b656e73000000000000000000000000000000000000000000000000602082015250565b60006134cb602883612303565b91506134d68261346f565b604082019050919050565b600060208201905081810360008301526134fa816134be565b9050919050565b7f5061757361626c653a206e6f7420706175736564000000000000000000000000600082015250565b6000613537601483612303565b915061354282613501565b602082019050919050565b600060208201905081810360008301526135668161352a565b9050919050565b600060a0820190506135826000830188612933565b61358f6020830187612933565b61359c6040830186612057565b6135a96060830185612057565b81810360808301526135bb8184613235565b90509695505050505050565b7f5061757361626c653a2070617573656400000000000000000000000000000000600082015250565b60006135fd601083612303565b9150613608826135c7565b602082019050919050565b6000602082019050818103600083015261362c816135f0565b9050919050565b7f455243313135353a206275726e20616d6f756e74206578636565647320746f7460008201527f616c537570706c79000000000000000000000000000000000000000000000000602082015250565b600061368f602883612303565b915061369a82613633565b604082019050919050565b600060208201905081810360008301526136be81613682565b905091905056fea2646970667358221220ee4d8b650317c91a43ffcedba9b9dca69fa69948508cf51779436bb70af13a7664736f6c634300080a0033",
  "linkReferences": {},
  "deployedLinkReferences": {}
}