{
  "_format": "hh-sol-artifact-1",
  "contractName": "BurnableERC1155",
  "sourceName": "contracts/ERC1155/ERC1155-burnable.sol",
  "abi": [
    {
      "inputs": [
        {
          "internalType": "string",
          "name": "_uri",
          "type": "string"
        }
      ],
      "stateMutability": "payable",
      "type": "constructor"
    },
    {
      "anonymous": false,
      "inputs": [
        {
          "indexed": true,
          "internalType": "address",
          "name": "account",
          "type": "address"
        },
        {
          "indexed": true,
          "internalType": "address",
          "name": "operator",
          "type": "address"
        },
        {
          "indexed": false,
          "internalType": "bool",
          "name": "approved",
          "type": "bool"
        }
      ],
      "name": "ApprovalForAll",
      "type": "event"
    },
    {
      "anonymous": false,
      "inputs": [
        {
          "indexed": true,
          "internalType": "address",
          "name": "previousOwner",
          "type": "address"
        },
        {
          "indexed": true,
          "internalType": "address",
          "name": "newOwner",
          "type": "address"
        }
      ],
      "name": "OwnershipTransferred",
      "type": "event"
    },
    {
      "anonymous": false,
      "inputs": [
        {
          "indexed": true,
          "internalType": "address",
          "name": "operator",
          "type": "address"
        },
        {
          "indexed": true,
          "internalType": "address",
          "name": "from",
          "type": "address"
        },
        {
          "indexed": true,
          "internalType": "address",
          "name": "to",
          "type": "address"
        },
        {
          "indexed": false,
          "internalType": "uint256[]",
          "name": "ids",
          "type": "uint256[]"
        },
        {
          "indexed": false,
          "internalType": "uint256[]",
          "name": "values",
          "type": "uint256[]"
        }
      ],
      "name": "TransferBatch",
      "type": "event"
    },
    {
      "anonymous": false,
      "inputs": [
        {
          "indexed": true,
          "internalType": "address",
          "name": "operator",
          "type": "address"
        },
        {
          "indexed": true,
          "internalType": "address",
          "name": "from",
          "type": "address"
        },
        {
          "indexed": true,
          "internalType": "address",
          "name": "to",
          "type": "address"
        },
        {
          "indexed": false,
          "internalType": "uint256",
          "name": "id",
          "type": "uint256"
        },
        {
          "indexed": false,
          "internalType": "uint256",
          "name": "value",
          "type": "uint256"
        }
      ],
      "name": "TransferSingle",
      "type": "event"
    },
    {
      "anonymous": false,
      "inputs": [
        {
          "indexed": false,
          "internalType": "string",
          "name": "value",
          "type": "string"
        },
        {
          "indexed": true,
          "internalType": "uint256",
          "name": "id",
          "type": "uint256"
        }
      ],
      "name": "URI",
      "type": "event"
    },
    {
      "inputs": [
        {
          "internalType": "address",
          "name": "account",
          "type": "address"
        },
        {
          "internalType": "uint256",
          "name": "id",
          "type": "uint256"
        }
      ],
      "name": "balanceOf",
      "outputs": [
        {
          "internalType": "uint256",
          "name": "",
          "type": "uint256"
        }
      ],
      "stateMutability": "view",
      "type": "function"
    },
    {
      "inputs": [
        {
          "internalType": "address[]",
          "name": "accounts",
          "type": "address[]"
        },
        {
          "internalType": "uint256[]",
          "name": "ids",
          "type": "uint256[]"
        }
      ],
      "name": "balanceOfBatch",
      "outputs": [
        {
          "internalType": "uint256[]",
          "name": "",
          "type": "uint256[]"
        }
      ],
      "stateMutability": "view",
      "type": "function"
    },
    {
      "inputs": [
        {
          "internalType": "address",
          "name": "account",
          "type": "address"
        },
        {
          "internalType": "uint256",
          "name": "id",
          "type": "uint256"
        },
        {
          "internalType": "uint256",
          "name": "value",
          "type": "uint256"
        }
      ],
      "name": "burn",
      "outputs": [],
      "stateMutability": "nonpayable",
      "type": "function"
    },
    {
      "inputs": [
        {
          "internalType": "address",
          "name": "account",
          "type": "address"
        },
        {
          "internalType": "uint256[]",
          "name": "ids",
          "type": "uint256[]"
        },
        {
          "internalType": "uint256[]",
          "name": "values",
          "type": "uint256[]"
        }
      ],
      "name": "burnBatch",
      "outputs": [],
      "stateMutability": "nonpayable",
      "type": "function"
    },
    {
      "inputs": [
        {
          "internalType": "uint256",
          "name": "id",
          "type": "uint256"
        }
      ],
      "name": "exists",
      "outputs": [
        {
          "internalType": "bool",
          "name": "",
          "type": "bool"
        }
      ],
      "stateMutability": "view",
      "type": "function"
    },
    {
      "inputs": [
        {
          "internalType": "address",
          "name": "account",
          "type": "address"
        },
        {
          "internalType": "address",
          "name": "operator",
          "type": "address"
        }
      ],
      "name": "isApprovedForAll",
      "outputs": [
        {
          "internalType": "bool",
          "name": "",
          "type": "bool"
        }
      ],
      "stateMutability": "view",
      "type": "function"
    },
    {
      "inputs": [
        {
          "internalType": "address",
          "name": "account",
          "type": "address"
        },
        {
          "internalType": "uint256",
          "name": "id",
          "type": "uint256"
        },
        {
          "internalType": "uint256",
          "name": "amount",
          "type": "uint256"
        },
        {
          "internalType": "bytes",
          "name": "data",
          "type": "bytes"
        }
      ],
      "name": "mint",
      "outputs": [],
      "stateMutability": "nonpayable",
      "type": "function"
    },
    {
      "inputs": [
        {
          "internalType": "address",
          "name": "to",
          "type": "address"
        },
        {
          "internalType": "uint256[]",
          "name": "ids",
          "type": "uint256[]"
        },
        {
          "internalType": "uint256[]",
          "name": "amounts",
          "type": "uint256[]"
        },
        {
          "internalType": "bytes",
          "name": "data",
          "type": "bytes"
        }
      ],
      "name": "mintBatch",
      "outputs": [],
      "stateMutability": "nonpayable",
      "type": "function"
    },
    {
      "inputs": [],
      "name": "owner",
      "outputs": [
        {
          "internalType": "address",
          "name": "",
          "type": "address"
        }
      ],
      "stateMutability": "view",
      "type": "function"
    },
    {
      "inputs": [],
      "name": "renounceOwnership",
      "outputs": [],
      "stateMutability": "nonpayable",
      "type": "function"
    },
    {
      "inputs": [
        {
          "internalType": "address",
          "name": "from",
          "type": "address"
        },
        {
          "internalType": "address",
          "name": "to",
          "type": "address"
        },
        {
          "internalType": "uint256[]",
          "name": "ids",
          "type": "uint256[]"
        },
        {
          "internalType": "uint256[]",
          "name": "amounts",
          "type": "uint256[]"
        },
        {
          "internalType": "bytes",
          "name": "data",
          "type": "bytes"
        }
      ],
      "name": "safeBatchTransferFrom",
      "outputs": [],
      "stateMutability": "nonpayable",
      "type": "function"
    },
    {
      "inputs": [
        {
          "internalType": "address",
          "name": "from",
          "type": "address"
        },
        {
          "internalType": "address",
          "name": "to",
          "type": "address"
        },
        {
          "internalType": "uint256",
          "name": "id",
          "type": "uint256"
        },
        {
          "internalType": "uint256",
          "name": "amount",
          "type": "uint256"
        },
        {
          "internalType": "bytes",
          "name": "data",
          "type": "bytes"
        }
      ],
      "name": "safeTransferFrom",
      "outputs": [],
      "stateMutability": "nonpayable",
      "type": "function"
    },
    {
      "inputs": [
        {
          "internalType": "address",
          "name": "operator",
          "type": "address"
        },
        {
          "internalType": "bool",
          "name": "approved",
          "type": "bool"
        }
      ],
      "name": "setApprovalForAll",
      "outputs": [],
      "stateMutability": "nonpayable",
      "type": "function"
    },
    {
      "inputs": [
        {
          "internalType": "string",
          "name": "newuri",
          "type": "string"
        }
      ],
      "name": "setURI",
      "outputs": [],
      "stateMutability": "nonpayable",
      "type": "function"
    },
    {
      "inputs": [
        {
          "internalType": "bytes4",
          "name": "interfaceId",
          "type": "bytes4"
        }
      ],
      "name": "supportsInterface",
      "outputs": [
        {
          "internalType": "bool",
          "name": "",
          "type": "bool"
        }
      ],
      "stateMutability": "view",
      "type": "function"
    },
    {
      "inputs": [
        {
          "internalType": "uint256",
          "name": "id",
          "type": "uint256"
        }
      ],
      "name": "totalSupply",
      "outputs": [
        {
          "internalType": "uint256",
          "name": "",
          "type": "uint256"
        }
      ],
      "stateMutability": "view",
      "type": "function"
    },
    {
      "inputs": [
        {
          "internalType": "address",
          "name": "newOwner",
          "type": "address"
        }
      ],
      "name": "transferOwnership",
      "outputs": [],
      "stateMutability": "nonpayable",
      "type": "function"
    },
    {
      "inputs": [
        {
          "internalType": "uint256",
          "name": "",
          "type": "uint256"
        }
      ],
      "name": "uri",
      "outputs": [
        {
          "internalType": "string",
          "name": "",
          "type": "string"
        }
      ],
      "stateMutability": "view",
      "type": "function"
    }
  ],
  "bytecode": "0x6080604052604051620041343803806200413483398181016040528101906200002991906200039a565b806200003b816200006360201b60201c565b506200005c620000506200007f60201b60201c565b6200008760201b60201c565b5062000450565b80600290805190602001906200007b9291906200014d565b5050565b600033905090565b6000600360009054906101000a900473ffffffffffffffffffffffffffffffffffffffff16905081600360006101000a81548173ffffffffffffffffffffffffffffffffffffffff021916908373ffffffffffffffffffffffffffffffffffffffff1602179055508173ffffffffffffffffffffffffffffffffffffffff168173ffffffffffffffffffffffffffffffffffffffff167f8be0079c531659141344cd1fd0a4f28419497f9722a3daafe3b4186f6b6457e060405160405180910390a35050565b8280546200015b906200041a565b90600052602060002090601f0160209004810192826200017f5760008555620001cb565b82601f106200019a57805160ff1916838001178555620001cb565b82800160010185558215620001cb579182015b82811115620001ca578251825591602001919060010190620001ad565b5b509050620001da9190620001de565b5090565b5b80821115620001f9576000816000905550600101620001df565b5090565b6000604051905090565b600080fd5b600080fd5b600080fd5b600080fd5b6000601f19601f8301169050919050565b7f4e487b7100000000000000000000000000000000000000000000000000000000600052604160045260246000fd5b62000266826200021b565b810181811067ffffffffffffffff821117156200028857620002876200022c565b5b80604052505050565b60006200029d620001fd565b9050620002ab82826200025b565b919050565b600067ffffffffffffffff821115620002ce57620002cd6200022c565b5b620002d9826200021b565b9050602081019050919050565b60005b8381101562000306578082015181840152602081019050620002e9565b8381111562000316576000848401525b50505050565b6000620003336200032d84620002b0565b62000291565b90508281526020810184848401111562000352576200035162000216565b5b6200035f848285620002e6565b509392505050565b600082601f8301126200037f576200037e62000211565b5b8151620003918482602086016200031c565b91505092915050565b600060208284031215620003b357620003b262000207565b5b600082015167ffffffffffffffff811115620003d457620003d36200020c565b5b620003e28482850162000367565b91505092915050565b7f4e487b7100000000000000000000000000000000000000000000000000000000600052602260045260246000fd5b600060028204905060018216806200043357607f821691505b602082108114156200044a5762000449620003eb565b5b50919050565b613cd480620004606000396000f3fe608060405234801561001057600080fd5b50600436106101155760003560e01c8063715018a6116100a2578063bd85b03911610071578063bd85b039146102da578063e985e9c51461030a578063f242432a1461033a578063f2fde38b14610356578063f5298aca1461037257610115565b8063715018a61461027a578063731133e9146102845780638da5cb5b146102a0578063a22cb465146102be57610115565b80631f7fdffa116100e95780631f7fdffa146101c65780632eb2c2d6146101e25780634e1273f4146101fe5780634f558e791461022e5780636b20c4541461025e57610115565b8062fdd58e1461011a57806301ffc9a71461014a57806302fe53051461017a5780630e89341c14610196575b600080fd5b610134600480360381019061012f91906124c6565b61038e565b6040516101419190612515565b60405180910390f35b610164600480360381019061015f9190612588565b610457565b60405161017191906125d0565b60405180910390f35b610194600480360381019061018f9190612731565b610539565b005b6101b060048036038101906101ab919061277a565b61054d565b6040516101bd919061282f565b60405180910390f35b6101e060048036038101906101db91906129ba565b6105e1565b005b6101fc60048036038101906101f79190612a75565b6105fb565b005b61021860048036038101906102139190612c07565b61069c565b6040516102259190612d3d565b60405180910390f35b6102486004803603810190610243919061277a565b6107b5565b60405161025591906125d0565b60405180910390f35b61027860048036038101906102739190612d5f565b6107c9565b005b610282610866565b005b61029e60048036038101906102999190612dea565b61087a565b005b6102a8610894565b6040516102b59190612e7c565b60405180910390f35b6102d860048036038101906102d39190612ec3565b6108be565b005b6102f460048036038101906102ef919061277a565b6108d4565b6040516103019190612515565b60405180910390f35b610324600480360381019061031f9190612f03565b6108f1565b60405161033191906125d0565b60405180910390f35b610354600480360381019061034f9190612f43565b610985565b005b610370600480360381019061036b9190612fda565b610a26565b005b61038c60048036038101906103879190613007565b610aaa565b005b60008073ffffffffffffffffffffffffffffffffffffffff168373ffffffffffffffffffffffffffffffffffffffff1614156103ff576040517f08c379a00000000000000000000000000000000000000000000000000000000081526004016103f6906130cc565b60405180910390fd5b60008083815260200190815260200160002060008473ffffffffffffffffffffffffffffffffffffffff1673ffffffffffffffffffffffffffffffffffffffff16815260200190815260200160002054905092915050565b60007fd9b67a26000000000000000000000000000000000000000000000000000000007bffffffffffffffffffffffffffffffffffffffffffffffffffffffff1916827bffffffffffffffffffffffffffffffffffffffffffffffffffffffff1916148061052257507f0e89341c000000000000000000000000000000000000000000000000000000007bffffffffffffffffffffffffffffffffffffffffffffffffffffffff1916827bffffffffffffffffffffffffffffffffffffffffffffffffffffffff1916145b80610532575061053182610b47565b5b9050919050565b610541610bb1565b61054a81610c2f565b50565b60606002805461055c9061311b565b80601f01602080910402602001604051908101604052809291908181526020018280546105889061311b565b80156105d55780601f106105aa576101008083540402835291602001916105d5565b820191906000526020600020905b8154815290600101906020018083116105b857829003601f168201915b50505050509050919050565b6105e9610bb1565b6105f584848484610c49565b50505050565b610603610e76565b73ffffffffffffffffffffffffffffffffffffffff168573ffffffffffffffffffffffffffffffffffffffff161480610649575061064885610643610e76565b6108f1565b5b610688576040517f08c379a000000000000000000000000000000000000000000000000000000000815260040161067f906131bf565b60405180910390fd5b6106958585858585610e7e565b5050505050565b606081518351146106e2576040517f08c379a00000000000000000000000000000000000000000000000000000000081526004016106d990613251565b60405180910390fd5b6000835167ffffffffffffffff8111156106ff576106fe612606565b5b60405190808252806020026020018201604052801561072d5781602001602082028036833780820191505090505b50905060005b84518110156107aa5761077a85828151811061075257610751613271565b5b602002602001015185838151811061076d5761076c613271565b5b602002602001015161038e565b82828151811061078d5761078c613271565b5b602002602001018181525050806107a3906132cf565b9050610733565b508091505092915050565b6000806107c1836108d4565b119050919050565b6107d1610e76565b73ffffffffffffffffffffffffffffffffffffffff168373ffffffffffffffffffffffffffffffffffffffff161480610817575061081683610811610e76565b6108f1565b5b610856576040517f08c379a000000000000000000000000000000000000000000000000000000000815260040161084d906131bf565b60405180910390fd5b6108618383836111a0565b505050565b61086e610bb1565b610878600061146f565b565b610882610bb1565b61088e84848484611535565b50505050565b6000600360009054906101000a900473ffffffffffffffffffffffffffffffffffffffff16905090565b6108d06108c9610e76565b83836116e6565b5050565b600060046000838152602001908152602001600020549050919050565b6000600160008473ffffffffffffffffffffffffffffffffffffffff1673ffffffffffffffffffffffffffffffffffffffff16815260200190815260200160002060008373ffffffffffffffffffffffffffffffffffffffff1673ffffffffffffffffffffffffffffffffffffffff16815260200190815260200160002060009054906101000a900460ff16905092915050565b61098d610e76565b73ffffffffffffffffffffffffffffffffffffffff168573ffffffffffffffffffffffffffffffffffffffff1614806109d357506109d2856109cd610e76565b6108f1565b5b610a12576040517f08c379a0000000000000000000000000000000000000000000000000000000008152600401610a09906131bf565b60405180910390fd5b610a1f8585858585611853565b5050505050565b610a2e610bb1565b600073ffffffffffffffffffffffffffffffffffffffff168173ffffffffffffffffffffffffffffffffffffffff161415610a9e576040517f08c379a0000000000000000000000000000000000000000000000000000000008152600401610a959061338a565b60405180910390fd5b610aa78161146f565b50565b610ab2610e76565b73ffffffffffffffffffffffffffffffffffffffff168373ffffffffffffffffffffffffffffffffffffffff161480610af85750610af783610af2610e76565b6108f1565b5b610b37576040517f08c379a0000000000000000000000000000000000000000000000000000000008152600401610b2e906131bf565b60405180910390fd5b610b42838383611aef565b505050565b60007f01ffc9a7000000000000000000000000000000000000000000000000000000007bffffffffffffffffffffffffffffffffffffffffffffffffffffffff1916827bffffffffffffffffffffffffffffffffffffffffffffffffffffffff1916149050919050565b610bb9610e76565b73ffffffffffffffffffffffffffffffffffffffff16610bd7610894565b73ffffffffffffffffffffffffffffffffffffffff1614610c2d576040517f08c379a0000000000000000000000000000000000000000000000000000000008152600401610c24906133f6565b60405180910390fd5b565b8060029080519060200190610c4592919061237b565b5050565b600073ffffffffffffffffffffffffffffffffffffffff168473ffffffffffffffffffffffffffffffffffffffff161415610cb9576040517f08c379a0000000000000000000000000000000000000000000000000000000008152600401610cb090613488565b60405180910390fd5b8151835114610cfd576040517f08c379a0000000000000000000000000000000000000000000000000000000008152600401610cf49061351a565b60405180910390fd5b6000610d07610e76565b9050610d1881600087878787611d36565b60005b8451811015610dd157838181518110610d3757610d36613271565b5b6020026020010151600080878481518110610d5557610d54613271565b5b6020026020010151815260200190815260200160002060008873ffffffffffffffffffffffffffffffffffffffff1673ffffffffffffffffffffffffffffffffffffffff1681526020019081526020016000206000828254610db7919061353a565b925050819055508080610dc9906132cf565b915050610d1b565b508473ffffffffffffffffffffffffffffffffffffffff16600073ffffffffffffffffffffffffffffffffffffffff168273ffffffffffffffffffffffffffffffffffffffff167f4a39dc06d4c0dbc64b70af90fd698a233a518aa5d07e595d983b8c0526c8f7fb8787604051610e49929190613590565b60405180910390a4610e6081600087878787611d4c565b610e6f81600087878787611d54565b5050505050565b600033905090565b8151835114610ec2576040517f08c379a0000000000000000000000000000000000000000000000000000000008152600401610eb99061351a565b60405180910390fd5b600073ffffffffffffffffffffffffffffffffffffffff168473ffffffffffffffffffffffffffffffffffffffff161415610f32576040517f08c379a0000000000000000000000000000000000000000000000000000000008152600401610f2990613639565b60405180910390fd5b6000610f3c610e76565b9050610f4c818787878787611d36565b60005b84518110156110fd576000858281518110610f6d57610f6c613271565b5b602002602001015190506000858381518110610f8c57610f8b613271565b5b60200260200101519050600080600084815260200190815260200160002060008b73ffffffffffffffffffffffffffffffffffffffff1673ffffffffffffffffffffffffffffffffffffffff1681526020019081526020016000205490508181101561102d576040517f08c379a0000000000000000000000000000000000000000000000000000000008152600401611024906136cb565b60405180910390fd5b81810360008085815260200190815260200160002060008c73ffffffffffffffffffffffffffffffffffffffff1673ffffffffffffffffffffffffffffffffffffffff168152602001908152602001600020819055508160008085815260200190815260200160002060008b73ffffffffffffffffffffffffffffffffffffffff1673ffffffffffffffffffffffffffffffffffffffff16815260200190815260200160002060008282546110e2919061353a565b92505081905550505050806110f6906132cf565b9050610f4f565b508473ffffffffffffffffffffffffffffffffffffffff168673ffffffffffffffffffffffffffffffffffffffff168273ffffffffffffffffffffffffffffffffffffffff167f4a39dc06d4c0dbc64b70af90fd698a233a518aa5d07e595d983b8c0526c8f7fb8787604051611174929190613590565b60405180910390a461118a818787878787611d4c565b611198818787878787611d54565b505050505050565b600073ffffffffffffffffffffffffffffffffffffffff168373ffffffffffffffffffffffffffffffffffffffff161415611210576040517f08c379a00000000000000000000000000000000000000000000000000000000081526004016112079061375d565b60405180910390fd5b8051825114611254576040517f08c379a000000000000000000000000000000000000000000000000000000000815260040161124b9061351a565b60405180910390fd5b600061125e610e76565b905061127e81856000868660405180602001604052806000815250611d36565b60005b83518110156113cb57600084828151811061129f5761129e613271565b5b6020026020010151905060008483815181106112be576112bd613271565b5b60200260200101519050600080600084815260200190815260200160002060008973ffffffffffffffffffffffffffffffffffffffff1673ffffffffffffffffffffffffffffffffffffffff1681526020019081526020016000205490508181101561135f576040517f08c379a0000000000000000000000000000000000000000000000000000000008152600401611356906137ef565b60405180910390fd5b81810360008085815260200190815260200160002060008a73ffffffffffffffffffffffffffffffffffffffff1673ffffffffffffffffffffffffffffffffffffffff1681526020019081526020016000208190555050505080806113c3906132cf565b915050611281565b50600073ffffffffffffffffffffffffffffffffffffffff168473ffffffffffffffffffffffffffffffffffffffff168273ffffffffffffffffffffffffffffffffffffffff167f4a39dc06d4c0dbc64b70af90fd698a233a518aa5d07e595d983b8c0526c8f7fb8686604051611443929190613590565b60405180910390a461146981856000868660405180602001604052806000815250611d4c565b50505050565b6000600360009054906101000a900473ffffffffffffffffffffffffffffffffffffffff16905081600360006101000a81548173ffffffffffffffffffffffffffffffffffffffff021916908373ffffffffffffffffffffffffffffffffffffffff1602179055508173ffffffffffffffffffffffffffffffffffffffff168173ffffffffffffffffffffffffffffffffffffffff167f8be0079c531659141344cd1fd0a4f28419497f9722a3daafe3b4186f6b6457e060405160405180910390a35050565b600073ffffffffffffffffffffffffffffffffffffffff168473ffffffffffffffffffffffffffffffffffffffff1614156115a5576040517f08c379a000000000000000000000000000000000000000000000000000000000815260040161159c90613488565b60405180910390fd5b60006115af610e76565b905060006115bc85611f2c565b905060006115c985611f2c565b90506115da83600089858589611d36565b8460008088815260200190815260200160002060008973ffffffffffffffffffffffffffffffffffffffff1673ffffffffffffffffffffffffffffffffffffffff1681526020019081526020016000206000828254611639919061353a565b925050819055508673ffffffffffffffffffffffffffffffffffffffff16600073ffffffffffffffffffffffffffffffffffffffff168473ffffffffffffffffffffffffffffffffffffffff167fc3d58168c5ae7397731d063d5bbf3d657854427343f4c083240f7aacaa2d0f6289896040516116b792919061380f565b60405180910390a46116ce83600089858589611d4c565b6116dd83600089898989611fa6565b50505050505050565b8173ffffffffffffffffffffffffffffffffffffffff168373ffffffffffffffffffffffffffffffffffffffff161415611755576040517f08c379a000000000000000000000000000000000000000000000000000000000815260040161174c906138aa565b60405180910390fd5b80600160008573ffffffffffffffffffffffffffffffffffffffff1673ffffffffffffffffffffffffffffffffffffffff16815260200190815260200160002060008473ffffffffffffffffffffffffffffffffffffffff1673ffffffffffffffffffffffffffffffffffffffff16815260200190815260200160002060006101000a81548160ff0219169083151502179055508173ffffffffffffffffffffffffffffffffffffffff168373ffffffffffffffffffffffffffffffffffffffff167f17307eab39ab6107e8899845ad3d59bd9653f200f220920489ca2b5937696c318360405161184691906125d0565b60405180910390a3505050565b600073ffffffffffffffffffffffffffffffffffffffff168473ffffffffffffffffffffffffffffffffffffffff1614156118c3576040517f08c379a00000000000000000000000000000000000000000000000000000000081526004016118ba90613639565b60405180910390fd5b60006118cd610e76565b905060006118da85611f2c565b905060006118e785611f2c565b90506118f7838989858589611d36565b600080600088815260200190815260200160002060008a73ffffffffffffffffffffffffffffffffffffffff1673ffffffffffffffffffffffffffffffffffffffff1681526020019081526020016000205490508581101561198e576040517f08c379a0000000000000000000000000000000000000000000000000000000008152600401611985906136cb565b60405180910390fd5b85810360008089815260200190815260200160002060008b73ffffffffffffffffffffffffffffffffffffffff1673ffffffffffffffffffffffffffffffffffffffff168152602001908152602001600020819055508560008089815260200190815260200160002060008a73ffffffffffffffffffffffffffffffffffffffff1673ffffffffffffffffffffffffffffffffffffffff1681526020019081526020016000206000828254611a43919061353a565b925050819055508773ffffffffffffffffffffffffffffffffffffffff168973ffffffffffffffffffffffffffffffffffffffff168573ffffffffffffffffffffffffffffffffffffffff167fc3d58168c5ae7397731d063d5bbf3d657854427343f4c083240f7aacaa2d0f628a8a604051611ac092919061380f565b60405180910390a4611ad6848a8a86868a611d4c565b611ae4848a8a8a8a8a611fa6565b505050505050505050565b600073ffffffffffffffffffffffffffffffffffffffff168373ffffffffffffffffffffffffffffffffffffffff161415611b5f576040517f08c379a0000000000000000000000000000000000000000000000000000000008152600401611b569061375d565b60405180910390fd5b6000611b69610e76565b90506000611b7684611f2c565b90506000611b8384611f2c565b9050611ba383876000858560405180602001604052806000815250611d36565b600080600087815260200190815260200160002060008873ffffffffffffffffffffffffffffffffffffffff1673ffffffffffffffffffffffffffffffffffffffff16815260200190815260200160002054905084811015611c3a576040517f08c379a0000000000000000000000000000000000000000000000000000000008152600401611c31906137ef565b60405180910390fd5b84810360008088815260200190815260200160002060008973ffffffffffffffffffffffffffffffffffffffff1673ffffffffffffffffffffffffffffffffffffffff16815260200190815260200160002081905550600073ffffffffffffffffffffffffffffffffffffffff168773ffffffffffffffffffffffffffffffffffffffff168573ffffffffffffffffffffffffffffffffffffffff167fc3d58168c5ae7397731d063d5bbf3d657854427343f4c083240f7aacaa2d0f628989604051611d0792919061380f565b60405180910390a4611d2d84886000868660405180602001604052806000815250611d4c565b50505050505050565b611d4486868686868661217e565b505050505050565b505050505050565b611d738473ffffffffffffffffffffffffffffffffffffffff16612350565b15611f24578373ffffffffffffffffffffffffffffffffffffffff1663bc197c8187878686866040518663ffffffff1660e01b8152600401611db995949392919061391f565b6020604051808303816000875af1925050508015611df557506040513d601f19601f82011682018060405250810190611df2919061399c565b60015b611e9b57611e016139d6565b806308c379a01415611e5e5750611e166139f8565b80611e215750611e60565b806040517f08c379a0000000000000000000000000000000000000000000000000000000008152600401611e55919061282f565b60405180910390fd5b505b6040517f08c379a0000000000000000000000000000000000000000000000000000000008152600401611e9290613b00565b60405180910390fd5b63bc197c8160e01b7bffffffffffffffffffffffffffffffffffffffffffffffffffffffff1916817bffffffffffffffffffffffffffffffffffffffffffffffffffffffff191614611f22576040517f08c379a0000000000000000000000000000000000000000000000000000000008152600401611f1990613b92565b60405180910390fd5b505b505050505050565b60606000600167ffffffffffffffff811115611f4b57611f4a612606565b5b604051908082528060200260200182016040528015611f795781602001602082028036833780820191505090505b5090508281600081518110611f9157611f90613271565b5b60200260200101818152505080915050919050565b611fc58473ffffffffffffffffffffffffffffffffffffffff16612350565b15612176578373ffffffffffffffffffffffffffffffffffffffff1663f23a6e6187878686866040518663ffffffff1660e01b815260040161200b959493929190613bb2565b6020604051808303816000875af192505050801561204757506040513d601f19601f82011682018060405250810190612044919061399c565b60015b6120ed576120536139d6565b806308c379a014156120b057506120686139f8565b8061207357506120b2565b806040517f08c379a00000000000000000000000000000000000000000000000000000000081526004016120a7919061282f565b60405180910390fd5b505b6040517f08c379a00000000000000000000000000000000000000000000000000000000081526004016120e490613b00565b60405180910390fd5b63f23a6e6160e01b7bffffffffffffffffffffffffffffffffffffffffffffffffffffffff1916817bffffffffffffffffffffffffffffffffffffffffffffffffffffffff191614612174576040517f08c379a000000000000000000000000000000000000000000000000000000000815260040161216b90613b92565b60405180910390fd5b505b505050505050565b61218c868686868686612373565b600073ffffffffffffffffffffffffffffffffffffffff168573ffffffffffffffffffffffffffffffffffffffff16141561223e5760005b835181101561223c578281815181106121e0576121df613271565b5b6020026020010151600460008684815181106121ff576121fe613271565b5b602002602001015181526020019081526020016000206000828254612224919061353a565b9250508190555080612235906132cf565b90506121c4565b505b600073ffffffffffffffffffffffffffffffffffffffff168473ffffffffffffffffffffffffffffffffffffffff1614156123485760005b835181101561234657600084828151811061229457612293613271565b5b6020026020010151905060008483815181106122b3576122b2613271565b5b6020026020010151905060006004600084815260200190815260200160002054905081811015612318576040517f08c379a000000000000000000000000000000000000000000000000000000000815260040161230f90613c7e565b60405180910390fd5b81810360046000858152602001908152602001600020819055505050508061233f906132cf565b9050612276565b505b505050505050565b6000808273ffffffffffffffffffffffffffffffffffffffff163b119050919050565b505050505050565b8280546123879061311b565b90600052602060002090601f0160209004810192826123a957600085556123f0565b82601f106123c257805160ff19168380011785556123f0565b828001600101855582156123f0579182015b828111156123ef5782518255916020019190600101906123d4565b5b5090506123fd9190612401565b5090565b5b8082111561241a576000816000905550600101612402565b5090565b6000604051905090565b600080fd5b600080fd5b600073ffffffffffffffffffffffffffffffffffffffff82169050919050565b600061245d82612432565b9050919050565b61246d81612452565b811461247857600080fd5b50565b60008135905061248a81612464565b92915050565b6000819050919050565b6124a381612490565b81146124ae57600080fd5b50565b6000813590506124c08161249a565b92915050565b600080604083850312156124dd576124dc612428565b5b60006124eb8582860161247b565b92505060206124fc858286016124b1565b9150509250929050565b61250f81612490565b82525050565b600060208201905061252a6000830184612506565b92915050565b60007fffffffff0000000000000000000000000000000000000000000000000000000082169050919050565b61256581612530565b811461257057600080fd5b50565b6000813590506125828161255c565b92915050565b60006020828403121561259e5761259d612428565b5b60006125ac84828501612573565b91505092915050565b60008115159050919050565b6125ca816125b5565b82525050565b60006020820190506125e560008301846125c1565b92915050565b600080fd5b600080fd5b6000601f19601f8301169050919050565b7f4e487b7100000000000000000000000000000000000000000000000000000000600052604160045260246000fd5b61263e826125f5565b810181811067ffffffffffffffff8211171561265d5761265c612606565b5b80604052505050565b600061267061241e565b905061267c8282612635565b919050565b600067ffffffffffffffff82111561269c5761269b612606565b5b6126a5826125f5565b9050602081019050919050565b82818337600083830152505050565b60006126d46126cf84612681565b612666565b9050828152602081018484840111156126f0576126ef6125f0565b5b6126fb8482856126b2565b509392505050565b600082601f830112612718576127176125eb565b5b81356127288482602086016126c1565b91505092915050565b60006020828403121561274757612746612428565b5b600082013567ffffffffffffffff8111156127655761276461242d565b5b61277184828501612703565b91505092915050565b6000602082840312156127905761278f612428565b5b600061279e848285016124b1565b91505092915050565b600081519050919050565b600082825260208201905092915050565b60005b838110156127e15780820151818401526020810190506127c6565b838111156127f0576000848401525b50505050565b6000612801826127a7565b61280b81856127b2565b935061281b8185602086016127c3565b612824816125f5565b840191505092915050565b6000602082019050818103600083015261284981846127f6565b905092915050565b600067ffffffffffffffff82111561286c5761286b612606565b5b602082029050602081019050919050565b600080fd5b600061289561289084612851565b612666565b905080838252602082019050602084028301858111156128b8576128b761287d565b5b835b818110156128e157806128cd88826124b1565b8452602084019350506020810190506128ba565b5050509392505050565b600082601f830112612900576128ff6125eb565b5b8135612910848260208601612882565b91505092915050565b600067ffffffffffffffff82111561293457612933612606565b5b61293d826125f5565b9050602081019050919050565b600061295d61295884612919565b612666565b905082815260208101848484011115612979576129786125f0565b5b6129848482856126b2565b509392505050565b600082601f8301126129a1576129a06125eb565b5b81356129b184826020860161294a565b91505092915050565b600080600080608085870312156129d4576129d3612428565b5b60006129e28782880161247b565b945050602085013567ffffffffffffffff811115612a0357612a0261242d565b5b612a0f878288016128eb565b935050604085013567ffffffffffffffff811115612a3057612a2f61242d565b5b612a3c878288016128eb565b925050606085013567ffffffffffffffff811115612a5d57612a5c61242d565b5b612a698782880161298c565b91505092959194509250565b600080600080600060a08688031215612a9157612a90612428565b5b6000612a9f8882890161247b565b9550506020612ab08882890161247b565b945050604086013567ffffffffffffffff811115612ad157612ad061242d565b5b612add888289016128eb565b935050606086013567ffffffffffffffff811115612afe57612afd61242d565b5b612b0a888289016128eb565b925050608086013567ffffffffffffffff811115612b2b57612b2a61242d565b5b612b378882890161298c565b9150509295509295909350565b600067ffffffffffffffff821115612b5f57612b5e612606565b5b602082029050602081019050919050565b6000612b83612b7e84612b44565b612666565b90508083825260208201905060208402830185811115612ba657612ba561287d565b5b835b81811015612bcf5780612bbb888261247b565b845260208401935050602081019050612ba8565b5050509392505050565b600082601f830112612bee57612bed6125eb565b5b8135612bfe848260208601612b70565b91505092915050565b60008060408385031215612c1e57612c1d612428565b5b600083013567ffffffffffffffff811115612c3c57612c3b61242d565b5b612c4885828601612bd9565b925050602083013567ffffffffffffffff811115612c6957612c6861242d565b5b612c75858286016128eb565b9150509250929050565b600081519050919050565b600082825260208201905092915050565b6000819050602082019050919050565b612cb481612490565b82525050565b6000612cc68383612cab565b60208301905092915050565b6000602082019050919050565b6000612cea82612c7f565b612cf48185612c8a565b9350612cff83612c9b565b8060005b83811015612d30578151612d178882612cba565b9750612d2283612cd2565b925050600181019050612d03565b5085935050505092915050565b60006020820190508181036000830152612d578184612cdf565b905092915050565b600080600060608486031215612d7857612d77612428565b5b6000612d868682870161247b565b935050602084013567ffffffffffffffff811115612da757612da661242d565b5b612db3868287016128eb565b925050604084013567ffffffffffffffff811115612dd457612dd361242d565b5b612de0868287016128eb565b9150509250925092565b60008060008060808587031215612e0457612e03612428565b5b6000612e128782880161247b565b9450506020612e23878288016124b1565b9350506040612e34878288016124b1565b925050606085013567ffffffffffffffff811115612e5557612e5461242d565b5b612e618782880161298c565b91505092959194509250565b612e7681612452565b82525050565b6000602082019050612e916000830184612e6d565b92915050565b612ea0816125b5565b8114612eab57600080fd5b50565b600081359050612ebd81612e97565b92915050565b60008060408385031215612eda57612ed9612428565b5b6000612ee88582860161247b565b9250506020612ef985828601612eae565b9150509250929050565b60008060408385031215612f1a57612f19612428565b5b6000612f288582860161247b565b9250506020612f398582860161247b565b9150509250929050565b600080600080600060a08688031215612f5f57612f5e612428565b5b6000612f6d8882890161247b565b9550506020612f7e8882890161247b565b9450506040612f8f888289016124b1565b9350506060612fa0888289016124b1565b925050608086013567ffffffffffffffff811115612fc157612fc061242d565b5b612fcd8882890161298c565b9150509295509295909350565b600060208284031215612ff057612fef612428565b5b6000612ffe8482850161247b565b91505092915050565b6000806000606084860312156130205761301f612428565b5b600061302e8682870161247b565b935050602061303f868287016124b1565b9250506040613050868287016124b1565b9150509250925092565b7f455243313135353a2061646472657373207a65726f206973206e6f742061207660008201527f616c6964206f776e657200000000000000000000000000000000000000000000602082015250565b60006130b6602a836127b2565b91506130c18261305a565b604082019050919050565b600060208201905081810360008301526130e5816130a9565b9050919050565b7f4e487b7100000000000000000000000000000000000000000000000000000000600052602260045260246000fd5b6000600282049050600182168061313357607f821691505b60208210811415613147576131466130ec565b5b50919050565b7f455243313135353a2063616c6c6572206973206e6f7420746f6b656e206f776e60008201527f6572206f7220617070726f766564000000000000000000000000000000000000602082015250565b60006131a9602e836127b2565b91506131b48261314d565b604082019050919050565b600060208201905081810360008301526131d88161319c565b9050919050565b7f455243313135353a206163636f756e747320616e6420696473206c656e67746860008201527f206d69736d617463680000000000000000000000000000000000000000000000602082015250565b600061323b6029836127b2565b9150613246826131df565b604082019050919050565b6000602082019050818103600083015261326a8161322e565b9050919050565b7f4e487b7100000000000000000000000000000000000000000000000000000000600052603260045260246000fd5b7f4e487b7100000000000000000000000000000000000000000000000000000000600052601160045260246000fd5b60006132da82612490565b91507fffffffffffffffffffffffffffffffffffffffffffffffffffffffffffffffff82141561330d5761330c6132a0565b5b600182019050919050565b7f4f776e61626c653a206e6577206f776e657220697320746865207a65726f206160008201527f6464726573730000000000000000000000000000000000000000000000000000602082015250565b60006133746026836127b2565b915061337f82613318565b604082019050919050565b600060208201905081810360008301526133a381613367565b9050919050565b7f4f776e61626c653a2063616c6c6572206973206e6f7420746865206f776e6572600082015250565b60006133e06020836127b2565b91506133eb826133aa565b602082019050919050565b6000602082019050818103600083015261340f816133d3565b9050919050565b7f455243313135353a206d696e7420746f20746865207a65726f2061646472657360008201527f7300000000000000000000000000000000000000000000000000000000000000602082015250565b60006134726021836127b2565b915061347d82613416565b604082019050919050565b600060208201905081810360008301526134a181613465565b9050919050565b7f455243313135353a2069647320616e6420616d6f756e7473206c656e6774682060008201527f6d69736d61746368000000000000000000000000000000000000000000000000602082015250565b60006135046028836127b2565b915061350f826134a8565b604082019050919050565b60006020820190508181036000830152613533816134f7565b9050919050565b600061354582612490565b915061355083612490565b9250827fffffffffffffffffffffffffffffffffffffffffffffffffffffffffffffffff03821115613585576135846132a0565b5b828201905092915050565b600060408201905081810360008301526135aa8185612cdf565b905081810360208301526135be8184612cdf565b90509392505050565b7f455243313135353a207472616e7366657220746f20746865207a65726f20616460008201527f6472657373000000000000000000000000000000000000000000000000000000602082015250565b60006136236025836127b2565b915061362e826135c7565b604082019050919050565b6000602082019050818103600083015261365281613616565b9050919050565b7f455243313135353a20696e73756666696369656e742062616c616e636520666f60008201527f72207472616e7366657200000000000000000000000000000000000000000000602082015250565b60006136b5602a836127b2565b91506136c082613659565b604082019050919050565b600060208201905081810360008301526136e4816136a8565b9050919050565b7f455243313135353a206275726e2066726f6d20746865207a65726f206164647260008201527f6573730000000000000000000000000000000000000000000000000000000000602082015250565b60006137476023836127b2565b9150613752826136eb565b604082019050919050565b600060208201905081810360008301526137768161373a565b9050919050565b7f455243313135353a206275726e20616d6f756e7420657863656564732062616c60008201527f616e636500000000000000000000000000000000000000000000000000000000602082015250565b60006137d96024836127b2565b91506137e48261377d565b604082019050919050565b60006020820190508181036000830152613808816137cc565b9050919050565b60006040820190506138246000830185612506565b6138316020830184612506565b9392505050565b7f455243313135353a2073657474696e6720617070726f76616c2073746174757360008201527f20666f722073656c660000000000000000000000000000000000000000000000602082015250565b60006138946029836127b2565b915061389f82613838565b604082019050919050565b600060208201905081810360008301526138c381613887565b9050919050565b600081519050919050565b600082825260208201905092915050565b60006138f1826138ca565b6138fb81856138d5565b935061390b8185602086016127c3565b613914816125f5565b840191505092915050565b600060a0820190506139346000830188612e6d565b6139416020830187612e6d565b81810360408301526139538186612cdf565b905081810360608301526139678185612cdf565b9050818103608083015261397b81846138e6565b90509695505050505050565b6000815190506139968161255c565b92915050565b6000602082840312156139b2576139b1612428565b5b60006139c084828501613987565b91505092915050565b60008160e01c9050919050565b600060033d11156139f55760046000803e6139f26000516139c9565b90505b90565b600060443d1015613a0857613a8b565b613a1061241e565b60043d036004823e80513d602482011167ffffffffffffffff82111715613a38575050613a8b565b808201805167ffffffffffffffff811115613a565750505050613a8b565b80602083010160043d038501811115613a73575050505050613a8b565b613a8282602001850186612635565b82955050505050505b90565b7f455243313135353a207472616e7366657220746f206e6f6e2d4552433131353560008201527f526563656976657220696d706c656d656e746572000000000000000000000000602082015250565b6000613aea6034836127b2565b9150613af582613a8e565b604082019050919050565b60006020820190508181036000830152613b1981613add565b9050919050565b7f455243313135353a204552433131353552656365697665722072656a6563746560008201527f6420746f6b656e73000000000000000000000000000000000000000000000000602082015250565b6000613b7c6028836127b2565b9150613b8782613b20565b604082019050919050565b60006020820190508181036000830152613bab81613b6f565b9050919050565b600060a082019050613bc76000830188612e6d565b613bd46020830187612e6d565b613be16040830186612506565b613bee6060830185612506565b8181036080830152613c0081846138e6565b90509695505050505050565b7f455243313135353a206275726e20616d6f756e74206578636565647320746f7460008201527f616c537570706c79000000000000000000000000000000000000000000000000602082015250565b6000613c686028836127b2565b9150613c7382613c0c565b604082019050919050565b60006020820190508181036000830152613c9781613c5b565b905091905056fea26469706673582212201b7dd1593961ee79ac4474b88cefc325c30ccccdc69d7917488a0cb866c5af6b64736f6c634300080a0033",
  "linkReferences": {},
  "deployedLinkReferences": {}
}