{
  "_format": "hh-sol-artifact-1",
  "contractName": "PausableToken",
  "sourceName": "contracts/ERC20/PausableToken.sol",
  "abi": [
    {
      "inputs": [
        {
          "internalType": "string",
          "name": "name",
          "type": "string"
        },
        {
          "internalType": "string",
          "name": "symbol",
          "type": "string"
        },
        {
          "internalType": "uint256",
          "name": "totalSupply",
          "type": "uint256"
        }
      ],
      "stateMutability": "payable",
      "type": "constructor"
    },
    {
      "anonymous": false,
      "inputs": [
        {
          "indexed": true,
          "internalType": "address",
          "name": "owner",
          "type": "address"
        },
        {
          "indexed": true,
          "internalType": "address",
          "name": "spender",
          "type": "address"
        },
        {
          "indexed": false,
          "internalType": "uint256",
          "name": "value",
          "type": "uint256"
        }
      ],
      "name": "Approval",
      "type": "event"
    },
    {
      "anonymous": false,
      "inputs": [
        {
          "indexed": true,
          "internalType": "address",
          "name": "previousOwner",
          "type": "address"
        },
        {
          "indexed": true,
          "internalType": "address",
          "name": "newOwner",
          "type": "address"
        }
      ],
      "name": "OwnershipTransferred",
      "type": "event"
    },
    {
      "anonymous": false,
      "inputs": [
        {
          "indexed": false,
          "internalType": "address",
          "name": "account",
          "type": "address"
        }
      ],
      "name": "Paused",
      "type": "event"
    },
    {
      "anonymous": false,
      "inputs": [
        {
          "indexed": true,
          "internalType": "address",
          "name": "from",
          "type": "address"
        },
        {
          "indexed": true,
          "internalType": "address",
          "name": "to",
          "type": "address"
        },
        {
          "indexed": false,
          "internalType": "uint256",
          "name": "value",
          "type": "uint256"
        }
      ],
      "name": "Transfer",
      "type": "event"
    },
    {
      "anonymous": false,
      "inputs": [
        {
          "indexed": false,
          "internalType": "address",
          "name": "account",
          "type": "address"
        }
      ],
      "name": "Unpaused",
      "type": "event"
    },
    {
      "inputs": [
        {
          "internalType": "address",
          "name": "owner",
          "type": "address"
        },
        {
          "internalType": "address",
          "name": "spender",
          "type": "address"
        }
      ],
      "name": "allowance",
      "outputs": [
        {
          "internalType": "uint256",
          "name": "",
          "type": "uint256"
        }
      ],
      "stateMutability": "view",
      "type": "function"
    },
    {
      "inputs": [
        {
          "internalType": "address",
          "name": "spender",
          "type": "address"
        },
        {
          "internalType": "uint256",
          "name": "amount",
          "type": "uint256"
        }
      ],
      "name": "approve",
      "outputs": [
        {
          "internalType": "bool",
          "name": "",
          "type": "bool"
        }
      ],
      "stateMutability": "nonpayable",
      "type": "function"
    },
    {
      "inputs": [
        {
          "internalType": "address",
          "name": "account",
          "type": "address"
        }
      ],
      "name": "balanceOf",
      "outputs": [
        {
          "internalType": "uint256",
          "name": "",
          "type": "uint256"
        }
      ],
      "stateMutability": "view",
      "type": "function"
    },
    {
      "inputs": [],
      "name": "decimals",
      "outputs": [
        {
          "internalType": "uint8",
          "name": "",
          "type": "uint8"
        }
      ],
      "stateMutability": "view",
      "type": "function"
    },
    {
      "inputs": [
        {
          "internalType": "address",
          "name": "spender",
          "type": "address"
        },
        {
          "internalType": "uint256",
          "name": "subtractedValue",
          "type": "uint256"
        }
      ],
      "name": "decreaseAllowance",
      "outputs": [
        {
          "internalType": "bool",
          "name": "",
          "type": "bool"
        }
      ],
      "stateMutability": "nonpayable",
      "type": "function"
    },
    {
      "inputs": [
        {
          "internalType": "address",
          "name": "spender",
          "type": "address"
        },
        {
          "internalType": "uint256",
          "name": "addedValue",
          "type": "uint256"
        }
      ],
      "name": "increaseAllowance",
      "outputs": [
        {
          "internalType": "bool",
          "name": "",
          "type": "bool"
        }
      ],
      "stateMutability": "nonpayable",
      "type": "function"
    },
    {
      "inputs": [],
      "name": "name",
      "outputs": [
        {
          "internalType": "string",
          "name": "",
          "type": "string"
        }
      ],
      "stateMutability": "view",
      "type": "function"
    },
    {
      "inputs": [],
      "name": "owner",
      "outputs": [
        {
          "internalType": "address",
          "name": "",
          "type": "address"
        }
      ],
      "stateMutability": "view",
      "type": "function"
    },
    {
      "inputs": [],
      "name": "pause",
      "outputs": [],
      "stateMutability": "nonpayable",
      "type": "function"
    },
    {
      "inputs": [],
      "name": "paused",
      "outputs": [
        {
          "internalType": "bool",
          "name": "",
          "type": "bool"
        }
      ],
      "stateMutability": "view",
      "type": "function"
    },
    {
      "inputs": [],
      "name": "renounceOwnership",
      "outputs": [],
      "stateMutability": "nonpayable",
      "type": "function"
    },
    {
      "inputs": [],
      "name": "symbol",
      "outputs": [
        {
          "internalType": "string",
          "name": "",
          "type": "string"
        }
      ],
      "stateMutability": "view",
      "type": "function"
    },
    {
      "inputs": [],
      "name": "totalSupply",
      "outputs": [
        {
          "internalType": "uint256",
          "name": "",
          "type": "uint256"
        }
      ],
      "stateMutability": "view",
      "type": "function"
    },
    {
      "inputs": [
        {
          "internalType": "address",
          "name": "to",
          "type": "address"
        },
        {
          "internalType": "uint256",
          "name": "amount",
          "type": "uint256"
        }
      ],
      "name": "transfer",
      "outputs": [
        {
          "internalType": "bool",
          "name": "",
          "type": "bool"
        }
      ],
      "stateMutability": "nonpayable",
      "type": "function"
    },
    {
      "inputs": [
        {
          "internalType": "address",
          "name": "from",
          "type": "address"
        },
        {
          "internalType": "address",
          "name": "to",
          "type": "address"
        },
        {
          "internalType": "uint256",
          "name": "amount",
          "type": "uint256"
        }
      ],
      "name": "transferFrom",
      "outputs": [
        {
          "internalType": "bool",
          "name": "",
          "type": "bool"
        }
      ],
      "stateMutability": "nonpayable",
      "type": "function"
    },
    {
      "inputs": [
        {
          "internalType": "address",
          "name": "newOwner",
          "type": "address"
        }
      ],
      "name": "transferOwnership",
      "outputs": [],
      "stateMutability": "nonpayable",
      "type": "function"
    },
    {
      "inputs": [],
      "name": "unpause",
      "outputs": [],
      "stateMutability": "nonpayable",
      "type": "function"
    }
  ],
  "bytecode": "0x6080604052604051620021c3380380620021c383398181016040528101906200002991906200061c565b828281600390805190602001906200004392919062000394565b5080600490805190602001906200005c92919062000394565b5050506000600560006101000a81548160ff0219169083151502179055506200009a6200008e620000b560201b60201c565b620000bd60201b60201c565b620000ac33826200018360201b60201c565b505050620008ca565b600033905090565b6000600560019054906101000a900473ffffffffffffffffffffffffffffffffffffffff16905081600560016101000a81548173ffffffffffffffffffffffffffffffffffffffff021916908373ffffffffffffffffffffffffffffffffffffffff1602179055508173ffffffffffffffffffffffffffffffffffffffff168173ffffffffffffffffffffffffffffffffffffffff167f8be0079c531659141344cd1fd0a4f28419497f9722a3daafe3b4186f6b6457e060405160405180910390a35050565b600073ffffffffffffffffffffffffffffffffffffffff168273ffffffffffffffffffffffffffffffffffffffff161415620001f6576040517f08c379a0000000000000000000000000000000000000000000000000000000008152600401620001ed9062000717565b60405180910390fd5b6200020a60008383620002f160201b60201c565b80600260008282546200021e919062000768565b92505081905550806000808473ffffffffffffffffffffffffffffffffffffffff1673ffffffffffffffffffffffffffffffffffffffff168152602001908152602001600020600082825401925050819055508173ffffffffffffffffffffffffffffffffffffffff16600073ffffffffffffffffffffffffffffffffffffffff167fddf252ad1be2c89b69c2b068fc378daa952ba7f163c4a11628f55a4df523b3ef83604051620002d19190620007d6565b60405180910390a3620002ed600083836200031e60201b60201c565b5050565b620003016200032360201b60201c565b620003198383836200037860201b620007741760201c565b505050565b505050565b620003336200037d60201b60201c565b1562000376576040517f08c379a00000000000000000000000000000000000000000000000000000000081526004016200036d9062000843565b60405180910390fd5b565b505050565b6000600560009054906101000a900460ff16905090565b828054620003a29062000894565b90600052602060002090601f016020900481019282620003c6576000855562000412565b82601f10620003e157805160ff191683800117855562000412565b8280016001018555821562000412579182015b8281111562000411578251825591602001919060010190620003f4565b5b50905062000421919062000425565b5090565b5b808211156200044057600081600090555060010162000426565b5090565b6000604051905090565b600080fd5b600080fd5b600080fd5b600080fd5b6000601f19601f8301169050919050565b7f4e487b7100000000000000000000000000000000000000000000000000000000600052604160045260246000fd5b620004ad8262000462565b810181811067ffffffffffffffff82111715620004cf57620004ce62000473565b5b80604052505050565b6000620004e462000444565b9050620004f28282620004a2565b919050565b600067ffffffffffffffff82111562000515576200051462000473565b5b620005208262000462565b9050602081019050919050565b60005b838110156200054d57808201518184015260208101905062000530565b838111156200055d576000848401525b50505050565b60006200057a6200057484620004f7565b620004d8565b9050828152602081018484840111156200059957620005986200045d565b5b620005a68482856200052d565b509392505050565b600082601f830112620005c657620005c562000458565b5b8151620005d884826020860162000563565b91505092915050565b6000819050919050565b620005f681620005e1565b81146200060257600080fd5b50565b6000815190506200061681620005eb565b92915050565b6000806000606084860312156200063857620006376200044e565b5b600084015167ffffffffffffffff81111562000659576200065862000453565b5b6200066786828701620005ae565b935050602084015167ffffffffffffffff8111156200068b576200068a62000453565b5b6200069986828701620005ae565b9250506040620006ac8682870162000605565b9150509250925092565b600082825260208201905092915050565b7f45524332303a206d696e7420746f20746865207a65726f206164647265737300600082015250565b6000620006ff601f83620006b6565b91506200070c82620006c7565b602082019050919050565b600060208201905081810360008301526200073281620006f0565b9050919050565b7f4e487b7100000000000000000000000000000000000000000000000000000000600052601160045260246000fd5b60006200077582620005e1565b91506200078283620005e1565b9250827fffffffffffffffffffffffffffffffffffffffffffffffffffffffffffffffff03821115620007ba57620007b962000739565b5b828201905092915050565b620007d081620005e1565b82525050565b6000602082019050620007ed6000830184620007c5565b92915050565b7f5061757361626c653a2070617573656400000000000000000000000000000000600082015250565b60006200082b601083620006b6565b91506200083882620007f3565b602082019050919050565b600060208201905081810360008301526200085e816200081c565b9050919050565b7f4e487b7100000000000000000000000000000000000000000000000000000000600052602260045260246000fd5b60006002820490506001821680620008ad57607f821691505b60208210811415620008c457620008c362000865565b5b50919050565b6118e980620008da6000396000f3fe608060405234801561001057600080fd5b506004361061010b5760003560e01c806370a08231116100a257806395d89b411161007157806395d89b4114610284578063a457c2d7146102a2578063a9059cbb146102d2578063dd62ed3e14610302578063f2fde38b146103325761010b565b806370a0823114610222578063715018a6146102525780638456cb591461025c5780638da5cb5b146102665761010b565b8063313ce567116100de578063313ce567146101ac57806339509351146101ca5780633f4ba83a146101fa5780635c975abb146102045761010b565b806306fdde0314610110578063095ea7b31461012e57806318160ddd1461015e57806323b872dd1461017c575b600080fd5b61011861034e565b6040516101259190610fa3565b60405180910390f35b6101486004803603810190610143919061105e565b6103e0565b60405161015591906110b9565b60405180910390f35b610166610403565b60405161017391906110e3565b60405180910390f35b610196600480360381019061019191906110fe565b61040d565b6040516101a391906110b9565b60405180910390f35b6101b461043c565b6040516101c1919061116d565b60405180910390f35b6101e460048036038101906101df919061105e565b610445565b6040516101f191906110b9565b60405180910390f35b61020261047c565b005b61020c61048e565b60405161021991906110b9565b60405180910390f35b61023c60048036038101906102379190611188565b6104a5565b60405161024991906110e3565b60405180910390f35b61025a6104ed565b005b610264610501565b005b61026e610513565b60405161027b91906111c4565b60405180910390f35b61028c61053d565b6040516102999190610fa3565b60405180910390f35b6102bc60048036038101906102b7919061105e565b6105cf565b6040516102c991906110b9565b60405180910390f35b6102ec60048036038101906102e7919061105e565b610646565b6040516102f991906110b9565b60405180910390f35b61031c600480360381019061031791906111df565b610669565b60405161032991906110e3565b60405180910390f35b61034c60048036038101906103479190611188565b6106f0565b005b60606003805461035d9061124e565b80601f01602080910402602001604051908101604052809291908181526020018280546103899061124e565b80156103d65780601f106103ab576101008083540402835291602001916103d6565b820191906000526020600020905b8154815290600101906020018083116103b957829003601f168201915b5050505050905090565b6000806103eb610779565b90506103f8818585610781565b600191505092915050565b6000600254905090565b600080610418610779565b905061042585828561094c565b6104308585856109d8565b60019150509392505050565b60006012905090565b600080610450610779565b90506104718185856104628589610669565b61046c91906112af565b610781565b600191505092915050565b610484610c50565b61048c610cce565b565b6000600560009054906101000a900460ff16905090565b60008060008373ffffffffffffffffffffffffffffffffffffffff1673ffffffffffffffffffffffffffffffffffffffff168152602001908152602001600020549050919050565b6104f5610c50565b6104ff6000610d31565b565b610509610c50565b610511610df7565b565b6000600560019054906101000a900473ffffffffffffffffffffffffffffffffffffffff16905090565b60606004805461054c9061124e565b80601f01602080910402602001604051908101604052809291908181526020018280546105789061124e565b80156105c55780601f1061059a576101008083540402835291602001916105c5565b820191906000526020600020905b8154815290600101906020018083116105a857829003601f168201915b5050505050905090565b6000806105da610779565b905060006105e88286610669565b90508381101561062d576040517f08c379a000000000000000000000000000000000000000000000000000000000815260040161062490611377565b60405180910390fd5b61063a8286868403610781565b60019250505092915050565b600080610651610779565b905061065e8185856109d8565b600191505092915050565b6000600160008473ffffffffffffffffffffffffffffffffffffffff1673ffffffffffffffffffffffffffffffffffffffff16815260200190815260200160002060008373ffffffffffffffffffffffffffffffffffffffff1673ffffffffffffffffffffffffffffffffffffffff16815260200190815260200160002054905092915050565b6106f8610c50565b600073ffffffffffffffffffffffffffffffffffffffff168173ffffffffffffffffffffffffffffffffffffffff161415610768576040517f08c379a000000000000000000000000000000000000000000000000000000000815260040161075f90611409565b60405180910390fd5b61077181610d31565b50565b505050565b600033905090565b600073ffffffffffffffffffffffffffffffffffffffff168373ffffffffffffffffffffffffffffffffffffffff1614156107f1576040517f08c379a00000000000000000000000000000000000000000000000000000000081526004016107e89061149b565b60405180910390fd5b600073ffffffffffffffffffffffffffffffffffffffff168273ffffffffffffffffffffffffffffffffffffffff161415610861576040517f08c379a00000000000000000000000000000000000000000000000000000000081526004016108589061152d565b60405180910390fd5b80600160008573ffffffffffffffffffffffffffffffffffffffff1673ffffffffffffffffffffffffffffffffffffffff16815260200190815260200160002060008473ffffffffffffffffffffffffffffffffffffffff1673ffffffffffffffffffffffffffffffffffffffff168152602001908152602001600020819055508173ffffffffffffffffffffffffffffffffffffffff168373ffffffffffffffffffffffffffffffffffffffff167f8c5be1e5ebec7d5bd14f71427d1e84f3dd0314c0f7b2291e5b200ac8c7c3b9258360405161093f91906110e3565b60405180910390a3505050565b60006109588484610669565b90507fffffffffffffffffffffffffffffffffffffffffffffffffffffffffffffffff81146109d257818110156109c4576040517f08c379a00000000000000000000000000000000000000000000000000000000081526004016109bb90611599565b60405180910390fd5b6109d18484848403610781565b5b50505050565b600073ffffffffffffffffffffffffffffffffffffffff168373ffffffffffffffffffffffffffffffffffffffff161415610a48576040517f08c379a0000000000000000000000000000000000000000000000000000000008152600401610a3f9061162b565b60405180910390fd5b600073ffffffffffffffffffffffffffffffffffffffff168273ffffffffffffffffffffffffffffffffffffffff161415610ab8576040517f08c379a0000000000000000000000000000000000000000000000000000000008152600401610aaf906116bd565b60405180910390fd5b610ac3838383610e5a565b60008060008573ffffffffffffffffffffffffffffffffffffffff1673ffffffffffffffffffffffffffffffffffffffff16815260200190815260200160002054905081811015610b49576040517f08c379a0000000000000000000000000000000000000000000000000000000008152600401610b409061174f565b60405180910390fd5b8181036000808673ffffffffffffffffffffffffffffffffffffffff1673ffffffffffffffffffffffffffffffffffffffff16815260200190815260200160002081905550816000808573ffffffffffffffffffffffffffffffffffffffff1673ffffffffffffffffffffffffffffffffffffffff168152602001908152602001600020600082825401925050819055508273ffffffffffffffffffffffffffffffffffffffff168473ffffffffffffffffffffffffffffffffffffffff167fddf252ad1be2c89b69c2b068fc378daa952ba7f163c4a11628f55a4df523b3ef84604051610c3791906110e3565b60405180910390a3610c4a848484610e72565b50505050565b610c58610779565b73ffffffffffffffffffffffffffffffffffffffff16610c76610513565b73ffffffffffffffffffffffffffffffffffffffff1614610ccc576040517f08c379a0000000000000000000000000000000000000000000000000000000008152600401610cc3906117bb565b60405180910390fd5b565b610cd6610e77565b6000600560006101000a81548160ff0219169083151502179055507f5db9ee0a495bf2e6ff9c91a7834c1ba4fdd244a5e8aa4e537bd38aeae4b073aa610d1a610779565b604051610d2791906111c4565b60405180910390a1565b6000600560019054906101000a900473ffffffffffffffffffffffffffffffffffffffff16905081600560016101000a81548173ffffffffffffffffffffffffffffffffffffffff021916908373ffffffffffffffffffffffffffffffffffffffff1602179055508173ffffffffffffffffffffffffffffffffffffffff168173ffffffffffffffffffffffffffffffffffffffff167f8be0079c531659141344cd1fd0a4f28419497f9722a3daafe3b4186f6b6457e060405160405180910390a35050565b610dff610ec0565b6001600560006101000a81548160ff0219169083151502179055507f62e78cea01bee320cd4e420270b5ea74000d11b0c9f74754ebdbfc544b05a258610e43610779565b604051610e5091906111c4565b60405180910390a1565b610e62610ec0565b610e6d838383610774565b505050565b505050565b610e7f61048e565b610ebe576040517f08c379a0000000000000000000000000000000000000000000000000000000008152600401610eb590611827565b60405180910390fd5b565b610ec861048e565b15610f08576040517f08c379a0000000000000000000000000000000000000000000000000000000008152600401610eff90611893565b60405180910390fd5b565b600081519050919050565b600082825260208201905092915050565b60005b83811015610f44578082015181840152602081019050610f29565b83811115610f53576000848401525b50505050565b6000601f19601f8301169050919050565b6000610f7582610f0a565b610f7f8185610f15565b9350610f8f818560208601610f26565b610f9881610f59565b840191505092915050565b60006020820190508181036000830152610fbd8184610f6a565b905092915050565b600080fd5b600073ffffffffffffffffffffffffffffffffffffffff82169050919050565b6000610ff582610fca565b9050919050565b61100581610fea565b811461101057600080fd5b50565b60008135905061102281610ffc565b92915050565b6000819050919050565b61103b81611028565b811461104657600080fd5b50565b60008135905061105881611032565b92915050565b6000806040838503121561107557611074610fc5565b5b600061108385828601611013565b925050602061109485828601611049565b9150509250929050565b60008115159050919050565b6110b38161109e565b82525050565b60006020820190506110ce60008301846110aa565b92915050565b6110dd81611028565b82525050565b60006020820190506110f860008301846110d4565b92915050565b60008060006060848603121561111757611116610fc5565b5b600061112586828701611013565b935050602061113686828701611013565b925050604061114786828701611049565b9150509250925092565b600060ff82169050919050565b61116781611151565b82525050565b6000602082019050611182600083018461115e565b92915050565b60006020828403121561119e5761119d610fc5565b5b60006111ac84828501611013565b91505092915050565b6111be81610fea565b82525050565b60006020820190506111d960008301846111b5565b92915050565b600080604083850312156111f6576111f5610fc5565b5b600061120485828601611013565b925050602061121585828601611013565b9150509250929050565b7f4e487b7100000000000000000000000000000000000000000000000000000000600052602260045260246000fd5b6000600282049050600182168061126657607f821691505b6020821081141561127a5761127961121f565b5b50919050565b7f4e487b7100000000000000000000000000000000000000000000000000000000600052601160045260246000fd5b60006112ba82611028565b91506112c583611028565b9250827fffffffffffffffffffffffffffffffffffffffffffffffffffffffffffffffff038211156112fa576112f9611280565b5b828201905092915050565b7f45524332303a2064656372656173656420616c6c6f77616e63652062656c6f7760008201527f207a65726f000000000000000000000000000000000000000000000000000000602082015250565b6000611361602583610f15565b915061136c82611305565b604082019050919050565b6000602082019050818103600083015261139081611354565b9050919050565b7f4f776e61626c653a206e6577206f776e657220697320746865207a65726f206160008201527f6464726573730000000000000000000000000000000000000000000000000000602082015250565b60006113f3602683610f15565b91506113fe82611397565b604082019050919050565b60006020820190508181036000830152611422816113e6565b9050919050565b7f45524332303a20617070726f76652066726f6d20746865207a65726f2061646460008201527f7265737300000000000000000000000000000000000000000000000000000000602082015250565b6000611485602483610f15565b915061149082611429565b604082019050919050565b600060208201905081810360008301526114b481611478565b9050919050565b7f45524332303a20617070726f766520746f20746865207a65726f20616464726560008201527f7373000000000000000000000000000000000000000000000000000000000000602082015250565b6000611517602283610f15565b9150611522826114bb565b604082019050919050565b600060208201905081810360008301526115468161150a565b9050919050565b7f45524332303a20696e73756666696369656e7420616c6c6f77616e6365000000600082015250565b6000611583601d83610f15565b915061158e8261154d565b602082019050919050565b600060208201905081810360008301526115b281611576565b9050919050565b7f45524332303a207472616e736665722066726f6d20746865207a65726f20616460008201527f6472657373000000000000000000000000000000000000000000000000000000602082015250565b6000611615602583610f15565b9150611620826115b9565b604082019050919050565b6000602082019050818103600083015261164481611608565b9050919050565b7f45524332303a207472616e7366657220746f20746865207a65726f206164647260008201527f6573730000000000000000000000000000000000000000000000000000000000602082015250565b60006116a7602383610f15565b91506116b28261164b565b604082019050919050565b600060208201905081810360008301526116d68161169a565b9050919050565b7f45524332303a207472616e7366657220616d6f756e742065786365656473206260008201527f616c616e63650000000000000000000000000000000000000000000000000000602082015250565b6000611739602683610f15565b9150611744826116dd565b604082019050919050565b600060208201905081810360008301526117688161172c565b9050919050565b7f4f776e61626c653a2063616c6c6572206973206e6f7420746865206f776e6572600082015250565b60006117a5602083610f15565b91506117b08261176f565b602082019050919050565b600060208201905081810360008301526117d481611798565b9050919050565b7f5061757361626c653a206e6f7420706175736564000000000000000000000000600082015250565b6000611811601483610f15565b915061181c826117db565b602082019050919050565b6000602082019050818103600083015261184081611804565b9050919050565b7f5061757361626c653a2070617573656400000000000000000000000000000000600082015250565b600061187d601083610f15565b915061188882611847565b602082019050919050565b600060208201905081810360008301526118ac81611870565b905091905056fea26469706673582212205784a7a8d9a8f4054633338a8fe3c69d57f0ff74ea23d74341b3f95fd2b51a9764736f6c634300080a0033",
  "linkReferences": {},
  "deployedLinkReferences": {}
}