{
  "_format": "hh-sol-artifact-1",
  "contractName": "PaymentSplitter",
  "sourceName": "contracts/finance/PaymentSplitter.sol",
  "abi": [
    {
      "inputs": [
        {
          "internalType": "address[]",
          "name": "payees",
          "type": "address[]"
        },
        {
          "internalType": "uint256[]",
          "name": "shares_",
          "type": "uint256[]"
        }
      ],
      "stateMutability": "payable",
      "type": "constructor"
    },
    {
      "anonymous": false,
      "inputs": [
        {
          "indexed": true,
          "internalType": "contract IERC20",
          "name": "token",
          "type": "address"
        },
        {
          "indexed": false,
          "internalType": "address",
          "name": "to",
          "type": "address"
        },
        {
          "indexed": false,
          "internalType": "uint256",
          "name": "amount",
          "type": "uint256"
        }
      ],
      "name": "ERC20PaymentReleased",
      "type": "event"
    },
    {
      "anonymous": false,
      "inputs": [
        {
          "indexed": false,
          "internalType": "address",
          "name": "account",
          "type": "address"
        },
        {
          "indexed": false,
          "internalType": "uint256",
          "name": "shares",
          "type": "uint256"
        }
      ],
      "name": "PayeeAdded",
      "type": "event"
    },
    {
      "anonymous": false,
      "inputs": [
        {
          "indexed": false,
          "internalType": "address",
          "name": "from",
          "type": "address"
        },
        {
          "indexed": false,
          "internalType": "uint256",
          "name": "amount",
          "type": "uint256"
        }
      ],
      "name": "PaymentReceived",
      "type": "event"
    },
    {
      "anonymous": false,
      "inputs": [
        {
          "indexed": false,
          "internalType": "address",
          "name": "to",
          "type": "address"
        },
        {
          "indexed": false,
          "internalType": "uint256",
          "name": "amount",
          "type": "uint256"
        }
      ],
      "name": "PaymentReleased",
      "type": "event"
    },
    {
      "inputs": [
        {
          "internalType": "uint256",
          "name": "index",
          "type": "uint256"
        }
      ],
      "name": "payee",
      "outputs": [
        {
          "internalType": "address",
          "name": "",
          "type": "address"
        }
      ],
      "stateMutability": "view",
      "type": "function"
    },
    {
      "inputs": [
        {
          "internalType": "address",
          "name": "account",
          "type": "address"
        }
      ],
      "name": "releasable",
      "outputs": [
        {
          "internalType": "uint256",
          "name": "",
          "type": "uint256"
        }
      ],
      "stateMutability": "view",
      "type": "function"
    },
    {
      "inputs": [
        {
          "internalType": "contract IERC20",
          "name": "token",
          "type": "address"
        },
        {
          "internalType": "address",
          "name": "account",
          "type": "address"
        }
      ],
      "name": "releasable",
      "outputs": [
        {
          "internalType": "uint256",
          "name": "",
          "type": "uint256"
        }
      ],
      "stateMutability": "view",
      "type": "function"
    },
    {
      "inputs": [
        {
          "internalType": "address payable",
          "name": "account",
          "type": "address"
        }
      ],
      "name": "release",
      "outputs": [],
      "stateMutability": "nonpayable",
      "type": "function"
    },
    {
      "inputs": [
        {
          "internalType": "contract IERC20",
          "name": "token",
          "type": "address"
        },
        {
          "internalType": "address",
          "name": "account",
          "type": "address"
        }
      ],
      "name": "release",
      "outputs": [],
      "stateMutability": "nonpayable",
      "type": "function"
    },
    {
      "inputs": [
        {
          "internalType": "contract IERC20",
          "name": "token",
          "type": "address"
        },
        {
          "internalType": "address",
          "name": "account",
          "type": "address"
        }
      ],
      "name": "released",
      "outputs": [
        {
          "internalType": "uint256",
          "name": "",
          "type": "uint256"
        }
      ],
      "stateMutability": "view",
      "type": "function"
    },
    {
      "inputs": [
        {
          "internalType": "address",
          "name": "account",
          "type": "address"
        }
      ],
      "name": "released",
      "outputs": [
        {
          "internalType": "uint256",
          "name": "",
          "type": "uint256"
        }
      ],
      "stateMutability": "view",
      "type": "function"
    },
    {
      "inputs": [
        {
          "internalType": "address",
          "name": "account",
          "type": "address"
        }
      ],
      "name": "shares",
      "outputs": [
        {
          "internalType": "uint256",
          "name": "",
          "type": "uint256"
        }
      ],
      "stateMutability": "view",
      "type": "function"
    },
    {
      "inputs": [
        {
          "internalType": "contract IERC20",
          "name": "token",
          "type": "address"
        }
      ],
      "name": "totalReleased",
      "outputs": [
        {
          "internalType": "uint256",
          "name": "",
          "type": "uint256"
        }
      ],
      "stateMutability": "view",
      "type": "function"
    },
    {
      "inputs": [],
      "name": "totalReleased",
      "outputs": [
        {
          "internalType": "uint256",
          "name": "",
          "type": "uint256"
        }
      ],
      "stateMutability": "view",
      "type": "function"
    },
    {
      "inputs": [],
      "name": "totalShares",
      "outputs": [
        {
          "internalType": "uint256",
          "name": "",
          "type": "uint256"
        }
      ],
      "stateMutability": "view",
      "type": "function"
    },
    {
      "stateMutability": "payable",
      "type": "receive"
    }
  ],
  "bytecode": "0x60806040526040516200239d3803806200239d833981810160405281019062000029919062000668565b805182511462000070576040517f08c379a0000000000000000000000000000000000000000000000000000000008152600401620000679062000774565b60405180910390fd5b6000825111620000b7576040517f08c379a0000000000000000000000000000000000000000000000000000000008152600401620000ae90620007e6565b60405180910390fd5b60005b8251811015620001265762000110838281518110620000de57620000dd62000808565b5b6020026020010151838381518110620000fc57620000fb62000808565b5b60200260200101516200012f60201b60201c565b80806200011d9062000866565b915050620000ba565b50505062000b02565b600073ffffffffffffffffffffffffffffffffffffffff168273ffffffffffffffffffffffffffffffffffffffff161415620001a2576040517f08c379a000000000000000000000000000000000000000000000000000000000815260040162000199906200092a565b60405180910390fd5b60008111620001e8576040517f08c379a0000000000000000000000000000000000000000000000000000000008152600401620001df906200099c565b60405180910390fd5b6000600260008473ffffffffffffffffffffffffffffffffffffffff1673ffffffffffffffffffffffffffffffffffffffff16815260200190815260200160002054146200026d576040517f08c379a0000000000000000000000000000000000000000000000000000000008152600401620002649062000a34565b60405180910390fd5b6004829080600181540180825580915050600190039060005260206000200160009091909190916101000a81548173ffffffffffffffffffffffffffffffffffffffff021916908373ffffffffffffffffffffffffffffffffffffffff16021790555080600260008473ffffffffffffffffffffffffffffffffffffffff1673ffffffffffffffffffffffffffffffffffffffff168152602001908152602001600020819055508060005462000324919062000a56565b6000819055507f40c340f65e17194d14ddddb073d3c9f888e3cb52b5aae0c6c7706b4fbc905fac82826040516200035d92919062000ad5565b60405180910390a15050565b6000604051905090565b600080fd5b600080fd5b600080fd5b6000601f19601f8301169050919050565b7f4e487b7100000000000000000000000000000000000000000000000000000000600052604160045260246000fd5b620003cd8262000382565b810181811067ffffffffffffffff82111715620003ef57620003ee62000393565b5b80604052505050565b60006200040462000369565b9050620004128282620003c2565b919050565b600067ffffffffffffffff82111562000435576200043462000393565b5b602082029050602081019050919050565b600080fd5b600073ffffffffffffffffffffffffffffffffffffffff82169050919050565b600062000478826200044b565b9050919050565b6200048a816200046b565b81146200049657600080fd5b50565b600081519050620004aa816200047f565b92915050565b6000620004c7620004c18462000417565b620003f8565b90508083825260208201905060208402830185811115620004ed57620004ec62000446565b5b835b818110156200051a578062000505888262000499565b845260208401935050602081019050620004ef565b5050509392505050565b600082601f8301126200053c576200053b6200037d565b5b81516200054e848260208601620004b0565b91505092915050565b600067ffffffffffffffff82111562000575576200057462000393565b5b602082029050602081019050919050565b6000819050919050565b6200059b8162000586565b8114620005a757600080fd5b50565b600081519050620005bb8162000590565b92915050565b6000620005d8620005d28462000557565b620003f8565b90508083825260208201905060208402830185811115620005fe57620005fd62000446565b5b835b818110156200062b5780620006168882620005aa565b84526020840193505060208101905062000600565b5050509392505050565b600082601f8301126200064d576200064c6200037d565b5b81516200065f848260208601620005c1565b91505092915050565b6000806040838503121562000682576200068162000373565b5b600083015167ffffffffffffffff811115620006a357620006a262000378565b5b620006b18582860162000524565b925050602083015167ffffffffffffffff811115620006d557620006d462000378565b5b620006e38582860162000635565b9150509250929050565b600082825260208201905092915050565b7f5061796d656e7453706c69747465723a2070617965657320616e64207368617260008201527f6573206c656e677468206d69736d617463680000000000000000000000000000602082015250565b60006200075c603283620006ed565b91506200076982620006fe565b604082019050919050565b600060208201905081810360008301526200078f816200074d565b9050919050565b7f5061796d656e7453706c69747465723a206e6f20706179656573000000000000600082015250565b6000620007ce601a83620006ed565b9150620007db8262000796565b602082019050919050565b600060208201905081810360008301526200080181620007bf565b9050919050565b7f4e487b7100000000000000000000000000000000000000000000000000000000600052603260045260246000fd5b7f4e487b7100000000000000000000000000000000000000000000000000000000600052601160045260246000fd5b6000620008738262000586565b91507fffffffffffffffffffffffffffffffffffffffffffffffffffffffffffffffff821415620008a957620008a862000837565b5b600182019050919050565b7f5061796d656e7453706c69747465723a206163636f756e74206973207468652060008201527f7a65726f20616464726573730000000000000000000000000000000000000000602082015250565b600062000912602c83620006ed565b91506200091f82620008b4565b604082019050919050565b60006020820190508181036000830152620009458162000903565b9050919050565b7f5061796d656e7453706c69747465723a20736861726573206172652030000000600082015250565b600062000984601d83620006ed565b915062000991826200094c565b602082019050919050565b60006020820190508181036000830152620009b78162000975565b9050919050565b7f5061796d656e7453706c69747465723a206163636f756e7420616c726561647960008201527f2068617320736861726573000000000000000000000000000000000000000000602082015250565b600062000a1c602b83620006ed565b915062000a2982620009be565b604082019050919050565b6000602082019050818103600083015262000a4f8162000a0d565b9050919050565b600062000a638262000586565b915062000a708362000586565b9250827fffffffffffffffffffffffffffffffffffffffffffffffffffffffffffffffff0382111562000aa85762000aa762000837565b5b828201905092915050565b62000abe816200046b565b82525050565b62000acf8162000586565b82525050565b600060408201905062000aec600083018562000ab3565b62000afb602083018462000ac4565b9392505050565b61188b8062000b126000396000f3fe6080604052600436106100a05760003560e01c80639852595c116100645780639852595c146101e3578063a3f8eace14610220578063c45ac0501461025d578063ce7c2ac21461029a578063d79779b2146102d7578063e33b7de314610314576100e7565b806319165587146100ec5780633a98ef3914610115578063406072a91461014057806348b750441461017d5780638b83209b146101a6576100e7565b366100e7577f6ef95f06320e7a25a04a175ca677b7052bdd97131872c2192525a629f51be7706100ce61033f565b346040516100dd929190610e52565b60405180910390a1005b600080fd5b3480156100f857600080fd5b50610113600480360381019061010e9190610ebe565b610347565b005b34801561012157600080fd5b5061012a6104c7565b6040516101379190610eeb565b60405180910390f35b34801561014c57600080fd5b5061016760048036038101906101629190610f70565b6104d0565b6040516101749190610eeb565b60405180910390f35b34801561018957600080fd5b506101a4600480360381019061019f9190610f70565b610557565b005b3480156101b257600080fd5b506101cd60048036038101906101c89190610fdc565b61076b565b6040516101da9190611009565b60405180910390f35b3480156101ef57600080fd5b5061020a60048036038101906102059190611024565b6107b3565b6040516102179190610eeb565b60405180910390f35b34801561022c57600080fd5b5061024760048036038101906102429190611024565b6107fc565b6040516102549190610eeb565b60405180910390f35b34801561026957600080fd5b50610284600480360381019061027f9190610f70565b61082f565b6040516102919190610eeb565b60405180910390f35b3480156102a657600080fd5b506102c160048036038101906102bc9190611024565b6108de565b6040516102ce9190610eeb565b60405180910390f35b3480156102e357600080fd5b506102fe60048036038101906102f99190611051565b610927565b60405161030b9190610eeb565b60405180910390f35b34801561032057600080fd5b50610329610970565b6040516103369190610eeb565b60405180910390f35b600033905090565b6000600260008373ffffffffffffffffffffffffffffffffffffffff1673ffffffffffffffffffffffffffffffffffffffff16815260200190815260200160002054116103c9576040517f08c379a00000000000000000000000000000000000000000000000000000000081526004016103c090611101565b60405180910390fd5b60006103d4826107fc565b9050600081141561041a576040517f08c379a000000000000000000000000000000000000000000000000000000000815260040161041190611193565b60405180910390fd5b806001600082825461042c91906111e2565b9250508190555080600360008473ffffffffffffffffffffffffffffffffffffffff1673ffffffffffffffffffffffffffffffffffffffff1681526020019081526020016000206000828254019250508190555061048a828261097a565b7fdf20fd1e76bc69d672e4814fafb2c449bba3a5369d8359adf9e05e6fde87b05682826040516104bb929190611297565b60405180910390a15050565b60008054905090565b6000600660008473ffffffffffffffffffffffffffffffffffffffff1673ffffffffffffffffffffffffffffffffffffffff16815260200190815260200160002060008373ffffffffffffffffffffffffffffffffffffffff1673ffffffffffffffffffffffffffffffffffffffff16815260200190815260200160002054905092915050565b6000600260008373ffffffffffffffffffffffffffffffffffffffff1673ffffffffffffffffffffffffffffffffffffffff16815260200190815260200160002054116105d9576040517f08c379a00000000000000000000000000000000000000000000000000000000081526004016105d090611101565b60405180910390fd5b60006105e5838361082f565b9050600081141561062b576040517f08c379a000000000000000000000000000000000000000000000000000000000815260040161062290611193565b60405180910390fd5b80600560008573ffffffffffffffffffffffffffffffffffffffff1673ffffffffffffffffffffffffffffffffffffffff168152602001908152602001600020600082825461067a91906111e2565b9250508190555080600660008573ffffffffffffffffffffffffffffffffffffffff1673ffffffffffffffffffffffffffffffffffffffff16815260200190815260200160002060008473ffffffffffffffffffffffffffffffffffffffff1673ffffffffffffffffffffffffffffffffffffffff16815260200190815260200160002060008282540192505081905550610716838383610a6e565b8273ffffffffffffffffffffffffffffffffffffffff167f3be5b7a71e84ed12875d241991c70855ac5817d847039e17a9d895c1ceb0f18a838360405161075e929190610e52565b60405180910390a2505050565b600060048281548110610781576107806112c0565b5b9060005260206000200160009054906101000a900473ffffffffffffffffffffffffffffffffffffffff169050919050565b6000600360008373ffffffffffffffffffffffffffffffffffffffff1673ffffffffffffffffffffffffffffffffffffffff168152602001908152602001600020549050919050565b600080610807610970565b4761081291906111e2565b90506108278382610822866107b3565b610af4565b915050919050565b60008061083b84610927565b8473ffffffffffffffffffffffffffffffffffffffff166370a08231306040518263ffffffff1660e01b81526004016108749190611009565b602060405180830381865afa158015610891573d6000803e3d6000fd5b505050506040513d601f19601f820116820180604052508101906108b59190611304565b6108bf91906111e2565b90506108d583826108d087876104d0565b610af4565b91505092915050565b6000600260008373ffffffffffffffffffffffffffffffffffffffff1673ffffffffffffffffffffffffffffffffffffffff168152602001908152602001600020549050919050565b6000600560008373ffffffffffffffffffffffffffffffffffffffff1673ffffffffffffffffffffffffffffffffffffffff168152602001908152602001600020549050919050565b6000600154905090565b804710156109bd576040517f08c379a00000000000000000000000000000000000000000000000000000000081526004016109b49061137d565b60405180910390fd5b60008273ffffffffffffffffffffffffffffffffffffffff16826040516109e3906113ce565b60006040518083038185875af1925050503d8060008114610a20576040519150601f19603f3d011682016040523d82523d6000602084013e610a25565b606091505b5050905080610a69576040517f08c379a0000000000000000000000000000000000000000000000000000000008152600401610a6090611455565b60405180910390fd5b505050565b610aef8363a9059cbb60e01b8484604051602401610a8d929190610e52565b604051602081830303815290604052907bffffffffffffffffffffffffffffffffffffffffffffffffffffffff19166020820180517bffffffffffffffffffffffffffffffffffffffffffffffffffffffff8381831617835250505050610b62565b505050565b600081600054600260008773ffffffffffffffffffffffffffffffffffffffff1673ffffffffffffffffffffffffffffffffffffffff1681526020019081526020016000205485610b459190611475565b610b4f91906114fe565b610b59919061152f565b90509392505050565b6000610bc4826040518060400160405280602081526020017f5361666545524332303a206c6f772d6c6576656c2063616c6c206661696c65648152508573ffffffffffffffffffffffffffffffffffffffff16610c2a9092919063ffffffff16565b9050600081511480610be6575080806020019051810190610be5919061159b565b5b610c25576040517f08c379a0000000000000000000000000000000000000000000000000000000008152600401610c1c9061163a565b60405180910390fd5b505050565b6060610c398484600085610c42565b90509392505050565b606082471015610c87576040517f08c379a0000000000000000000000000000000000000000000000000000000008152600401610c7e906116cc565b60405180910390fd5b6000808673ffffffffffffffffffffffffffffffffffffffff168587604051610cb0919061175b565b60006040518083038185875af1925050503d8060008114610ced576040519150601f19603f3d011682016040523d82523d6000602084013e610cf2565b606091505b5091509150610d0387838387610d0f565b92505050949350505050565b60608315610d7257600083511415610d6a57610d2a85610d85565b610d69576040517f08c379a0000000000000000000000000000000000000000000000000000000008152600401610d60906117be565b60405180910390fd5b5b829050610d7d565b610d7c8383610da8565b5b949350505050565b6000808273ffffffffffffffffffffffffffffffffffffffff163b119050919050565b600082511115610dbb5781518083602001fd5b806040517f08c379a0000000000000000000000000000000000000000000000000000000008152600401610def9190611833565b60405180910390fd5b600073ffffffffffffffffffffffffffffffffffffffff82169050919050565b6000610e2382610df8565b9050919050565b610e3381610e18565b82525050565b6000819050919050565b610e4c81610e39565b82525050565b6000604082019050610e676000830185610e2a565b610e746020830184610e43565b9392505050565b600080fd5b6000610e8b82610df8565b9050919050565b610e9b81610e80565b8114610ea657600080fd5b50565b600081359050610eb881610e92565b92915050565b600060208284031215610ed457610ed3610e7b565b5b6000610ee284828501610ea9565b91505092915050565b6000602082019050610f006000830184610e43565b92915050565b6000610f1182610e18565b9050919050565b610f2181610f06565b8114610f2c57600080fd5b50565b600081359050610f3e81610f18565b92915050565b610f4d81610e18565b8114610f5857600080fd5b50565b600081359050610f6a81610f44565b92915050565b60008060408385031215610f8757610f86610e7b565b5b6000610f9585828601610f2f565b9250506020610fa685828601610f5b565b9150509250929050565b610fb981610e39565b8114610fc457600080fd5b50565b600081359050610fd681610fb0565b92915050565b600060208284031215610ff257610ff1610e7b565b5b600061100084828501610fc7565b91505092915050565b600060208201905061101e6000830184610e2a565b92915050565b60006020828403121561103a57611039610e7b565b5b600061104884828501610f5b565b91505092915050565b60006020828403121561106757611066610e7b565b5b600061107584828501610f2f565b91505092915050565b600082825260208201905092915050565b7f5061796d656e7453706c69747465723a206163636f756e7420686173206e6f2060008201527f7368617265730000000000000000000000000000000000000000000000000000602082015250565b60006110eb60268361107e565b91506110f68261108f565b604082019050919050565b6000602082019050818103600083015261111a816110de565b9050919050565b7f5061796d656e7453706c69747465723a206163636f756e74206973206e6f742060008201527f647565207061796d656e74000000000000000000000000000000000000000000602082015250565b600061117d602b8361107e565b915061118882611121565b604082019050919050565b600060208201905081810360008301526111ac81611170565b9050919050565b7f4e487b7100000000000000000000000000000000000000000000000000000000600052601160045260246000fd5b60006111ed82610e39565b91506111f883610e39565b9250827fffffffffffffffffffffffffffffffffffffffffffffffffffffffffffffffff0382111561122d5761122c6111b3565b5b828201905092915050565b6000819050919050565b600061125d61125861125384610df8565b611238565b610df8565b9050919050565b600061126f82611242565b9050919050565b600061128182611264565b9050919050565b61129181611276565b82525050565b60006040820190506112ac6000830185611288565b6112b96020830184610e43565b9392505050565b7f4e487b7100000000000000000000000000000000000000000000000000000000600052603260045260246000fd5b6000815190506112fe81610fb0565b92915050565b60006020828403121561131a57611319610e7b565b5b6000611328848285016112ef565b91505092915050565b7f416464726573733a20696e73756666696369656e742062616c616e6365000000600082015250565b6000611367601d8361107e565b915061137282611331565b602082019050919050565b600060208201905081810360008301526113968161135a565b9050919050565b600081905092915050565b50565b60006113b860008361139d565b91506113c3826113a8565b600082019050919050565b60006113d9826113ab565b9150819050919050565b7f416464726573733a20756e61626c6520746f2073656e642076616c75652c207260008201527f6563697069656e74206d61792068617665207265766572746564000000000000602082015250565b600061143f603a8361107e565b915061144a826113e3565b604082019050919050565b6000602082019050818103600083015261146e81611432565b9050919050565b600061148082610e39565b915061148b83610e39565b9250817fffffffffffffffffffffffffffffffffffffffffffffffffffffffffffffffff04831182151516156114c4576114c36111b3565b5b828202905092915050565b7f4e487b7100000000000000000000000000000000000000000000000000000000600052601260045260246000fd5b600061150982610e39565b915061151483610e39565b925082611524576115236114cf565b5b828204905092915050565b600061153a82610e39565b915061154583610e39565b925082821015611558576115576111b3565b5b828203905092915050565b60008115159050919050565b61157881611563565b811461158357600080fd5b50565b6000815190506115958161156f565b92915050565b6000602082840312156115b1576115b0610e7b565b5b60006115bf84828501611586565b91505092915050565b7f5361666545524332303a204552433230206f7065726174696f6e20646964206e60008201527f6f74207375636365656400000000000000000000000000000000000000000000602082015250565b6000611624602a8361107e565b915061162f826115c8565b604082019050919050565b6000602082019050818103600083015261165381611617565b9050919050565b7f416464726573733a20696e73756666696369656e742062616c616e636520666f60008201527f722063616c6c0000000000000000000000000000000000000000000000000000602082015250565b60006116b660268361107e565b91506116c18261165a565b604082019050919050565b600060208201905081810360008301526116e5816116a9565b9050919050565b600081519050919050565b60005b838110156117155780820151818401526020810190506116fa565b83811115611724576000848401525b50505050565b6000611735826116ec565b61173f818561139d565b935061174f8185602086016116f7565b80840191505092915050565b6000611767828461172a565b915081905092915050565b7f416464726573733a2063616c6c20746f206e6f6e2d636f6e7472616374000000600082015250565b60006117a8601d8361107e565b91506117b382611772565b602082019050919050565b600060208201905081810360008301526117d78161179b565b9050919050565b600081519050919050565b6000601f19601f8301169050919050565b6000611805826117de565b61180f818561107e565b935061181f8185602086016116f7565b611828816117e9565b840191505092915050565b6000602082019050818103600083015261184d81846117fa565b90509291505056fea2646970667358221220c238f33c0870d03584925eca4f45f44fb4a7d2ac0686d2e19a0c4337f207aad164736f6c634300080a0033",
  "linkReferences": {},
  "deployedLinkReferences": {}
}