{
  "_format": "hh-sol-artifact-1",
  "contractName": "DAO",
  "sourceName": "contracts/governor/DAO.sol",
  "abi": [
    {
      "inputs": [
        {
          "internalType": "string",
          "name": "name",
          "type": "string"
        },
        {
          "internalType": "uint256",
          "name": "initialVotingDelay",
          "type": "uint256"
        },
        {
          "internalType": "uint256",
          "name": "initialVotingPeriod",
          "type": "uint256"
        },
        {
          "internalType": "uint256",
          "name": "initialProposalThreshold",
          "type": "uint256"
        },
        {
          "internalType": "uint256",
          "name": "quorumThreshold",
          "type": "uint256"
        },
        {
          "internalType": "contract IVotes",
          "name": "_token",
          "type": "address"
        },
        {
          "internalType": "contract TimelockController",
          "name": "_timelock",
          "type": "address"
        }
      ],
      "stateMutability": "nonpayable",
      "type": "constructor"
    },
    {
      "inputs": [],
      "name": "Empty",
      "type": "error"
    },
    {
      "inputs": [],
      "name": "InvalidShortString",
      "type": "error"
    },
    {
      "inputs": [
        {
          "internalType": "string",
          "name": "str",
          "type": "string"
        }
      ],
      "name": "StringTooLong",
      "type": "error"
    },
    {
      "anonymous": false,
      "inputs": [],
      "name": "EIP712DomainChanged",
      "type": "event"
    },
    {
      "anonymous": false,
      "inputs": [
        {
          "indexed": false,
          "internalType": "uint256",
          "name": "proposalId",
          "type": "uint256"
        }
      ],
      "name": "ProposalCanceled",
      "type": "event"
    },
    {
      "anonymous": false,
      "inputs": [
        {
          "indexed": false,
          "internalType": "uint256",
          "name": "proposalId",
          "type": "uint256"
        },
        {
          "indexed": false,
          "internalType": "address",
          "name": "proposer",
          "type": "address"
        },
        {
          "indexed": false,
          "internalType": "address[]",
          "name": "targets",
          "type": "address[]"
        },
        {
          "indexed": false,
          "internalType": "uint256[]",
          "name": "values",
          "type": "uint256[]"
        },
        {
          "indexed": false,
          "internalType": "string[]",
          "name": "signatures",
          "type": "string[]"
        },
        {
          "indexed": false,
          "internalType": "bytes[]",
          "name": "calldatas",
          "type": "bytes[]"
        },
        {
          "indexed": false,
          "internalType": "uint256",
          "name": "voteStart",
          "type": "uint256"
        },
        {
          "indexed": false,
          "internalType": "uint256",
          "name": "voteEnd",
          "type": "uint256"
        },
        {
          "indexed": false,
          "internalType": "string",
          "name": "description",
          "type": "string"
        }
      ],
      "name": "ProposalCreated",
      "type": "event"
    },
    {
      "anonymous": false,
      "inputs": [
        {
          "indexed": false,
          "internalType": "uint256",
          "name": "proposalId",
          "type": "uint256"
        }
      ],
      "name": "ProposalExecuted",
      "type": "event"
    },
    {
      "anonymous": false,
      "inputs": [
        {
          "indexed": false,
          "internalType": "uint256",
          "name": "proposalId",
          "type": "uint256"
        },
        {
          "indexed": false,
          "internalType": "uint256",
          "name": "eta",
          "type": "uint256"
        }
      ],
      "name": "ProposalQueued",
      "type": "event"
    },
    {
      "anonymous": false,
      "inputs": [
        {
          "indexed": false,
          "internalType": "uint256",
          "name": "oldProposalThreshold",
          "type": "uint256"
        },
        {
          "indexed": false,
          "internalType": "uint256",
          "name": "newProposalThreshold",
          "type": "uint256"
        }
      ],
      "name": "ProposalThresholdSet",
      "type": "event"
    },
    {
      "anonymous": false,
      "inputs": [
        {
          "indexed": false,
          "internalType": "uint256",
          "name": "oldQuorumNumerator",
          "type": "uint256"
        },
        {
          "indexed": false,
          "internalType": "uint256",
          "name": "newQuorumNumerator",
          "type": "uint256"
        }
      ],
      "name": "QuorumNumeratorUpdated",
      "type": "event"
    },
    {
      "anonymous": false,
      "inputs": [
        {
          "indexed": false,
          "internalType": "address",
          "name": "oldTimelock",
          "type": "address"
        },
        {
          "indexed": false,
          "internalType": "address",
          "name": "newTimelock",
          "type": "address"
        }
      ],
      "name": "TimelockChange",
      "type": "event"
    },
    {
      "anonymous": false,
      "inputs": [
        {
          "indexed": true,
          "internalType": "address",
          "name": "voter",
          "type": "address"
        },
        {
          "indexed": false,
          "internalType": "uint256",
          "name": "proposalId",
          "type": "uint256"
        },
        {
          "indexed": false,
          "internalType": "uint8",
          "name": "support",
          "type": "uint8"
        },
        {
          "indexed": false,
          "internalType": "uint256",
          "name": "weight",
          "type": "uint256"
        },
        {
          "indexed": false,
          "internalType": "string",
          "name": "reason",
          "type": "string"
        }
      ],
      "name": "VoteCast",
      "type": "event"
    },
    {
      "anonymous": false,
      "inputs": [
        {
          "indexed": true,
          "internalType": "address",
          "name": "voter",
          "type": "address"
        },
        {
          "indexed": false,
          "internalType": "uint256",
          "name": "proposalId",
          "type": "uint256"
        },
        {
          "indexed": false,
          "internalType": "uint8",
          "name": "support",
          "type": "uint8"
        },
        {
          "indexed": false,
          "internalType": "uint256",
          "name": "weight",
          "type": "uint256"
        },
        {
          "indexed": false,
          "internalType": "string",
          "name": "reason",
          "type": "string"
        },
        {
          "indexed": false,
          "internalType": "bytes",
          "name": "params",
          "type": "bytes"
        }
      ],
      "name": "VoteCastWithParams",
      "type": "event"
    },
    {
      "anonymous": false,
      "inputs": [
        {
          "indexed": false,
          "internalType": "uint256",
          "name": "oldVotingDelay",
          "type": "uint256"
        },
        {
          "indexed": false,
          "internalType": "uint256",
          "name": "newVotingDelay",
          "type": "uint256"
        }
      ],
      "name": "VotingDelaySet",
      "type": "event"
    },
    {
      "anonymous": false,
      "inputs": [
        {
          "indexed": false,
          "internalType": "uint256",
          "name": "oldVotingPeriod",
          "type": "uint256"
        },
        {
          "indexed": false,
          "internalType": "uint256",
          "name": "newVotingPeriod",
          "type": "uint256"
        }
      ],
      "name": "VotingPeriodSet",
      "type": "event"
    },
    {
      "inputs": [],
      "name": "BALLOT_TYPEHASH",
      "outputs": [
        {
          "internalType": "bytes32",
          "name": "",
          "type": "bytes32"
        }
      ],
      "stateMutability": "view",
      "type": "function"
    },
    {
      "inputs": [],
      "name": "CLOCK_MODE",
      "outputs": [
        {
          "internalType": "string",
          "name": "",
          "type": "string"
        }
      ],
      "stateMutability": "view",
      "type": "function"
    },
    {
      "inputs": [],
      "name": "COUNTING_MODE",
      "outputs": [
        {
          "internalType": "string",
          "name": "",
          "type": "string"
        }
      ],
      "stateMutability": "pure",
      "type": "function"
    },
    {
      "inputs": [],
      "name": "EXTENDED_BALLOT_TYPEHASH",
      "outputs": [
        {
          "internalType": "bytes32",
          "name": "",
          "type": "bytes32"
        }
      ],
      "stateMutability": "view",
      "type": "function"
    },
    {
      "inputs": [
        {
          "internalType": "address[]",
          "name": "targets",
          "type": "address[]"
        },
        {
          "internalType": "uint256[]",
          "name": "values",
          "type": "uint256[]"
        },
        {
          "internalType": "bytes[]",
          "name": "calldatas",
          "type": "bytes[]"
        },
        {
          "internalType": "bytes32",
          "name": "descriptionHash",
          "type": "bytes32"
        }
      ],
      "name": "cancel",
      "outputs": [
        {
          "internalType": "uint256",
          "name": "",
          "type": "uint256"
        }
      ],
      "stateMutability": "nonpayable",
      "type": "function"
    },
    {
      "inputs": [
        {
          "internalType": "uint256",
          "name": "proposalId",
          "type": "uint256"
        },
        {
          "internalType": "uint8",
          "name": "support",
          "type": "uint8"
        }
      ],
      "name": "castVote",
      "outputs": [
        {
          "internalType": "uint256",
          "name": "",
          "type": "uint256"
        }
      ],
      "stateMutability": "nonpayable",
      "type": "function"
    },
    {
      "inputs": [
        {
          "internalType": "uint256",
          "name": "proposalId",
          "type": "uint256"
        },
        {
          "internalType": "uint8",
          "name": "support",
          "type": "uint8"
        },
        {
          "internalType": "uint8",
          "name": "v",
          "type": "uint8"
        },
        {
          "internalType": "bytes32",
          "name": "r",
          "type": "bytes32"
        },
        {
          "internalType": "bytes32",
          "name": "s",
          "type": "bytes32"
        }
      ],
      "name": "castVoteBySig",
      "outputs": [
        {
          "internalType": "uint256",
          "name": "",
          "type": "uint256"
        }
      ],
      "stateMutability": "nonpayable",
      "type": "function"
    },
    {
      "inputs": [
        {
          "internalType": "uint256",
          "name": "proposalId",
          "type": "uint256"
        },
        {
          "internalType": "uint8",
          "name": "support",
          "type": "uint8"
        },
        {
          "internalType": "string",
          "name": "reason",
          "type": "string"
        }
      ],
      "name": "castVoteWithReason",
      "outputs": [
        {
          "internalType": "uint256",
          "name": "",
          "type": "uint256"
        }
      ],
      "stateMutability": "nonpayable",
      "type": "function"
    },
    {
      "inputs": [
        {
          "internalType": "uint256",
          "name": "proposalId",
          "type": "uint256"
        },
        {
          "internalType": "uint8",
          "name": "support",
          "type": "uint8"
        },
        {
          "internalType": "string",
          "name": "reason",
          "type": "string"
        },
        {
          "internalType": "bytes",
          "name": "params",
          "type": "bytes"
        }
      ],
      "name": "castVoteWithReasonAndParams",
      "outputs": [
        {
          "internalType": "uint256",
          "name": "",
          "type": "uint256"
        }
      ],
      "stateMutability": "nonpayable",
      "type": "function"
    },
    {
      "inputs": [
        {
          "internalType": "uint256",
          "name": "proposalId",
          "type": "uint256"
        },
        {
          "internalType": "uint8",
          "name": "support",
          "type": "uint8"
        },
        {
          "internalType": "string",
          "name": "reason",
          "type": "string"
        },
        {
          "internalType": "bytes",
          "name": "params",
          "type": "bytes"
        },
        {
          "internalType": "uint8",
          "name": "v",
          "type": "uint8"
        },
        {
          "internalType": "bytes32",
          "name": "r",
          "type": "bytes32"
        },
        {
          "internalType": "bytes32",
          "name": "s",
          "type": "bytes32"
        }
      ],
      "name": "castVoteWithReasonAndParamsBySig",
      "outputs": [
        {
          "internalType": "uint256",
          "name": "",
          "type": "uint256"
        }
      ],
      "stateMutability": "nonpayable",
      "type": "function"
    },
    {
      "inputs": [],
      "name": "clock",
      "outputs": [
        {
          "internalType": "uint48",
          "name": "",
          "type": "uint48"
        }
      ],
      "stateMutability": "view",
      "type": "function"
    },
    {
      "inputs": [],
      "name": "eip712Domain",
      "outputs": [
        {
          "internalType": "bytes1",
          "name": "fields",
          "type": "bytes1"
        },
        {
          "internalType": "string",
          "name": "name",
          "type": "string"
        },
        {
          "internalType": "string",
          "name": "version",
          "type": "string"
        },
        {
          "internalType": "uint256",
          "name": "chainId",
          "type": "uint256"
        },
        {
          "internalType": "address",
          "name": "verifyingContract",
          "type": "address"
        },
        {
          "internalType": "bytes32",
          "name": "salt",
          "type": "bytes32"
        },
        {
          "internalType": "uint256[]",
          "name": "extensions",
          "type": "uint256[]"
        }
      ],
      "stateMutability": "view",
      "type": "function"
    },
    {
      "inputs": [
        {
          "internalType": "address[]",
          "name": "targets",
          "type": "address[]"
        },
        {
          "internalType": "uint256[]",
          "name": "values",
          "type": "uint256[]"
        },
        {
          "internalType": "bytes[]",
          "name": "calldatas",
          "type": "bytes[]"
        },
        {
          "internalType": "bytes32",
          "name": "descriptionHash",
          "type": "bytes32"
        }
      ],
      "name": "execute",
      "outputs": [
        {
          "internalType": "uint256",
          "name": "",
          "type": "uint256"
        }
      ],
      "stateMutability": "payable",
      "type": "function"
    },
    {
      "inputs": [
        {
          "internalType": "address",
          "name": "account",
          "type": "address"
        },
        {
          "internalType": "uint256",
          "name": "timepoint",
          "type": "uint256"
        }
      ],
      "name": "getVotes",
      "outputs": [
        {
          "internalType": "uint256",
          "name": "",
          "type": "uint256"
        }
      ],
      "stateMutability": "view",
      "type": "function"
    },
    {
      "inputs": [
        {
          "internalType": "address",
          "name": "account",
          "type": "address"
        },
        {
          "internalType": "uint256",
          "name": "timepoint",
          "type": "uint256"
        },
        {
          "internalType": "bytes",
          "name": "params",
          "type": "bytes"
        }
      ],
      "name": "getVotesWithParams",
      "outputs": [
        {
          "internalType": "uint256",
          "name": "",
          "type": "uint256"
        }
      ],
      "stateMutability": "view",
      "type": "function"
    },
    {
      "inputs": [
        {
          "internalType": "uint256",
          "name": "proposalId",
          "type": "uint256"
        },
        {
          "internalType": "address",
          "name": "account",
          "type": "address"
        }
      ],
      "name": "hasVoted",
      "outputs": [
        {
          "internalType": "bool",
          "name": "",
          "type": "bool"
        }
      ],
      "stateMutability": "view",
      "type": "function"
    },
    {
      "inputs": [
        {
          "internalType": "address[]",
          "name": "targets",
          "type": "address[]"
        },
        {
          "internalType": "uint256[]",
          "name": "values",
          "type": "uint256[]"
        },
        {
          "internalType": "bytes[]",
          "name": "calldatas",
          "type": "bytes[]"
        },
        {
          "internalType": "bytes32",
          "name": "descriptionHash",
          "type": "bytes32"
        }
      ],
      "name": "hashProposal",
      "outputs": [
        {
          "internalType": "uint256",
          "name": "",
          "type": "uint256"
        }
      ],
      "stateMutability": "pure",
      "type": "function"
    },
    {
      "inputs": [],
      "name": "name",
      "outputs": [
        {
          "internalType": "string",
          "name": "",
          "type": "string"
        }
      ],
      "stateMutability": "view",
      "type": "function"
    },
    {
      "inputs": [
        {
          "internalType": "address",
          "name": "",
          "type": "address"
        },
        {
          "internalType": "address",
          "name": "",
          "type": "address"
        },
        {
          "internalType": "uint256[]",
          "name": "",
          "type": "uint256[]"
        },
        {
          "internalType": "uint256[]",
          "name": "",
          "type": "uint256[]"
        },
        {
          "internalType": "bytes",
          "name": "",
          "type": "bytes"
        }
      ],
      "name": "onERC1155BatchReceived",
      "outputs": [
        {
          "internalType": "bytes4",
          "name": "",
          "type": "bytes4"
        }
      ],
      "stateMutability": "nonpayable",
      "type": "function"
    },
    {
      "inputs": [
        {
          "internalType": "address",
          "name": "",
          "type": "address"
        },
        {
          "internalType": "address",
          "name": "",
          "type": "address"
        },
        {
          "internalType": "uint256",
          "name": "",
          "type": "uint256"
        },
        {
          "internalType": "uint256",
          "name": "",
          "type": "uint256"
        },
        {
          "internalType": "bytes",
          "name": "",
          "type": "bytes"
        }
      ],
      "name": "onERC1155Received",
      "outputs": [
        {
          "internalType": "bytes4",
          "name": "",
          "type": "bytes4"
        }
      ],
      "stateMutability": "nonpayable",
      "type": "function"
    },
    {
      "inputs": [
        {
          "internalType": "address",
          "name": "",
          "type": "address"
        },
        {
          "internalType": "address",
          "name": "",
          "type": "address"
        },
        {
          "internalType": "uint256",
          "name": "",
          "type": "uint256"
        },
        {
          "internalType": "bytes",
          "name": "",
          "type": "bytes"
        }
      ],
      "name": "onERC721Received",
      "outputs": [
        {
          "internalType": "bytes4",
          "name": "",
          "type": "bytes4"
        }
      ],
      "stateMutability": "nonpayable",
      "type": "function"
    },
    {
      "inputs": [
        {
          "internalType": "uint256",
          "name": "proposalId",
          "type": "uint256"
        }
      ],
      "name": "proposalDeadline",
      "outputs": [
        {
          "internalType": "uint256",
          "name": "",
          "type": "uint256"
        }
      ],
      "stateMutability": "view",
      "type": "function"
    },
    {
      "inputs": [
        {
          "internalType": "uint256",
          "name": "proposalId",
          "type": "uint256"
        }
      ],
      "name": "proposalEta",
      "outputs": [
        {
          "internalType": "uint256",
          "name": "",
          "type": "uint256"
        }
      ],
      "stateMutability": "view",
      "type": "function"
    },
    {
      "inputs": [
        {
          "internalType": "uint256",
          "name": "proposalId",
          "type": "uint256"
        }
      ],
      "name": "proposalProposer",
      "outputs": [
        {
          "internalType": "address",
          "name": "",
          "type": "address"
        }
      ],
      "stateMutability": "view",
      "type": "function"
    },
    {
      "inputs": [
        {
          "internalType": "uint256",
          "name": "proposalId",
          "type": "uint256"
        }
      ],
      "name": "proposalSnapshot",
      "outputs": [
        {
          "internalType": "uint256",
          "name": "",
          "type": "uint256"
        }
      ],
      "stateMutability": "view",
      "type": "function"
    },
    {
      "inputs": [],
      "name": "proposalThreshold",
      "outputs": [
        {
          "internalType": "uint256",
          "name": "",
          "type": "uint256"
        }
      ],
      "stateMutability": "view",
      "type": "function"
    },
    {
      "inputs": [
        {
          "internalType": "uint256",
          "name": "proposalId",
          "type": "uint256"
        }
      ],
      "name": "proposalVotes",
      "outputs": [
        {
          "internalType": "uint256",
          "name": "againstVotes",
          "type": "uint256"
        },
        {
          "internalType": "uint256",
          "name": "forVotes",
          "type": "uint256"
        },
        {
          "internalType": "uint256",
          "name": "abstainVotes",
          "type": "uint256"
        }
      ],
      "stateMutability": "view",
      "type": "function"
    },
    {
      "inputs": [
        {
          "internalType": "address[]",
          "name": "targets",
          "type": "address[]"
        },
        {
          "internalType": "uint256[]",
          "name": "values",
          "type": "uint256[]"
        },
        {
          "internalType": "bytes[]",
          "name": "calldatas",
          "type": "bytes[]"
        },
        {
          "internalType": "string",
          "name": "description",
          "type": "string"
        }
      ],
      "name": "propose",
      "outputs": [
        {
          "internalType": "uint256",
          "name": "",
          "type": "uint256"
        }
      ],
      "stateMutability": "nonpayable",
      "type": "function"
    },
    {
      "inputs": [
        {
          "internalType": "address[]",
          "name": "targets",
          "type": "address[]"
        },
        {
          "internalType": "uint256[]",
          "name": "values",
          "type": "uint256[]"
        },
        {
          "internalType": "bytes[]",
          "name": "calldatas",
          "type": "bytes[]"
        },
        {
          "internalType": "bytes32",
          "name": "descriptionHash",
          "type": "bytes32"
        }
      ],
      "name": "queue",
      "outputs": [
        {
          "internalType": "uint256",
          "name": "",
          "type": "uint256"
        }
      ],
      "stateMutability": "nonpayable",
      "type": "function"
    },
    {
      "inputs": [
        {
          "internalType": "uint256",
          "name": "blockNumber",
          "type": "uint256"
        }
      ],
      "name": "quorum",
      "outputs": [
        {
          "internalType": "uint256",
          "name": "",
          "type": "uint256"
        }
      ],
      "stateMutability": "view",
      "type": "function"
    },
    {
      "inputs": [],
      "name": "quorumDenominator",
      "outputs": [
        {
          "internalType": "uint256",
          "name": "",
          "type": "uint256"
        }
      ],
      "stateMutability": "view",
      "type": "function"
    },
    {
      "inputs": [
        {
          "internalType": "uint256",
          "name": "timepoint",
          "type": "uint256"
        }
      ],
      "name": "quorumNumerator",
      "outputs": [
        {
          "internalType": "uint256",
          "name": "",
          "type": "uint256"
        }
      ],
      "stateMutability": "view",
      "type": "function"
    },
    {
      "inputs": [],
      "name": "quorumNumerator",
      "outputs": [
        {
          "internalType": "uint256",
          "name": "",
          "type": "uint256"
        }
      ],
      "stateMutability": "view",
      "type": "function"
    },
    {
      "inputs": [
        {
          "internalType": "address",
          "name": "target",
          "type": "address"
        },
        {
          "internalType": "uint256",
          "name": "value",
          "type": "uint256"
        },
        {
          "internalType": "bytes",
          "name": "data",
          "type": "bytes"
        }
      ],
      "name": "relay",
      "outputs": [],
      "stateMutability": "payable",
      "type": "function"
    },
    {
      "inputs": [
        {
          "internalType": "uint256",
          "name": "newProposalThreshold",
          "type": "uint256"
        }
      ],
      "name": "setProposalThreshold",
      "outputs": [],
      "stateMutability": "nonpayable",
      "type": "function"
    },
    {
      "inputs": [
        {
          "internalType": "uint256",
          "name": "newVotingDelay",
          "type": "uint256"
        }
      ],
      "name": "setVotingDelay",
      "outputs": [],
      "stateMutability": "nonpayable",
      "type": "function"
    },
    {
      "inputs": [
        {
          "internalType": "uint256",
          "name": "newVotingPeriod",
          "type": "uint256"
        }
      ],
      "name": "setVotingPeriod",
      "outputs": [],
      "stateMutability": "nonpayable",
      "type": "function"
    },
    {
      "inputs": [
        {
          "internalType": "uint256",
          "name": "proposalId",
          "type": "uint256"
        }
      ],
      "name": "state",
      "outputs": [
        {
          "internalType": "enum IGovernor.ProposalState",
          "name": "",
          "type": "uint8"
        }
      ],
      "stateMutability": "view",
      "type": "function"
    },
    {
      "inputs": [
        {
          "internalType": "bytes4",
          "name": "interfaceId",
          "type": "bytes4"
        }
      ],
      "name": "supportsInterface",
      "outputs": [
        {
          "internalType": "bool",
          "name": "",
          "type": "bool"
        }
      ],
      "stateMutability": "view",
      "type": "function"
    },
    {
      "inputs": [],
      "name": "timelock",
      "outputs": [
        {
          "internalType": "address",
          "name": "",
          "type": "address"
        }
      ],
      "stateMutability": "view",
      "type": "function"
    },
    {
      "inputs": [],
      "name": "token",
      "outputs": [
        {
          "internalType": "contract IERC5805",
          "name": "",
          "type": "address"
        }
      ],
      "stateMutability": "view",
      "type": "function"
    },
    {
      "inputs": [
        {
          "internalType": "uint256",
          "name": "newQuorumNumerator",
          "type": "uint256"
        }
      ],
      "name": "updateQuorumNumerator",
      "outputs": [],
      "stateMutability": "nonpayable",
      "type": "function"
    },
    {
      "inputs": [
        {
          "internalType": "contract TimelockController",
          "name": "newTimelock",
          "type": "address"
        }
      ],
      "name": "updateTimelock",
      "outputs": [],
      "stateMutability": "nonpayable",
      "type": "function"
    },
    {
      "inputs": [],
      "name": "version",
      "outputs": [
        {
          "internalType": "string",
          "name": "",
          "type": "string"
        }
      ],
      "stateMutability": "view",
      "type": "function"
    },
    {
      "inputs": [],
      "name": "votingDelay",
      "outputs": [
        {
          "internalType": "uint256",
          "name": "",
          "type": "uint256"
        }
      ],
      "stateMutability": "view",
      "type": "function"
    },
    {
      "inputs": [],
      "name": "votingPeriod",
      "outputs": [
        {
          "internalType": "uint256",
          "name": "",
          "type": "uint256"
        }
      ],
      "stateMutability": "view",
      "type": "function"
    },
    {
      "stateMutability": "payable",
      "type": "receive"
    }
  ],
  "bytecode": "0x6101806040523480156200001257600080fd5b50604051620097c2380380620097c28339818101604052810190620000389190620010d6565b8083838888888c8062000050620001c160201b60201c565b6200006b600083620001fe60201b620023dd1790919060201c565b61012081815250506200008e600182620001fe60201b620023dd1790919060201c565b6101408181525050818051906020012060e08181525050808051906020012061010081815250504660a08181525050620000cd6200026260201b60201c565b608081815250503073ffffffffffffffffffffffffffffffffffffffff1660c08173ffffffffffffffffffffffffffffffffffffffff1681525050505080600290805190602001906200012292919062000d7c565b50506200013583620002bf60201b60201c565b62000146826200030660201b60201c565b62000157816200039360201b60201c565b5050508073ffffffffffffffffffffffffffffffffffffffff166101608173ffffffffffffffffffffffffffffffffffffffff168152505050620001a181620003da60201b60201c565b50620001b381620005fc60201b60201c565b5050505050505050620018a0565b60606040518060400160405280600181526020017f3100000000000000000000000000000000000000000000000000000000000000815250905090565b600060208351101562000224576200021c836200069d60201b60201c565b90506200025c565b826200023b836200070a60201b620024281760201c565b60000190805190602001906200025392919062000d7c565b5060ff60001b90505b92915050565b60007f8b73c3c69bb8fe3d512ecc4cf759cc79239f7b179b0ffacaa9a75d522b39400f60e051610100514630604051602001620002a4959493929190620011e5565b60405160208183030381529060405280519060200120905090565b7fc565b045403dc03c2eea82b81a0465edad9e2e7fc4d97e11421c209da93d7a9360065482604051620002f492919062001242565b60405180910390a18060068190555050565b600081116200034c576040517f08c379a00000000000000000000000000000000000000000000000000000000081526004016200034390620012f6565b60405180910390fd5b7f7e3f7f0708a84de9203036abaa450dccc85ad5ff52f78c170f3edb55cf5e8828600754826040516200038192919062001242565b60405180910390a18060078190555050565b7fccb45da8d5717e6c4544694297c4ba5cf151d455c9bb0ed4fc7a38411bc0546160085482604051620003c892919062001242565b60405180910390a18060088190555050565b620003ea6200071460201b60201c565b8111156200042f576040517f08c379a00000000000000000000000000000000000000000000000000000000081526004016200042690620013b4565b60405180910390fd5b6000620004416200071d60201b60201c565b9050600081141580156200045d57506000600b60000180549050145b156200055d57600b6000016040518060400160405280600063ffffffff16815260200162000496846200077360201b620024321760201c565b7bffffffffffffffffffffffffffffffffffffffffffffffffffffffff168152509080600181540180825580915050600190039060005260206000200160009091909190915060008201518160000160006101000a81548163ffffffff021916908363ffffffff16021790555060208201518160000160046101000a8154817bffffffffffffffffffffffffffffffffffffffffffffffffffffffff02191690837bffffffffffffffffffffffffffffffffffffffffffffffffffffffff16021790555050505b620005bb6200058e62000575620007e160201b60201c565b65ffffffffffff166200087c60201b6200249d1760201c565b620005a4846200077360201b620024321760201c565b600b620008d260201b620024f0179092919060201c565b50507f0553476bf02ef2726e8ce5ced78d63e26e602e4a2257b1f559418e24b46339978183604051620005f092919062001242565b60405180910390a15050565b7f08f74ea46ef7894f65eabfb5e6e695de773a000b47c529ab559178069b226401600c60009054906101000a900473ffffffffffffffffffffffffffffffffffffffff168260405162000651929190620013d6565b60405180910390a180600c60006101000a81548173ffffffffffffffffffffffffffffffffffffffff021916908373ffffffffffffffffffffffffffffffffffffffff16021790555050565b600080829050601f81511115620006ed57826040517f305a27a9000000000000000000000000000000000000000000000000000000008152600401620006e491906200144f565b60405180910390fd5b805181620006fb90620014b2565b60001c1760001b915050919050565b6000819050919050565b60006064905090565b600080600b60000180549050146200076a5762000746600b620008f760201b6200250d1760201c565b7bffffffffffffffffffffffffffffffffffffffffffffffffffffffff166200076e565b600a545b905090565b60007bffffffffffffffffffffffffffffffffffffffffffffffffffffffff8016821115620007d9576040517f08c379a0000000000000000000000000000000000000000000000000000000008152600401620007d09062001598565b60405180910390fd5b819050919050565b60006101605173ffffffffffffffffffffffffffffffffffffffff166391ddadf46040518163ffffffff1660e01b8152600401602060405180830381865afa9250505080156200085157506040513d601f19601f820116820180604052508101906200084e9190620015fd565b60015b62000874576200086c436200096d60201b620025771760201c565b905062000879565b809150505b90565b600063ffffffff8016821115620008ca576040517f08c379a0000000000000000000000000000000000000000000000000000000008152600401620008c190620016a5565b60405180910390fd5b819050919050565b600080620008eb856000018585620009c560201b60201c565b91509150935093915050565b600080826000018054905090506000811462000962576200093083600001600183620009249190620016f6565b62000d6760201b60201c565b60000160049054906101000a90047bffffffffffffffffffffffffffffffffffffffffffffffffffffffff1662000965565b60005b915050919050565b600065ffffffffffff8016821115620009bd576040517f08c379a0000000000000000000000000000000000000000000000000000000008152600401620009b490620017a7565b60405180910390fd5b819050919050565b600080600085805490509050600081111562000c77576000620009fd87600184620009f19190620016f6565b62000d6760201b60201c565b6040518060400160405290816000820160009054906101000a900463ffffffff1663ffffffff1663ffffffff1681526020016000820160049054906101000a90047bffffffffffffffffffffffffffffffffffffffffffffffffffffffff167bffffffffffffffffffffffffffffffffffffffffffffffffffffffff167bffffffffffffffffffffffffffffffffffffffffffffffffffffffff168152505090508563ffffffff16816000015163ffffffff16111562000af4576040517f08c379a000000000000000000000000000000000000000000000000000000000815260040162000aeb9062001819565b60405180910390fd5b8563ffffffff16816000015163ffffffff16141562000b85578462000b2e8860018562000b229190620016f6565b62000d6760201b60201c565b60000160046101000a8154817bffffffffffffffffffffffffffffffffffffffffffffffffffffffff02191690837bffffffffffffffffffffffffffffffffffffffffffffffffffffffff16021790555062000c65565b8660405180604001604052808863ffffffff168152602001877bffffffffffffffffffffffffffffffffffffffffffffffffffffffff168152509080600181540180825580915050600190039060005260206000200160009091909190915060008201518160000160006101000a81548163ffffffff021916908363ffffffff16021790555060208201518160000160046101000a8154817bffffffffffffffffffffffffffffffffffffffffffffffffffffffff02191690837bffffffffffffffffffffffffffffffffffffffffffffffffffffffff16021790555050505b80602001518593509350505062000d5f565b8560405180604001604052808763ffffffff168152602001867bffffffffffffffffffffffffffffffffffffffffffffffffffffffff168152509080600181540180825580915050600190039060005260206000200160009091909190915060008201518160000160006101000a81548163ffffffff021916908363ffffffff16021790555060208201518160000160046101000a8154817bffffffffffffffffffffffffffffffffffffffffffffffffffffffff02191690837bffffffffffffffffffffffffffffffffffffffffffffffffffffffff160217905550505060008492509250505b935093915050565b60008260005281602060002001905092915050565b82805462000d8a906200186a565b90600052602060002090601f01602090048101928262000dae576000855562000dfa565b82601f1062000dc957805160ff191683800117855562000dfa565b8280016001018555821562000dfa579182015b8281111562000df957825182559160200191906001019062000ddc565b5b50905062000e09919062000e0d565b5090565b5b8082111562000e2857600081600090555060010162000e0e565b5090565b6000604051905090565b600080fd5b600080fd5b600080fd5b600080fd5b6000601f19601f8301169050919050565b7f4e487b7100000000000000000000000000000000000000000000000000000000600052604160045260246000fd5b62000e958262000e4a565b810181811067ffffffffffffffff8211171562000eb75762000eb662000e5b565b5b80604052505050565b600062000ecc62000e2c565b905062000eda828262000e8a565b919050565b600067ffffffffffffffff82111562000efd5762000efc62000e5b565b5b62000f088262000e4a565b9050602081019050919050565b60005b8381101562000f3557808201518184015260208101905062000f18565b8381111562000f45576000848401525b50505050565b600062000f6262000f5c8462000edf565b62000ec0565b90508281526020810184848401111562000f815762000f8062000e45565b5b62000f8e84828562000f15565b509392505050565b600082601f83011262000fae5762000fad62000e40565b5b815162000fc084826020860162000f4b565b91505092915050565b6000819050919050565b62000fde8162000fc9565b811462000fea57600080fd5b50565b60008151905062000ffe8162000fd3565b92915050565b600073ffffffffffffffffffffffffffffffffffffffff82169050919050565b6000620010318262001004565b9050919050565b6000620010458262001024565b9050919050565b620010578162001038565b81146200106357600080fd5b50565b60008151905062001077816200104c565b92915050565b60006200108a8262001004565b9050919050565b60006200109e826200107d565b9050919050565b620010b08162001091565b8114620010bc57600080fd5b50565b600081519050620010d081620010a5565b92915050565b600080600080600080600060e0888a031215620010f857620010f762000e36565b5b600088015167ffffffffffffffff81111562001119576200111862000e3b565b5b620011278a828b0162000f96565b97505060206200113a8a828b0162000fed565b96505060406200114d8a828b0162000fed565b9550506060620011608a828b0162000fed565b9450506080620011738a828b0162000fed565b93505060a0620011868a828b0162001066565b92505060c0620011998a828b01620010bf565b91505092959891949750929550565b6000819050919050565b620011bd81620011a8565b82525050565b620011ce8162000fc9565b82525050565b620011df8162001024565b82525050565b600060a082019050620011fc6000830188620011b2565b6200120b6020830187620011b2565b6200121a6040830186620011b2565b620012296060830185620011c3565b620012386080830184620011d4565b9695505050505050565b6000604082019050620012596000830185620011c3565b620012686020830184620011c3565b9392505050565b600082825260208201905092915050565b7f476f7665726e6f7253657474696e67733a20766f74696e6720706572696f642060008201527f746f6f206c6f7700000000000000000000000000000000000000000000000000602082015250565b6000620012de6027836200126f565b9150620012eb8262001280565b604082019050919050565b600060208201905081810360008301526200131181620012cf565b9050919050565b7f476f7665726e6f72566f74657351756f72756d4672616374696f6e3a2071756f60008201527f72756d4e756d657261746f72206f7665722071756f72756d44656e6f6d696e6160208201527f746f720000000000000000000000000000000000000000000000000000000000604082015250565b60006200139c6043836200126f565b9150620013a98262001318565b606082019050919050565b60006020820190508181036000830152620013cf816200138d565b9050919050565b6000604082019050620013ed6000830185620011d4565b620013fc6020830184620011d4565b9392505050565b600081519050919050565b60006200141b8262001403565b6200142781856200126f565b93506200143981856020860162000f15565b620014448162000e4a565b840191505092915050565b600060208201905081810360008301526200146b81846200140e565b905092915050565b600081519050919050565b6000819050602082019050919050565b60006200149c8251620011a8565b80915050919050565b600082821b905092915050565b6000620014bf8262001473565b82620014cb846200147e565b9050620014d8816200148e565b925060208210156200151b57620015167fffffffffffffffffffffffffffffffffffffffffffffffffffffffffffffffff83602003600802620014a5565b831692505b5050919050565b7f53616665436173743a2076616c756520646f65736e27742066697420696e203260008201527f3234206269747300000000000000000000000000000000000000000000000000602082015250565b6000620015806027836200126f565b91506200158d8262001522565b604082019050919050565b60006020820190508181036000830152620015b38162001571565b9050919050565b600065ffffffffffff82169050919050565b620015d781620015ba565b8114620015e357600080fd5b50565b600081519050620015f781620015cc565b92915050565b60006020828403121562001616576200161562000e36565b5b60006200162684828501620015e6565b91505092915050565b7f53616665436173743a2076616c756520646f65736e27742066697420696e203360008201527f3220626974730000000000000000000000000000000000000000000000000000602082015250565b60006200168d6026836200126f565b91506200169a826200162f565b604082019050919050565b60006020820190508181036000830152620016c0816200167e565b9050919050565b7f4e487b7100000000000000000000000000000000000000000000000000000000600052601160045260246000fd5b6000620017038262000fc9565b9150620017108362000fc9565b925082821015620017265762001725620016c7565b5b828203905092915050565b7f53616665436173743a2076616c756520646f65736e27742066697420696e203460008201527f3820626974730000000000000000000000000000000000000000000000000000602082015250565b60006200178f6026836200126f565b91506200179c8262001731565b604082019050919050565b60006020820190508181036000830152620017c28162001780565b9050919050565b7f436865636b706f696e743a2064656372656173696e67206b6579730000000000600082015250565b600062001801601b836200126f565b91506200180e82620017c9565b602082019050919050565b600060208201905081810360008301526200183481620017f2565b9050919050565b7f4e487b7100000000000000000000000000000000000000000000000000000000600052602260045260246000fd5b600060028204905060018216806200188357607f821691505b602082108114156200189a57620018996200183b565b5b50919050565b60805160a05160c05160e05161010051610120516101405161016051617ea0620019226000396000818161161d01528181611bf6015281816123bb0152818161355c01526137c301526000611b3701526000611b0301526000614c5f01526000614c3e01526000613e9a01526000613ef001526000613f190152617ea06000f3fe6080604052600436106102815760003560e01c80637b3c71d31161014f578063c01f9e37116100c1578063ea0217cf1161007a578063ea0217cf14610b2c578063eb9019d414610b55578063ece40cc114610b92578063f23a6e6114610bbb578063f8ce560a14610bf8578063fc0c546a14610c35576102fd565b8063c01f9e3714610a15578063c28bc2fa14610a52578063c59057e414610a6e578063d33219b414610aab578063dd4e2ba514610ad6578063deaaa7cc14610b01576102fd565b80639a802a6d116101135780639a802a6d146108df578063a7713a701461091c578063a890c91014610947578063ab58fb8e14610970578063b58131b0146109ad578063bc197c81146109d8576102fd565b80637b3c71d3146107de5780637d5e81e21461081b57806384b0196e1461085857806391ddadf41461088957806397c3d334146108b4576102fd565b80633932abb1116101f3578063544ffc9c116101ac578063544ffc9c1461069457806354fd4d50146106d357806356781388146106fe5780635f398a141461073b57806360c4247f1461077857806370b0f660146107b5576102fd565b80633932abb11461054a5780633bccf4fd146105755780633e4f49e6146105b257806343859632146105ef578063452115d61461062c5780634bf5d7e914610669576102fd565b8063143489d011610245578063143489d0146103fb578063150b7a0214610438578063160cbed7146104755780632656227d146104b25780632d63f693146104e25780632fe3e2611461051f576102fd565b806301ffc9a71461030257806302a251a31461033f578063034201811461036a57806306f3f9e6146103a757806306fdde03146103d0576102fd565b366102fd573073ffffffffffffffffffffffffffffffffffffffff166102a5610c60565b73ffffffffffffffffffffffffffffffffffffffff16146102fb576040517f08c379a00000000000000000000000000000000000000000000000000000000081526004016102f290615185565b60405180910390fd5b005b600080fd5b34801561030e57600080fd5b5061032960048036038101906103249190615211565b610c6f565b6040516103369190615259565b60405180910390f35b34801561034b57600080fd5b50610354610c81565b604051610361919061528d565b60405180910390f35b34801561037657600080fd5b50610391600480360381019061038c91906154e9565b610c90565b60405161039e919061528d565b60405180910390f35b3480156103b357600080fd5b506103ce60048036038101906103c991906155c7565b610d75565b005b3480156103dc57600080fd5b506103e5610e71565b6040516103f2919061566b565b60405180910390f35b34801561040757600080fd5b50610422600480360381019061041d91906155c7565b610f03565b60405161042f91906156ce565b60405180910390f35b34801561044457600080fd5b5061045f600480360381019061045a9190615715565b610f43565b60405161046c91906157a7565b60405180910390f35b34801561048157600080fd5b5061049c60048036038101906104979190615a29565b610f57565b6040516104a9919061528d565b60405180910390f35b6104cc60048036038101906104c79190615a29565b611211565b6040516104d9919061528d565b60405180910390f35b3480156104ee57600080fd5b50610509600480360381019061050491906155c7565b61135f565b604051610516919061528d565b60405180910390f35b34801561052b57600080fd5b5061053461139d565b6040516105419190615af3565b60405180910390f35b34801561055657600080fd5b5061055f6113c1565b60405161056c919061528d565b60405180910390f35b34801561058157600080fd5b5061059c60048036038101906105979190615b0e565b6113d0565b6040516105a9919061528d565b60405180910390f35b3480156105be57600080fd5b506105d960048036038101906105d491906155c7565b61145a565b6040516105e69190615c00565b60405180910390f35b3480156105fb57600080fd5b5061061660048036038101906106119190615c1b565b61146c565b6040516106239190615259565b60405180910390f35b34801561063857600080fd5b50610653600480360381019061064e9190615a29565b6114d7565b604051610660919061528d565b60405180910390f35b34801561067557600080fd5b5061067e611619565b60405161068b919061566b565b60405180910390f35b3480156106a057600080fd5b506106bb60048036038101906106b691906155c7565b6116f1565b6040516106ca93929190615c5b565b60405180910390f35b3480156106df57600080fd5b506106e8611729565b6040516106f5919061566b565b60405180910390f35b34801561070a57600080fd5b5061072560048036038101906107209190615c92565b611766565b604051610732919061528d565b60405180910390f35b34801561074757600080fd5b50610762600480360381019061075d9190615cd2565b611797565b60405161076f919061528d565b60405180910390f35b34801561078457600080fd5b5061079f600480360381019061079a91906155c7565b611801565b6040516107ac919061528d565b60405180910390f35b3480156107c157600080fd5b506107dc60048036038101906107d791906155c7565b611974565b005b3480156107ea57600080fd5b5061080560048036038101906108009190615d76565b611a70565b604051610812919061528d565b60405180910390f35b34801561082757600080fd5b50610842600480360381019061083d9190615e8b565b611ad8565b60405161084f919061528d565b60405180910390f35b34801561086457600080fd5b5061086d611af0565b604051610880979695949392919061605b565b60405180910390f35b34801561089557600080fd5b5061089e611bf2565b6040516108ab9190616100565b60405180910390f35b3480156108c057600080fd5b506108c9611c98565b6040516108d6919061528d565b60405180910390f35b3480156108eb57600080fd5b506109066004803603810190610901919061611b565b611ca1565b604051610913919061528d565b60405180910390f35b34801561092857600080fd5b50610931611cb7565b60405161093e919061528d565b60405180910390f35b34801561095357600080fd5b5061096e600480360381019061096991906161da565b611cfe565b005b34801561097c57600080fd5b50610997600480360381019061099291906155c7565b611dfa565b6040516109a4919061528d565b60405180910390f35b3480156109b957600080fd5b506109c2611ec7565b6040516109cf919061528d565b60405180910390f35b3480156109e457600080fd5b506109ff60048036038101906109fa9190616207565b611ed6565b604051610a0c91906157a7565b60405180910390f35b348015610a2157600080fd5b50610a3c6004803603810190610a3791906155c7565b611eeb565b604051610a49919061528d565b60405180910390f35b610a6c6004803603810190610a67919061632c565b611f29565b005b348015610a7a57600080fd5b50610a956004803603810190610a909190615a29565b6120b7565b604051610aa2919061528d565b60405180910390f35b348015610ab757600080fd5b50610ac06120f3565b604051610acd91906156ce565b60405180910390f35b348015610ae257600080fd5b50610aeb61211d565b604051610af8919061566b565b60405180910390f35b348015610b0d57600080fd5b50610b1661215a565b604051610b239190615af3565b60405180910390f35b348015610b3857600080fd5b50610b536004803603810190610b4e91906155c7565b61217e565b005b348015610b6157600080fd5b50610b7c6004803603810190610b7791906163a0565b61227a565b604051610b89919061528d565b60405180910390f35b348015610b9e57600080fd5b50610bb96004803603810190610bb491906155c7565b612296565b005b348015610bc757600080fd5b50610be26004803603810190610bdd91906163e0565b612392565b604051610bef91906157a7565b60405180910390f35b348015610c0457600080fd5b50610c1f6004803603810190610c1a91906155c7565b6123a7565b604051610c2c919061528d565b60405180910390f35b348015610c4157600080fd5b50610c4a6123b9565b604051610c5791906164d6565b60405180910390f35b6000610c6a6125cc565b905090565b6000610c7a826125f6565b9050919050565b6000610c8b612670565b905090565b600080610d13610d0b7fb3b3f3b703cd84ce352197dcff232b1b5d3cfb2025ce47cf04742d0651f1af888c8c8c8c604051610ccc929190616521565b60405180910390208b80519060200120604051602001610cf0959493929190616549565b6040516020818303038152906040528051906020012061267a565b868686612694565b9050610d668a828b8b8b8080601f016020809104026020016040519081016040528093929190818152602001838380828437600081840152601f19601f820116905080830192505050505050508a6126bf565b91505098975050505050505050565b610d7d610c60565b73ffffffffffffffffffffffffffffffffffffffff16610d9b61284c565b73ffffffffffffffffffffffffffffffffffffffff1614610df1576040517f08c379a0000000000000000000000000000000000000000000000000000000008152600401610de8906165e8565b60405180910390fd5b3073ffffffffffffffffffffffffffffffffffffffff16610e10610c60565b73ffffffffffffffffffffffffffffffffffffffff1614610e65576000610e35612854565b604051610e43929190616521565b604051809103902090505b80610e596004612861565b14610e6357610e4e565b505b610e6e8161293d565b50565b606060028054610e8090616637565b80601f0160208091040260200160405190810160405280929190818152602001828054610eac90616637565b8015610ef95780601f10610ece57610100808354040283529160200191610ef9565b820191906000526020600020905b815481529060010190602001808311610edc57829003601f168201915b5050505050905090565b60006003600083815260200190815260200160002060000160089054906101000a900473ffffffffffffffffffffffffffffffffffffffff169050919050565b600063150b7a0260e01b9050949350505050565b600080610f66868686866120b7565b905060046007811115610f7c57610f7b615b89565b5b610f858261145a565b6007811115610f9757610f96615b89565b5b14610fd7576040517f08c379a0000000000000000000000000000000000000000000000000000000008152600401610fce906166db565b60405180910390fd5b6000600c60009054906101000a900473ffffffffffffffffffffffffffffffffffffffff1673ffffffffffffffffffffffffffffffffffffffff1663f27a0c926040518163ffffffff1660e01b8152600401602060405180830381865afa158015611046573d6000803e3d6000fd5b505050506040513d601f19601f8201168201806040525081019061106a9190616710565b9050600c60009054906101000a900473ffffffffffffffffffffffffffffffffffffffff1673ffffffffffffffffffffffffffffffffffffffff1663b1c5f4278888886000896040518663ffffffff1660e01b81526004016110d095949392919061695a565b602060405180830381865afa1580156110ed573d6000803e3d6000fd5b505050506040513d601f19601f8201168201806040525081019061111191906169d7565b600d600084815260200190815260200160002081905550600c60009054906101000a900473ffffffffffffffffffffffffffffffffffffffff1673ffffffffffffffffffffffffffffffffffffffff16638f2a0bb0888888600089876040518763ffffffff1660e01b815260040161118e96959493929190616a04565b600060405180830381600087803b1580156111a857600080fd5b505af11580156111bc573d6000803e3d6000fd5b505050507f9a2e42fd6722813d69113e7d0079d3d940171428df7373df9c7f7617cfda28928282426111ee9190616aa9565b6040516111fc929190616aff565b60405180910390a18192505050949350505050565b600080611220868686866120b7565b9050600061122d8261145a565b90506004600781111561124357611242615b89565b5b81600781111561125657611255615b89565b5b148061128657506005600781111561127157611270615b89565b5b81600781111561128457611283615b89565b5b145b6112c5576040517f08c379a00000000000000000000000000000000000000000000000000000000081526004016112bc906166db565b60405180910390fd5b60016003600084815260200190815260200160002060020160006101000a81548160ff0219169083151502179055507f712ae1383f79ac853f8d882153778e0260ef8f03b504e2866e0593e04d2b291f82604051611323919061528d565b60405180910390a16113388288888888612b12565b6113458288888888612bf6565b6113528288888888612c0a565b8192505050949350505050565b60006003600083815260200190815260200160002060000160009054906101000a900467ffffffffffffffff1667ffffffffffffffff169050919050565b7fb3b3f3b703cd84ce352197dcff232b1b5d3cfb2025ce47cf04742d0651f1af8881565b60006113cb612c65565b905090565b6000806114316114297f150214d74d59b7d1e90c73fc22ef3d991dd0a76b046543d4d80ab92d2a50328f898960405160200161140e93929190616b28565b6040516020818303038152906040528051906020012061267a565b868686612694565b905061144e87828860405180602001604052806000815250612c6f565b91505095945050505050565b600061146582612c8f565b9050919050565b60006009600084815260200190815260200160002060030160008373ffffffffffffffffffffffffffffffffffffffff1673ffffffffffffffffffffffffffffffffffffffff16815260200190815260200160002060009054906101000a900460ff16905092915050565b6000806114e6868686866120b7565b9050600060078111156114fc576114fb615b89565b5b6115058261145a565b600781111561151757611516615b89565b5b14611557576040517f08c379a000000000000000000000000000000000000000000000000000000000815260040161154e90616bab565b60405180910390fd5b6003600082815260200190815260200160002060000160089054906101000a900473ffffffffffffffffffffffffffffffffffffffff1673ffffffffffffffffffffffffffffffffffffffff166115ac61284c565b73ffffffffffffffffffffffffffffffffffffffff1614611602576040517f08c379a00000000000000000000000000000000000000000000000000000000081526004016115f990616c3d565b60405180910390fd5b61160e86868686612e63565b915050949350505050565b60607f000000000000000000000000000000000000000000000000000000000000000073ffffffffffffffffffffffffffffffffffffffff16634bf5d7e96040518163ffffffff1660e01b8152600401600060405180830381865afa9250505080156116a857506040513d6000823e3d601f19601f820116820180604052508101906116a59190616ccd565b60015b6116e9576040518060400160405280601d81526020017f6d6f64653d626c6f636b6e756d6265722666726f6d3d64656661756c7400000081525090506116ee565b809150505b90565b600080600080600960008681526020019081526020016000209050806000015481600101548260020154935093509350509193909250565b60606040518060400160405280600181526020017f3100000000000000000000000000000000000000000000000000000000000000815250905090565b60008061177161284c565b905061178e84828560405180602001604052806000815250612c6f565b91505092915050565b6000806117a261284c565b90506117f587828888888080601f016020809104026020016040519081016040528093929190818152602001838380828437600081840152601f19601f82011690508083019250505050505050876126bf565b91505095945050505050565b600080600b600001805490509050600081141561182357600a5491505061196f565b6000600b6000016001836118379190616d16565b8154811061184857611847616d4a565b5b906000526020600020016040518060400160405290816000820160009054906101000a900463ffffffff1663ffffffff1663ffffffff1681526020016000820160049054906101000a90047bffffffffffffffffffffffffffffffffffffffffffffffffffffffff167bffffffffffffffffffffffffffffffffffffffffffffffffffffffff167bffffffffffffffffffffffffffffffffffffffffffffffffffffffff1681525050905083816000015163ffffffff16116119305780602001517bffffffffffffffffffffffffffffffffffffffffffffffffffffffff169250505061196f565b61194c61193c8561249d565b600b612e7b90919063ffffffff16565b7bffffffffffffffffffffffffffffffffffffffffffffffffffffffff16925050505b919050565b61197c610c60565b73ffffffffffffffffffffffffffffffffffffffff1661199a61284c565b73ffffffffffffffffffffffffffffffffffffffff16146119f0576040517f08c379a00000000000000000000000000000000000000000000000000000000081526004016119e7906165e8565b60405180910390fd5b3073ffffffffffffffffffffffffffffffffffffffff16611a0f610c60565b73ffffffffffffffffffffffffffffffffffffffff1614611a64576000611a34612854565b604051611a42929190616521565b604051809103902090505b80611a586004612861565b14611a6257611a4d565b505b611a6d81612f71565b50565b600080611a7b61284c565b9050611acd86828787878080601f016020809104026020016040519081016040528093929190818152602001838380828437600081840152601f19601f82011690508083019250505050505050612c6f565b915050949350505050565b6000611ae685858585612fb6565b9050949350505050565b600060608060008060006060611b3060007f00000000000000000000000000000000000000000000000000000000000000006134a890919063ffffffff16565b611b6460017f00000000000000000000000000000000000000000000000000000000000000006134a890919063ffffffff16565b46306000801b600067ffffffffffffffff811115611b8557611b84615388565b5b604051908082528060200260200182016040528015611bb35781602001602082028036833780820191505090505b507f0f00000000000000000000000000000000000000000000000000000000000000959493929190965096509650965096509650965090919293949596565b60007f000000000000000000000000000000000000000000000000000000000000000073ffffffffffffffffffffffffffffffffffffffff166391ddadf46040518163ffffffff1660e01b8152600401602060405180830381865afa925050508015611c7c57506040513d601f19601f82011682018060405250810190611c799190616da5565b60015b611c9057611c8943612577565b9050611c95565b809150505b90565b60006064905090565b6000611cae848484613558565b90509392505050565b600080600b6000018054905014611cf557611cd2600b61250d565b7bffffffffffffffffffffffffffffffffffffffffffffffffffffffff16611cf9565b600a545b905090565b611d06610c60565b73ffffffffffffffffffffffffffffffffffffffff16611d2461284c565b73ffffffffffffffffffffffffffffffffffffffff1614611d7a576040517f08c379a0000000000000000000000000000000000000000000000000000000008152600401611d71906165e8565b60405180910390fd5b3073ffffffffffffffffffffffffffffffffffffffff16611d99610c60565b73ffffffffffffffffffffffffffffffffffffffff1614611dee576000611dbe612854565b604051611dcc929190616521565b604051809103902090505b80611de26004612861565b14611dec57611dd7565b505b611df7816135ff565b50565b600080600c60009054906101000a900473ffffffffffffffffffffffffffffffffffffffff1673ffffffffffffffffffffffffffffffffffffffff1663d45c4435600d6000868152602001908152602001600020546040518263ffffffff1660e01b8152600401611e6b9190615af3565b602060405180830381865afa158015611e88573d6000803e3d6000fd5b505050506040513d601f19601f82011682018060405250810190611eac9190616710565b905060018114611ebc5780611ebf565b60005b915050919050565b6000611ed161369e565b905090565b600063bc197c8160e01b905095945050505050565b60006003600083815260200190815260200160002060010160009054906101000a900467ffffffffffffffff1667ffffffffffffffff169050919050565b611f31610c60565b73ffffffffffffffffffffffffffffffffffffffff16611f4f61284c565b73ffffffffffffffffffffffffffffffffffffffff1614611fa5576040517f08c379a0000000000000000000000000000000000000000000000000000000008152600401611f9c906165e8565b60405180910390fd5b3073ffffffffffffffffffffffffffffffffffffffff16611fc4610c60565b73ffffffffffffffffffffffffffffffffffffffff1614612019576000611fe9612854565b604051611ff7929190616521565b604051809103902090505b8061200d6004612861565b1461201757612002565b505b6000808573ffffffffffffffffffffffffffffffffffffffff16858585604051612044929190616521565b60006040518083038185875af1925050503d8060008114612081576040519150601f19603f3d011682016040523d82523d6000602084013e612086565b606091505b50915091506120ae8282604051806060016040528060288152602001617e43602891396136a8565b50505050505050565b6000848484846040516020016120d09493929190616dd2565b6040516020818303038152906040528051906020012060001c9050949350505050565b6000600c60009054906101000a900473ffffffffffffffffffffffffffffffffffffffff16905090565b60606040518060400160405280602081526020017f737570706f72743d627261766f2671756f72756d3d666f722c6162737461696e815250905090565b7f150214d74d59b7d1e90c73fc22ef3d991dd0a76b046543d4d80ab92d2a50328f81565b612186610c60565b73ffffffffffffffffffffffffffffffffffffffff166121a461284c565b73ffffffffffffffffffffffffffffffffffffffff16146121fa576040517f08c379a00000000000000000000000000000000000000000000000000000000081526004016121f1906165e8565b60405180910390fd5b3073ffffffffffffffffffffffffffffffffffffffff16612219610c60565b73ffffffffffffffffffffffffffffffffffffffff161461226e57600061223e612854565b60405161224c929190616521565b604051809103902090505b806122626004612861565b1461226c57612257565b505b612277816136ca565b50565b600061228e8383612289613752565b613558565b905092915050565b61229e610c60565b73ffffffffffffffffffffffffffffffffffffffff166122bc61284c565b73ffffffffffffffffffffffffffffffffffffffff1614612312576040517f08c379a0000000000000000000000000000000000000000000000000000000008152600401612309906165e8565b60405180910390fd5b3073ffffffffffffffffffffffffffffffffffffffff16612331610c60565b73ffffffffffffffffffffffffffffffffffffffff1614612386576000612356612854565b604051612364929190616521565b604051809103902090505b8061237a6004612861565b146123845761236f565b505b61238f81613769565b50565b600063f23a6e6160e01b905095945050505050565b60006123b2826137ae565b9050919050565b7f000000000000000000000000000000000000000000000000000000000000000081565b60006020835110156123f9576123f283613876565b9050612422565b8261240383612428565b6000019080519060200190612419929190615085565b5060ff60001b90505b92915050565b6000819050919050565b60007bffffffffffffffffffffffffffffffffffffffffffffffffffffffff8016821115612495576040517f08c379a000000000000000000000000000000000000000000000000000000000815260040161248c90616e9e565b60405180910390fd5b819050919050565b600063ffffffff80168211156124e8576040517f08c379a00000000000000000000000000000000000000000000000000000000081526004016124df90616f30565b60405180910390fd5b819050919050565b6000806125018560000185856138de565b91509150935093915050565b600080826000018054905090506000811461256c5761253b836000016001836125369190616d16565b613c65565b60000160049054906101000a90047bffffffffffffffffffffffffffffffffffffffffffffffffffffffff1661256f565b60005b915050919050565b600065ffffffffffff80168211156125c4576040517f08c379a00000000000000000000000000000000000000000000000000000000081526004016125bb90616fc2565b60405180910390fd5b819050919050565b6000600c60009054906101000a900473ffffffffffffffffffffffffffffffffffffffff16905090565b60007f6e665ced000000000000000000000000000000000000000000000000000000007bffffffffffffffffffffffffffffffffffffffffffffffffffffffff1916827bffffffffffffffffffffffffffffffffffffffffffffffffffffffff19161480612669575061266882613c7a565b5b9050919050565b6000600754905090565b600061268d612687613e96565b83613f4d565b9050919050565b60008060006126a587878787613f8e565b915091506126b281614071565b8192505050949350505050565b600080600360008881526020019081526020016000209050600160078111156126eb576126ea615b89565b5b6126f48861145a565b600781111561270657612705615b89565b5b14612746576040517f08c379a000000000000000000000000000000000000000000000000000000000815260040161273d90617054565b60405180910390fd5b6000612775878360000160009054906101000a900467ffffffffffffffff1667ffffffffffffffff1686613558565b905061278488888884886141df565b6000845114156127e7578673ffffffffffffffffffffffffffffffffffffffff167fb8e138887d0aa13bab447e82de9d5c1777041ecd21ca36ba824ff1e6c07ddda4898884896040516127da9493929190617074565b60405180910390a261283e565b8673ffffffffffffffffffffffffffffffffffffffff167fe2babfbac5889a709b63bb7f598b324e08bc5a4fb9ec647fb3cbc9ec07eb8712898884898960405161283595949392919061710a565b60405180910390a25b809250505095945050505050565b600033905090565b3660008036915091509091565b600061286c826143e6565b156128a3576040517f3db2a12a00000000000000000000000000000000000000000000000000000000815260040160405180910390fd5b60008260000160009054906101000a9004600f0b905082600101600082600f0b600f0b815260200190815260200160002054915082600101600082600f0b600f0b815260200190815260200160002060009055600181018360000160006101000a8154816fffffffffffffffffffffffffffffffff0219169083600f0b6fffffffffffffffffffffffffffffffff16021790555050919050565b612945611c98565b811115612987576040517f08c379a000000000000000000000000000000000000000000000000000000000815260040161297e90617203565b60405180910390fd5b6000612991611cb7565b9050600081141580156129ac57506000600b60000180549050145b15612a9e57600b6000016040518060400160405280600063ffffffff1681526020016129d784612432565b7bffffffffffffffffffffffffffffffffffffffffffffffffffffffff168152509080600181540180825580915050600190039060005260206000200160009091909190915060008201518160000160006101000a81548163ffffffff021916908363ffffffff16021790555060208201518160000160046101000a8154817bffffffffffffffffffffffffffffffffffffffffffffffffffffffff02191690837bffffffffffffffffffffffffffffffffffffffffffffffffffffffff16021790555050505b612ad3612ab9612aac611bf2565b65ffffffffffff1661249d565b612ac284612432565b600b6124f09092919063ffffffff16565b50507f0553476bf02ef2726e8ce5ced78d63e26e602e4a2257b1f559418e24b46339978183604051612b06929190616aff565b60405180910390a15050565b3073ffffffffffffffffffffffffffffffffffffffff16612b31610c60565b73ffffffffffffffffffffffffffffffffffffffff1614612bef5760005b8451811015612bed573073ffffffffffffffffffffffffffffffffffffffff16858281518110612b8257612b81616d4a565b5b602002602001015173ffffffffffffffffffffffffffffffffffffffff161415612bdc57612bdb838281518110612bbc57612bbb616d4a565b5b602002602001015180519060200120600461441b90919063ffffffff16565b5b80612be690617223565b9050612b4f565b505b5050505050565b612c038585858585614497565b5050505050565b3073ffffffffffffffffffffffffffffffffffffffff16612c29610c60565b73ffffffffffffffffffffffffffffffffffffffff1614612c5e57612c4e60046143e6565b612c5d57612c5c6004614535565b5b5b5050505050565b6000600654905090565b6000612c8585858585612c80613752565b6126bf565b9050949350505050565b600080612c9b836145b6565b905060046007811115612cb157612cb0615b89565b5b816007811115612cc457612cc3615b89565b5b14612cd25780915050612e5e565b6000600d60008581526020019081526020016000205490506000801b811415612cff578192505050612e5e565b600c60009054906101000a900473ffffffffffffffffffffffffffffffffffffffff1673ffffffffffffffffffffffffffffffffffffffff16632ab0f529826040518263ffffffff1660e01b8152600401612d5a9190615af3565b602060405180830381865afa158015612d77573d6000803e3d6000fd5b505050506040513d601f19601f82011682018060405250810190612d9b9190617298565b15612dab57600792505050612e5e565b600c60009054906101000a900473ffffffffffffffffffffffffffffffffffffffff1673ffffffffffffffffffffffffffffffffffffffff1663584b153e826040518263ffffffff1660e01b8152600401612e069190615af3565b602060405180830381865afa158015612e23573d6000803e3d6000fd5b505050506040513d601f19601f82011682018060405250810190612e479190617298565b15612e5757600592505050612e5e565b6002925050505b919050565b6000612e71858585856146e3565b9050949350505050565b600080836000018054905090506000808290506005831115612efd576000612ea2846147d5565b84612ead9190616d16565b9050612ebc8760000182613c65565b60000160009054906101000a900463ffffffff1663ffffffff168663ffffffff161015612eeb57809150612efb565b600181612ef89190616aa9565b92505b505b6000612f0e876000018785856148cf565b905060008114612f6257612f3187600001600183612f2c9190616d16565b613c65565b60000160049054906101000a90047bffffffffffffffffffffffffffffffffffffffffffffffffffffffff16612f65565b60005b94505050505092915050565b7fc565b045403dc03c2eea82b81a0465edad9e2e7fc4d97e11421c209da93d7a9360065482604051612fa4929190616aff565b60405180910390a18060068190555050565b600080612fc161284c565b9050612fcd8184614942565b61300c576040517f08c379a000000000000000000000000000000000000000000000000000000000815260040161300390617311565b60405180910390fd5b6000613016611bf2565b65ffffffffffff169050613028611ec7565b61303e836001846130399190616d16565b61227a565b101561307f576040517f08c379a0000000000000000000000000000000000000000000000000000000008152600401613076906173a3565b60405180910390fd5b600061309488888888805190602001206120b7565b905086518851146130da576040517f08c379a00000000000000000000000000000000000000000000000000000000081526004016130d190617435565b60405180910390fd5b855188511461311e576040517f08c379a000000000000000000000000000000000000000000000000000000000815260040161311590617435565b60405180910390fd5b6000885111613162576040517f08c379a0000000000000000000000000000000000000000000000000000000008152600401613159906174a1565b60405180910390fd5b60006003600083815260200190815260200160002060000160009054906101000a900467ffffffffffffffff1667ffffffffffffffff16146131d9576040517f08c379a00000000000000000000000000000000000000000000000000000000081526004016131d090617533565b60405180910390fd5b60006131e36113c1565b836131ee9190616aa9565b905060006131fa610c81565b826132059190616aa9565b90506040518060e0016040528061321b84614a94565b67ffffffffffffffff1681526020018673ffffffffffffffffffffffffffffffffffffffff168152602001600060e01b7bffffffffffffffffffffffffffffffffffffffffffffffffffffffff1916815260200161327883614a94565b67ffffffffffffffff168152602001600060401b67ffffffffffffffff19168152602001600015158152602001600015158152506003600085815260200190815260200160002060008201518160000160006101000a81548167ffffffffffffffff021916908367ffffffffffffffff16021790555060208201518160000160086101000a81548173ffffffffffffffffffffffffffffffffffffffff021916908373ffffffffffffffffffffffffffffffffffffffff160217905550604082015181600001601c6101000a81548163ffffffff021916908360e01c021790555060608201518160010160006101000a81548167ffffffffffffffff021916908367ffffffffffffffff16021790555060808201518160010160086101000a81548177ffffffffffffffffffffffffffffffffffffffffffffffff021916908360401c021790555060a08201518160020160006101000a81548160ff02191690831515021790555060c08201518160020160016101000a81548160ff0219169083151502179055509050507f7d84a6263ae0d98d3329bd7b46bb4e8d6f98cd35a7adb45c274c8b7fd5ebd5e083868c8c8e5167ffffffffffffffff81111561344357613442615388565b5b60405190808252806020026020018201604052801561347657816020015b60608152602001906001900390816134615790505b508d88888f6040516134909998979695949392919061765f565b60405180910390a18295505050505050949350505050565b606060ff60001b83146134c5576134be83614aeb565b9050613552565b8180546134d190616637565b80601f01602080910402602001604051908101604052809291908181526020018280546134fd90616637565b801561354a5780601f1061351f5761010080835404028352916020019161354a565b820191906000526020600020905b81548152906001019060200180831161352d57829003601f168201915b505050505090505b92915050565b60007f000000000000000000000000000000000000000000000000000000000000000073ffffffffffffffffffffffffffffffffffffffff16633a46b1a885856040518363ffffffff1660e01b81526004016135b592919061770f565b602060405180830381865afa1580156135d2573d6000803e3d6000fd5b505050506040513d601f19601f820116820180604052508101906135f69190616710565b90509392505050565b7f08f74ea46ef7894f65eabfb5e6e695de773a000b47c529ab559178069b226401600c60009054906101000a900473ffffffffffffffffffffffffffffffffffffffff1682604051613652929190617738565b60405180910390a180600c60006101000a81548173ffffffffffffffffffffffffffffffffffffffff021916908373ffffffffffffffffffffffffffffffffffffffff16021790555050565b6000600854905090565b606083156136b8578290506136c3565b6136c28383614b5f565b5b9392505050565b6000811161370d576040517f08c379a0000000000000000000000000000000000000000000000000000000008152600401613704906177d3565b60405180910390fd5b7f7e3f7f0708a84de9203036abaa450dccc85ad5ff52f78c170f3edb55cf5e882860075482604051613740929190616aff565b60405180910390a18060078190555050565b606060405180602001604052806000815250905090565b7fccb45da8d5717e6c4544694297c4ba5cf151d455c9bb0ed4fc7a38411bc054616008548260405161379c929190616aff565b60405180910390a18060088190555050565b60006137b8611c98565b6137c183611801565b7f000000000000000000000000000000000000000000000000000000000000000073ffffffffffffffffffffffffffffffffffffffff16638e539e8c856040518263ffffffff1660e01b815260040161381a919061528d565b602060405180830381865afa158015613837573d6000803e3d6000fd5b505050506040513d601f19601f8201168201806040525081019061385b9190616710565b61386591906177f3565b61386f919061787c565b9050919050565b600080829050601f815111156138c357826040517f305a27a90000000000000000000000000000000000000000000000000000000081526004016138ba919061566b565b60405180910390fd5b8051816138cf906178df565b60001c1760001b915050919050565b6000806000858054905090506000811115613b7557600061390b876001846139069190616d16565b613c65565b6040518060400160405290816000820160009054906101000a900463ffffffff1663ffffffff1663ffffffff1681526020016000820160049054906101000a90047bffffffffffffffffffffffffffffffffffffffffffffffffffffffff167bffffffffffffffffffffffffffffffffffffffffffffffffffffffff167bffffffffffffffffffffffffffffffffffffffffffffffffffffffff168152505090508563ffffffff16816000015163ffffffff1611156139ff576040517f08c379a00000000000000000000000000000000000000000000000000000000081526004016139f690617992565b60405180910390fd5b8563ffffffff16816000015163ffffffff161415613a845784613a2e88600185613a299190616d16565b613c65565b60000160046101000a8154817bffffffffffffffffffffffffffffffffffffffffffffffffffffffff02191690837bffffffffffffffffffffffffffffffffffffffffffffffffffffffff160217905550613b64565b8660405180604001604052808863ffffffff168152602001877bffffffffffffffffffffffffffffffffffffffffffffffffffffffff168152509080600181540180825580915050600190039060005260206000200160009091909190915060008201518160000160006101000a81548163ffffffff021916908363ffffffff16021790555060208201518160000160046101000a8154817bffffffffffffffffffffffffffffffffffffffffffffffffffffffff02191690837bffffffffffffffffffffffffffffffffffffffffffffffffffffffff16021790555050505b806020015185935093505050613c5d565b8560405180604001604052808763ffffffff168152602001867bffffffffffffffffffffffffffffffffffffffffffffffffffffffff168152509080600181540180825580915050600190039060005260206000200160009091909190915060008201518160000160006101000a81548163ffffffff021916908363ffffffff16021790555060208201518160000160046101000a8154817bffffffffffffffffffffffffffffffffffffffffffffffffffffffff02191690837bffffffffffffffffffffffffffffffffffffffffffffffffffffffff160217905550505060008492509250505b935093915050565b60008260005281602060002001905092915050565b60008063143489d060e01b63452115d660e01b1890506000639a802a6d60e01b630342018160e01b635f398a1460e01b18189050600081837fda287a1d000000000000000000000000000000000000000000000000000000007ff2e09f740000000000000000000000000000000000000000000000000000000018181890506000837fda287a1d000000000000000000000000000000000000000000000000000000007ff2e09f740000000000000000000000000000000000000000000000000000000018189050817bffffffffffffffffffffffffffffffffffffffffffffffffffffffff1916867bffffffffffffffffffffffffffffffffffffffffffffffffffffffff19161480613dcb5750807bffffffffffffffffffffffffffffffffffffffffffffffffffffffff1916867bffffffffffffffffffffffffffffffffffffffffffffffffffffffff1916145b80613e135750837bffffffffffffffffffffffffffffffffffffffffffffffffffffffff1916867bffffffffffffffffffffffffffffffffffffffffffffffffffffffff1916145b80613e7b57507f4e2312e0000000000000000000000000000000000000000000000000000000007bffffffffffffffffffffffffffffffffffffffffffffffffffffffff1916867bffffffffffffffffffffffffffffffffffffffffffffffffffffffff1916145b80613e8b5750613e8a86614baf565b5b945050505050919050565b60007f000000000000000000000000000000000000000000000000000000000000000073ffffffffffffffffffffffffffffffffffffffff163073ffffffffffffffffffffffffffffffffffffffff16148015613f1257507f000000000000000000000000000000000000000000000000000000000000000046145b15613f3f577f00000000000000000000000000000000000000000000000000000000000000009050613f4a565b613f47614c19565b90505b90565b60006040517f190100000000000000000000000000000000000000000000000000000000000081528360028201528260228201526042812091505092915050565b6000807f7fffffffffffffffffffffffffffffff5d576e7357a4501ddfe92f46681b20a08360001c1115613fc9576000600391509150614068565b600060018787878760405160008152602001604052604051613fee94939291906179b2565b6020604051602081039080840390855afa158015614010573d6000803e3d6000fd5b505050602060405103519050600073ffffffffffffffffffffffffffffffffffffffff168173ffffffffffffffffffffffffffffffffffffffff16141561405f57600060019250925050614068565b80600092509250505b94509492505050565b6000600481111561408557614084615b89565b5b81600481111561409857614097615b89565b5b14156140a3576141dc565b600160048111156140b7576140b6615b89565b5b8160048111156140ca576140c9615b89565b5b141561410b576040517f08c379a000000000000000000000000000000000000000000000000000000000815260040161410290617a43565b60405180910390fd5b6002600481111561411f5761411e615b89565b5b81600481111561413257614131615b89565b5b1415614173576040517f08c379a000000000000000000000000000000000000000000000000000000000815260040161416a90617aaf565b60405180910390fd5b6003600481111561418757614186615b89565b5b81600481111561419a57614199615b89565b5b14156141db576040517f08c379a00000000000000000000000000000000000000000000000000000000081526004016141d290617b41565b60405180910390fd5b5b50565b60006009600087815260200190815260200160002090508060030160008673ffffffffffffffffffffffffffffffffffffffff1673ffffffffffffffffffffffffffffffffffffffff16815260200190815260200160002060009054906101000a900460ff1615614285576040517f08c379a000000000000000000000000000000000000000000000000000000000815260040161427c90617bd3565b60405180910390fd5b60018160030160008773ffffffffffffffffffffffffffffffffffffffff1673ffffffffffffffffffffffffffffffffffffffff16815260200190815260200160002060006101000a81548160ff021916908315150217905550600060028111156142f3576142f2615b89565b5b60ff168460ff16141561432057828160000160008282546143149190616aa9565b925050819055506143de565b6001600281111561433457614333615b89565b5b60ff168460ff16141561436157828160010160008282546143559190616aa9565b925050819055506143dd565b60028081111561437457614373615b89565b5b60ff168460ff1614156143a157828160020160008282546143959190616aa9565b925050819055506143dc565b6040517f08c379a00000000000000000000000000000000000000000000000000000000081526004016143d390617c65565b60405180910390fd5b5b5b505050505050565b60008160000160009054906101000a9004600f0b600f0b8260000160109054906101000a9004600f0b600f0b13159050919050565b60008260000160109054906101000a9004600f0b90508183600101600083600f0b600f0b815260200190815260200160002081905550600181018360000160106101000a8154816fffffffffffffffffffffffffffffffff0219169083600f0b6fffffffffffffffffffffffffffffffff160217905550505050565b600c60009054906101000a900473ffffffffffffffffffffffffffffffffffffffff1673ffffffffffffffffffffffffffffffffffffffff1663e38335e5348686866000876040518763ffffffff1660e01b81526004016144fc95949392919061695a565b6000604051808303818588803b15801561451557600080fd5b505af1158015614529573d6000803e3d6000fd5b50505050505050505050565b60008160000160006101000a8154816fffffffffffffffffffffffffffffffff0219169083600f0b6fffffffffffffffffffffffffffffffff16021790555060008160000160106101000a8154816fffffffffffffffffffffffffffffffff0219169083600f0b6fffffffffffffffffffffffffffffffff16021790555050565b6000806003600084815260200190815260200160002090508060020160009054906101000a900460ff16156145ef5760079150506146de565b8060020160019054906101000a900460ff16156146105760029150506146de565b600061461b8461135f565b90506000811415614661576040517f08c379a000000000000000000000000000000000000000000000000000000000815260040161465890617cd1565b60405180910390fd5b600061466b611bf2565b65ffffffffffff16905080821061468857600093505050506146de565b600061469386611eeb565b90508181106146a95760019450505050506146de565b6146b286614caf565b80156146c357506146c286614cf6565b5b156146d55760049450505050506146de565b60039450505050505b919050565b6000806146f286868686614d21565b90506000801b600d600083815260200190815260200160002054146147c957600c60009054906101000a900473ffffffffffffffffffffffffffffffffffffffff1673ffffffffffffffffffffffffffffffffffffffff1663c4d252f5600d6000848152602001908152602001600020546040518263ffffffff1660e01b815260040161477f9190615af3565b600060405180830381600087803b15801561479957600080fd5b505af11580156147ad573d6000803e3d6000fd5b50505050600d6000828152602001908152602001600020600090555b80915050949350505050565b6000808214156147e857600090506148ca565b600060016147f584614e7b565b901c6001901b9050600181848161480f5761480e61784d565b5b048201901c905060018184816148285761482761784d565b5b048201901c905060018184816148415761484061784d565b5b048201901c9050600181848161485a5761485961784d565b5b048201901c905060018184816148735761487261784d565b5b048201901c9050600181848161488c5761488b61784d565b5b048201901c905060018184816148a5576148a461784d565b5b048201901c90506148c6818285816148c0576148bf61784d565b5b04614f5c565b9150505b919050565b60005b818310156149375760006148e68484614f75565b90508463ffffffff166148f98783613c65565b60000160009054906101000a900463ffffffff1663ffffffff16111561492157809250614931565b60018161492e9190616aa9565b93505b506148d2565b819050949350505050565b60008082519050603481101561495c576001915050614a8e565b60006014820384015190507f2370726f706f7365723d3078000000000000000000000000000000000000000073ffffffffffffffffffffffffffffffffffffffff19168173ffffffffffffffffffffffffffffffffffffffff1916146149c757600192505050614a8e565b6000806028846149d79190616d16565b90505b83811015614a5857600080614a0b8884815181106149fb576149fa616d4a565b5b602001015160f81c60f81b614f9b565b9150915081614a235760019650505050505050614a8e565b8060ff1660048573ffffffffffffffffffffffffffffffffffffffff16901b179350505080614a5190617223565b90506149da565b508573ffffffffffffffffffffffffffffffffffffffff168173ffffffffffffffffffffffffffffffffffffffff161493505050505b92915050565b600067ffffffffffffffff8016821115614ae3576040517f08c379a0000000000000000000000000000000000000000000000000000000008152600401614ada90617d63565b60405180910390fd5b819050919050565b60606000614af883615035565b90506000602067ffffffffffffffff811115614b1757614b16615388565b5b6040519080825280601f01601f191660200182016040528015614b495781602001600182028036833780820191505090505b5090508181528360208201528092505050919050565b600082511115614b725781518083602001fd5b806040517f08c379a0000000000000000000000000000000000000000000000000000000008152600401614ba6919061566b565b60405180910390fd5b60007f01ffc9a7000000000000000000000000000000000000000000000000000000007bffffffffffffffffffffffffffffffffffffffffffffffffffffffff1916827bffffffffffffffffffffffffffffffffffffffffffffffffffffffff1916149050919050565b60007f8b73c3c69bb8fe3d512ecc4cf759cc79239f7b179b0ffacaa9a75d522b39400f7f00000000000000000000000000000000000000000000000000000000000000007f00000000000000000000000000000000000000000000000000000000000000004630604051602001614c94959493929190617d83565b60405160208183030381529060405280519060200120905090565b60008060096000848152602001908152602001600020905080600201548160010154614cdb9190616aa9565b614cec614ce78561135f565b6123a7565b1115915050919050565b6000806009600084815260200190815260200160002090508060000154816001015411915050919050565b600080614d30868686866120b7565b90506000614d3d8261145a565b905060026007811115614d5357614d52615b89565b5b816007811115614d6657614d65615b89565b5b14158015614d99575060066007811115614d8357614d82615b89565b5b816007811115614d9657614d95615b89565b5b14155b8015614dc95750600780811115614db357614db2615b89565b5b816007811115614dc657614dc5615b89565b5b14155b614e08576040517f08c379a0000000000000000000000000000000000000000000000000000000008152600401614dff90617e22565b60405180910390fd5b60016003600084815260200190815260200160002060020160016101000a81548160ff0219169083151502179055507f789cf55be980739dad1d0699b93b58e806b51c9d96619bfa8fe0a28abaa7b30c82604051614e66919061528d565b60405180910390a18192505050949350505050565b600080600090506000608084901c1115614e9d57608083901c92506080810190505b6000604084901c1115614eb857604083901c92506040810190505b6000602084901c1115614ed357602083901c92506020810190505b6000601084901c1115614eee57601083901c92506010810190505b6000600884901c1115614f0957600883901c92506008810190505b6000600484901c1115614f2457600483901c92506004810190505b6000600284901c1115614f3f57600283901c92506002810190505b6000600184901c1115614f53576001810190505b80915050919050565b6000818310614f6b5781614f6d565b825b905092915050565b60006002828418614f86919061787c565b828416614f939190616aa9565b905092915050565b60008060008360f81c90508060ff16602f108015614fbc5750603a8160ff16105b15614fd1576001603082039250925050615030565b8060ff166040108015614fe7575060478160ff16105b15614ffc576001603782039250925050615030565b8060ff166060108015615012575060678160ff16105b15615027576001605782039250925050615030565b60008092509250505b915091565b60008060ff8360001c169050601f81111561507c576040517fb3512b0c00000000000000000000000000000000000000000000000000000000815260040160405180910390fd5b80915050919050565b82805461509190616637565b90600052602060002090601f0160209004810192826150b357600085556150fa565b82601f106150cc57805160ff19168380011785556150fa565b828001600101855582156150fa579182015b828111156150f95782518255916020019190600101906150de565b5b509050615107919061510b565b5090565b5b8082111561512457600081600090555060010161510c565b5090565b600082825260208201905092915050565b7f476f7665726e6f723a206d7573742073656e6420746f206578656375746f7200600082015250565b600061516f601f83615128565b915061517a82615139565b602082019050919050565b6000602082019050818103600083015261519e81615162565b9050919050565b6000604051905090565b600080fd5b600080fd5b60007fffffffff0000000000000000000000000000000000000000000000000000000082169050919050565b6151ee816151b9565b81146151f957600080fd5b50565b60008135905061520b816151e5565b92915050565b600060208284031215615227576152266151af565b5b6000615235848285016151fc565b91505092915050565b60008115159050919050565b6152538161523e565b82525050565b600060208201905061526e600083018461524a565b92915050565b6000819050919050565b61528781615274565b82525050565b60006020820190506152a2600083018461527e565b92915050565b6152b181615274565b81146152bc57600080fd5b50565b6000813590506152ce816152a8565b92915050565b600060ff82169050919050565b6152ea816152d4565b81146152f557600080fd5b50565b600081359050615307816152e1565b92915050565b600080fd5b600080fd5b600080fd5b60008083601f8401126153325761533161530d565b5b8235905067ffffffffffffffff81111561534f5761534e615312565b5b60208301915083600182028301111561536b5761536a615317565b5b9250929050565b600080fd5b6000601f19601f8301169050919050565b7f4e487b7100000000000000000000000000000000000000000000000000000000600052604160045260246000fd5b6153c082615377565b810181811067ffffffffffffffff821117156153df576153de615388565b5b80604052505050565b60006153f26151a5565b90506153fe82826153b7565b919050565b600067ffffffffffffffff82111561541e5761541d615388565b5b61542782615377565b9050602081019050919050565b82818337600083830152505050565b600061545661545184615403565b6153e8565b90508281526020810184848401111561547257615471615372565b5b61547d848285615434565b509392505050565b600082601f83011261549a5761549961530d565b5b81356154aa848260208601615443565b91505092915050565b6000819050919050565b6154c6816154b3565b81146154d157600080fd5b50565b6000813590506154e3816154bd565b92915050565b60008060008060008060008060e0898b031215615509576155086151af565b5b60006155178b828c016152bf565b98505060206155288b828c016152f8565b975050604089013567ffffffffffffffff811115615549576155486151b4565b5b6155558b828c0161531c565b9650965050606089013567ffffffffffffffff811115615578576155776151b4565b5b6155848b828c01615485565b94505060806155958b828c016152f8565b93505060a06155a68b828c016154d4565b92505060c06155b78b828c016154d4565b9150509295985092959890939650565b6000602082840312156155dd576155dc6151af565b5b60006155eb848285016152bf565b91505092915050565b600081519050919050565b60005b8381101561561d578082015181840152602081019050615602565b8381111561562c576000848401525b50505050565b600061563d826155f4565b6156478185615128565b93506156578185602086016155ff565b61566081615377565b840191505092915050565b600060208201905081810360008301526156858184615632565b905092915050565b600073ffffffffffffffffffffffffffffffffffffffff82169050919050565b60006156b88261568d565b9050919050565b6156c8816156ad565b82525050565b60006020820190506156e360008301846156bf565b92915050565b6156f2816156ad565b81146156fd57600080fd5b50565b60008135905061570f816156e9565b92915050565b6000806000806080858703121561572f5761572e6151af565b5b600061573d87828801615700565b945050602061574e87828801615700565b935050604061575f878288016152bf565b925050606085013567ffffffffffffffff8111156157805761577f6151b4565b5b61578c87828801615485565b91505092959194509250565b6157a1816151b9565b82525050565b60006020820190506157bc6000830184615798565b92915050565b600067ffffffffffffffff8211156157dd576157dc615388565b5b602082029050602081019050919050565b60006158016157fc846157c2565b6153e8565b9050808382526020820190506020840283018581111561582457615823615317565b5b835b8181101561584d57806158398882615700565b845260208401935050602081019050615826565b5050509392505050565b600082601f83011261586c5761586b61530d565b5b813561587c8482602086016157ee565b91505092915050565b600067ffffffffffffffff8211156158a05761589f615388565b5b602082029050602081019050919050565b60006158c46158bf84615885565b6153e8565b905080838252602082019050602084028301858111156158e7576158e6615317565b5b835b8181101561591057806158fc88826152bf565b8452602084019350506020810190506158e9565b5050509392505050565b600082601f83011261592f5761592e61530d565b5b813561593f8482602086016158b1565b91505092915050565b600067ffffffffffffffff82111561596357615962615388565b5b602082029050602081019050919050565b600061598761598284615948565b6153e8565b905080838252602082019050602084028301858111156159aa576159a9615317565b5b835b818110156159f157803567ffffffffffffffff8111156159cf576159ce61530d565b5b8086016159dc8982615485565b855260208501945050506020810190506159ac565b5050509392505050565b600082601f830112615a1057615a0f61530d565b5b8135615a20848260208601615974565b91505092915050565b60008060008060808587031215615a4357615a426151af565b5b600085013567ffffffffffffffff811115615a6157615a606151b4565b5b615a6d87828801615857565b945050602085013567ffffffffffffffff811115615a8e57615a8d6151b4565b5b615a9a8782880161591a565b935050604085013567ffffffffffffffff811115615abb57615aba6151b4565b5b615ac7878288016159fb565b9250506060615ad8878288016154d4565b91505092959194509250565b615aed816154b3565b82525050565b6000602082019050615b086000830184615ae4565b92915050565b600080600080600060a08688031215615b2a57615b296151af565b5b6000615b38888289016152bf565b9550506020615b49888289016152f8565b9450506040615b5a888289016152f8565b9350506060615b6b888289016154d4565b9250506080615b7c888289016154d4565b9150509295509295909350565b7f4e487b7100000000000000000000000000000000000000000000000000000000600052602160045260246000fd5b60088110615bc957615bc8615b89565b5b50565b6000819050615bda82615bb8565b919050565b6000615bea82615bcc565b9050919050565b615bfa81615bdf565b82525050565b6000602082019050615c156000830184615bf1565b92915050565b60008060408385031215615c3257615c316151af565b5b6000615c40858286016152bf565b9250506020615c5185828601615700565b9150509250929050565b6000606082019050615c70600083018661527e565b615c7d602083018561527e565b615c8a604083018461527e565b949350505050565b60008060408385031215615ca957615ca86151af565b5b6000615cb7858286016152bf565b9250506020615cc8858286016152f8565b9150509250929050565b600080600080600060808688031215615cee57615ced6151af565b5b6000615cfc888289016152bf565b9550506020615d0d888289016152f8565b945050604086013567ffffffffffffffff811115615d2e57615d2d6151b4565b5b615d3a8882890161531c565b9350935050606086013567ffffffffffffffff811115615d5d57615d5c6151b4565b5b615d6988828901615485565b9150509295509295909350565b60008060008060608587031215615d9057615d8f6151af565b5b6000615d9e878288016152bf565b9450506020615daf878288016152f8565b935050604085013567ffffffffffffffff811115615dd057615dcf6151b4565b5b615ddc8782880161531c565b925092505092959194509250565b600067ffffffffffffffff821115615e0557615e04615388565b5b615e0e82615377565b9050602081019050919050565b6000615e2e615e2984615dea565b6153e8565b905082815260208101848484011115615e4a57615e49615372565b5b615e55848285615434565b509392505050565b600082601f830112615e7257615e7161530d565b5b8135615e82848260208601615e1b565b91505092915050565b60008060008060808587031215615ea557615ea46151af565b5b600085013567ffffffffffffffff811115615ec357615ec26151b4565b5b615ecf87828801615857565b945050602085013567ffffffffffffffff811115615ef057615eef6151b4565b5b615efc8782880161591a565b935050604085013567ffffffffffffffff811115615f1d57615f1c6151b4565b5b615f29878288016159fb565b925050606085013567ffffffffffffffff811115615f4a57615f496151b4565b5b615f5687828801615e5d565b91505092959194509250565b60007fff0000000000000000000000000000000000000000000000000000000000000082169050919050565b615f9781615f62565b82525050565b600081519050919050565b600082825260208201905092915050565b6000819050602082019050919050565b615fd281615274565b82525050565b6000615fe48383615fc9565b60208301905092915050565b6000602082019050919050565b600061600882615f9d565b6160128185615fa8565b935061601d83615fb9565b8060005b8381101561604e5781516160358882615fd8565b975061604083615ff0565b925050600181019050616021565b5085935050505092915050565b600060e082019050616070600083018a615f8e565b81810360208301526160828189615632565b905081810360408301526160968188615632565b90506160a5606083018761527e565b6160b260808301866156bf565b6160bf60a0830185615ae4565b81810360c08301526160d18184615ffd565b905098975050505050505050565b600065ffffffffffff82169050919050565b6160fa816160df565b82525050565b600060208201905061611560008301846160f1565b92915050565b600080600060608486031215616134576161336151af565b5b600061614286828701615700565b9350506020616153868287016152bf565b925050604084013567ffffffffffffffff811115616174576161736151b4565b5b61618086828701615485565b9150509250925092565b60006161958261568d565b9050919050565b60006161a78261618a565b9050919050565b6161b78161619c565b81146161c257600080fd5b50565b6000813590506161d4816161ae565b92915050565b6000602082840312156161f0576161ef6151af565b5b60006161fe848285016161c5565b91505092915050565b600080600080600060a08688031215616223576162226151af565b5b600061623188828901615700565b955050602061624288828901615700565b945050604086013567ffffffffffffffff811115616263576162626151b4565b5b61626f8882890161591a565b935050606086013567ffffffffffffffff8111156162905761628f6151b4565b5b61629c8882890161591a565b925050608086013567ffffffffffffffff8111156162bd576162bc6151b4565b5b6162c988828901615485565b9150509295509295909350565b60008083601f8401126162ec576162eb61530d565b5b8235905067ffffffffffffffff81111561630957616308615312565b5b60208301915083600182028301111561632557616324615317565b5b9250929050565b60008060008060608587031215616346576163456151af565b5b600061635487828801615700565b9450506020616365878288016152bf565b935050604085013567ffffffffffffffff811115616386576163856151b4565b5b616392878288016162d6565b925092505092959194509250565b600080604083850312156163b7576163b66151af565b5b60006163c585828601615700565b92505060206163d6858286016152bf565b9150509250929050565b600080600080600060a086880312156163fc576163fb6151af565b5b600061640a88828901615700565b955050602061641b88828901615700565b945050604061642c888289016152bf565b935050606061643d888289016152bf565b925050608086013567ffffffffffffffff81111561645e5761645d6151b4565b5b61646a88828901615485565b9150509295509295909350565b6000819050919050565b600061649c6164976164928461568d565b616477565b61568d565b9050919050565b60006164ae82616481565b9050919050565b60006164c0826164a3565b9050919050565b6164d0816164b5565b82525050565b60006020820190506164eb60008301846164c7565b92915050565b600081905092915050565b600061650883856164f1565b9350616515838584615434565b82840190509392505050565b600061652e8284866164fc565b91508190509392505050565b616543816152d4565b82525050565b600060a08201905061655e6000830188615ae4565b61656b602083018761527e565b616578604083018661653a565b6165856060830185615ae4565b6165926080830184615ae4565b9695505050505050565b7f476f7665726e6f723a206f6e6c79476f7665726e616e63650000000000000000600082015250565b60006165d2601883615128565b91506165dd8261659c565b602082019050919050565b60006020820190508181036000830152616601816165c5565b9050919050565b7f4e487b7100000000000000000000000000000000000000000000000000000000600052602260045260246000fd5b6000600282049050600182168061664f57607f821691505b6020821081141561666357616662616608565b5b50919050565b7f476f7665726e6f723a2070726f706f73616c206e6f742073756363657373667560008201527f6c00000000000000000000000000000000000000000000000000000000000000602082015250565b60006166c5602183615128565b91506166d082616669565b604082019050919050565b600060208201905081810360008301526166f4816166b8565b9050919050565b60008151905061670a816152a8565b92915050565b600060208284031215616726576167256151af565b5b6000616734848285016166fb565b91505092915050565b600081519050919050565b600082825260208201905092915050565b6000819050602082019050919050565b616772816156ad565b82525050565b60006167848383616769565b60208301905092915050565b6000602082019050919050565b60006167a88261673d565b6167b28185616748565b93506167bd83616759565b8060005b838110156167ee5781516167d58882616778565b97506167e083616790565b9250506001810190506167c1565b5085935050505092915050565b600081519050919050565b600082825260208201905092915050565b6000819050602082019050919050565b600081519050919050565b600082825260208201905092915050565b600061684e82616827565b6168588185616832565b93506168688185602086016155ff565b61687181615377565b840191505092915050565b60006168888383616843565b905092915050565b6000602082019050919050565b60006168a8826167fb565b6168b28185616806565b9350836020820285016168c485616817565b8060005b8581101561690057848403895281516168e1858261687c565b94506168ec83616890565b925060208a019950506001810190506168c8565b50829750879550505050505092915050565b6000819050919050565b60008160001b9050919050565b600061694461693f61693a84616912565b61691c565b6154b3565b9050919050565b61695481616929565b82525050565b600060a0820190508181036000830152616974818861679d565b905081810360208301526169888187615ffd565b9050818103604083015261699c818661689d565b90506169ab606083018561694b565b6169b86080830184615ae4565b9695505050505050565b6000815190506169d1816154bd565b92915050565b6000602082840312156169ed576169ec6151af565b5b60006169fb848285016169c2565b91505092915050565b600060c0820190508181036000830152616a1e818961679d565b90508181036020830152616a328188615ffd565b90508181036040830152616a46818761689d565b9050616a55606083018661694b565b616a626080830185615ae4565b616a6f60a083018461527e565b979650505050505050565b7f4e487b7100000000000000000000000000000000000000000000000000000000600052601160045260246000fd5b6000616ab482615274565b9150616abf83615274565b9250827fffffffffffffffffffffffffffffffffffffffffffffffffffffffffffffffff03821115616af457616af3616a7a565b5b828201905092915050565b6000604082019050616b14600083018561527e565b616b21602083018461527e565b9392505050565b6000606082019050616b3d6000830186615ae4565b616b4a602083018561527e565b616b57604083018461653a565b949350505050565b7f476f7665726e6f723a20746f6f206c61746520746f2063616e63656c00000000600082015250565b6000616b95601c83615128565b9150616ba082616b5f565b602082019050919050565b60006020820190508181036000830152616bc481616b88565b9050919050565b7f476f7665726e6f723a206f6e6c792070726f706f7365722063616e2063616e6360008201527f656c000000000000000000000000000000000000000000000000000000000000602082015250565b6000616c27602283615128565b9150616c3282616bcb565b604082019050919050565b60006020820190508181036000830152616c5681616c1a565b9050919050565b6000616c70616c6b84615dea565b6153e8565b905082815260208101848484011115616c8c57616c8b615372565b5b616c978482856155ff565b509392505050565b600082601f830112616cb457616cb361530d565b5b8151616cc4848260208601616c5d565b91505092915050565b600060208284031215616ce357616ce26151af565b5b600082015167ffffffffffffffff811115616d0157616d006151b4565b5b616d0d84828501616c9f565b91505092915050565b6000616d2182615274565b9150616d2c83615274565b925082821015616d3f57616d3e616a7a565b5b828203905092915050565b7f4e487b7100000000000000000000000000000000000000000000000000000000600052603260045260246000fd5b616d82816160df565b8114616d8d57600080fd5b50565b600081519050616d9f81616d79565b92915050565b600060208284031215616dbb57616dba6151af565b5b6000616dc984828501616d90565b91505092915050565b60006080820190508181036000830152616dec818761679d565b90508181036020830152616e008186615ffd565b90508181036040830152616e14818561689d565b9050616e236060830184615ae4565b95945050505050565b7f53616665436173743a2076616c756520646f65736e27742066697420696e203260008201527f3234206269747300000000000000000000000000000000000000000000000000602082015250565b6000616e88602783615128565b9150616e9382616e2c565b604082019050919050565b60006020820190508181036000830152616eb781616e7b565b9050919050565b7f53616665436173743a2076616c756520646f65736e27742066697420696e203360008201527f3220626974730000000000000000000000000000000000000000000000000000602082015250565b6000616f1a602683615128565b9150616f2582616ebe565b604082019050919050565b60006020820190508181036000830152616f4981616f0d565b9050919050565b7f53616665436173743a2076616c756520646f65736e27742066697420696e203460008201527f3820626974730000000000000000000000000000000000000000000000000000602082015250565b6000616fac602683615128565b9150616fb782616f50565b604082019050919050565b60006020820190508181036000830152616fdb81616f9f565b9050919050565b7f476f7665726e6f723a20766f7465206e6f742063757272656e746c792061637460008201527f6976650000000000000000000000000000000000000000000000000000000000602082015250565b600061703e602383615128565b915061704982616fe2565b604082019050919050565b6000602082019050818103600083015261706d81617031565b9050919050565b6000608082019050617089600083018761527e565b617096602083018661653a565b6170a3604083018561527e565b81810360608301526170b58184615632565b905095945050505050565b600082825260208201905092915050565b60006170dc82616827565b6170e681856170c0565b93506170f68185602086016155ff565b6170ff81615377565b840191505092915050565b600060a08201905061711f600083018861527e565b61712c602083018761653a565b617139604083018661527e565b818103606083015261714b8185615632565b9050818103608083015261715f81846170d1565b90509695505050505050565b7f476f7665726e6f72566f74657351756f72756d4672616374696f6e3a2071756f60008201527f72756d4e756d657261746f72206f7665722071756f72756d44656e6f6d696e6160208201527f746f720000000000000000000000000000000000000000000000000000000000604082015250565b60006171ed604383615128565b91506171f88261716b565b606082019050919050565b6000602082019050818103600083015261721c816171e0565b9050919050565b600061722e82615274565b91507fffffffffffffffffffffffffffffffffffffffffffffffffffffffffffffffff82141561726157617260616a7a565b5b600182019050919050565b6172758161523e565b811461728057600080fd5b50565b6000815190506172928161726c565b92915050565b6000602082840312156172ae576172ad6151af565b5b60006172bc84828501617283565b91505092915050565b7f476f7665726e6f723a2070726f706f7365722072657374726963746564000000600082015250565b60006172fb601d83615128565b9150617306826172c5565b602082019050919050565b6000602082019050818103600083015261732a816172ee565b9050919050565b7f476f7665726e6f723a2070726f706f73657220766f7465732062656c6f77207060008201527f726f706f73616c207468726573686f6c64000000000000000000000000000000602082015250565b600061738d603183615128565b915061739882617331565b604082019050919050565b600060208201905081810360008301526173bc81617380565b9050919050565b7f476f7665726e6f723a20696e76616c69642070726f706f73616c206c656e677460008201527f6800000000000000000000000000000000000000000000000000000000000000602082015250565b600061741f602183615128565b915061742a826173c3565b604082019050919050565b6000602082019050818103600083015261744e81617412565b9050919050565b7f476f7665726e6f723a20656d7074792070726f706f73616c0000000000000000600082015250565b600061748b601883615128565b915061749682617455565b602082019050919050565b600060208201905081810360008301526174ba8161747e565b9050919050565b7f476f7665726e6f723a2070726f706f73616c20616c726561647920657869737460008201527f7300000000000000000000000000000000000000000000000000000000000000602082015250565b600061751d602183615128565b9150617528826174c1565b604082019050919050565b6000602082019050818103600083015261754c81617510565b9050919050565b600081519050919050565b600082825260208201905092915050565b6000819050602082019050919050565b600082825260208201905092915050565b600061759b826155f4565b6175a5818561757f565b93506175b58185602086016155ff565b6175be81615377565b840191505092915050565b60006175d58383617590565b905092915050565b6000602082019050919050565b60006175f582617553565b6175ff818561755e565b9350836020820285016176118561756f565b8060005b8581101561764d578484038952815161762e85826175c9565b9450617639836175dd565b925060208a01995050600181019050617615565b50829750879550505050505092915050565b600061012082019050617675600083018c61527e565b617682602083018b6156bf565b8181036040830152617694818a61679d565b905081810360608301526176a88189615ffd565b905081810360808301526176bc81886175ea565b905081810360a08301526176d0818761689d565b90506176df60c083018661527e565b6176ec60e083018561527e565b8181036101008301526176ff8184615632565b90509a9950505050505050505050565b600060408201905061772460008301856156bf565b617731602083018461527e565b9392505050565b600060408201905061774d60008301856156bf565b61775a60208301846156bf565b9392505050565b7f476f7665726e6f7253657474696e67733a20766f74696e6720706572696f642060008201527f746f6f206c6f7700000000000000000000000000000000000000000000000000602082015250565b60006177bd602783615128565b91506177c882617761565b604082019050919050565b600060208201905081810360008301526177ec816177b0565b9050919050565b60006177fe82615274565b915061780983615274565b9250817fffffffffffffffffffffffffffffffffffffffffffffffffffffffffffffffff048311821515161561784257617841616a7a565b5b828202905092915050565b7f4e487b7100000000000000000000000000000000000000000000000000000000600052601260045260246000fd5b600061788782615274565b915061789283615274565b9250826178a2576178a161784d565b5b828204905092915050565b6000819050602082019050919050565b60006178c982516154b3565b80915050919050565b600082821b905092915050565b60006178ea82616827565b826178f4846178ad565b90506178ff816178bd565b9250602082101561793f5761793a7fffffffffffffffffffffffffffffffffffffffffffffffffffffffffffffffff836020036008026178d2565b831692505b5050919050565b7f436865636b706f696e743a2064656372656173696e67206b6579730000000000600082015250565b600061797c601b83615128565b915061798782617946565b602082019050919050565b600060208201905081810360008301526179ab8161796f565b9050919050565b60006080820190506179c76000830187615ae4565b6179d4602083018661653a565b6179e16040830185615ae4565b6179ee6060830184615ae4565b95945050505050565b7f45434453413a20696e76616c6964207369676e61747572650000000000000000600082015250565b6000617a2d601883615128565b9150617a38826179f7565b602082019050919050565b60006020820190508181036000830152617a5c81617a20565b9050919050565b7f45434453413a20696e76616c6964207369676e6174757265206c656e67746800600082015250565b6000617a99601f83615128565b9150617aa482617a63565b602082019050919050565b60006020820190508181036000830152617ac881617a8c565b9050919050565b7f45434453413a20696e76616c6964207369676e6174757265202773272076616c60008201527f7565000000000000000000000000000000000000000000000000000000000000602082015250565b6000617b2b602283615128565b9150617b3682617acf565b604082019050919050565b60006020820190508181036000830152617b5a81617b1e565b9050919050565b7f476f7665726e6f72566f74696e6753696d706c653a20766f746520616c72656160008201527f6479206361737400000000000000000000000000000000000000000000000000602082015250565b6000617bbd602783615128565b9150617bc882617b61565b604082019050919050565b60006020820190508181036000830152617bec81617bb0565b9050919050565b7f476f7665726e6f72566f74696e6753696d706c653a20696e76616c696420766160008201527f6c756520666f7220656e756d20566f7465547970650000000000000000000000602082015250565b6000617c4f603583615128565b9150617c5a82617bf3565b604082019050919050565b60006020820190508181036000830152617c7e81617c42565b9050919050565b7f476f7665726e6f723a20756e6b6e6f776e2070726f706f73616c206964000000600082015250565b6000617cbb601d83615128565b9150617cc682617c85565b602082019050919050565b60006020820190508181036000830152617cea81617cae565b9050919050565b7f53616665436173743a2076616c756520646f65736e27742066697420696e203660008201527f3420626974730000000000000000000000000000000000000000000000000000602082015250565b6000617d4d602683615128565b9150617d5882617cf1565b604082019050919050565b60006020820190508181036000830152617d7c81617d40565b9050919050565b600060a082019050617d986000830188615ae4565b617da56020830187615ae4565b617db26040830186615ae4565b617dbf606083018561527e565b617dcc60808301846156bf565b9695505050505050565b7f476f7665726e6f723a2070726f706f73616c206e6f7420616374697665000000600082015250565b6000617e0c601d83615128565b9150617e1782617dd6565b602082019050919050565b60006020820190508181036000830152617e3b81617dff565b905091905056fe476f7665726e6f723a2072656c617920726576657274656420776974686f7574206d657373616765a26469706673582212204e4e2c8a8db970195757f257201163ab4a4ad94c378b23a54dc4db964f3e659764736f6c634300080a0033",
  "linkReferences": {},
  "deployedLinkReferences": {}
}