{
  "_format": "hh-sol-artifact-1",
  "contractName": "StandardERC721A",
  "sourceName": "contracts/ERC721/ERC721a-standard.sol",
  "abi": [
    {
      "inputs": [
        {
          "internalType": "string",
          "name": "_name",
          "type": "string"
        },
        {
          "internalType": "string",
          "name": "_symbol",
          "type": "string"
        },
        {
          "internalType": "string",
          "name": "_uri",
          "type": "string"
        },
        {
          "internalType": "uint256",
          "name": "price",
          "type": "uint256"
        },
        {
          "internalType": "uint256",
          "name": "maxSupply",
          "type": "uint256"
        }
      ],
      "stateMutability": "payable",
      "type": "constructor"
    },
    {
      "inputs": [],
      "name": "ApprovalCallerNotOwnerNorApproved",
      "type": "error"
    },
    {
      "inputs": [],
      "name": "ApprovalQueryForNonexistentToken",
      "type": "error"
    },
    {
      "inputs": [],
      "name": "ApprovalToCurrentOwner",
      "type": "error"
    },
    {
      "inputs": [],
      "name": "ApproveToCaller",
      "type": "error"
    },
    {
      "inputs": [],
      "name": "BalanceQueryForZeroAddress",
      "type": "error"
    },
    {
      "inputs": [],
      "name": "MintToZeroAddress",
      "type": "error"
    },
    {
      "inputs": [],
      "name": "MintZeroQuantity",
      "type": "error"
    },
    {
      "inputs": [],
      "name": "OwnerQueryForNonexistentToken",
      "type": "error"
    },
    {
      "inputs": [],
      "name": "TransferCallerNotOwnerNorApproved",
      "type": "error"
    },
    {
      "inputs": [],
      "name": "TransferFromIncorrectOwner",
      "type": "error"
    },
    {
      "inputs": [],
      "name": "TransferToNonERC721ReceiverImplementer",
      "type": "error"
    },
    {
      "inputs": [],
      "name": "TransferToZeroAddress",
      "type": "error"
    },
    {
      "inputs": [],
      "name": "URIQueryForNonexistentToken",
      "type": "error"
    },
    {
      "anonymous": false,
      "inputs": [
        {
          "indexed": true,
          "internalType": "address",
          "name": "owner",
          "type": "address"
        },
        {
          "indexed": true,
          "internalType": "address",
          "name": "approved",
          "type": "address"
        },
        {
          "indexed": true,
          "internalType": "uint256",
          "name": "tokenId",
          "type": "uint256"
        }
      ],
      "name": "Approval",
      "type": "event"
    },
    {
      "anonymous": false,
      "inputs": [
        {
          "indexed": true,
          "internalType": "address",
          "name": "owner",
          "type": "address"
        },
        {
          "indexed": true,
          "internalType": "address",
          "name": "operator",
          "type": "address"
        },
        {
          "indexed": false,
          "internalType": "bool",
          "name": "approved",
          "type": "bool"
        }
      ],
      "name": "ApprovalForAll",
      "type": "event"
    },
    {
      "anonymous": false,
      "inputs": [
        {
          "indexed": true,
          "internalType": "address",
          "name": "previousOwner",
          "type": "address"
        },
        {
          "indexed": true,
          "internalType": "address",
          "name": "newOwner",
          "type": "address"
        }
      ],
      "name": "OwnershipTransferred",
      "type": "event"
    },
    {
      "anonymous": false,
      "inputs": [
        {
          "indexed": true,
          "internalType": "address",
          "name": "from",
          "type": "address"
        },
        {
          "indexed": true,
          "internalType": "address",
          "name": "to",
          "type": "address"
        },
        {
          "indexed": true,
          "internalType": "uint256",
          "name": "tokenId",
          "type": "uint256"
        }
      ],
      "name": "Transfer",
      "type": "event"
    },
    {
      "inputs": [],
      "name": "MAX_SUPPLY",
      "outputs": [
        {
          "internalType": "uint256",
          "name": "",
          "type": "uint256"
        }
      ],
      "stateMutability": "view",
      "type": "function"
    },
    {
      "inputs": [
        {
          "internalType": "address",
          "name": "to",
          "type": "address"
        },
        {
          "internalType": "uint256",
          "name": "tokenId",
          "type": "uint256"
        }
      ],
      "name": "approve",
      "outputs": [],
      "stateMutability": "nonpayable",
      "type": "function"
    },
    {
      "inputs": [
        {
          "internalType": "address",
          "name": "owner",
          "type": "address"
        }
      ],
      "name": "balanceOf",
      "outputs": [
        {
          "internalType": "uint256",
          "name": "",
          "type": "uint256"
        }
      ],
      "stateMutability": "view",
      "type": "function"
    },
    {
      "inputs": [],
      "name": "currentPrice",
      "outputs": [
        {
          "internalType": "uint256",
          "name": "",
          "type": "uint256"
        }
      ],
      "stateMutability": "view",
      "type": "function"
    },
    {
      "inputs": [
        {
          "internalType": "uint256",
          "name": "tokenId",
          "type": "uint256"
        }
      ],
      "name": "getApproved",
      "outputs": [
        {
          "internalType": "address",
          "name": "",
          "type": "address"
        }
      ],
      "stateMutability": "view",
      "type": "function"
    },
    {
      "inputs": [
        {
          "internalType": "address",
          "name": "owner",
          "type": "address"
        },
        {
          "internalType": "address",
          "name": "operator",
          "type": "address"
        }
      ],
      "name": "isApprovedForAll",
      "outputs": [
        {
          "internalType": "bool",
          "name": "",
          "type": "bool"
        }
      ],
      "stateMutability": "view",
      "type": "function"
    },
    {
      "inputs": [
        {
          "internalType": "uint256",
          "name": "amount",
          "type": "uint256"
        }
      ],
      "name": "mint",
      "outputs": [],
      "stateMutability": "payable",
      "type": "function"
    },
    {
      "inputs": [],
      "name": "name",
      "outputs": [
        {
          "internalType": "string",
          "name": "",
          "type": "string"
        }
      ],
      "stateMutability": "view",
      "type": "function"
    },
    {
      "inputs": [],
      "name": "owner",
      "outputs": [
        {
          "internalType": "address",
          "name": "",
          "type": "address"
        }
      ],
      "stateMutability": "view",
      "type": "function"
    },
    {
      "inputs": [
        {
          "internalType": "uint256",
          "name": "tokenId",
          "type": "uint256"
        }
      ],
      "name": "ownerOf",
      "outputs": [
        {
          "internalType": "address",
          "name": "",
          "type": "address"
        }
      ],
      "stateMutability": "view",
      "type": "function"
    },
    {
      "inputs": [],
      "name": "renounceOwnership",
      "outputs": [],
      "stateMutability": "nonpayable",
      "type": "function"
    },
    {
      "inputs": [
        {
          "internalType": "address",
          "name": "to",
          "type": "address"
        },
        {
          "internalType": "uint256",
          "name": "amount",
          "type": "uint256"
        }
      ],
      "name": "reserve",
      "outputs": [],
      "stateMutability": "nonpayable",
      "type": "function"
    },
    {
      "inputs": [
        {
          "internalType": "address",
          "name": "from",
          "type": "address"
        },
        {
          "internalType": "address",
          "name": "to",
          "type": "address"
        },
        {
          "internalType": "uint256",
          "name": "tokenId",
          "type": "uint256"
        }
      ],
      "name": "safeTransferFrom",
      "outputs": [],
      "stateMutability": "nonpayable",
      "type": "function"
    },
    {
      "inputs": [
        {
          "internalType": "address",
          "name": "from",
          "type": "address"
        },
        {
          "internalType": "address",
          "name": "to",
          "type": "address"
        },
        {
          "internalType": "uint256",
          "name": "tokenId",
          "type": "uint256"
        },
        {
          "internalType": "bytes",
          "name": "_data",
          "type": "bytes"
        }
      ],
      "name": "safeTransferFrom",
      "outputs": [],
      "stateMutability": "nonpayable",
      "type": "function"
    },
    {
      "inputs": [],
      "name": "saleIsActive",
      "outputs": [
        {
          "internalType": "bool",
          "name": "",
          "type": "bool"
        }
      ],
      "stateMutability": "view",
      "type": "function"
    },
    {
      "inputs": [
        {
          "internalType": "address",
          "name": "operator",
          "type": "address"
        },
        {
          "internalType": "bool",
          "name": "approved",
          "type": "bool"
        }
      ],
      "name": "setApprovalForAll",
      "outputs": [],
      "stateMutability": "nonpayable",
      "type": "function"
    },
    {
      "inputs": [
        {
          "internalType": "string",
          "name": "baseURI_",
          "type": "string"
        }
      ],
      "name": "setBaseURI",
      "outputs": [],
      "stateMutability": "nonpayable",
      "type": "function"
    },
    {
      "inputs": [
        {
          "internalType": "uint256",
          "name": "price",
          "type": "uint256"
        }
      ],
      "name": "setCurrentPrice",
      "outputs": [],
      "stateMutability": "nonpayable",
      "type": "function"
    },
    {
      "inputs": [
        {
          "internalType": "bool",
          "name": "isActive",
          "type": "bool"
        }
      ],
      "name": "setSaleIsActive",
      "outputs": [],
      "stateMutability": "nonpayable",
      "type": "function"
    },
    {
      "inputs": [
        {
          "internalType": "bytes4",
          "name": "interfaceId",
          "type": "bytes4"
        }
      ],
      "name": "supportsInterface",
      "outputs": [
        {
          "internalType": "bool",
          "name": "",
          "type": "bool"
        }
      ],
      "stateMutability": "view",
      "type": "function"
    },
    {
      "inputs": [],
      "name": "symbol",
      "outputs": [
        {
          "internalType": "string",
          "name": "",
          "type": "string"
        }
      ],
      "stateMutability": "view",
      "type": "function"
    },
    {
      "inputs": [
        {
          "internalType": "uint256",
          "name": "tokenId",
          "type": "uint256"
        }
      ],
      "name": "tokenURI",
      "outputs": [
        {
          "internalType": "string",
          "name": "",
          "type": "string"
        }
      ],
      "stateMutability": "view",
      "type": "function"
    },
    {
      "inputs": [],
      "name": "totalSupply",
      "outputs": [
        {
          "internalType": "uint256",
          "name": "",
          "type": "uint256"
        }
      ],
      "stateMutability": "view",
      "type": "function"
    },
    {
      "inputs": [
        {
          "internalType": "address",
          "name": "from",
          "type": "address"
        },
        {
          "internalType": "address",
          "name": "to",
          "type": "address"
        },
        {
          "internalType": "uint256",
          "name": "tokenId",
          "type": "uint256"
        }
      ],
      "name": "transferFrom",
      "outputs": [],
      "stateMutability": "nonpayable",
      "type": "function"
    },
    {
      "inputs": [
        {
          "internalType": "address",
          "name": "newOwner",
          "type": "address"
        }
      ],
      "name": "transferOwnership",
      "outputs": [],
      "stateMutability": "nonpayable",
      "type": "function"
    },
    {
      "inputs": [],
      "name": "walletLimit",
      "outputs": [
        {
          "internalType": "uint256",
          "name": "",
          "type": "uint256"
        }
      ],
      "stateMutability": "view",
      "type": "function"
    },
    {
      "inputs": [],
      "name": "withdraw",
      "outputs": [],
      "stateMutability": "nonpayable",
      "type": "function"
    }
  ],
  "bytecode": "0x60a06040526001600860146101000a81548160ff021916908315150217905550604051620036953803806200369583398181016040528101906200004491906200043e565b848481600290805190602001906200005e929190620001b6565b50806003908051906020019062000077929190620001b6565b5062000088620000e360201b60201c565b6000819055505050620000b0620000a4620000e860201b60201c565b620000f060201b60201c565b8260099080519060200190620000c8929190620001b6565b5081600a819055508060808181525050505050505062000588565b600090565b600033905090565b6000600860009054906101000a900473ffffffffffffffffffffffffffffffffffffffff16905081600860006101000a81548173ffffffffffffffffffffffffffffffffffffffff021916908373ffffffffffffffffffffffffffffffffffffffff1602179055508173ffffffffffffffffffffffffffffffffffffffff168173ffffffffffffffffffffffffffffffffffffffff167f8be0079c531659141344cd1fd0a4f28419497f9722a3daafe3b4186f6b6457e060405160405180910390a35050565b828054620001c49062000552565b90600052602060002090601f016020900481019282620001e8576000855562000234565b82601f106200020357805160ff191683800117855562000234565b8280016001018555821562000234579182015b828111156200023357825182559160200191906001019062000216565b5b50905062000243919062000247565b5090565b5b808211156200026257600081600090555060010162000248565b5090565b6000604051905090565b600080fd5b600080fd5b600080fd5b600080fd5b6000601f19601f8301169050919050565b7f4e487b7100000000000000000000000000000000000000000000000000000000600052604160045260246000fd5b620002cf8262000284565b810181811067ffffffffffffffff82111715620002f157620002f062000295565b5b80604052505050565b60006200030662000266565b9050620003148282620002c4565b919050565b600067ffffffffffffffff82111562000337576200033662000295565b5b620003428262000284565b9050602081019050919050565b60005b838110156200036f57808201518184015260208101905062000352565b838111156200037f576000848401525b50505050565b60006200039c620003968462000319565b620002fa565b905082815260208101848484011115620003bb57620003ba6200027f565b5b620003c88482856200034f565b509392505050565b600082601f830112620003e857620003e76200027a565b5b8151620003fa84826020860162000385565b91505092915050565b6000819050919050565b620004188162000403565b81146200042457600080fd5b50565b60008151905062000438816200040d565b92915050565b600080600080600060a086880312156200045d576200045c62000270565b5b600086015167ffffffffffffffff8111156200047e576200047d62000275565b5b6200048c88828901620003d0565b955050602086015167ffffffffffffffff811115620004b057620004af62000275565b5b620004be88828901620003d0565b945050604086015167ffffffffffffffff811115620004e257620004e162000275565b5b620004f088828901620003d0565b9350506060620005038882890162000427565b9250506080620005168882890162000427565b9150509295509295909350565b7f4e487b7100000000000000000000000000000000000000000000000000000000600052602260045260246000fd5b600060028204905060018216806200056b57607f821691505b6020821081141562000582576200058162000523565b5b50919050565b6080516130e3620005b2600039600081816109a601528181610c800152610ff201526130e36000f3fe60806040526004361061019c5760003560e01c80636352211e116100ec578063a22cb4651161008a578063cc47a40b11610064578063cc47a40b14610591578063e985e9c5146105ba578063eb8d2444146105f7578063f2fde38b146106225761019c565b8063a22cb46514610502578063b88d4fde1461052b578063c87b56dd146105545761019c565b80638da5cb5b116100c65780638da5cb5b1461046557806395d89b41146104905780639d1b464a146104bb578063a0712d68146104e65761019c565b80636352211e146103d457806370a0823114610411578063715018a61461044e5761019c565b806318b20071116101595780633c8463a1116101335780633c8463a1146103405780633ccfd60b1461036b57806342842e0e1461038257806355f804b3146103ab5761019c565b806318b20071146102c357806323b872dd146102ec57806332cb6b0c146103155761019c565b806301ffc9a7146101a157806302c88989146101de57806306fdde0314610207578063081812fc14610232578063095ea7b31461026f57806318160ddd14610298575b600080fd5b3480156101ad57600080fd5b506101c860048036038101906101c39190612525565b61064b565b6040516101d5919061256d565b60405180910390f35b3480156101ea57600080fd5b50610205600480360381019061020091906125b4565b61072d565b005b34801561021357600080fd5b5061021c610752565b604051610229919061267a565b60405180910390f35b34801561023e57600080fd5b50610259600480360381019061025491906126d2565b6107e4565b6040516102669190612740565b60405180910390f35b34801561027b57600080fd5b5061029660048036038101906102919190612787565b610860565b005b3480156102a457600080fd5b506102ad61096b565b6040516102ba91906127d6565b60405180910390f35b3480156102cf57600080fd5b506102ea60048036038101906102e591906126d2565b610982565b005b3480156102f857600080fd5b50610313600480360381019061030e91906127f1565b610994565b005b34801561032157600080fd5b5061032a6109a4565b60405161033791906127d6565b60405180910390f35b34801561034c57600080fd5b506103556109c8565b60405161036291906127d6565b60405180910390f35b34801561037757600080fd5b506103806109ce565b005b34801561038e57600080fd5b506103a960048036038101906103a491906127f1565b610a25565b005b3480156103b757600080fd5b506103d260048036038101906103cd9190612979565b610a45565b005b3480156103e057600080fd5b506103fb60048036038101906103f691906126d2565b610a67565b6040516104089190612740565b60405180910390f35b34801561041d57600080fd5b50610438600480360381019061043391906129c2565b610a7d565b60405161044591906127d6565b60405180910390f35b34801561045a57600080fd5b50610463610b4d565b005b34801561047157600080fd5b5061047a610b61565b6040516104879190612740565b60405180910390f35b34801561049c57600080fd5b506104a5610b8b565b6040516104b2919061267a565b60405180910390f35b3480156104c757600080fd5b506104d0610c1d565b6040516104dd91906127d6565b60405180910390f35b61050060048036038101906104fb91906126d2565b610c23565b005b34801561050e57600080fd5b50610529600480360381019061052491906129ef565b610d49565b005b34801561053757600080fd5b50610552600480360381019061054d9190612ad0565b610ec1565b005b34801561056057600080fd5b5061057b600480360381019061057691906126d2565b610f3d565b604051610588919061267a565b60405180910390f35b34801561059d57600080fd5b506105b860048036038101906105b39190612787565b610fdc565b005b3480156105c657600080fd5b506105e160048036038101906105dc9190612b53565b61106d565b6040516105ee919061256d565b60405180910390f35b34801561060357600080fd5b5061060c611101565b604051610619919061256d565b60405180910390f35b34801561062e57600080fd5b50610649600480360381019061064491906129c2565b611114565b005b60007f80ac58cd000000000000000000000000000000000000000000000000000000007bffffffffffffffffffffffffffffffffffffffffffffffffffffffff1916827bffffffffffffffffffffffffffffffffffffffffffffffffffffffff1916148061071657507f5b5e139f000000000000000000000000000000000000000000000000000000007bffffffffffffffffffffffffffffffffffffffffffffffffffffffff1916827bffffffffffffffffffffffffffffffffffffffffffffffffffffffff1916145b80610726575061072582611198565b5b9050919050565b610735611202565b80600860146101000a81548160ff02191690831515021790555050565b60606002805461076190612bc2565b80601f016020809104026020016040519081016040528092919081815260200182805461078d90612bc2565b80156107da5780601f106107af576101008083540402835291602001916107da565b820191906000526020600020905b8154815290600101906020018083116107bd57829003601f168201915b5050505050905090565b60006107ef82611280565b610825576040517fcf4700e400000000000000000000000000000000000000000000000000000000815260040160405180910390fd5b6006600083815260200190815260200160002060009054906101000a900473ffffffffffffffffffffffffffffffffffffffff169050919050565b600061086b82610a67565b90508073ffffffffffffffffffffffffffffffffffffffff168373ffffffffffffffffffffffffffffffffffffffff1614156108d3576040517f943f7b8c00000000000000000000000000000000000000000000000000000000815260040160405180910390fd5b8073ffffffffffffffffffffffffffffffffffffffff166108f26112ce565b73ffffffffffffffffffffffffffffffffffffffff161415801561092457506109228161091d6112ce565b61106d565b155b1561095b576040517fcfb3b94200000000000000000000000000000000000000000000000000000000815260040160405180910390fd5b6109668383836112d6565b505050565b6000610975611388565b6001546000540303905090565b61098a611202565b80600a8190555050565b61099f83838361138d565b505050565b7f000000000000000000000000000000000000000000000000000000000000000081565b600b5481565b6109d6611202565b60004790503373ffffffffffffffffffffffffffffffffffffffff166108fc829081150290604051600060405180830381858888f19350505050158015610a21573d6000803e3d6000fd5b5050565b610a4083838360405180602001604052806000815250610ec1565b505050565b610a4d611202565b8060099080519060200190610a639291906123d3565b5050565b6000610a7282611843565b600001519050919050565b60008073ffffffffffffffffffffffffffffffffffffffff168273ffffffffffffffffffffffffffffffffffffffff161415610ae5576040517f8f4eb60400000000000000000000000000000000000000000000000000000000815260040160405180910390fd5b600560008373ffffffffffffffffffffffffffffffffffffffff1673ffffffffffffffffffffffffffffffffffffffff16815260200190815260200160002060000160009054906101000a900467ffffffffffffffff1667ffffffffffffffff169050919050565b610b55611202565b610b5f6000611ad2565b565b6000600860009054906101000a900473ffffffffffffffffffffffffffffffffffffffff16905090565b606060038054610b9a90612bc2565b80601f0160208091040260200160405190810160405280929190818152602001828054610bc690612bc2565b8015610c135780601f10610be857610100808354040283529160200191610c13565b820191906000526020600020905b815481529060010190602001808311610bf657829003601f168201915b5050505050905090565b600a5481565b6000610c2d61096b565b9050600860149054906101000a900460ff16610c7e576040517f08c379a0000000000000000000000000000000000000000000000000000000008152600401610c7590612c66565b60405180910390fd5b7f00000000000000000000000000000000000000000000000000000000000000008282610cab9190612cb5565b1115610cec576040517f08c379a0000000000000000000000000000000000000000000000000000000008152600401610ce390612d57565b60405180910390fd5b3482600a54610cfb9190612d77565b14610d3b576040517f08c379a0000000000000000000000000000000000000000000000000000000008152600401610d3290612e1d565b60405180910390fd5b610d453383611b98565b5050565b610d516112ce565b73ffffffffffffffffffffffffffffffffffffffff168273ffffffffffffffffffffffffffffffffffffffff161415610db6576040517fb06307db00000000000000000000000000000000000000000000000000000000815260040160405180910390fd5b8060076000610dc36112ce565b73ffffffffffffffffffffffffffffffffffffffff1673ffffffffffffffffffffffffffffffffffffffff16815260200190815260200160002060008473ffffffffffffffffffffffffffffffffffffffff1673ffffffffffffffffffffffffffffffffffffffff16815260200190815260200160002060006101000a81548160ff0219169083151502179055508173ffffffffffffffffffffffffffffffffffffffff16610e706112ce565b73ffffffffffffffffffffffffffffffffffffffff167f17307eab39ab6107e8899845ad3d59bd9653f200f220920489ca2b5937696c3183604051610eb5919061256d565b60405180910390a35050565b610ecc84848461138d565b610eeb8373ffffffffffffffffffffffffffffffffffffffff16611bb6565b8015610f005750610efe84848484611bd9565b155b15610f37576040517fd1a57ed600000000000000000000000000000000000000000000000000000000815260040160405180910390fd5b50505050565b6060610f4882611280565b610f7e576040517fa14c4b5000000000000000000000000000000000000000000000000000000000815260040160405180910390fd5b6000610f88611d2a565b9050600081511415610fa95760405180602001604052806000815250610fd4565b80610fb384611dbc565b604051602001610fc4929190612e79565b6040516020818303038152906040525b915050919050565b610fe4611202565b6000610fee61096b565b90507f0000000000000000000000000000000000000000000000000000000000000000828261101d9190612cb5565b111561105e576040517f08c379a000000000000000000000000000000000000000000000000000000000815260040161105590612d57565b60405180910390fd5b6110688383611b98565b505050565b6000600760008473ffffffffffffffffffffffffffffffffffffffff1673ffffffffffffffffffffffffffffffffffffffff16815260200190815260200160002060008373ffffffffffffffffffffffffffffffffffffffff1673ffffffffffffffffffffffffffffffffffffffff16815260200190815260200160002060009054906101000a900460ff16905092915050565b600860149054906101000a900460ff1681565b61111c611202565b600073ffffffffffffffffffffffffffffffffffffffff168173ffffffffffffffffffffffffffffffffffffffff16141561118c576040517f08c379a000000000000000000000000000000000000000000000000000000000815260040161118390612f0f565b60405180910390fd5b61119581611ad2565b50565b60007f01ffc9a7000000000000000000000000000000000000000000000000000000007bffffffffffffffffffffffffffffffffffffffffffffffffffffffff1916827bffffffffffffffffffffffffffffffffffffffffffffffffffffffff1916149050919050565b61120a6112ce565b73ffffffffffffffffffffffffffffffffffffffff16611228610b61565b73ffffffffffffffffffffffffffffffffffffffff161461127e576040517f08c379a000000000000000000000000000000000000000000000000000000000815260040161127590612f7b565b60405180910390fd5b565b60008161128b611388565b1115801561129a575060005482105b80156112c7575060046000838152602001908152602001600020600001601c9054906101000a900460ff16155b9050919050565b600033905090565b826006600084815260200190815260200160002060006101000a81548173ffffffffffffffffffffffffffffffffffffffff021916908373ffffffffffffffffffffffffffffffffffffffff160217905550818373ffffffffffffffffffffffffffffffffffffffff168273ffffffffffffffffffffffffffffffffffffffff167f8c5be1e5ebec7d5bd14f71427d1e84f3dd0314c0f7b2291e5b200ac8c7c3b92560405160405180910390a4505050565b600090565b600061139882611843565b90508373ffffffffffffffffffffffffffffffffffffffff16816000015173ffffffffffffffffffffffffffffffffffffffff1614611403576040517fa114810000000000000000000000000000000000000000000000000000000000815260040160405180910390fd5b60008473ffffffffffffffffffffffffffffffffffffffff166114246112ce565b73ffffffffffffffffffffffffffffffffffffffff16148061145357506114528561144d6112ce565b61106d565b5b8061149857506114616112ce565b73ffffffffffffffffffffffffffffffffffffffff16611480846107e4565b73ffffffffffffffffffffffffffffffffffffffff16145b9050806114d1576040517f59c896be00000000000000000000000000000000000000000000000000000000815260040160405180910390fd5b600073ffffffffffffffffffffffffffffffffffffffff168473ffffffffffffffffffffffffffffffffffffffff161415611538576040517fea553b3400000000000000000000000000000000000000000000000000000000815260040160405180910390fd5b6115458585856001611e94565b611551600084876112d6565b6001600560008773ffffffffffffffffffffffffffffffffffffffff1673ffffffffffffffffffffffffffffffffffffffff16815260200190815260200160002060000160008282829054906101000a900467ffffffffffffffff160392506101000a81548167ffffffffffffffff021916908367ffffffffffffffff1602179055506001600560008673ffffffffffffffffffffffffffffffffffffffff1673ffffffffffffffffffffffffffffffffffffffff16815260200190815260200160002060000160008282829054906101000a900467ffffffffffffffff160192506101000a81548167ffffffffffffffff021916908367ffffffffffffffff1602179055506000600460008581526020019081526020016000209050848160000160006101000a81548173ffffffffffffffffffffffffffffffffffffffff021916908373ffffffffffffffffffffffffffffffffffffffff160217905550428160000160146101000a81548167ffffffffffffffff021916908367ffffffffffffffff16021790555060006001850190506000600460008381526020019081526020016000209050600073ffffffffffffffffffffffffffffffffffffffff168160000160009054906101000a900473ffffffffffffffffffffffffffffffffffffffff1673ffffffffffffffffffffffffffffffffffffffff1614156117d15760005482146117d057878160000160006101000a81548173ffffffffffffffffffffffffffffffffffffffff021916908373ffffffffffffffffffffffffffffffffffffffff16021790555084602001518160000160146101000a81548167ffffffffffffffff021916908367ffffffffffffffff1602179055505b5b505050828473ffffffffffffffffffffffffffffffffffffffff168673ffffffffffffffffffffffffffffffffffffffff167fddf252ad1be2c89b69c2b068fc378daa952ba7f163c4a11628f55a4df523b3ef60405160405180910390a461183c8585856001611e9a565b5050505050565b61184b612459565b600082905080611859611388565b11158015611868575060005481105b15611a9b576000600460008381526020019081526020016000206040518060600160405290816000820160009054906101000a900473ffffffffffffffffffffffffffffffffffffffff1673ffffffffffffffffffffffffffffffffffffffff1673ffffffffffffffffffffffffffffffffffffffff1681526020016000820160149054906101000a900467ffffffffffffffff1667ffffffffffffffff1667ffffffffffffffff16815260200160008201601c9054906101000a900460ff16151515158152505090508060400151611a9957600073ffffffffffffffffffffffffffffffffffffffff16816000015173ffffffffffffffffffffffffffffffffffffffff161461197d578092505050611acd565b5b600115611a9857818060019003925050600460008381526020019081526020016000206040518060600160405290816000820160009054906101000a900473ffffffffffffffffffffffffffffffffffffffff1673ffffffffffffffffffffffffffffffffffffffff1673ffffffffffffffffffffffffffffffffffffffff1681526020016000820160149054906101000a900467ffffffffffffffff1667ffffffffffffffff1667ffffffffffffffff16815260200160008201601c9054906101000a900460ff1615151515815250509050600073ffffffffffffffffffffffffffffffffffffffff16816000015173ffffffffffffffffffffffffffffffffffffffff1614611a93578092505050611acd565b61197e565b5b505b6040517fdf2d9b4200000000000000000000000000000000000000000000000000000000815260040160405180910390fd5b919050565b6000600860009054906101000a900473ffffffffffffffffffffffffffffffffffffffff16905081600860006101000a81548173ffffffffffffffffffffffffffffffffffffffff021916908373ffffffffffffffffffffffffffffffffffffffff1602179055508173ffffffffffffffffffffffffffffffffffffffff168173ffffffffffffffffffffffffffffffffffffffff167f8be0079c531659141344cd1fd0a4f28419497f9722a3daafe3b4186f6b6457e060405160405180910390a35050565b611bb2828260405180602001604052806000815250611ea0565b5050565b6000808273ffffffffffffffffffffffffffffffffffffffff163b119050919050565b60008373ffffffffffffffffffffffffffffffffffffffff1663150b7a02611bff6112ce565b8786866040518563ffffffff1660e01b8152600401611c219493929190612ff0565b6020604051808303816000875af1925050508015611c5d57506040513d601f19601f82011682018060405250810190611c5a9190613051565b60015b611cd7573d8060008114611c8d576040519150601f19603f3d011682016040523d82523d6000602084013e611c92565b606091505b50600081511415611ccf576040517fd1a57ed600000000000000000000000000000000000000000000000000000000815260040160405180910390fd5b805181602001fd5b63150b7a0260e01b7bffffffffffffffffffffffffffffffffffffffffffffffffffffffff1916817bffffffffffffffffffffffffffffffffffffffffffffffffffffffff191614915050949350505050565b606060098054611d3990612bc2565b80601f0160208091040260200160405190810160405280929190818152602001828054611d6590612bc2565b8015611db25780601f10611d8757610100808354040283529160200191611db2565b820191906000526020600020905b815481529060010190602001808311611d9557829003601f168201915b5050505050905090565b606060006001611dcb84611eb2565b01905060008167ffffffffffffffff811115611dea57611de961284e565b5b6040519080825280601f01601f191660200182016040528015611e1c5781602001600182028036833780820191505090505b509050600082602001820190505b600115611e89578080600190039150507f3031323334353637383961626364656600000000000000000000000000000000600a86061a8153600a8581611e7357611e7261307e565b5b0494506000851415611e8457611e89565b611e2a565b819350505050919050565b50505050565b50505050565b611ead8383836001612005565b505050565b600080600090507a184f03e93ff9f4daa797ed6e38ed64bf6a1f0100000000000000008310611f10577a184f03e93ff9f4daa797ed6e38ed64bf6a1f0100000000000000008381611f0657611f0561307e565b5b0492506040810190505b6d04ee2d6d415b85acef81000000008310611f4d576d04ee2d6d415b85acef81000000008381611f4357611f4261307e565b5b0492506020810190505b662386f26fc100008310611f7c57662386f26fc100008381611f7257611f7161307e565b5b0492506010810190505b6305f5e1008310611fa5576305f5e1008381611f9b57611f9a61307e565b5b0492506008810190505b6127108310611fca576127108381611fc057611fbf61307e565b5b0492506004810190505b60648310611fed5760648381611fe357611fe261307e565b5b0492506002810190505b600a8310611ffc576001810190505b80915050919050565b600080549050600073ffffffffffffffffffffffffffffffffffffffff168573ffffffffffffffffffffffffffffffffffffffff161415612072576040517f2e07630000000000000000000000000000000000000000000000000000000000815260040160405180910390fd5b60008414156120ad576040517fb562e8dd00000000000000000000000000000000000000000000000000000000815260040160405180910390fd5b6120ba6000868387611e94565b83600560008773ffffffffffffffffffffffffffffffffffffffff1673ffffffffffffffffffffffffffffffffffffffff16815260200190815260200160002060000160008282829054906101000a900467ffffffffffffffff160192506101000a81548167ffffffffffffffff021916908367ffffffffffffffff16021790555083600560008773ffffffffffffffffffffffffffffffffffffffff1673ffffffffffffffffffffffffffffffffffffffff16815260200190815260200160002060000160088282829054906101000a900467ffffffffffffffff160192506101000a81548167ffffffffffffffff021916908367ffffffffffffffff160217905550846004600083815260200190815260200160002060000160006101000a81548173ffffffffffffffffffffffffffffffffffffffff021916908373ffffffffffffffffffffffffffffffffffffffff160217905550426004600083815260200190815260200160002060000160146101000a81548167ffffffffffffffff021916908367ffffffffffffffff16021790555060008190506000858201905083801561228457506122838773ffffffffffffffffffffffffffffffffffffffff16611bb6565b5b1561234a575b818773ffffffffffffffffffffffffffffffffffffffff16600073ffffffffffffffffffffffffffffffffffffffff167fddf252ad1be2c89b69c2b068fc378daa952ba7f163c4a11628f55a4df523b3ef60405160405180910390a46122f96000888480600101955088611bd9565b61232f576040517fd1a57ed600000000000000000000000000000000000000000000000000000000815260040160405180910390fd5b8082141561228a57826000541461234557600080fd5b6123b6565b5b818060010192508773ffffffffffffffffffffffffffffffffffffffff16600073ffffffffffffffffffffffffffffffffffffffff167fddf252ad1be2c89b69c2b068fc378daa952ba7f163c4a11628f55a4df523b3ef60405160405180910390a48082141561234b575b8160008190555050506123cc6000868387611e9a565b5050505050565b8280546123df90612bc2565b90600052602060002090601f0160209004810192826124015760008555612448565b82601f1061241a57805160ff1916838001178555612448565b82800160010185558215612448579182015b8281111561244757825182559160200191906001019061242c565b5b509050612455919061249c565b5090565b6040518060600160405280600073ffffffffffffffffffffffffffffffffffffffff168152602001600067ffffffffffffffff1681526020016000151581525090565b5b808211156124b557600081600090555060010161249d565b5090565b6000604051905090565b600080fd5b600080fd5b60007fffffffff0000000000000000000000000000000000000000000000000000000082169050919050565b612502816124cd565b811461250d57600080fd5b50565b60008135905061251f816124f9565b92915050565b60006020828403121561253b5761253a6124c3565b5b600061254984828501612510565b91505092915050565b60008115159050919050565b61256781612552565b82525050565b6000602082019050612582600083018461255e565b92915050565b61259181612552565b811461259c57600080fd5b50565b6000813590506125ae81612588565b92915050565b6000602082840312156125ca576125c96124c3565b5b60006125d88482850161259f565b91505092915050565b600081519050919050565b600082825260208201905092915050565b60005b8381101561261b578082015181840152602081019050612600565b8381111561262a576000848401525b50505050565b6000601f19601f8301169050919050565b600061264c826125e1565b61265681856125ec565b93506126668185602086016125fd565b61266f81612630565b840191505092915050565b600060208201905081810360008301526126948184612641565b905092915050565b6000819050919050565b6126af8161269c565b81146126ba57600080fd5b50565b6000813590506126cc816126a6565b92915050565b6000602082840312156126e8576126e76124c3565b5b60006126f6848285016126bd565b91505092915050565b600073ffffffffffffffffffffffffffffffffffffffff82169050919050565b600061272a826126ff565b9050919050565b61273a8161271f565b82525050565b60006020820190506127556000830184612731565b92915050565b6127648161271f565b811461276f57600080fd5b50565b6000813590506127818161275b565b92915050565b6000806040838503121561279e5761279d6124c3565b5b60006127ac85828601612772565b92505060206127bd858286016126bd565b9150509250929050565b6127d08161269c565b82525050565b60006020820190506127eb60008301846127c7565b92915050565b60008060006060848603121561280a576128096124c3565b5b600061281886828701612772565b935050602061282986828701612772565b925050604061283a868287016126bd565b9150509250925092565b600080fd5b600080fd5b7f4e487b7100000000000000000000000000000000000000000000000000000000600052604160045260246000fd5b61288682612630565b810181811067ffffffffffffffff821117156128a5576128a461284e565b5b80604052505050565b60006128b86124b9565b90506128c4828261287d565b919050565b600067ffffffffffffffff8211156128e4576128e361284e565b5b6128ed82612630565b9050602081019050919050565b82818337600083830152505050565b600061291c612917846128c9565b6128ae565b90508281526020810184848401111561293857612937612849565b5b6129438482856128fa565b509392505050565b600082601f8301126129605761295f612844565b5b8135612970848260208601612909565b91505092915050565b60006020828403121561298f5761298e6124c3565b5b600082013567ffffffffffffffff8111156129ad576129ac6124c8565b5b6129b98482850161294b565b91505092915050565b6000602082840312156129d8576129d76124c3565b5b60006129e684828501612772565b91505092915050565b60008060408385031215612a0657612a056124c3565b5b6000612a1485828601612772565b9250506020612a258582860161259f565b9150509250929050565b600067ffffffffffffffff821115612a4a57612a4961284e565b5b612a5382612630565b9050602081019050919050565b6000612a73612a6e84612a2f565b6128ae565b905082815260208101848484011115612a8f57612a8e612849565b5b612a9a8482856128fa565b509392505050565b600082601f830112612ab757612ab6612844565b5b8135612ac7848260208601612a60565b91505092915050565b60008060008060808587031215612aea57612ae96124c3565b5b6000612af887828801612772565b9450506020612b0987828801612772565b9350506040612b1a878288016126bd565b925050606085013567ffffffffffffffff811115612b3b57612b3a6124c8565b5b612b4787828801612aa2565b91505092959194509250565b60008060408385031215612b6a57612b696124c3565b5b6000612b7885828601612772565b9250506020612b8985828601612772565b9150509250929050565b7f4e487b7100000000000000000000000000000000000000000000000000000000600052602260045260246000fd5b60006002820490506001821680612bda57607f821691505b60208210811415612bee57612bed612b93565b5b50919050565b7f53616c65206d7573742062652061637469766520746f206d696e7420746f6b6560008201527f6e73000000000000000000000000000000000000000000000000000000000000602082015250565b6000612c506022836125ec565b9150612c5b82612bf4565b604082019050919050565b60006020820190508181036000830152612c7f81612c43565b9050919050565b7f4e487b7100000000000000000000000000000000000000000000000000000000600052601160045260246000fd5b6000612cc08261269c565b9150612ccb8361269c565b9250827fffffffffffffffffffffffffffffffffffffffffffffffffffffffffffffffff03821115612d0057612cff612c86565b5b828201905092915050565b7f507572636861736520776f756c6420657863656564206d617820746f6b656e73600082015250565b6000612d416020836125ec565b9150612d4c82612d0b565b602082019050919050565b60006020820190508181036000830152612d7081612d34565b9050919050565b6000612d828261269c565b9150612d8d8361269c565b9250817fffffffffffffffffffffffffffffffffffffffffffffffffffffffffffffffff0483118215151615612dc657612dc5612c86565b5b828202905092915050565b7f56616c75652073656e74206973206e6f7420636f727265637400000000000000600082015250565b6000612e076019836125ec565b9150612e1282612dd1565b602082019050919050565b60006020820190508181036000830152612e3681612dfa565b9050919050565b600081905092915050565b6000612e53826125e1565b612e5d8185612e3d565b9350612e6d8185602086016125fd565b80840191505092915050565b6000612e858285612e48565b9150612e918284612e48565b91508190509392505050565b7f4f776e61626c653a206e6577206f776e657220697320746865207a65726f206160008201527f6464726573730000000000000000000000000000000000000000000000000000602082015250565b6000612ef96026836125ec565b9150612f0482612e9d565b604082019050919050565b60006020820190508181036000830152612f2881612eec565b9050919050565b7f4f776e61626c653a2063616c6c6572206973206e6f7420746865206f776e6572600082015250565b6000612f656020836125ec565b9150612f7082612f2f565b602082019050919050565b60006020820190508181036000830152612f9481612f58565b9050919050565b600081519050919050565b600082825260208201905092915050565b6000612fc282612f9b565b612fcc8185612fa6565b9350612fdc8185602086016125fd565b612fe581612630565b840191505092915050565b60006080820190506130056000830187612731565b6130126020830186612731565b61301f60408301856127c7565b81810360608301526130318184612fb7565b905095945050505050565b60008151905061304b816124f9565b92915050565b600060208284031215613067576130666124c3565b5b60006130758482850161303c565b91505092915050565b7f4e487b7100000000000000000000000000000000000000000000000000000000600052601260045260246000fdfea26469706673582212207f2c90957c1e30f8a8ffc53af1f19afb3a276ac9bf9f6ae3c39f820dcdbb6fd864736f6c634300080a0033",
  "linkReferences": {},
  "deployedLinkReferences": {}
}