{
  "_format": "hh-sol-artifact-1",
  "contractName": "LimitedERC721A",
  "sourceName": "contracts/ERC721/ERC721a-limited.sol",
  "abi": [
    {
      "inputs": [
        {
          "internalType": "string",
          "name": "_name",
          "type": "string"
        },
        {
          "internalType": "string",
          "name": "_symbol",
          "type": "string"
        },
        {
          "internalType": "string",
          "name": "_uri",
          "type": "string"
        },
        {
          "internalType": "uint256",
          "name": "limit",
          "type": "uint256"
        },
        {
          "internalType": "uint256",
          "name": "price",
          "type": "uint256"
        },
        {
          "internalType": "uint256",
          "name": "maxSupply",
          "type": "uint256"
        }
      ],
      "stateMutability": "payable",
      "type": "constructor"
    },
    {
      "inputs": [],
      "name": "ApprovalCallerNotOwnerNorApproved",
      "type": "error"
    },
    {
      "inputs": [],
      "name": "ApprovalQueryForNonexistentToken",
      "type": "error"
    },
    {
      "inputs": [],
      "name": "ApprovalToCurrentOwner",
      "type": "error"
    },
    {
      "inputs": [],
      "name": "ApproveToCaller",
      "type": "error"
    },
    {
      "inputs": [],
      "name": "BalanceQueryForZeroAddress",
      "type": "error"
    },
    {
      "inputs": [],
      "name": "MintToZeroAddress",
      "type": "error"
    },
    {
      "inputs": [],
      "name": "MintZeroQuantity",
      "type": "error"
    },
    {
      "inputs": [],
      "name": "OwnerQueryForNonexistentToken",
      "type": "error"
    },
    {
      "inputs": [],
      "name": "TransferCallerNotOwnerNorApproved",
      "type": "error"
    },
    {
      "inputs": [],
      "name": "TransferFromIncorrectOwner",
      "type": "error"
    },
    {
      "inputs": [],
      "name": "TransferToNonERC721ReceiverImplementer",
      "type": "error"
    },
    {
      "inputs": [],
      "name": "TransferToZeroAddress",
      "type": "error"
    },
    {
      "inputs": [],
      "name": "URIQueryForNonexistentToken",
      "type": "error"
    },
    {
      "anonymous": false,
      "inputs": [
        {
          "indexed": true,
          "internalType": "address",
          "name": "owner",
          "type": "address"
        },
        {
          "indexed": true,
          "internalType": "address",
          "name": "approved",
          "type": "address"
        },
        {
          "indexed": true,
          "internalType": "uint256",
          "name": "tokenId",
          "type": "uint256"
        }
      ],
      "name": "Approval",
      "type": "event"
    },
    {
      "anonymous": false,
      "inputs": [
        {
          "indexed": true,
          "internalType": "address",
          "name": "owner",
          "type": "address"
        },
        {
          "indexed": true,
          "internalType": "address",
          "name": "operator",
          "type": "address"
        },
        {
          "indexed": false,
          "internalType": "bool",
          "name": "approved",
          "type": "bool"
        }
      ],
      "name": "ApprovalForAll",
      "type": "event"
    },
    {
      "anonymous": false,
      "inputs": [
        {
          "indexed": true,
          "internalType": "address",
          "name": "previousOwner",
          "type": "address"
        },
        {
          "indexed": true,
          "internalType": "address",
          "name": "newOwner",
          "type": "address"
        }
      ],
      "name": "OwnershipTransferred",
      "type": "event"
    },
    {
      "anonymous": false,
      "inputs": [
        {
          "indexed": true,
          "internalType": "address",
          "name": "from",
          "type": "address"
        },
        {
          "indexed": true,
          "internalType": "address",
          "name": "to",
          "type": "address"
        },
        {
          "indexed": true,
          "internalType": "uint256",
          "name": "tokenId",
          "type": "uint256"
        }
      ],
      "name": "Transfer",
      "type": "event"
    },
    {
      "inputs": [],
      "name": "MAX_SUPPLY",
      "outputs": [
        {
          "internalType": "uint256",
          "name": "",
          "type": "uint256"
        }
      ],
      "stateMutability": "view",
      "type": "function"
    },
    {
      "inputs": [
        {
          "internalType": "address",
          "name": "to",
          "type": "address"
        },
        {
          "internalType": "uint256",
          "name": "tokenId",
          "type": "uint256"
        }
      ],
      "name": "approve",
      "outputs": [],
      "stateMutability": "nonpayable",
      "type": "function"
    },
    {
      "inputs": [
        {
          "internalType": "address",
          "name": "owner",
          "type": "address"
        }
      ],
      "name": "balanceOf",
      "outputs": [
        {
          "internalType": "uint256",
          "name": "",
          "type": "uint256"
        }
      ],
      "stateMutability": "view",
      "type": "function"
    },
    {
      "inputs": [],
      "name": "currentPrice",
      "outputs": [
        {
          "internalType": "uint256",
          "name": "",
          "type": "uint256"
        }
      ],
      "stateMutability": "view",
      "type": "function"
    },
    {
      "inputs": [
        {
          "internalType": "uint256",
          "name": "tokenId",
          "type": "uint256"
        }
      ],
      "name": "getApproved",
      "outputs": [
        {
          "internalType": "address",
          "name": "",
          "type": "address"
        }
      ],
      "stateMutability": "view",
      "type": "function"
    },
    {
      "inputs": [
        {
          "internalType": "address",
          "name": "owner",
          "type": "address"
        },
        {
          "internalType": "address",
          "name": "operator",
          "type": "address"
        }
      ],
      "name": "isApprovedForAll",
      "outputs": [
        {
          "internalType": "bool",
          "name": "",
          "type": "bool"
        }
      ],
      "stateMutability": "view",
      "type": "function"
    },
    {
      "inputs": [
        {
          "internalType": "uint256",
          "name": "amount",
          "type": "uint256"
        }
      ],
      "name": "mint",
      "outputs": [],
      "stateMutability": "payable",
      "type": "function"
    },
    {
      "inputs": [],
      "name": "name",
      "outputs": [
        {
          "internalType": "string",
          "name": "",
          "type": "string"
        }
      ],
      "stateMutability": "view",
      "type": "function"
    },
    {
      "inputs": [],
      "name": "owner",
      "outputs": [
        {
          "internalType": "address",
          "name": "",
          "type": "address"
        }
      ],
      "stateMutability": "view",
      "type": "function"
    },
    {
      "inputs": [
        {
          "internalType": "uint256",
          "name": "tokenId",
          "type": "uint256"
        }
      ],
      "name": "ownerOf",
      "outputs": [
        {
          "internalType": "address",
          "name": "",
          "type": "address"
        }
      ],
      "stateMutability": "view",
      "type": "function"
    },
    {
      "inputs": [],
      "name": "renounceOwnership",
      "outputs": [],
      "stateMutability": "nonpayable",
      "type": "function"
    },
    {
      "inputs": [
        {
          "internalType": "address",
          "name": "to",
          "type": "address"
        },
        {
          "internalType": "uint256",
          "name": "amount",
          "type": "uint256"
        }
      ],
      "name": "reserve",
      "outputs": [],
      "stateMutability": "nonpayable",
      "type": "function"
    },
    {
      "inputs": [
        {
          "internalType": "address",
          "name": "from",
          "type": "address"
        },
        {
          "internalType": "address",
          "name": "to",
          "type": "address"
        },
        {
          "internalType": "uint256",
          "name": "tokenId",
          "type": "uint256"
        }
      ],
      "name": "safeTransferFrom",
      "outputs": [],
      "stateMutability": "nonpayable",
      "type": "function"
    },
    {
      "inputs": [
        {
          "internalType": "address",
          "name": "from",
          "type": "address"
        },
        {
          "internalType": "address",
          "name": "to",
          "type": "address"
        },
        {
          "internalType": "uint256",
          "name": "tokenId",
          "type": "uint256"
        },
        {
          "internalType": "bytes",
          "name": "_data",
          "type": "bytes"
        }
      ],
      "name": "safeTransferFrom",
      "outputs": [],
      "stateMutability": "nonpayable",
      "type": "function"
    },
    {
      "inputs": [],
      "name": "saleIsActive",
      "outputs": [
        {
          "internalType": "bool",
          "name": "",
          "type": "bool"
        }
      ],
      "stateMutability": "view",
      "type": "function"
    },
    {
      "inputs": [
        {
          "internalType": "address",
          "name": "operator",
          "type": "address"
        },
        {
          "internalType": "bool",
          "name": "approved",
          "type": "bool"
        }
      ],
      "name": "setApprovalForAll",
      "outputs": [],
      "stateMutability": "nonpayable",
      "type": "function"
    },
    {
      "inputs": [
        {
          "internalType": "string",
          "name": "baseURI_",
          "type": "string"
        }
      ],
      "name": "setBaseURI",
      "outputs": [],
      "stateMutability": "nonpayable",
      "type": "function"
    },
    {
      "inputs": [
        {
          "internalType": "uint256",
          "name": "price",
          "type": "uint256"
        }
      ],
      "name": "setCurrentPrice",
      "outputs": [],
      "stateMutability": "nonpayable",
      "type": "function"
    },
    {
      "inputs": [
        {
          "internalType": "bool",
          "name": "isActive",
          "type": "bool"
        }
      ],
      "name": "setSaleIsActive",
      "outputs": [],
      "stateMutability": "nonpayable",
      "type": "function"
    },
    {
      "inputs": [
        {
          "internalType": "uint256",
          "name": "limit",
          "type": "uint256"
        }
      ],
      "name": "setWalletLimit",
      "outputs": [],
      "stateMutability": "nonpayable",
      "type": "function"
    },
    {
      "inputs": [
        {
          "internalType": "bytes4",
          "name": "interfaceId",
          "type": "bytes4"
        }
      ],
      "name": "supportsInterface",
      "outputs": [
        {
          "internalType": "bool",
          "name": "",
          "type": "bool"
        }
      ],
      "stateMutability": "view",
      "type": "function"
    },
    {
      "inputs": [],
      "name": "symbol",
      "outputs": [
        {
          "internalType": "string",
          "name": "",
          "type": "string"
        }
      ],
      "stateMutability": "view",
      "type": "function"
    },
    {
      "inputs": [
        {
          "internalType": "uint256",
          "name": "tokenId",
          "type": "uint256"
        }
      ],
      "name": "tokenURI",
      "outputs": [
        {
          "internalType": "string",
          "name": "",
          "type": "string"
        }
      ],
      "stateMutability": "view",
      "type": "function"
    },
    {
      "inputs": [],
      "name": "totalSupply",
      "outputs": [
        {
          "internalType": "uint256",
          "name": "",
          "type": "uint256"
        }
      ],
      "stateMutability": "view",
      "type": "function"
    },
    {
      "inputs": [
        {
          "internalType": "address",
          "name": "from",
          "type": "address"
        },
        {
          "internalType": "address",
          "name": "to",
          "type": "address"
        },
        {
          "internalType": "uint256",
          "name": "tokenId",
          "type": "uint256"
        }
      ],
      "name": "transferFrom",
      "outputs": [],
      "stateMutability": "nonpayable",
      "type": "function"
    },
    {
      "inputs": [
        {
          "internalType": "address",
          "name": "newOwner",
          "type": "address"
        }
      ],
      "name": "transferOwnership",
      "outputs": [],
      "stateMutability": "nonpayable",
      "type": "function"
    },
    {
      "inputs": [],
      "name": "walletLimit",
      "outputs": [
        {
          "internalType": "uint256",
          "name": "",
          "type": "uint256"
        }
      ],
      "stateMutability": "view",
      "type": "function"
    },
    {
      "inputs": [],
      "name": "withdraw",
      "outputs": [],
      "stateMutability": "nonpayable",
      "type": "function"
    }
  ],
  "bytecode": "0x60a06040526001600860146101000a81548160ff0219169083151502179055506040516200383b3803806200383b833981810160405281019062000044919062000446565b858581600290805190602001906200005e929190620001be565b50806003908051906020019062000077929190620001be565b5062000088620000eb60201b60201c565b6000819055505050620000b0620000a4620000f060201b60201c565b620000f860201b60201c565b8360099080519060200190620000c8929190620001be565b5081600a8190555082600b819055508060808181525050505050505050620005a4565b600090565b600033905090565b6000600860009054906101000a900473ffffffffffffffffffffffffffffffffffffffff16905081600860006101000a81548173ffffffffffffffffffffffffffffffffffffffff021916908373ffffffffffffffffffffffffffffffffffffffff1602179055508173ffffffffffffffffffffffffffffffffffffffff168173ffffffffffffffffffffffffffffffffffffffff167f8be0079c531659141344cd1fd0a4f28419497f9722a3daafe3b4186f6b6457e060405160405180910390a35050565b828054620001cc906200056e565b90600052602060002090601f016020900481019282620001f057600085556200023c565b82601f106200020b57805160ff19168380011785556200023c565b828001600101855582156200023c579182015b828111156200023b5782518255916020019190600101906200021e565b5b5090506200024b91906200024f565b5090565b5b808211156200026a57600081600090555060010162000250565b5090565b6000604051905090565b600080fd5b600080fd5b600080fd5b600080fd5b6000601f19601f8301169050919050565b7f4e487b7100000000000000000000000000000000000000000000000000000000600052604160045260246000fd5b620002d7826200028c565b810181811067ffffffffffffffff82111715620002f957620002f86200029d565b5b80604052505050565b60006200030e6200026e565b90506200031c8282620002cc565b919050565b600067ffffffffffffffff8211156200033f576200033e6200029d565b5b6200034a826200028c565b9050602081019050919050565b60005b83811015620003775780820151818401526020810190506200035a565b8381111562000387576000848401525b50505050565b6000620003a46200039e8462000321565b62000302565b905082815260208101848484011115620003c357620003c262000287565b5b620003d084828562000357565b509392505050565b600082601f830112620003f057620003ef62000282565b5b8151620004028482602086016200038d565b91505092915050565b6000819050919050565b62000420816200040b565b81146200042c57600080fd5b50565b600081519050620004408162000415565b92915050565b60008060008060008060c0878903121562000466576200046562000278565b5b600087015167ffffffffffffffff8111156200048757620004866200027d565b5b6200049589828a01620003d8565b965050602087015167ffffffffffffffff811115620004b957620004b86200027d565b5b620004c789828a01620003d8565b955050604087015167ffffffffffffffff811115620004eb57620004ea6200027d565b5b620004f989828a01620003d8565b94505060606200050c89828a016200042f565b93505060806200051f89828a016200042f565b92505060a06200053289828a016200042f565b9150509295509295509295565b7f4e487b7100000000000000000000000000000000000000000000000000000000600052602260045260246000fd5b600060028204905060018216806200058757607f821691505b602082108114156200059e576200059d6200053f565b5b50919050565b60805161326d620005ce600039600081816109ea01528181610d210152611094015261326d6000f3fe6080604052600436106101b75760003560e01c806370a08231116100ec578063b88d4fde1161008a578063e985e9c511610064578063e985e9c5146105d5578063eb8d244414610612578063f1d5f5171461063d578063f2fde38b14610666576101b7565b8063b88d4fde14610546578063c87b56dd1461056f578063cc47a40b146105ac576101b7565b806395d89b41116100c657806395d89b41146104ab5780639d1b464a146104d6578063a0712d6814610501578063a22cb4651461051d576101b7565b806370a082311461042c578063715018a6146104695780638da5cb5b14610480576101b7565b806323b872dd116101595780633ccfd60b116101335780633ccfd60b1461038657806342842e0e1461039d57806355f804b3146103c65780636352211e146103ef576101b7565b806323b872dd1461030757806332cb6b0c146103305780633c8463a11461035b576101b7565b8063081812fc11610195578063081812fc1461024d578063095ea7b31461028a57806318160ddd146102b357806318b20071146102de576101b7565b806301ffc9a7146101bc57806302c88989146101f957806306fdde0314610222575b600080fd5b3480156101c857600080fd5b506101e360048036038101906101de9190612643565b61068f565b6040516101f0919061268b565b60405180910390f35b34801561020557600080fd5b50610220600480360381019061021b91906126d2565b610771565b005b34801561022e57600080fd5b50610237610796565b6040516102449190612798565b60405180910390f35b34801561025957600080fd5b50610274600480360381019061026f91906127f0565b610828565b604051610281919061285e565b60405180910390f35b34801561029657600080fd5b506102b160048036038101906102ac91906128a5565b6108a4565b005b3480156102bf57600080fd5b506102c86109af565b6040516102d591906128f4565b60405180910390f35b3480156102ea57600080fd5b50610305600480360381019061030091906127f0565b6109c6565b005b34801561031357600080fd5b5061032e6004803603810190610329919061290f565b6109d8565b005b34801561033c57600080fd5b506103456109e8565b60405161035291906128f4565b60405180910390f35b34801561036757600080fd5b50610370610a0c565b60405161037d91906128f4565b60405180910390f35b34801561039257600080fd5b5061039b610a12565b005b3480156103a957600080fd5b506103c460048036038101906103bf919061290f565b610a69565b005b3480156103d257600080fd5b506103ed60048036038101906103e89190612a97565b610a89565b005b3480156103fb57600080fd5b50610416600480360381019061041191906127f0565b610aab565b604051610423919061285e565b60405180910390f35b34801561043857600080fd5b50610453600480360381019061044e9190612ae0565b610ac1565b60405161046091906128f4565b60405180910390f35b34801561047557600080fd5b5061047e610b91565b005b34801561048c57600080fd5b50610495610ba5565b6040516104a2919061285e565b60405180910390f35b3480156104b757600080fd5b506104c0610bcf565b6040516104cd9190612798565b60405180910390f35b3480156104e257600080fd5b506104eb610c61565b6040516104f891906128f4565b60405180910390f35b61051b600480360381019061051691906127f0565b610c67565b005b34801561052957600080fd5b50610544600480360381019061053f9190612b0d565b610deb565b005b34801561055257600080fd5b5061056d60048036038101906105689190612bee565b610f63565b005b34801561057b57600080fd5b50610596600480360381019061059191906127f0565b610fdf565b6040516105a39190612798565b60405180910390f35b3480156105b857600080fd5b506105d360048036038101906105ce91906128a5565b61107e565b005b3480156105e157600080fd5b506105fc60048036038101906105f79190612c71565b61110f565b604051610609919061268b565b60405180910390f35b34801561061e57600080fd5b506106276111a3565b604051610634919061268b565b60405180910390f35b34801561064957600080fd5b50610664600480360381019061065f91906127f0565b6111b6565b005b34801561067257600080fd5b5061068d60048036038101906106889190612ae0565b6111c8565b005b60007f80ac58cd000000000000000000000000000000000000000000000000000000007bffffffffffffffffffffffffffffffffffffffffffffffffffffffff1916827bffffffffffffffffffffffffffffffffffffffffffffffffffffffff1916148061075a57507f5b5e139f000000000000000000000000000000000000000000000000000000007bffffffffffffffffffffffffffffffffffffffffffffffffffffffff1916827bffffffffffffffffffffffffffffffffffffffffffffffffffffffff1916145b8061076a57506107698261124c565b5b9050919050565b6107796112b6565b80600860146101000a81548160ff02191690831515021790555050565b6060600280546107a590612ce0565b80601f01602080910402602001604051908101604052809291908181526020018280546107d190612ce0565b801561081e5780601f106107f35761010080835404028352916020019161081e565b820191906000526020600020905b81548152906001019060200180831161080157829003601f168201915b5050505050905090565b600061083382611334565b610869576040517fcf4700e400000000000000000000000000000000000000000000000000000000815260040160405180910390fd5b6006600083815260200190815260200160002060009054906101000a900473ffffffffffffffffffffffffffffffffffffffff169050919050565b60006108af82610aab565b90508073ffffffffffffffffffffffffffffffffffffffff168373ffffffffffffffffffffffffffffffffffffffff161415610917576040517f943f7b8c00000000000000000000000000000000000000000000000000000000815260040160405180910390fd5b8073ffffffffffffffffffffffffffffffffffffffff16610936611382565b73ffffffffffffffffffffffffffffffffffffffff1614158015610968575061096681610961611382565b61110f565b155b1561099f576040517fcfb3b94200000000000000000000000000000000000000000000000000000000815260040160405180910390fd5b6109aa83838361138a565b505050565b60006109b961143c565b6001546000540303905090565b6109ce6112b6565b80600a8190555050565b6109e3838383611441565b505050565b7f000000000000000000000000000000000000000000000000000000000000000081565b600b5481565b610a1a6112b6565b60004790503373ffffffffffffffffffffffffffffffffffffffff166108fc829081150290604051600060405180830381858888f19350505050158015610a65573d6000803e3d6000fd5b5050565b610a8483838360405180602001604052806000815250610f63565b505050565b610a916112b6565b8060099080519060200190610aa79291906124f1565b5050565b6000610ab6826118f7565b600001519050919050565b60008073ffffffffffffffffffffffffffffffffffffffff168273ffffffffffffffffffffffffffffffffffffffff161415610b29576040517f8f4eb60400000000000000000000000000000000000000000000000000000000815260040160405180910390fd5b600560008373ffffffffffffffffffffffffffffffffffffffff1673ffffffffffffffffffffffffffffffffffffffff16815260200190815260200160002060000160009054906101000a900467ffffffffffffffff1667ffffffffffffffff169050919050565b610b996112b6565b610ba36000611b86565b565b6000600860009054906101000a900473ffffffffffffffffffffffffffffffffffffffff16905090565b606060038054610bde90612ce0565b80601f0160208091040260200160405190810160405280929190818152602001828054610c0a90612ce0565b8015610c575780601f10610c2c57610100808354040283529160200191610c57565b820191906000526020600020905b815481529060010190602001808311610c3a57829003601f168201915b5050505050905090565b600a5481565b6000610c716109af565b90506000610c7e33611c4c565b9050600860149054906101000a900460ff16610ccf576040517f08c379a0000000000000000000000000000000000000000000000000000000008152600401610cc690612d84565b60405180910390fd5b600b548184610cde9190612dd3565b1115610d1f576040517f08c379a0000000000000000000000000000000000000000000000000000000008152600401610d1690612e75565b60405180910390fd5b7f00000000000000000000000000000000000000000000000000000000000000008383610d4c9190612dd3565b1115610d8d576040517f08c379a0000000000000000000000000000000000000000000000000000000008152600401610d8490612ee1565b60405180910390fd5b3483600a54610d9c9190612f01565b14610ddc576040517f08c379a0000000000000000000000000000000000000000000000000000000008152600401610dd390612fa7565b60405180910390fd5b610de63384611cb6565b505050565b610df3611382565b73ffffffffffffffffffffffffffffffffffffffff168273ffffffffffffffffffffffffffffffffffffffff161415610e58576040517fb06307db00000000000000000000000000000000000000000000000000000000815260040160405180910390fd5b8060076000610e65611382565b73ffffffffffffffffffffffffffffffffffffffff1673ffffffffffffffffffffffffffffffffffffffff16815260200190815260200160002060008473ffffffffffffffffffffffffffffffffffffffff1673ffffffffffffffffffffffffffffffffffffffff16815260200190815260200160002060006101000a81548160ff0219169083151502179055508173ffffffffffffffffffffffffffffffffffffffff16610f12611382565b73ffffffffffffffffffffffffffffffffffffffff167f17307eab39ab6107e8899845ad3d59bd9653f200f220920489ca2b5937696c3183604051610f57919061268b565b60405180910390a35050565b610f6e848484611441565b610f8d8373ffffffffffffffffffffffffffffffffffffffff16611cd4565b8015610fa25750610fa084848484611cf7565b155b15610fd9576040517fd1a57ed600000000000000000000000000000000000000000000000000000000815260040160405180910390fd5b50505050565b6060610fea82611334565b611020576040517fa14c4b5000000000000000000000000000000000000000000000000000000000815260040160405180910390fd5b600061102a611e48565b905060008151141561104b5760405180602001604052806000815250611076565b8061105584611eda565b604051602001611066929190613003565b6040516020818303038152906040525b915050919050565b6110866112b6565b60006110906109af565b90507f000000000000000000000000000000000000000000000000000000000000000082826110bf9190612dd3565b1115611100576040517f08c379a00000000000000000000000000000000000000000000000000000000081526004016110f790612ee1565b60405180910390fd5b61110a8383611cb6565b505050565b6000600760008473ffffffffffffffffffffffffffffffffffffffff1673ffffffffffffffffffffffffffffffffffffffff16815260200190815260200160002060008373ffffffffffffffffffffffffffffffffffffffff1673ffffffffffffffffffffffffffffffffffffffff16815260200190815260200160002060009054906101000a900460ff16905092915050565b600860149054906101000a900460ff1681565b6111be6112b6565b80600b8190555050565b6111d06112b6565b600073ffffffffffffffffffffffffffffffffffffffff168173ffffffffffffffffffffffffffffffffffffffff161415611240576040517f08c379a000000000000000000000000000000000000000000000000000000000815260040161123790613099565b60405180910390fd5b61124981611b86565b50565b60007f01ffc9a7000000000000000000000000000000000000000000000000000000007bffffffffffffffffffffffffffffffffffffffffffffffffffffffff1916827bffffffffffffffffffffffffffffffffffffffffffffffffffffffff1916149050919050565b6112be611382565b73ffffffffffffffffffffffffffffffffffffffff166112dc610ba5565b73ffffffffffffffffffffffffffffffffffffffff1614611332576040517f08c379a000000000000000000000000000000000000000000000000000000000815260040161132990613105565b60405180910390fd5b565b60008161133f61143c565b1115801561134e575060005482105b801561137b575060046000838152602001908152602001600020600001601c9054906101000a900460ff16155b9050919050565b600033905090565b826006600084815260200190815260200160002060006101000a81548173ffffffffffffffffffffffffffffffffffffffff021916908373ffffffffffffffffffffffffffffffffffffffff160217905550818373ffffffffffffffffffffffffffffffffffffffff168273ffffffffffffffffffffffffffffffffffffffff167f8c5be1e5ebec7d5bd14f71427d1e84f3dd0314c0f7b2291e5b200ac8c7c3b92560405160405180910390a4505050565b600090565b600061144c826118f7565b90508373ffffffffffffffffffffffffffffffffffffffff16816000015173ffffffffffffffffffffffffffffffffffffffff16146114b7576040517fa114810000000000000000000000000000000000000000000000000000000000815260040160405180910390fd5b60008473ffffffffffffffffffffffffffffffffffffffff166114d8611382565b73ffffffffffffffffffffffffffffffffffffffff161480611507575061150685611501611382565b61110f565b5b8061154c5750611515611382565b73ffffffffffffffffffffffffffffffffffffffff1661153484610828565b73ffffffffffffffffffffffffffffffffffffffff16145b905080611585576040517f59c896be00000000000000000000000000000000000000000000000000000000815260040160405180910390fd5b600073ffffffffffffffffffffffffffffffffffffffff168473ffffffffffffffffffffffffffffffffffffffff1614156115ec576040517fea553b3400000000000000000000000000000000000000000000000000000000815260040160405180910390fd5b6115f98585856001611fb2565b6116056000848761138a565b6001600560008773ffffffffffffffffffffffffffffffffffffffff1673ffffffffffffffffffffffffffffffffffffffff16815260200190815260200160002060000160008282829054906101000a900467ffffffffffffffff160392506101000a81548167ffffffffffffffff021916908367ffffffffffffffff1602179055506001600560008673ffffffffffffffffffffffffffffffffffffffff1673ffffffffffffffffffffffffffffffffffffffff16815260200190815260200160002060000160008282829054906101000a900467ffffffffffffffff160192506101000a81548167ffffffffffffffff021916908367ffffffffffffffff1602179055506000600460008581526020019081526020016000209050848160000160006101000a81548173ffffffffffffffffffffffffffffffffffffffff021916908373ffffffffffffffffffffffffffffffffffffffff160217905550428160000160146101000a81548167ffffffffffffffff021916908367ffffffffffffffff16021790555060006001850190506000600460008381526020019081526020016000209050600073ffffffffffffffffffffffffffffffffffffffff168160000160009054906101000a900473ffffffffffffffffffffffffffffffffffffffff1673ffffffffffffffffffffffffffffffffffffffff16141561188557600054821461188457878160000160006101000a81548173ffffffffffffffffffffffffffffffffffffffff021916908373ffffffffffffffffffffffffffffffffffffffff16021790555084602001518160000160146101000a81548167ffffffffffffffff021916908367ffffffffffffffff1602179055505b5b505050828473ffffffffffffffffffffffffffffffffffffffff168673ffffffffffffffffffffffffffffffffffffffff167fddf252ad1be2c89b69c2b068fc378daa952ba7f163c4a11628f55a4df523b3ef60405160405180910390a46118f08585856001611fb8565b5050505050565b6118ff612577565b60008290508061190d61143c565b1115801561191c575060005481105b15611b4f576000600460008381526020019081526020016000206040518060600160405290816000820160009054906101000a900473ffffffffffffffffffffffffffffffffffffffff1673ffffffffffffffffffffffffffffffffffffffff1673ffffffffffffffffffffffffffffffffffffffff1681526020016000820160149054906101000a900467ffffffffffffffff1667ffffffffffffffff1667ffffffffffffffff16815260200160008201601c9054906101000a900460ff16151515158152505090508060400151611b4d57600073ffffffffffffffffffffffffffffffffffffffff16816000015173ffffffffffffffffffffffffffffffffffffffff1614611a31578092505050611b81565b5b600115611b4c57818060019003925050600460008381526020019081526020016000206040518060600160405290816000820160009054906101000a900473ffffffffffffffffffffffffffffffffffffffff1673ffffffffffffffffffffffffffffffffffffffff1673ffffffffffffffffffffffffffffffffffffffff1681526020016000820160149054906101000a900467ffffffffffffffff1667ffffffffffffffff1667ffffffffffffffff16815260200160008201601c9054906101000a900460ff1615151515815250509050600073ffffffffffffffffffffffffffffffffffffffff16816000015173ffffffffffffffffffffffffffffffffffffffff1614611b47578092505050611b81565b611a32565b5b505b6040517fdf2d9b4200000000000000000000000000000000000000000000000000000000815260040160405180910390fd5b919050565b6000600860009054906101000a900473ffffffffffffffffffffffffffffffffffffffff16905081600860006101000a81548173ffffffffffffffffffffffffffffffffffffffff021916908373ffffffffffffffffffffffffffffffffffffffff1602179055508173ffffffffffffffffffffffffffffffffffffffff168173ffffffffffffffffffffffffffffffffffffffff167f8be0079c531659141344cd1fd0a4f28419497f9722a3daafe3b4186f6b6457e060405160405180910390a35050565b6000600560008373ffffffffffffffffffffffffffffffffffffffff1673ffffffffffffffffffffffffffffffffffffffff16815260200190815260200160002060000160089054906101000a900467ffffffffffffffff1667ffffffffffffffff169050919050565b611cd0828260405180602001604052806000815250611fbe565b5050565b6000808273ffffffffffffffffffffffffffffffffffffffff163b119050919050565b60008373ffffffffffffffffffffffffffffffffffffffff1663150b7a02611d1d611382565b8786866040518563ffffffff1660e01b8152600401611d3f949392919061317a565b6020604051808303816000875af1925050508015611d7b57506040513d601f19601f82011682018060405250810190611d7891906131db565b60015b611df5573d8060008114611dab576040519150601f19603f3d011682016040523d82523d6000602084013e611db0565b606091505b50600081511415611ded576040517fd1a57ed600000000000000000000000000000000000000000000000000000000815260040160405180910390fd5b805181602001fd5b63150b7a0260e01b7bffffffffffffffffffffffffffffffffffffffffffffffffffffffff1916817bffffffffffffffffffffffffffffffffffffffffffffffffffffffff191614915050949350505050565b606060098054611e5790612ce0565b80601f0160208091040260200160405190810160405280929190818152602001828054611e8390612ce0565b8015611ed05780601f10611ea557610100808354040283529160200191611ed0565b820191906000526020600020905b815481529060010190602001808311611eb357829003601f168201915b5050505050905090565b606060006001611ee984611fd0565b01905060008167ffffffffffffffff811115611f0857611f0761296c565b5b6040519080825280601f01601f191660200182016040528015611f3a5781602001600182028036833780820191505090505b509050600082602001820190505b600115611fa7578080600190039150507f3031323334353637383961626364656600000000000000000000000000000000600a86061a8153600a8581611f9157611f90613208565b5b0494506000851415611fa257611fa7565b611f48565b819350505050919050565b50505050565b50505050565b611fcb8383836001612123565b505050565b600080600090507a184f03e93ff9f4daa797ed6e38ed64bf6a1f010000000000000000831061202e577a184f03e93ff9f4daa797ed6e38ed64bf6a1f010000000000000000838161202457612023613208565b5b0492506040810190505b6d04ee2d6d415b85acef8100000000831061206b576d04ee2d6d415b85acef8100000000838161206157612060613208565b5b0492506020810190505b662386f26fc10000831061209a57662386f26fc1000083816120905761208f613208565b5b0492506010810190505b6305f5e10083106120c3576305f5e10083816120b9576120b8613208565b5b0492506008810190505b61271083106120e85761271083816120de576120dd613208565b5b0492506004810190505b6064831061210b576064838161210157612100613208565b5b0492506002810190505b600a831061211a576001810190505b80915050919050565b600080549050600073ffffffffffffffffffffffffffffffffffffffff168573ffffffffffffffffffffffffffffffffffffffff161415612190576040517f2e07630000000000000000000000000000000000000000000000000000000000815260040160405180910390fd5b60008414156121cb576040517fb562e8dd00000000000000000000000000000000000000000000000000000000815260040160405180910390fd5b6121d86000868387611fb2565b83600560008773ffffffffffffffffffffffffffffffffffffffff1673ffffffffffffffffffffffffffffffffffffffff16815260200190815260200160002060000160008282829054906101000a900467ffffffffffffffff160192506101000a81548167ffffffffffffffff021916908367ffffffffffffffff16021790555083600560008773ffffffffffffffffffffffffffffffffffffffff1673ffffffffffffffffffffffffffffffffffffffff16815260200190815260200160002060000160088282829054906101000a900467ffffffffffffffff160192506101000a81548167ffffffffffffffff021916908367ffffffffffffffff160217905550846004600083815260200190815260200160002060000160006101000a81548173ffffffffffffffffffffffffffffffffffffffff021916908373ffffffffffffffffffffffffffffffffffffffff160217905550426004600083815260200190815260200160002060000160146101000a81548167ffffffffffffffff021916908367ffffffffffffffff1602179055506000819050600085820190508380156123a257506123a18773ffffffffffffffffffffffffffffffffffffffff16611cd4565b5b15612468575b818773ffffffffffffffffffffffffffffffffffffffff16600073ffffffffffffffffffffffffffffffffffffffff167fddf252ad1be2c89b69c2b068fc378daa952ba7f163c4a11628f55a4df523b3ef60405160405180910390a46124176000888480600101955088611cf7565b61244d576040517fd1a57ed600000000000000000000000000000000000000000000000000000000815260040160405180910390fd5b808214156123a857826000541461246357600080fd5b6124d4565b5b818060010192508773ffffffffffffffffffffffffffffffffffffffff16600073ffffffffffffffffffffffffffffffffffffffff167fddf252ad1be2c89b69c2b068fc378daa952ba7f163c4a11628f55a4df523b3ef60405160405180910390a480821415612469575b8160008190555050506124ea6000868387611fb8565b5050505050565b8280546124fd90612ce0565b90600052602060002090601f01602090048101928261251f5760008555612566565b82601f1061253857805160ff1916838001178555612566565b82800160010185558215612566579182015b8281111561256557825182559160200191906001019061254a565b5b50905061257391906125ba565b5090565b6040518060600160405280600073ffffffffffffffffffffffffffffffffffffffff168152602001600067ffffffffffffffff1681526020016000151581525090565b5b808211156125d35760008160009055506001016125bb565b5090565b6000604051905090565b600080fd5b600080fd5b60007fffffffff0000000000000000000000000000000000000000000000000000000082169050919050565b612620816125eb565b811461262b57600080fd5b50565b60008135905061263d81612617565b92915050565b600060208284031215612659576126586125e1565b5b60006126678482850161262e565b91505092915050565b60008115159050919050565b61268581612670565b82525050565b60006020820190506126a0600083018461267c565b92915050565b6126af81612670565b81146126ba57600080fd5b50565b6000813590506126cc816126a6565b92915050565b6000602082840312156126e8576126e76125e1565b5b60006126f6848285016126bd565b91505092915050565b600081519050919050565b600082825260208201905092915050565b60005b8381101561273957808201518184015260208101905061271e565b83811115612748576000848401525b50505050565b6000601f19601f8301169050919050565b600061276a826126ff565b612774818561270a565b935061278481856020860161271b565b61278d8161274e565b840191505092915050565b600060208201905081810360008301526127b2818461275f565b905092915050565b6000819050919050565b6127cd816127ba565b81146127d857600080fd5b50565b6000813590506127ea816127c4565b92915050565b600060208284031215612806576128056125e1565b5b6000612814848285016127db565b91505092915050565b600073ffffffffffffffffffffffffffffffffffffffff82169050919050565b60006128488261281d565b9050919050565b6128588161283d565b82525050565b6000602082019050612873600083018461284f565b92915050565b6128828161283d565b811461288d57600080fd5b50565b60008135905061289f81612879565b92915050565b600080604083850312156128bc576128bb6125e1565b5b60006128ca85828601612890565b92505060206128db858286016127db565b9150509250929050565b6128ee816127ba565b82525050565b600060208201905061290960008301846128e5565b92915050565b600080600060608486031215612928576129276125e1565b5b600061293686828701612890565b935050602061294786828701612890565b9250506040612958868287016127db565b9150509250925092565b600080fd5b600080fd5b7f4e487b7100000000000000000000000000000000000000000000000000000000600052604160045260246000fd5b6129a48261274e565b810181811067ffffffffffffffff821117156129c3576129c261296c565b5b80604052505050565b60006129d66125d7565b90506129e2828261299b565b919050565b600067ffffffffffffffff821115612a0257612a0161296c565b5b612a0b8261274e565b9050602081019050919050565b82818337600083830152505050565b6000612a3a612a35846129e7565b6129cc565b905082815260208101848484011115612a5657612a55612967565b5b612a61848285612a18565b509392505050565b600082601f830112612a7e57612a7d612962565b5b8135612a8e848260208601612a27565b91505092915050565b600060208284031215612aad57612aac6125e1565b5b600082013567ffffffffffffffff811115612acb57612aca6125e6565b5b612ad784828501612a69565b91505092915050565b600060208284031215612af657612af56125e1565b5b6000612b0484828501612890565b91505092915050565b60008060408385031215612b2457612b236125e1565b5b6000612b3285828601612890565b9250506020612b43858286016126bd565b9150509250929050565b600067ffffffffffffffff821115612b6857612b6761296c565b5b612b718261274e565b9050602081019050919050565b6000612b91612b8c84612b4d565b6129cc565b905082815260208101848484011115612bad57612bac612967565b5b612bb8848285612a18565b509392505050565b600082601f830112612bd557612bd4612962565b5b8135612be5848260208601612b7e565b91505092915050565b60008060008060808587031215612c0857612c076125e1565b5b6000612c1687828801612890565b9450506020612c2787828801612890565b9350506040612c38878288016127db565b925050606085013567ffffffffffffffff811115612c5957612c586125e6565b5b612c6587828801612bc0565b91505092959194509250565b60008060408385031215612c8857612c876125e1565b5b6000612c9685828601612890565b9250506020612ca785828601612890565b9150509250929050565b7f4e487b7100000000000000000000000000000000000000000000000000000000600052602260045260246000fd5b60006002820490506001821680612cf857607f821691505b60208210811415612d0c57612d0b612cb1565b5b50919050565b7f53616c65206d7573742062652061637469766520746f206d696e7420746f6b6560008201527f6e73000000000000000000000000000000000000000000000000000000000000602082015250565b6000612d6e60228361270a565b9150612d7982612d12565b604082019050919050565b60006020820190508181036000830152612d9d81612d61565b9050919050565b7f4e487b7100000000000000000000000000000000000000000000000000000000600052601160045260246000fd5b6000612dde826127ba565b9150612de9836127ba565b9250827fffffffffffffffffffffffffffffffffffffffffffffffffffffffffffffffff03821115612e1e57612e1d612da4565b5b828201905092915050565b7f457863656564732077616c6c6574206c696d6974000000000000000000000000600082015250565b6000612e5f60148361270a565b9150612e6a82612e29565b602082019050919050565b60006020820190508181036000830152612e8e81612e52565b9050919050565b7f507572636861736520776f756c6420657863656564206d617820746f6b656e73600082015250565b6000612ecb60208361270a565b9150612ed682612e95565b602082019050919050565b60006020820190508181036000830152612efa81612ebe565b9050919050565b6000612f0c826127ba565b9150612f17836127ba565b9250817fffffffffffffffffffffffffffffffffffffffffffffffffffffffffffffffff0483118215151615612f5057612f4f612da4565b5b828202905092915050565b7f56616c75652073656e74206973206e6f7420636f727265637400000000000000600082015250565b6000612f9160198361270a565b9150612f9c82612f5b565b602082019050919050565b60006020820190508181036000830152612fc081612f84565b9050919050565b600081905092915050565b6000612fdd826126ff565b612fe78185612fc7565b9350612ff781856020860161271b565b80840191505092915050565b600061300f8285612fd2565b915061301b8284612fd2565b91508190509392505050565b7f4f776e61626c653a206e6577206f776e657220697320746865207a65726f206160008201527f6464726573730000000000000000000000000000000000000000000000000000602082015250565b600061308360268361270a565b915061308e82613027565b604082019050919050565b600060208201905081810360008301526130b281613076565b9050919050565b7f4f776e61626c653a2063616c6c6572206973206e6f7420746865206f776e6572600082015250565b60006130ef60208361270a565b91506130fa826130b9565b602082019050919050565b6000602082019050818103600083015261311e816130e2565b9050919050565b600081519050919050565b600082825260208201905092915050565b600061314c82613125565b6131568185613130565b935061316681856020860161271b565b61316f8161274e565b840191505092915050565b600060808201905061318f600083018761284f565b61319c602083018661284f565b6131a960408301856128e5565b81810360608301526131bb8184613141565b905095945050505050565b6000815190506131d581612617565b92915050565b6000602082840312156131f1576131f06125e1565b5b60006131ff848285016131c6565b91505092915050565b7f4e487b7100000000000000000000000000000000000000000000000000000000600052601260045260246000fdfea264697066735822122040111469b8c71617e08005c4c66a1badc938789286529827201677fcb4a22bd764736f6c634300080a0033",
  "linkReferences": {},
  "deployedLinkReferences": {}
}