{
  "_format": "hh-sol-artifact-1",
  "contractName": "TokenVesting",
  "sourceName": "contracts/finance/Vesting.sol",
  "abi": [
    {
      "inputs": [
        {
          "internalType": "address",
          "name": "tokenAddress",
          "type": "address"
        }
      ],
      "stateMutability": "nonpayable",
      "type": "constructor"
    },
    {
      "anonymous": false,
      "inputs": [
        {
          "indexed": true,
          "internalType": "address",
          "name": "previousOwner",
          "type": "address"
        },
        {
          "indexed": true,
          "internalType": "address",
          "name": "newOwner",
          "type": "address"
        }
      ],
      "name": "OwnershipTransferred",
      "type": "event"
    },
    {
      "inputs": [
        {
          "internalType": "address",
          "name": "account",
          "type": "address"
        }
      ],
      "name": "cancelVest",
      "outputs": [],
      "stateMutability": "nonpayable",
      "type": "function"
    },
    {
      "inputs": [],
      "name": "claim",
      "outputs": [],
      "stateMutability": "nonpayable",
      "type": "function"
    },
    {
      "inputs": [
        {
          "internalType": "address",
          "name": "to",
          "type": "address"
        },
        {
          "internalType": "uint256",
          "name": "amount",
          "type": "uint256"
        },
        {
          "internalType": "uint256",
          "name": "start",
          "type": "uint256"
        },
        {
          "internalType": "uint256",
          "name": "end",
          "type": "uint256"
        },
        {
          "internalType": "bool",
          "name": "cancellable",
          "type": "bool"
        }
      ],
      "name": "createVest",
      "outputs": [],
      "stateMutability": "nonpayable",
      "type": "function"
    },
    {
      "inputs": [
        {
          "internalType": "address",
          "name": "account",
          "type": "address"
        }
      ],
      "name": "getClaimable",
      "outputs": [
        {
          "internalType": "uint256",
          "name": "",
          "type": "uint256"
        }
      ],
      "stateMutability": "view",
      "type": "function"
    },
    {
      "inputs": [
        {
          "internalType": "address",
          "name": "account",
          "type": "address"
        }
      ],
      "name": "getLocked",
      "outputs": [
        {
          "internalType": "uint256",
          "name": "",
          "type": "uint256"
        }
      ],
      "stateMutability": "view",
      "type": "function"
    },
    {
      "inputs": [
        {
          "internalType": "address",
          "name": "account",
          "type": "address"
        }
      ],
      "name": "getTotalVested",
      "outputs": [
        {
          "internalType": "uint256",
          "name": "",
          "type": "uint256"
        }
      ],
      "stateMutability": "view",
      "type": "function"
    },
    {
      "inputs": [],
      "name": "owner",
      "outputs": [
        {
          "internalType": "address",
          "name": "",
          "type": "address"
        }
      ],
      "stateMutability": "view",
      "type": "function"
    },
    {
      "inputs": [],
      "name": "renounceOwnership",
      "outputs": [],
      "stateMutability": "nonpayable",
      "type": "function"
    },
    {
      "inputs": [],
      "name": "token",
      "outputs": [
        {
          "internalType": "contract IERC20",
          "name": "",
          "type": "address"
        }
      ],
      "stateMutability": "view",
      "type": "function"
    },
    {
      "inputs": [
        {
          "internalType": "address",
          "name": "newOwner",
          "type": "address"
        }
      ],
      "name": "transferOwnership",
      "outputs": [],
      "stateMutability": "nonpayable",
      "type": "function"
    },
    {
      "inputs": [
        {
          "internalType": "address",
          "name": "",
          "type": "address"
        }
      ],
      "name": "vests",
      "outputs": [
        {
          "internalType": "uint256",
          "name": "amount",
          "type": "uint256"
        },
        {
          "internalType": "uint256",
          "name": "claimed",
          "type": "uint256"
        },
        {
          "internalType": "uint256",
          "name": "start",
          "type": "uint256"
        },
        {
          "internalType": "uint256",
          "name": "end",
          "type": "uint256"
        },
        {
          "internalType": "bool",
          "name": "cancellable",
          "type": "bool"
        }
      ],
      "stateMutability": "view",
      "type": "function"
    }
  ],
  "bytecode": "0x60806040523480156200001157600080fd5b50604051620015b3380380620015b38339818101604052810190620000379190620001d5565b620000576200004b6200009f60201b60201c565b620000a760201b60201c565b80600160006101000a81548173ffffffffffffffffffffffffffffffffffffffff021916908373ffffffffffffffffffffffffffffffffffffffff1602179055505062000207565b600033905090565b60008060009054906101000a900473ffffffffffffffffffffffffffffffffffffffff169050816000806101000a81548173ffffffffffffffffffffffffffffffffffffffff021916908373ffffffffffffffffffffffffffffffffffffffff1602179055508173ffffffffffffffffffffffffffffffffffffffff168173ffffffffffffffffffffffffffffffffffffffff167f8be0079c531659141344cd1fd0a4f28419497f9722a3daafe3b4186f6b6457e060405160405180910390a35050565b600080fd5b600073ffffffffffffffffffffffffffffffffffffffff82169050919050565b60006200019d8262000170565b9050919050565b620001af8162000190565b8114620001bb57600080fd5b50565b600081519050620001cf81620001a4565b92915050565b600060208284031215620001ee57620001ed6200016b565b5b6000620001fe84828501620001be565b91505092915050565b61139c80620002176000396000f3fe608060405234801561001057600080fd5b50600436106100a95760003560e01c806393035473116100715780639303547314610130578063a583024b14610160578063b9f1f84714610190578063bc22fd1b146101ac578063f2fde38b146101dc578063fc0c546a146101f8576100a9565b80634e71d92d146100ae5780635c712bc0146100b85780636a56ea7f146100ec578063715018a6146101085780638da5cb5b14610112575b600080fd5b6100b6610216565b005b6100d260048036038101906100cd9190610c4c565b610379565b6040516100e3959493929190610cad565b60405180910390f35b61010660048036038101906101019190610c4c565b6103bc565b005b6101106105e7565b005b61011a6105fb565b6040516101279190610d0f565b60405180910390f35b61014a60048036038101906101459190610c4c565b610624565b6040516101579190610d2a565b60405180910390f35b61017a60048036038101906101759190610c4c565b6106bd565b6040516101879190610d2a565b60405180910390f35b6101aa60048036038101906101a59190610d9d565b610721565b005b6101c660048036038101906101c19190610c4c565b6108d8565b6040516101d39190610d2a565b60405180910390f35b6101f660048036038101906101f19190610c4c565b61093c565b005b6102006109c0565b60405161020d9190610e77565b60405180910390f35b60006102206109e6565b90506000600260008373ffffffffffffffffffffffffffffffffffffffff1673ffffffffffffffffffffffffffffffffffffffff16815260200190815260200160002090506000610270826109ee565b905060008260010154826102849190610ec1565b9050600081116102c9576040517f08c379a00000000000000000000000000000000000000000000000000000000081526004016102c090610f52565b60405180910390fd5b818360010181905550600160009054906101000a900473ffffffffffffffffffffffffffffffffffffffff1673ffffffffffffffffffffffffffffffffffffffff1663a9059cbb85836040518363ffffffff1660e01b815260040161032f929190610f72565b6020604051808303816000875af115801561034e573d6000803e3d6000fd5b505050506040513d601f19601f820116820180604052508101906103729190610fb0565b5050505050565b60026020528060005260406000206000915090508060000154908060010154908060020154908060030154908060040160009054906101000a900460ff16905085565b6103c4610aa7565b6000600260008373ffffffffffffffffffffffffffffffffffffffff1673ffffffffffffffffffffffffffffffffffffffff16815260200190815260200160002090508060040160009054906101000a900460ff16610458576040517f08c379a000000000000000000000000000000000000000000000000000000000815260040161044f90611029565b60405180910390fd5b6000610463826109ee565b905060008260010154826104779190610ec1565b9050600082846000015461048b9190610ec1565b905060008460000181905550600160009054906101000a900473ffffffffffffffffffffffffffffffffffffffff1673ffffffffffffffffffffffffffffffffffffffff1663a9059cbb6104dd6109e6565b836040518363ffffffff1660e01b81526004016104fb929190610f72565b6020604051808303816000875af115801561051a573d6000803e3d6000fd5b505050506040513d601f19601f8201168201806040525081019061053e9190610fb0565b50600160009054906101000a900473ffffffffffffffffffffffffffffffffffffffff1673ffffffffffffffffffffffffffffffffffffffff1663a9059cbb86846040518363ffffffff1660e01b815260040161059c929190610f72565b6020604051808303816000875af11580156105bb573d6000803e3d6000fd5b505050506040513d601f19601f820116820180604052508101906105df9190610fb0565b505050505050565b6105ef610aa7565b6105f96000610b25565b565b60008060009054906101000a900473ffffffffffffffffffffffffffffffffffffffff16905090565b600080600260008473ffffffffffffffffffffffffffffffffffffffff1673ffffffffffffffffffffffffffffffffffffffff16815260200190815260200160002090506000816000015414156106b0576040517f08c379a00000000000000000000000000000000000000000000000000000000081526004016106a790611095565b60405180910390fd5b8060000154915050919050565b600080600260008473ffffffffffffffffffffffffffffffffffffffff1673ffffffffffffffffffffffffffffffffffffffff1681526020019081526020016000209050806001015461070f826109ee565b6107199190610ec1565b915050919050565b610729610aa7565b6000600260008773ffffffffffffffffffffffffffffffffffffffff1673ffffffffffffffffffffffffffffffffffffffff168152602001908152602001600020905060008160000154146107b3576040517f08c379a00000000000000000000000000000000000000000000000000000000081526004016107aa90611101565b60405180910390fd5b8481600001819055506000816001018190555083622820726107d59190611121565b426107e0919061117b565b816002018190555082622820726107f79190611121565b42610802919061117b565b8160030181905550818160040160006101000a81548160ff021916908315150217905550600160009054906101000a900473ffffffffffffffffffffffffffffffffffffffff1673ffffffffffffffffffffffffffffffffffffffff166323b872dd61086c6109e6565b30886040518463ffffffff1660e01b815260040161088c939291906111d1565b6020604051808303816000875af11580156108ab573d6000803e3d6000fd5b505050506040513d601f19601f820116820180604052508101906108cf9190610fb0565b50505050505050565b600080600260008473ffffffffffffffffffffffffffffffffffffffff1673ffffffffffffffffffffffffffffffffffffffff1681526020019081526020016000209050610925816109ee565b81600001546109349190610ec1565b915050919050565b610944610aa7565b600073ffffffffffffffffffffffffffffffffffffffff168173ffffffffffffffffffffffffffffffffffffffff1614156109b4576040517f08c379a00000000000000000000000000000000000000000000000000000000081526004016109ab9061127a565b60405180910390fd5b6109bd81610b25565b50565b600160009054906101000a900473ffffffffffffffffffffffffffffffffffffffff1681565b600033905090565b60008082600001541415610a37576040517f08c379a0000000000000000000000000000000000000000000000000000000008152600401610a2e90611095565b60405180910390fd5b81600201544211610a4b5760009050610aa2565b81600301544210610a625781600001549050610aa2565b81600201548260030154610a769190610ec1565b826002015442610a869190610ec1565b8360000154610a959190611121565b610a9f91906112c9565b90505b919050565b610aaf6109e6565b73ffffffffffffffffffffffffffffffffffffffff16610acd6105fb565b73ffffffffffffffffffffffffffffffffffffffff1614610b23576040517f08c379a0000000000000000000000000000000000000000000000000000000008152600401610b1a90611346565b60405180910390fd5b565b60008060009054906101000a900473ffffffffffffffffffffffffffffffffffffffff169050816000806101000a81548173ffffffffffffffffffffffffffffffffffffffff021916908373ffffffffffffffffffffffffffffffffffffffff1602179055508173ffffffffffffffffffffffffffffffffffffffff168173ffffffffffffffffffffffffffffffffffffffff167f8be0079c531659141344cd1fd0a4f28419497f9722a3daafe3b4186f6b6457e060405160405180910390a35050565b600080fd5b600073ffffffffffffffffffffffffffffffffffffffff82169050919050565b6000610c1982610bee565b9050919050565b610c2981610c0e565b8114610c3457600080fd5b50565b600081359050610c4681610c20565b92915050565b600060208284031215610c6257610c61610be9565b5b6000610c7084828501610c37565b91505092915050565b6000819050919050565b610c8c81610c79565b82525050565b60008115159050919050565b610ca781610c92565b82525050565b600060a082019050610cc26000830188610c83565b610ccf6020830187610c83565b610cdc6040830186610c83565b610ce96060830185610c83565b610cf66080830184610c9e565b9695505050505050565b610d0981610c0e565b82525050565b6000602082019050610d246000830184610d00565b92915050565b6000602082019050610d3f6000830184610c83565b92915050565b610d4e81610c79565b8114610d5957600080fd5b50565b600081359050610d6b81610d45565b92915050565b610d7a81610c92565b8114610d8557600080fd5b50565b600081359050610d9781610d71565b92915050565b600080600080600060a08688031215610db957610db8610be9565b5b6000610dc788828901610c37565b9550506020610dd888828901610d5c565b9450506040610de988828901610d5c565b9350506060610dfa88828901610d5c565b9250506080610e0b88828901610d88565b9150509295509295909350565b6000819050919050565b6000610e3d610e38610e3384610bee565b610e18565b610bee565b9050919050565b6000610e4f82610e22565b9050919050565b6000610e6182610e44565b9050919050565b610e7181610e56565b82525050565b6000602082019050610e8c6000830184610e68565b92915050565b7f4e487b7100000000000000000000000000000000000000000000000000000000600052601160045260246000fd5b6000610ecc82610c79565b9150610ed783610c79565b925082821015610eea57610ee9610e92565b5b828203905092915050565b600082825260208201905092915050565b7f4e6f7468696e6720746f20636c61696d2e000000000000000000000000000000600082015250565b6000610f3c601183610ef5565b9150610f4782610f06565b602082019050919050565b60006020820190508181036000830152610f6b81610f2f565b9050919050565b6000604082019050610f876000830185610d00565b610f946020830184610c83565b9392505050565b600081519050610faa81610d71565b92915050565b600060208284031215610fc657610fc5610be9565b5b6000610fd484828501610f9b565b91505092915050565b7f43616e6e6f742063616e63656c2e000000000000000000000000000000000000600082015250565b6000611013600e83610ef5565b915061101e82610fdd565b602082019050919050565b6000602082019050818103600083015261104281611006565b9050919050565b7f4163636f756e74206973206e6f74207665737465642e00000000000000000000600082015250565b600061107f601683610ef5565b915061108a82611049565b602082019050919050565b600060208201905081810360008301526110ae81611072565b9050919050565b7f4163636f756e7420697320616c7265616479207665737465642e000000000000600082015250565b60006110eb601a83610ef5565b91506110f6826110b5565b602082019050919050565b6000602082019050818103600083015261111a816110de565b9050919050565b600061112c82610c79565b915061113783610c79565b9250817fffffffffffffffffffffffffffffffffffffffffffffffffffffffffffffffff04831182151516156111705761116f610e92565b5b828202905092915050565b600061118682610c79565b915061119183610c79565b9250827fffffffffffffffffffffffffffffffffffffffffffffffffffffffffffffffff038211156111c6576111c5610e92565b5b828201905092915050565b60006060820190506111e66000830186610d00565b6111f36020830185610d00565b6112006040830184610c83565b949350505050565b7f4f776e61626c653a206e6577206f776e657220697320746865207a65726f206160008201527f6464726573730000000000000000000000000000000000000000000000000000602082015250565b6000611264602683610ef5565b915061126f82611208565b604082019050919050565b6000602082019050818103600083015261129381611257565b9050919050565b7f4e487b7100000000000000000000000000000000000000000000000000000000600052601260045260246000fd5b60006112d482610c79565b91506112df83610c79565b9250826112ef576112ee61129a565b5b828204905092915050565b7f4f776e61626c653a2063616c6c6572206973206e6f7420746865206f776e6572600082015250565b6000611330602083610ef5565b915061133b826112fa565b602082019050919050565b6000602082019050818103600083015261135f81611323565b905091905056fea26469706673582212204a3bcc06858ce945927108158f9b2ce5d411552aced51ef5847fe0d408fbe9c064736f6c634300080a0033",
  "linkReferences": {},
  "deployedLinkReferences": {}
}