{
  "_format": "hh-sol-artifact-1",
  "contractName": "SimpleERC1155",
  "sourceName": "contracts/ERC1155/ERC1155-simple.sol",
  "abi": [
    {
      "inputs": [
        {
          "internalType": "string",
          "name": "_uri",
          "type": "string"
        }
      ],
      "stateMutability": "payable",
      "type": "constructor"
    },
    {
      "anonymous": false,
      "inputs": [
        {
          "indexed": true,
          "internalType": "address",
          "name": "account",
          "type": "address"
        },
        {
          "indexed": true,
          "internalType": "address",
          "name": "operator",
          "type": "address"
        },
        {
          "indexed": false,
          "internalType": "bool",
          "name": "approved",
          "type": "bool"
        }
      ],
      "name": "ApprovalForAll",
      "type": "event"
    },
    {
      "anonymous": false,
      "inputs": [
        {
          "indexed": true,
          "internalType": "address",
          "name": "previousOwner",
          "type": "address"
        },
        {
          "indexed": true,
          "internalType": "address",
          "name": "newOwner",
          "type": "address"
        }
      ],
      "name": "OwnershipTransferred",
      "type": "event"
    },
    {
      "anonymous": false,
      "inputs": [
        {
          "indexed": true,
          "internalType": "address",
          "name": "operator",
          "type": "address"
        },
        {
          "indexed": true,
          "internalType": "address",
          "name": "from",
          "type": "address"
        },
        {
          "indexed": true,
          "internalType": "address",
          "name": "to",
          "type": "address"
        },
        {
          "indexed": false,
          "internalType": "uint256[]",
          "name": "ids",
          "type": "uint256[]"
        },
        {
          "indexed": false,
          "internalType": "uint256[]",
          "name": "values",
          "type": "uint256[]"
        }
      ],
      "name": "TransferBatch",
      "type": "event"
    },
    {
      "anonymous": false,
      "inputs": [
        {
          "indexed": true,
          "internalType": "address",
          "name": "operator",
          "type": "address"
        },
        {
          "indexed": true,
          "internalType": "address",
          "name": "from",
          "type": "address"
        },
        {
          "indexed": true,
          "internalType": "address",
          "name": "to",
          "type": "address"
        },
        {
          "indexed": false,
          "internalType": "uint256",
          "name": "id",
          "type": "uint256"
        },
        {
          "indexed": false,
          "internalType": "uint256",
          "name": "value",
          "type": "uint256"
        }
      ],
      "name": "TransferSingle",
      "type": "event"
    },
    {
      "anonymous": false,
      "inputs": [
        {
          "indexed": false,
          "internalType": "string",
          "name": "value",
          "type": "string"
        },
        {
          "indexed": true,
          "internalType": "uint256",
          "name": "id",
          "type": "uint256"
        }
      ],
      "name": "URI",
      "type": "event"
    },
    {
      "inputs": [
        {
          "internalType": "address",
          "name": "account",
          "type": "address"
        },
        {
          "internalType": "uint256",
          "name": "id",
          "type": "uint256"
        }
      ],
      "name": "balanceOf",
      "outputs": [
        {
          "internalType": "uint256",
          "name": "",
          "type": "uint256"
        }
      ],
      "stateMutability": "view",
      "type": "function"
    },
    {
      "inputs": [
        {
          "internalType": "address[]",
          "name": "accounts",
          "type": "address[]"
        },
        {
          "internalType": "uint256[]",
          "name": "ids",
          "type": "uint256[]"
        }
      ],
      "name": "balanceOfBatch",
      "outputs": [
        {
          "internalType": "uint256[]",
          "name": "",
          "type": "uint256[]"
        }
      ],
      "stateMutability": "view",
      "type": "function"
    },
    {
      "inputs": [
        {
          "internalType": "uint256",
          "name": "id",
          "type": "uint256"
        }
      ],
      "name": "exists",
      "outputs": [
        {
          "internalType": "bool",
          "name": "",
          "type": "bool"
        }
      ],
      "stateMutability": "view",
      "type": "function"
    },
    {
      "inputs": [
        {
          "internalType": "address",
          "name": "account",
          "type": "address"
        },
        {
          "internalType": "address",
          "name": "operator",
          "type": "address"
        }
      ],
      "name": "isApprovedForAll",
      "outputs": [
        {
          "internalType": "bool",
          "name": "",
          "type": "bool"
        }
      ],
      "stateMutability": "view",
      "type": "function"
    },
    {
      "inputs": [
        {
          "internalType": "address",
          "name": "account",
          "type": "address"
        },
        {
          "internalType": "uint256",
          "name": "id",
          "type": "uint256"
        },
        {
          "internalType": "uint256",
          "name": "amount",
          "type": "uint256"
        },
        {
          "internalType": "bytes",
          "name": "data",
          "type": "bytes"
        }
      ],
      "name": "mint",
      "outputs": [],
      "stateMutability": "nonpayable",
      "type": "function"
    },
    {
      "inputs": [
        {
          "internalType": "address",
          "name": "to",
          "type": "address"
        },
        {
          "internalType": "uint256[]",
          "name": "ids",
          "type": "uint256[]"
        },
        {
          "internalType": "uint256[]",
          "name": "amounts",
          "type": "uint256[]"
        },
        {
          "internalType": "bytes",
          "name": "data",
          "type": "bytes"
        }
      ],
      "name": "mintBatch",
      "outputs": [],
      "stateMutability": "nonpayable",
      "type": "function"
    },
    {
      "inputs": [],
      "name": "owner",
      "outputs": [
        {
          "internalType": "address",
          "name": "",
          "type": "address"
        }
      ],
      "stateMutability": "view",
      "type": "function"
    },
    {
      "inputs": [],
      "name": "renounceOwnership",
      "outputs": [],
      "stateMutability": "nonpayable",
      "type": "function"
    },
    {
      "inputs": [
        {
          "internalType": "address",
          "name": "from",
          "type": "address"
        },
        {
          "internalType": "address",
          "name": "to",
          "type": "address"
        },
        {
          "internalType": "uint256[]",
          "name": "ids",
          "type": "uint256[]"
        },
        {
          "internalType": "uint256[]",
          "name": "amounts",
          "type": "uint256[]"
        },
        {
          "internalType": "bytes",
          "name": "data",
          "type": "bytes"
        }
      ],
      "name": "safeBatchTransferFrom",
      "outputs": [],
      "stateMutability": "nonpayable",
      "type": "function"
    },
    {
      "inputs": [
        {
          "internalType": "address",
          "name": "from",
          "type": "address"
        },
        {
          "internalType": "address",
          "name": "to",
          "type": "address"
        },
        {
          "internalType": "uint256",
          "name": "id",
          "type": "uint256"
        },
        {
          "internalType": "uint256",
          "name": "amount",
          "type": "uint256"
        },
        {
          "internalType": "bytes",
          "name": "data",
          "type": "bytes"
        }
      ],
      "name": "safeTransferFrom",
      "outputs": [],
      "stateMutability": "nonpayable",
      "type": "function"
    },
    {
      "inputs": [
        {
          "internalType": "address",
          "name": "operator",
          "type": "address"
        },
        {
          "internalType": "bool",
          "name": "approved",
          "type": "bool"
        }
      ],
      "name": "setApprovalForAll",
      "outputs": [],
      "stateMutability": "nonpayable",
      "type": "function"
    },
    {
      "inputs": [
        {
          "internalType": "string",
          "name": "newuri",
          "type": "string"
        }
      ],
      "name": "setURI",
      "outputs": [],
      "stateMutability": "nonpayable",
      "type": "function"
    },
    {
      "inputs": [
        {
          "internalType": "bytes4",
          "name": "interfaceId",
          "type": "bytes4"
        }
      ],
      "name": "supportsInterface",
      "outputs": [
        {
          "internalType": "bool",
          "name": "",
          "type": "bool"
        }
      ],
      "stateMutability": "view",
      "type": "function"
    },
    {
      "inputs": [
        {
          "internalType": "uint256",
          "name": "id",
          "type": "uint256"
        }
      ],
      "name": "totalSupply",
      "outputs": [
        {
          "internalType": "uint256",
          "name": "",
          "type": "uint256"
        }
      ],
      "stateMutability": "view",
      "type": "function"
    },
    {
      "inputs": [
        {
          "internalType": "address",
          "name": "newOwner",
          "type": "address"
        }
      ],
      "name": "transferOwnership",
      "outputs": [],
      "stateMutability": "nonpayable",
      "type": "function"
    },
    {
      "inputs": [
        {
          "internalType": "uint256",
          "name": "",
          "type": "uint256"
        }
      ],
      "name": "uri",
      "outputs": [
        {
          "internalType": "string",
          "name": "",
          "type": "string"
        }
      ],
      "stateMutability": "view",
      "type": "function"
    }
  ],
  "bytecode": "0x6080604052604051620038943803806200389483398181016040528101906200002991906200039a565b806200003b816200006360201b60201c565b506200005c620000506200007f60201b60201c565b6200008760201b60201c565b5062000450565b80600290805190602001906200007b9291906200014d565b5050565b600033905090565b6000600360009054906101000a900473ffffffffffffffffffffffffffffffffffffffff16905081600360006101000a81548173ffffffffffffffffffffffffffffffffffffffff021916908373ffffffffffffffffffffffffffffffffffffffff1602179055508173ffffffffffffffffffffffffffffffffffffffff168173ffffffffffffffffffffffffffffffffffffffff167f8be0079c531659141344cd1fd0a4f28419497f9722a3daafe3b4186f6b6457e060405160405180910390a35050565b8280546200015b906200041a565b90600052602060002090601f0160209004810192826200017f5760008555620001cb565b82601f106200019a57805160ff1916838001178555620001cb565b82800160010185558215620001cb579182015b82811115620001ca578251825591602001919060010190620001ad565b5b509050620001da9190620001de565b5090565b5b80821115620001f9576000816000905550600101620001df565b5090565b6000604051905090565b600080fd5b600080fd5b600080fd5b600080fd5b6000601f19601f8301169050919050565b7f4e487b7100000000000000000000000000000000000000000000000000000000600052604160045260246000fd5b62000266826200021b565b810181811067ffffffffffffffff821117156200028857620002876200022c565b5b80604052505050565b60006200029d620001fd565b9050620002ab82826200025b565b919050565b600067ffffffffffffffff821115620002ce57620002cd6200022c565b5b620002d9826200021b565b9050602081019050919050565b60005b8381101562000306578082015181840152602081019050620002e9565b8381111562000316576000848401525b50505050565b6000620003336200032d84620002b0565b62000291565b90508281526020810184848401111562000352576200035162000216565b5b6200035f848285620002e6565b509392505050565b600082601f8301126200037f576200037e62000211565b5b8151620003918482602086016200031c565b91505092915050565b600060208284031215620003b357620003b262000207565b5b600082015167ffffffffffffffff811115620003d457620003d36200020c565b5b620003e28482850162000367565b91505092915050565b7f4e487b7100000000000000000000000000000000000000000000000000000000600052602260045260246000fd5b600060028204905060018216806200043357607f821691505b602082108114156200044a5762000449620003eb565b5b50919050565b61343480620004606000396000f3fe608060405234801561001057600080fd5b50600436106100ff5760003560e01c8063715018a611610097578063bd85b03911610066578063bd85b039146102a8578063e985e9c5146102d8578063f242432a14610308578063f2fde38b14610324576100ff565b8063715018a614610248578063731133e9146102525780638da5cb5b1461026e578063a22cb4651461028c576100ff565b80631f7fdffa116100d35780631f7fdffa146101b05780632eb2c2d6146101cc5780634e1273f4146101e85780634f558e7914610218576100ff565b8062fdd58e1461010457806301ffc9a71461013457806302fe5305146101645780630e89341c14610180575b600080fd5b61011e60048036038101906101199190611e28565b610340565b60405161012b9190611e77565b60405180910390f35b61014e60048036038101906101499190611eea565b610409565b60405161015b9190611f32565b60405180910390f35b61017e60048036038101906101799190612093565b6104eb565b005b61019a600480360381019061019591906120dc565b6104ff565b6040516101a79190612191565b60405180910390f35b6101ca60048036038101906101c5919061231c565b610593565b005b6101e660048036038101906101e191906123d7565b6105ad565b005b61020260048036038101906101fd9190612569565b61064e565b60405161020f919061269f565b60405180910390f35b610232600480360381019061022d91906120dc565b610767565b60405161023f9190611f32565b60405180910390f35b61025061077b565b005b61026c600480360381019061026791906126c1565b61078f565b005b6102766107a9565b6040516102839190612753565b60405180910390f35b6102a660048036038101906102a1919061279a565b6107d3565b005b6102c260048036038101906102bd91906120dc565b6107e9565b6040516102cf9190611e77565b60405180910390f35b6102f260048036038101906102ed91906127da565b610806565b6040516102ff9190611f32565b60405180910390f35b610322600480360381019061031d919061281a565b61089a565b005b61033e600480360381019061033991906128b1565b61093b565b005b60008073ffffffffffffffffffffffffffffffffffffffff168373ffffffffffffffffffffffffffffffffffffffff1614156103b1576040517f08c379a00000000000000000000000000000000000000000000000000000000081526004016103a890612950565b60405180910390fd5b60008083815260200190815260200160002060008473ffffffffffffffffffffffffffffffffffffffff1673ffffffffffffffffffffffffffffffffffffffff16815260200190815260200160002054905092915050565b60007fd9b67a26000000000000000000000000000000000000000000000000000000007bffffffffffffffffffffffffffffffffffffffffffffffffffffffff1916827bffffffffffffffffffffffffffffffffffffffffffffffffffffffff191614806104d457507f0e89341c000000000000000000000000000000000000000000000000000000007bffffffffffffffffffffffffffffffffffffffffffffffffffffffff1916827bffffffffffffffffffffffffffffffffffffffffffffffffffffffff1916145b806104e457506104e3826109bf565b5b9050919050565b6104f3610a29565b6104fc81610aa7565b50565b60606002805461050e9061299f565b80601f016020809104026020016040519081016040528092919081815260200182805461053a9061299f565b80156105875780601f1061055c57610100808354040283529160200191610587565b820191906000526020600020905b81548152906001019060200180831161056a57829003601f168201915b50505050509050919050565b61059b610a29565b6105a784848484610ac1565b50505050565b6105b5610cee565b73ffffffffffffffffffffffffffffffffffffffff168573ffffffffffffffffffffffffffffffffffffffff1614806105fb57506105fa856105f5610cee565b610806565b5b61063a576040517f08c379a000000000000000000000000000000000000000000000000000000000815260040161063190612a43565b60405180910390fd5b6106478585858585610cf6565b5050505050565b60608151835114610694576040517f08c379a000000000000000000000000000000000000000000000000000000000815260040161068b90612ad5565b60405180910390fd5b6000835167ffffffffffffffff8111156106b1576106b0611f68565b5b6040519080825280602002602001820160405280156106df5781602001602082028036833780820191505090505b50905060005b845181101561075c5761072c85828151811061070457610703612af5565b5b602002602001015185838151811061071f5761071e612af5565b5b6020026020010151610340565b82828151811061073f5761073e612af5565b5b6020026020010181815250508061075590612b53565b90506106e5565b508091505092915050565b600080610773836107e9565b119050919050565b610783610a29565b61078d6000611018565b565b610797610a29565b6107a3848484846110de565b50505050565b6000600360009054906101000a900473ffffffffffffffffffffffffffffffffffffffff16905090565b6107e56107de610cee565b838361128f565b5050565b600060046000838152602001908152602001600020549050919050565b6000600160008473ffffffffffffffffffffffffffffffffffffffff1673ffffffffffffffffffffffffffffffffffffffff16815260200190815260200160002060008373ffffffffffffffffffffffffffffffffffffffff1673ffffffffffffffffffffffffffffffffffffffff16815260200190815260200160002060009054906101000a900460ff16905092915050565b6108a2610cee565b73ffffffffffffffffffffffffffffffffffffffff168573ffffffffffffffffffffffffffffffffffffffff1614806108e857506108e7856108e2610cee565b610806565b5b610927576040517f08c379a000000000000000000000000000000000000000000000000000000000815260040161091e90612a43565b60405180910390fd5b61093485858585856113fc565b5050505050565b610943610a29565b600073ffffffffffffffffffffffffffffffffffffffff168173ffffffffffffffffffffffffffffffffffffffff1614156109b3576040517f08c379a00000000000000000000000000000000000000000000000000000000081526004016109aa90612c0e565b60405180910390fd5b6109bc81611018565b50565b60007f01ffc9a7000000000000000000000000000000000000000000000000000000007bffffffffffffffffffffffffffffffffffffffffffffffffffffffff1916827bffffffffffffffffffffffffffffffffffffffffffffffffffffffff1916149050919050565b610a31610cee565b73ffffffffffffffffffffffffffffffffffffffff16610a4f6107a9565b73ffffffffffffffffffffffffffffffffffffffff1614610aa5576040517f08c379a0000000000000000000000000000000000000000000000000000000008152600401610a9c90612c7a565b60405180910390fd5b565b8060029080519060200190610abd929190611cdd565b5050565b600073ffffffffffffffffffffffffffffffffffffffff168473ffffffffffffffffffffffffffffffffffffffff161415610b31576040517f08c379a0000000000000000000000000000000000000000000000000000000008152600401610b2890612d0c565b60405180910390fd5b8151835114610b75576040517f08c379a0000000000000000000000000000000000000000000000000000000008152600401610b6c90612d9e565b60405180910390fd5b6000610b7f610cee565b9050610b9081600087878787611698565b60005b8451811015610c4957838181518110610baf57610bae612af5565b5b6020026020010151600080878481518110610bcd57610bcc612af5565b5b6020026020010151815260200190815260200160002060008873ffffffffffffffffffffffffffffffffffffffff1673ffffffffffffffffffffffffffffffffffffffff1681526020019081526020016000206000828254610c2f9190612dbe565b925050819055508080610c4190612b53565b915050610b93565b508473ffffffffffffffffffffffffffffffffffffffff16600073ffffffffffffffffffffffffffffffffffffffff168273ffffffffffffffffffffffffffffffffffffffff167f4a39dc06d4c0dbc64b70af90fd698a233a518aa5d07e595d983b8c0526c8f7fb8787604051610cc1929190612e14565b60405180910390a4610cd8816000878787876116ae565b610ce7816000878787876116b6565b5050505050565b600033905090565b8151835114610d3a576040517f08c379a0000000000000000000000000000000000000000000000000000000008152600401610d3190612d9e565b60405180910390fd5b600073ffffffffffffffffffffffffffffffffffffffff168473ffffffffffffffffffffffffffffffffffffffff161415610daa576040517f08c379a0000000000000000000000000000000000000000000000000000000008152600401610da190612ebd565b60405180910390fd5b6000610db4610cee565b9050610dc4818787878787611698565b60005b8451811015610f75576000858281518110610de557610de4612af5565b5b602002602001015190506000858381518110610e0457610e03612af5565b5b60200260200101519050600080600084815260200190815260200160002060008b73ffffffffffffffffffffffffffffffffffffffff1673ffffffffffffffffffffffffffffffffffffffff16815260200190815260200160002054905081811015610ea5576040517f08c379a0000000000000000000000000000000000000000000000000000000008152600401610e9c90612f4f565b60405180910390fd5b81810360008085815260200190815260200160002060008c73ffffffffffffffffffffffffffffffffffffffff1673ffffffffffffffffffffffffffffffffffffffff168152602001908152602001600020819055508160008085815260200190815260200160002060008b73ffffffffffffffffffffffffffffffffffffffff1673ffffffffffffffffffffffffffffffffffffffff1681526020019081526020016000206000828254610f5a9190612dbe565b9250508190555050505080610f6e90612b53565b9050610dc7565b508473ffffffffffffffffffffffffffffffffffffffff168673ffffffffffffffffffffffffffffffffffffffff168273ffffffffffffffffffffffffffffffffffffffff167f4a39dc06d4c0dbc64b70af90fd698a233a518aa5d07e595d983b8c0526c8f7fb8787604051610fec929190612e14565b60405180910390a46110028187878787876116ae565b6110108187878787876116b6565b505050505050565b6000600360009054906101000a900473ffffffffffffffffffffffffffffffffffffffff16905081600360006101000a81548173ffffffffffffffffffffffffffffffffffffffff021916908373ffffffffffffffffffffffffffffffffffffffff1602179055508173ffffffffffffffffffffffffffffffffffffffff168173ffffffffffffffffffffffffffffffffffffffff167f8be0079c531659141344cd1fd0a4f28419497f9722a3daafe3b4186f6b6457e060405160405180910390a35050565b600073ffffffffffffffffffffffffffffffffffffffff168473ffffffffffffffffffffffffffffffffffffffff16141561114e576040517f08c379a000000000000000000000000000000000000000000000000000000000815260040161114590612d0c565b60405180910390fd5b6000611158610cee565b905060006111658561188e565b905060006111728561188e565b905061118383600089858589611698565b8460008088815260200190815260200160002060008973ffffffffffffffffffffffffffffffffffffffff1673ffffffffffffffffffffffffffffffffffffffff16815260200190815260200160002060008282546111e29190612dbe565b925050819055508673ffffffffffffffffffffffffffffffffffffffff16600073ffffffffffffffffffffffffffffffffffffffff168473ffffffffffffffffffffffffffffffffffffffff167fc3d58168c5ae7397731d063d5bbf3d657854427343f4c083240f7aacaa2d0f628989604051611260929190612f6f565b60405180910390a4611277836000898585896116ae565b61128683600089898989611908565b50505050505050565b8173ffffffffffffffffffffffffffffffffffffffff168373ffffffffffffffffffffffffffffffffffffffff1614156112fe576040517f08c379a00000000000000000000000000000000000000000000000000000000081526004016112f59061300a565b60405180910390fd5b80600160008573ffffffffffffffffffffffffffffffffffffffff1673ffffffffffffffffffffffffffffffffffffffff16815260200190815260200160002060008473ffffffffffffffffffffffffffffffffffffffff1673ffffffffffffffffffffffffffffffffffffffff16815260200190815260200160002060006101000a81548160ff0219169083151502179055508173ffffffffffffffffffffffffffffffffffffffff168373ffffffffffffffffffffffffffffffffffffffff167f17307eab39ab6107e8899845ad3d59bd9653f200f220920489ca2b5937696c31836040516113ef9190611f32565b60405180910390a3505050565b600073ffffffffffffffffffffffffffffffffffffffff168473ffffffffffffffffffffffffffffffffffffffff16141561146c576040517f08c379a000000000000000000000000000000000000000000000000000000000815260040161146390612ebd565b60405180910390fd5b6000611476610cee565b905060006114838561188e565b905060006114908561188e565b90506114a0838989858589611698565b600080600088815260200190815260200160002060008a73ffffffffffffffffffffffffffffffffffffffff1673ffffffffffffffffffffffffffffffffffffffff16815260200190815260200160002054905085811015611537576040517f08c379a000000000000000000000000000000000000000000000000000000000815260040161152e90612f4f565b60405180910390fd5b85810360008089815260200190815260200160002060008b73ffffffffffffffffffffffffffffffffffffffff1673ffffffffffffffffffffffffffffffffffffffff168152602001908152602001600020819055508560008089815260200190815260200160002060008a73ffffffffffffffffffffffffffffffffffffffff1673ffffffffffffffffffffffffffffffffffffffff16815260200190815260200160002060008282546115ec9190612dbe565b925050819055508773ffffffffffffffffffffffffffffffffffffffff168973ffffffffffffffffffffffffffffffffffffffff168573ffffffffffffffffffffffffffffffffffffffff167fc3d58168c5ae7397731d063d5bbf3d657854427343f4c083240f7aacaa2d0f628a8a604051611669929190612f6f565b60405180910390a461167f848a8a86868a6116ae565b61168d848a8a8a8a8a611908565b505050505050505050565b6116a6868686868686611ae0565b505050505050565b505050505050565b6116d58473ffffffffffffffffffffffffffffffffffffffff16611cb2565b15611886578373ffffffffffffffffffffffffffffffffffffffff1663bc197c8187878686866040518663ffffffff1660e01b815260040161171b95949392919061307f565b6020604051808303816000875af192505050801561175757506040513d601f19601f8201168201806040525081019061175491906130fc565b60015b6117fd57611763613136565b806308c379a014156117c05750611778613158565b8061178357506117c2565b806040517f08c379a00000000000000000000000000000000000000000000000000000000081526004016117b79190612191565b60405180910390fd5b505b6040517f08c379a00000000000000000000000000000000000000000000000000000000081526004016117f490613260565b60405180910390fd5b63bc197c8160e01b7bffffffffffffffffffffffffffffffffffffffffffffffffffffffff1916817bffffffffffffffffffffffffffffffffffffffffffffffffffffffff191614611884576040517f08c379a000000000000000000000000000000000000000000000000000000000815260040161187b906132f2565b60405180910390fd5b505b505050505050565b60606000600167ffffffffffffffff8111156118ad576118ac611f68565b5b6040519080825280602002602001820160405280156118db5781602001602082028036833780820191505090505b50905082816000815181106118f3576118f2612af5565b5b60200260200101818152505080915050919050565b6119278473ffffffffffffffffffffffffffffffffffffffff16611cb2565b15611ad8578373ffffffffffffffffffffffffffffffffffffffff1663f23a6e6187878686866040518663ffffffff1660e01b815260040161196d959493929190613312565b6020604051808303816000875af19250505080156119a957506040513d601f19601f820116820180604052508101906119a691906130fc565b60015b611a4f576119b5613136565b806308c379a01415611a1257506119ca613158565b806119d55750611a14565b806040517f08c379a0000000000000000000000000000000000000000000000000000000008152600401611a099190612191565b60405180910390fd5b505b6040517f08c379a0000000000000000000000000000000000000000000000000000000008152600401611a4690613260565b60405180910390fd5b63f23a6e6160e01b7bffffffffffffffffffffffffffffffffffffffffffffffffffffffff1916817bffffffffffffffffffffffffffffffffffffffffffffffffffffffff191614611ad6576040517f08c379a0000000000000000000000000000000000000000000000000000000008152600401611acd906132f2565b60405180910390fd5b505b505050505050565b611aee868686868686611cd5565b600073ffffffffffffffffffffffffffffffffffffffff168573ffffffffffffffffffffffffffffffffffffffff161415611ba05760005b8351811015611b9e57828181518110611b4257611b41612af5565b5b602002602001015160046000868481518110611b6157611b60612af5565b5b602002602001015181526020019081526020016000206000828254611b869190612dbe565b9250508190555080611b9790612b53565b9050611b26565b505b600073ffffffffffffffffffffffffffffffffffffffff168473ffffffffffffffffffffffffffffffffffffffff161415611caa5760005b8351811015611ca8576000848281518110611bf657611bf5612af5565b5b602002602001015190506000848381518110611c1557611c14612af5565b5b6020026020010151905060006004600084815260200190815260200160002054905081811015611c7a576040517f08c379a0000000000000000000000000000000000000000000000000000000008152600401611c71906133de565b60405180910390fd5b818103600460008581526020019081526020016000208190555050505080611ca190612b53565b9050611bd8565b505b505050505050565b6000808273ffffffffffffffffffffffffffffffffffffffff163b119050919050565b505050505050565b828054611ce99061299f565b90600052602060002090601f016020900481019282611d0b5760008555611d52565b82601f10611d2457805160ff1916838001178555611d52565b82800160010185558215611d52579182015b82811115611d51578251825591602001919060010190611d36565b5b509050611d5f9190611d63565b5090565b5b80821115611d7c576000816000905550600101611d64565b5090565b6000604051905090565b600080fd5b600080fd5b600073ffffffffffffffffffffffffffffffffffffffff82169050919050565b6000611dbf82611d94565b9050919050565b611dcf81611db4565b8114611dda57600080fd5b50565b600081359050611dec81611dc6565b92915050565b6000819050919050565b611e0581611df2565b8114611e1057600080fd5b50565b600081359050611e2281611dfc565b92915050565b60008060408385031215611e3f57611e3e611d8a565b5b6000611e4d85828601611ddd565b9250506020611e5e85828601611e13565b9150509250929050565b611e7181611df2565b82525050565b6000602082019050611e8c6000830184611e68565b92915050565b60007fffffffff0000000000000000000000000000000000000000000000000000000082169050919050565b611ec781611e92565b8114611ed257600080fd5b50565b600081359050611ee481611ebe565b92915050565b600060208284031215611f0057611eff611d8a565b5b6000611f0e84828501611ed5565b91505092915050565b60008115159050919050565b611f2c81611f17565b82525050565b6000602082019050611f476000830184611f23565b92915050565b600080fd5b600080fd5b6000601f19601f8301169050919050565b7f4e487b7100000000000000000000000000000000000000000000000000000000600052604160045260246000fd5b611fa082611f57565b810181811067ffffffffffffffff82111715611fbf57611fbe611f68565b5b80604052505050565b6000611fd2611d80565b9050611fde8282611f97565b919050565b600067ffffffffffffffff821115611ffe57611ffd611f68565b5b61200782611f57565b9050602081019050919050565b82818337600083830152505050565b600061203661203184611fe3565b611fc8565b90508281526020810184848401111561205257612051611f52565b5b61205d848285612014565b509392505050565b600082601f83011261207a57612079611f4d565b5b813561208a848260208601612023565b91505092915050565b6000602082840312156120a9576120a8611d8a565b5b600082013567ffffffffffffffff8111156120c7576120c6611d8f565b5b6120d384828501612065565b91505092915050565b6000602082840312156120f2576120f1611d8a565b5b600061210084828501611e13565b91505092915050565b600081519050919050565b600082825260208201905092915050565b60005b83811015612143578082015181840152602081019050612128565b83811115612152576000848401525b50505050565b600061216382612109565b61216d8185612114565b935061217d818560208601612125565b61218681611f57565b840191505092915050565b600060208201905081810360008301526121ab8184612158565b905092915050565b600067ffffffffffffffff8211156121ce576121cd611f68565b5b602082029050602081019050919050565b600080fd5b60006121f76121f2846121b3565b611fc8565b9050808382526020820190506020840283018581111561221a576122196121df565b5b835b81811015612243578061222f8882611e13565b84526020840193505060208101905061221c565b5050509392505050565b600082601f83011261226257612261611f4d565b5b81356122728482602086016121e4565b91505092915050565b600067ffffffffffffffff82111561229657612295611f68565b5b61229f82611f57565b9050602081019050919050565b60006122bf6122ba8461227b565b611fc8565b9050828152602081018484840111156122db576122da611f52565b5b6122e6848285612014565b509392505050565b600082601f83011261230357612302611f4d565b5b81356123138482602086016122ac565b91505092915050565b6000806000806080858703121561233657612335611d8a565b5b600061234487828801611ddd565b945050602085013567ffffffffffffffff81111561236557612364611d8f565b5b6123718782880161224d565b935050604085013567ffffffffffffffff81111561239257612391611d8f565b5b61239e8782880161224d565b925050606085013567ffffffffffffffff8111156123bf576123be611d8f565b5b6123cb878288016122ee565b91505092959194509250565b600080600080600060a086880312156123f3576123f2611d8a565b5b600061240188828901611ddd565b955050602061241288828901611ddd565b945050604086013567ffffffffffffffff81111561243357612432611d8f565b5b61243f8882890161224d565b935050606086013567ffffffffffffffff8111156124605761245f611d8f565b5b61246c8882890161224d565b925050608086013567ffffffffffffffff81111561248d5761248c611d8f565b5b612499888289016122ee565b9150509295509295909350565b600067ffffffffffffffff8211156124c1576124c0611f68565b5b602082029050602081019050919050565b60006124e56124e0846124a6565b611fc8565b90508083825260208201905060208402830185811115612508576125076121df565b5b835b81811015612531578061251d8882611ddd565b84526020840193505060208101905061250a565b5050509392505050565b600082601f8301126125505761254f611f4d565b5b81356125608482602086016124d2565b91505092915050565b600080604083850312156125805761257f611d8a565b5b600083013567ffffffffffffffff81111561259e5761259d611d8f565b5b6125aa8582860161253b565b925050602083013567ffffffffffffffff8111156125cb576125ca611d8f565b5b6125d78582860161224d565b9150509250929050565b600081519050919050565b600082825260208201905092915050565b6000819050602082019050919050565b61261681611df2565b82525050565b6000612628838361260d565b60208301905092915050565b6000602082019050919050565b600061264c826125e1565b61265681856125ec565b9350612661836125fd565b8060005b83811015612692578151612679888261261c565b975061268483612634565b925050600181019050612665565b5085935050505092915050565b600060208201905081810360008301526126b98184612641565b905092915050565b600080600080608085870312156126db576126da611d8a565b5b60006126e987828801611ddd565b94505060206126fa87828801611e13565b935050604061270b87828801611e13565b925050606085013567ffffffffffffffff81111561272c5761272b611d8f565b5b612738878288016122ee565b91505092959194509250565b61274d81611db4565b82525050565b60006020820190506127686000830184612744565b92915050565b61277781611f17565b811461278257600080fd5b50565b6000813590506127948161276e565b92915050565b600080604083850312156127b1576127b0611d8a565b5b60006127bf85828601611ddd565b92505060206127d085828601612785565b9150509250929050565b600080604083850312156127f1576127f0611d8a565b5b60006127ff85828601611ddd565b925050602061281085828601611ddd565b9150509250929050565b600080600080600060a0868803121561283657612835611d8a565b5b600061284488828901611ddd565b955050602061285588828901611ddd565b945050604061286688828901611e13565b935050606061287788828901611e13565b925050608086013567ffffffffffffffff81111561289857612897611d8f565b5b6128a4888289016122ee565b9150509295509295909350565b6000602082840312156128c7576128c6611d8a565b5b60006128d584828501611ddd565b91505092915050565b7f455243313135353a2061646472657373207a65726f206973206e6f742061207660008201527f616c6964206f776e657200000000000000000000000000000000000000000000602082015250565b600061293a602a83612114565b9150612945826128de565b604082019050919050565b600060208201905081810360008301526129698161292d565b9050919050565b7f4e487b7100000000000000000000000000000000000000000000000000000000600052602260045260246000fd5b600060028204905060018216806129b757607f821691505b602082108114156129cb576129ca612970565b5b50919050565b7f455243313135353a2063616c6c6572206973206e6f7420746f6b656e206f776e60008201527f6572206f7220617070726f766564000000000000000000000000000000000000602082015250565b6000612a2d602e83612114565b9150612a38826129d1565b604082019050919050565b60006020820190508181036000830152612a5c81612a20565b9050919050565b7f455243313135353a206163636f756e747320616e6420696473206c656e67746860008201527f206d69736d617463680000000000000000000000000000000000000000000000602082015250565b6000612abf602983612114565b9150612aca82612a63565b604082019050919050565b60006020820190508181036000830152612aee81612ab2565b9050919050565b7f4e487b7100000000000000000000000000000000000000000000000000000000600052603260045260246000fd5b7f4e487b7100000000000000000000000000000000000000000000000000000000600052601160045260246000fd5b6000612b5e82611df2565b91507fffffffffffffffffffffffffffffffffffffffffffffffffffffffffffffffff821415612b9157612b90612b24565b5b600182019050919050565b7f4f776e61626c653a206e6577206f776e657220697320746865207a65726f206160008201527f6464726573730000000000000000000000000000000000000000000000000000602082015250565b6000612bf8602683612114565b9150612c0382612b9c565b604082019050919050565b60006020820190508181036000830152612c2781612beb565b9050919050565b7f4f776e61626c653a2063616c6c6572206973206e6f7420746865206f776e6572600082015250565b6000612c64602083612114565b9150612c6f82612c2e565b602082019050919050565b60006020820190508181036000830152612c9381612c57565b9050919050565b7f455243313135353a206d696e7420746f20746865207a65726f2061646472657360008201527f7300000000000000000000000000000000000000000000000000000000000000602082015250565b6000612cf6602183612114565b9150612d0182612c9a565b604082019050919050565b60006020820190508181036000830152612d2581612ce9565b9050919050565b7f455243313135353a2069647320616e6420616d6f756e7473206c656e6774682060008201527f6d69736d61746368000000000000000000000000000000000000000000000000602082015250565b6000612d88602883612114565b9150612d9382612d2c565b604082019050919050565b60006020820190508181036000830152612db781612d7b565b9050919050565b6000612dc982611df2565b9150612dd483611df2565b9250827fffffffffffffffffffffffffffffffffffffffffffffffffffffffffffffffff03821115612e0957612e08612b24565b5b828201905092915050565b60006040820190508181036000830152612e2e8185612641565b90508181036020830152612e428184612641565b90509392505050565b7f455243313135353a207472616e7366657220746f20746865207a65726f20616460008201527f6472657373000000000000000000000000000000000000000000000000000000602082015250565b6000612ea7602583612114565b9150612eb282612e4b565b604082019050919050565b60006020820190508181036000830152612ed681612e9a565b9050919050565b7f455243313135353a20696e73756666696369656e742062616c616e636520666f60008201527f72207472616e7366657200000000000000000000000000000000000000000000602082015250565b6000612f39602a83612114565b9150612f4482612edd565b604082019050919050565b60006020820190508181036000830152612f6881612f2c565b9050919050565b6000604082019050612f846000830185611e68565b612f916020830184611e68565b9392505050565b7f455243313135353a2073657474696e6720617070726f76616c2073746174757360008201527f20666f722073656c660000000000000000000000000000000000000000000000602082015250565b6000612ff4602983612114565b9150612fff82612f98565b604082019050919050565b6000602082019050818103600083015261302381612fe7565b9050919050565b600081519050919050565b600082825260208201905092915050565b60006130518261302a565b61305b8185613035565b935061306b818560208601612125565b61307481611f57565b840191505092915050565b600060a0820190506130946000830188612744565b6130a16020830187612744565b81810360408301526130b38186612641565b905081810360608301526130c78185612641565b905081810360808301526130db8184613046565b90509695505050505050565b6000815190506130f681611ebe565b92915050565b60006020828403121561311257613111611d8a565b5b6000613120848285016130e7565b91505092915050565b60008160e01c9050919050565b600060033d11156131555760046000803e613152600051613129565b90505b90565b600060443d1015613168576131eb565b613170611d80565b60043d036004823e80513d602482011167ffffffffffffffff821117156131985750506131eb565b808201805167ffffffffffffffff8111156131b657505050506131eb565b80602083010160043d0385018111156131d35750505050506131eb565b6131e282602001850186611f97565b82955050505050505b90565b7f455243313135353a207472616e7366657220746f206e6f6e2d4552433131353560008201527f526563656976657220696d706c656d656e746572000000000000000000000000602082015250565b600061324a603483612114565b9150613255826131ee565b604082019050919050565b600060208201905081810360008301526132798161323d565b9050919050565b7f455243313135353a204552433131353552656365697665722072656a6563746560008201527f6420746f6b656e73000000000000000000000000000000000000000000000000602082015250565b60006132dc602883612114565b91506132e782613280565b604082019050919050565b6000602082019050818103600083015261330b816132cf565b9050919050565b600060a0820190506133276000830188612744565b6133346020830187612744565b6133416040830186611e68565b61334e6060830185611e68565b81810360808301526133608184613046565b90509695505050505050565b7f455243313135353a206275726e20616d6f756e74206578636565647320746f7460008201527f616c537570706c79000000000000000000000000000000000000000000000000602082015250565b60006133c8602883612114565b91506133d38261336c565b604082019050919050565b600060208201905081810360008301526133f7816133bb565b905091905056fea2646970667358221220276bcf223ef8367ef7215a26a8e38cb350717fd73c134c7410599ffa870d4b0f64736f6c634300080a0033",
  "linkReferences": {},
  "deployedLinkReferences": {}
}