{
  "_format": "hh-sol-artifact-1",
  "contractName": "StakingPool",
  "sourceName": "contracts/staking/TokenStaking.sol",
  "abi": [
    {
      "inputs": [
        {
          "internalType": "address",
          "name": "_mainToken",
          "type": "address"
        },
        {
          "internalType": "address",
          "name": "_lpToken",
          "type": "address"
        },
        {
          "internalType": "address",
          "name": "_rewardToken",
          "type": "address"
        }
      ],
      "stateMutability": "nonpayable",
      "type": "constructor"
    },
    {
      "anonymous": false,
      "inputs": [
        {
          "indexed": true,
          "internalType": "address",
          "name": "previousOwner",
          "type": "address"
        },
        {
          "indexed": true,
          "internalType": "address",
          "name": "newOwner",
          "type": "address"
        }
      ],
      "name": "OwnershipTransferred",
      "type": "event"
    },
    {
      "inputs": [
        {
          "internalType": "uint256",
          "name": "duration",
          "type": "uint256"
        },
        {
          "internalType": "uint256",
          "name": "amount",
          "type": "uint256"
        }
      ],
      "name": "addRewards",
      "outputs": [],
      "stateMutability": "nonpayable",
      "type": "function"
    },
    {
      "inputs": [
        {
          "internalType": "address",
          "name": "account",
          "type": "address"
        }
      ],
      "name": "balanceOf",
      "outputs": [
        {
          "internalType": "uint256",
          "name": "mainTokenBal",
          "type": "uint256"
        },
        {
          "internalType": "uint256",
          "name": "lpTokenBal",
          "type": "uint256"
        }
      ],
      "stateMutability": "view",
      "type": "function"
    },
    {
      "inputs": [],
      "name": "dailyPayout",
      "outputs": [
        {
          "internalType": "uint256",
          "name": "",
          "type": "uint256"
        }
      ],
      "stateMutability": "view",
      "type": "function"
    },
    {
      "inputs": [],
      "name": "lpToken",
      "outputs": [
        {
          "internalType": "address",
          "name": "",
          "type": "address"
        }
      ],
      "stateMutability": "view",
      "type": "function"
    },
    {
      "inputs": [],
      "name": "mainToken",
      "outputs": [
        {
          "internalType": "address",
          "name": "",
          "type": "address"
        }
      ],
      "stateMutability": "view",
      "type": "function"
    },
    {
      "inputs": [],
      "name": "owner",
      "outputs": [
        {
          "internalType": "address",
          "name": "",
          "type": "address"
        }
      ],
      "stateMutability": "view",
      "type": "function"
    },
    {
      "inputs": [],
      "name": "renounceOwnership",
      "outputs": [],
      "stateMutability": "nonpayable",
      "type": "function"
    },
    {
      "inputs": [],
      "name": "rewardEnd",
      "outputs": [
        {
          "internalType": "uint256",
          "name": "",
          "type": "uint256"
        }
      ],
      "stateMutability": "view",
      "type": "function"
    },
    {
      "inputs": [],
      "name": "rewardToken",
      "outputs": [
        {
          "internalType": "address",
          "name": "",
          "type": "address"
        }
      ],
      "stateMutability": "view",
      "type": "function"
    },
    {
      "inputs": [
        {
          "internalType": "address",
          "name": "account",
          "type": "address"
        }
      ],
      "name": "rewards",
      "outputs": [
        {
          "internalType": "uint256",
          "name": "",
          "type": "uint256"
        }
      ],
      "stateMutability": "view",
      "type": "function"
    },
    {
      "inputs": [
        {
          "internalType": "uint8",
          "name": "_feePercent",
          "type": "uint8"
        }
      ],
      "name": "setUnstakeFee",
      "outputs": [],
      "stateMutability": "nonpayable",
      "type": "function"
    },
    {
      "inputs": [
        {
          "internalType": "bool",
          "name": "isLpToken",
          "type": "bool"
        },
        {
          "internalType": "uint256",
          "name": "amount",
          "type": "uint256"
        }
      ],
      "name": "stake",
      "outputs": [],
      "stateMutability": "nonpayable",
      "type": "function"
    },
    {
      "inputs": [
        {
          "internalType": "address",
          "name": "newOwner",
          "type": "address"
        }
      ],
      "name": "transferOwnership",
      "outputs": [],
      "stateMutability": "nonpayable",
      "type": "function"
    },
    {
      "inputs": [],
      "name": "unstakeFee",
      "outputs": [
        {
          "internalType": "uint8",
          "name": "",
          "type": "uint8"
        }
      ],
      "stateMutability": "view",
      "type": "function"
    },
    {
      "inputs": [
        {
          "internalType": "bool",
          "name": "isLpToken",
          "type": "bool"
        },
        {
          "internalType": "uint256",
          "name": "amount",
          "type": "uint256"
        }
      ],
      "name": "withdraw",
      "outputs": [],
      "stateMutability": "nonpayable",
      "type": "function"
    },
    {
      "inputs": [],
      "name": "withdrawFees",
      "outputs": [],
      "stateMutability": "nonpayable",
      "type": "function"
    },
    {
      "inputs": [],
      "name": "withdrawRewards",
      "outputs": [],
      "stateMutability": "nonpayable",
      "type": "function"
    }
  ],
  "bytecode": "0x60806040526003600b60006101000a81548160ff021916908360ff1602179055503480156200002d57600080fd5b506040516200240e3803806200240e83398181016040528101906200005391906200027c565b62000073620000676200014660201b60201c565b6200014e60201b60201c565b6001808190555082600260006101000a81548173ffffffffffffffffffffffffffffffffffffffff021916908373ffffffffffffffffffffffffffffffffffffffff16021790555081600360006101000a81548173ffffffffffffffffffffffffffffffffffffffff021916908373ffffffffffffffffffffffffffffffffffffffff16021790555080600460006101000a81548173ffffffffffffffffffffffffffffffffffffffff021916908373ffffffffffffffffffffffffffffffffffffffff160217905550505050620002d8565b600033905090565b60008060009054906101000a900473ffffffffffffffffffffffffffffffffffffffff169050816000806101000a81548173ffffffffffffffffffffffffffffffffffffffff021916908373ffffffffffffffffffffffffffffffffffffffff1602179055508173ffffffffffffffffffffffffffffffffffffffff168173ffffffffffffffffffffffffffffffffffffffff167f8be0079c531659141344cd1fd0a4f28419497f9722a3daafe3b4186f6b6457e060405160405180910390a35050565b600080fd5b600073ffffffffffffffffffffffffffffffffffffffff82169050919050565b6000620002448262000217565b9050919050565b620002568162000237565b81146200026257600080fd5b50565b60008151905062000276816200024b565b92915050565b60008060006060848603121562000298576200029762000212565b5b6000620002a88682870162000265565b9350506020620002bb8682870162000265565b9250506040620002ce8682870162000265565b9150509250925092565b61212680620002e86000396000f3fe608060405234801561001057600080fd5b506004361061010b5760003560e01c8063715018a6116100a2578063c1e534aa11610071578063c1e534aa1461026f578063c7b8981c1461028d578063f2fde38b14610297578063f7c618c1146102b3578063fc41aa09146102d15761010b565b8063715018a61461020d5780638da5cb5b146102175780638ea97d2614610235578063984c0450146102535761010b565b8063580c539c116100de578063580c539c146101845780635fcbd285146101a057806370a08231146101be57806370f961de146101ef5761010b565b80630700037d146101105780633fc15f1514610140578063476343ee1461015e57806357f7bf2d14610168575b600080fd5b61012a6004803603810190610125919061185d565b6102ed565b60405161013791906118a3565b60405180910390f35b6101486104dd565b60405161015591906118cd565b60405180910390f35b610166610503565b005b610182600480360381019061017d919061194c565b6107b3565b005b61019e600480360381019061019991906119c5565b6107d9565b005b6101a8610845565b6040516101b591906118cd565b60405180910390f35b6101d860048036038101906101d3919061185d565b61086b565b6040516101e69291906119f2565b60405180910390f35b6101f76108fd565b60405161020491906118a3565b60405180910390f35b610215610903565b005b61021f610917565b60405161022c91906118cd565b60405180910390f35b61023d610940565b60405161024a9190611a2a565b60405180910390f35b61026d6004803603810190610268919061194c565b610953565b005b610277610d4d565b60405161028491906118a3565b60405180910390f35b610295610d53565b005b6102b160048036038101906102ac919061185d565b610ef8565b005b6102bb610f7c565b6040516102c891906118cd565b60405180910390f35b6102eb60048036038101906102e69190611a45565b610fa2565b005b600080600660008473ffffffffffffffffffffffffffffffffffffffff1673ffffffffffffffffffffffffffffffffffffffff16815260200190815260200160002054141561033f57600090506104d8565b600062015180426103509190611ae3565b90506000600660008573ffffffffffffffffffffffffffffffffffffffff1673ffffffffffffffffffffffffffffffffffffffff16815260200190815260200160002054905060006004600560008773ffffffffffffffffffffffffffffffffffffffff1673ffffffffffffffffffffffffffffffffffffffff168152602001908152602001600020600101546103e79190611b14565b600560008773ffffffffffffffffffffffffffffffffffffffff1673ffffffffffffffffffffffffffffffffffffffff168152602001908152602001600020600001546104349190611b6e565b90506000600760008773ffffffffffffffffffffffffffffffffffffffff1673ffffffffffffffffffffffffffffffffffffffff16815260200190815260200160002054905060008390505b848110156104cf57670de0b6b3a764000061049a82611173565b846104a59190611b14565b6104af9190611ae3565b826104ba9190611b6e565b915080806104c790611bc4565b915050610480565b50809450505050505b919050565b600260009054906101000a900473ffffffffffffffffffffffffffffffffffffffff1681565b61050b611219565b600260009054906101000a900473ffffffffffffffffffffffffffffffffffffffff1673ffffffffffffffffffffffffffffffffffffffff1663a9059cbb610551611297565b600e60000154600260009054906101000a900473ffffffffffffffffffffffffffffffffffffffff1673ffffffffffffffffffffffffffffffffffffffff166370a08231306040518263ffffffff1660e01b81526004016105b291906118cd565b602060405180830381865afa1580156105cf573d6000803e3d6000fd5b505050506040513d601f19601f820116820180604052508101906105f39190611c22565b6105fd9190611c4f565b6040518363ffffffff1660e01b815260040161061a929190611c83565b6020604051808303816000875af1158015610639573d6000803e3d6000fd5b505050506040513d601f19601f8201168201806040525081019061065d9190611cc1565b50600360009054906101000a900473ffffffffffffffffffffffffffffffffffffffff1673ffffffffffffffffffffffffffffffffffffffff1663a9059cbb6106a4611297565b600e60010154600360009054906101000a900473ffffffffffffffffffffffffffffffffffffffff1673ffffffffffffffffffffffffffffffffffffffff166370a08231306040518263ffffffff1660e01b815260040161070591906118cd565b602060405180830381865afa158015610722573d6000803e3d6000fd5b505050506040513d601f19601f820116820180604052508101906107469190611c22565b6107509190611c4f565b6040518363ffffffff1660e01b815260040161076d929190611c83565b6020604051808303816000875af115801561078c573d6000803e3d6000fd5b505050506040513d601f19601f820116820180604052508101906107b09190611cc1565b50565b6107bb61129f565b6107cd826107c7611297565b836112ef565b6107d5611539565b5050565b6107e1611219565b60648160ff1610610827576040517f08c379a000000000000000000000000000000000000000000000000000000000815260040161081e90611d4b565b60405180910390fd5b80600b60006101000a81548160ff021916908360ff16021790555050565b600360009054906101000a900473ffffffffffffffffffffffffffffffffffffffff1681565b600080600560008473ffffffffffffffffffffffffffffffffffffffff1673ffffffffffffffffffffffffffffffffffffffff16815260200190815260200160002060000154600560008573ffffffffffffffffffffffffffffffffffffffff1673ffffffffffffffffffffffffffffffffffffffff1681526020019081526020016000206001015491509150915091565b600a5481565b61090b611219565b6109156000611542565b565b60008060009054906101000a900473ffffffffffffffffffffffffffffffffffffffff16905090565b600b60009054906101000a900460ff1681565b61095b61129f565b61096b610966611297565b611606565b8115610b5b57806005600061097e611297565b73ffffffffffffffffffffffffffffffffffffffff1673ffffffffffffffffffffffffffffffffffffffff1681526020019081526020016000206001015410156109fd576040517f08c379a00000000000000000000000000000000000000000000000000000000081526004016109f490611db7565b60405180910390fd5b600360009054906101000a900473ffffffffffffffffffffffffffffffffffffffff1673ffffffffffffffffffffffffffffffffffffffff1663a9059cbb610a43611297565b6064600b60009054906101000a900460ff166064610a619190611dd7565b60ff1685610a6f9190611b14565b610a799190611ae3565b6040518363ffffffff1660e01b8152600401610a96929190611c83565b6020604051808303816000875af1158015610ab5573d6000803e3d6000fd5b505050506040513d601f19601f82011682018060405250810190610ad99190611cc1565b508060056000610ae7611297565b73ffffffffffffffffffffffffffffffffffffffff1673ffffffffffffffffffffffffffffffffffffffff1681526020019081526020016000206001016000828254610b339190611c4f565b9250508190555080600e6001016000828254610b4f9190611c4f565b92505081905550610d41565b8060056000610b68611297565b73ffffffffffffffffffffffffffffffffffffffff1673ffffffffffffffffffffffffffffffffffffffff168152602001908152602001600020600001541015610be7576040517f08c379a0000000000000000000000000000000000000000000000000000000008152600401610bde90611db7565b60405180910390fd5b600260009054906101000a900473ffffffffffffffffffffffffffffffffffffffff1673ffffffffffffffffffffffffffffffffffffffff1663a9059cbb610c2d611297565b6064600b60009054906101000a900460ff166064610c4b9190611dd7565b60ff1685610c599190611b14565b610c639190611ae3565b6040518363ffffffff1660e01b8152600401610c80929190611c83565b6020604051808303816000875af1158015610c9f573d6000803e3d6000fd5b505050506040513d601f19601f82011682018060405250810190610cc39190611cc1565b508060056000610cd1611297565b73ffffffffffffffffffffffffffffffffffffffff1673ffffffffffffffffffffffffffffffffffffffff1681526020019081526020016000206000016000828254610d1d9190611c4f565b9250508190555080600e6000016000828254610d399190611c4f565b925050819055505b610d49611539565b5050565b60095481565b610d5b61129f565b610d6b610d66611297565b611606565b600060076000610d79611297565b73ffffffffffffffffffffffffffffffffffffffff1673ffffffffffffffffffffffffffffffffffffffff16815260200190815260200160002054905060008111610df9576040517f08c379a0000000000000000000000000000000000000000000000000000000008152600401610df090611e57565b60405180910390fd5b600060076000610e07611297565b73ffffffffffffffffffffffffffffffffffffffff1673ffffffffffffffffffffffffffffffffffffffff16815260200190815260200160002081905550600460009054906101000a900473ffffffffffffffffffffffffffffffffffffffff1673ffffffffffffffffffffffffffffffffffffffff1663a9059cbb610e8b611297565b836040518363ffffffff1660e01b8152600401610ea9929190611c83565b6020604051808303816000875af1158015610ec8573d6000803e3d6000fd5b505050506040513d601f19601f82011682018060405250810190610eec9190611cc1565b5050610ef6611539565b565b610f00611219565b600073ffffffffffffffffffffffffffffffffffffffff168173ffffffffffffffffffffffffffffffffffffffff161415610f70576040517f08c379a0000000000000000000000000000000000000000000000000000000008152600401610f6790611ee9565b60405180910390fd5b610f7981611542565b50565b600460009054906101000a900473ffffffffffffffffffffffffffffffffffffffff1681565b610faa61129f565b60008211610fed576040517f08c379a0000000000000000000000000000000000000000000000000000000008152600401610fe490611f55565b60405180910390fd5b6103e88210611031576040517f08c379a000000000000000000000000000000000000000000000000000000000815260040161102890611fc1565b60405180910390fd5b6110396116af565b6000620151804261104a9190611ae3565b90506000838261105a9190611b6e565b905060095481111561106e57806009819055505b600460009054906101000a900473ffffffffffffffffffffffffffffffffffffffff1673ffffffffffffffffffffffffffffffffffffffff166323b872dd6110b4611297565b30866040518463ffffffff1660e01b81526004016110d493929190611fe1565b6020604051808303816000875af11580156110f3573d6000803e3d6000fd5b505050506040513d601f19601f820116820180604052508101906111179190611cc1565b50826008600082825461112a9190611b6e565b925050819055508160095461113f9190611c4f565b60085461114c9190611ae3565b600a819055506000600d5414156111655781600d819055505b505061116f611539565b5050565b6000600d5482101561119a57600c6000838152602001908152602001600020549050611214565b600954821015806111c157506000600e600001541480156111c057506000600e60010154145b5b156111cf5760009050611214565b6004600e600101546111e19190611b14565b600e600001546111f19190611b6e565b670de0b6b3a7640000600a546112079190611b14565b6112119190611ae3565b90505b919050565b611221611297565b73ffffffffffffffffffffffffffffffffffffffff1661123f610917565b73ffffffffffffffffffffffffffffffffffffffff1614611295576040517f08c379a000000000000000000000000000000000000000000000000000000000815260040161128c90612064565b60405180910390fd5b565b600033905090565b600260015414156112e5576040517f08c379a00000000000000000000000000000000000000000000000000000000081526004016112dc906120d0565b60405180910390fd5b6002600181905550565b6112f882611606565b821561141b57600360009054906101000a900473ffffffffffffffffffffffffffffffffffffffff1673ffffffffffffffffffffffffffffffffffffffff166323b872dd8330846040518463ffffffff1660e01b815260040161135d93929190611fe1565b6020604051808303816000875af115801561137c573d6000803e3d6000fd5b505050506040513d601f19601f820116820180604052508101906113a09190611cc1565b5080600560008473ffffffffffffffffffffffffffffffffffffffff1673ffffffffffffffffffffffffffffffffffffffff16815260200190815260200160002060010160008282546113f39190611b6e565b9250508190555080600e600101600082825461140f9190611b6e565b92505081905550611534565b600260009054906101000a900473ffffffffffffffffffffffffffffffffffffffff1673ffffffffffffffffffffffffffffffffffffffff166323b872dd8330846040518463ffffffff1660e01b815260040161147a93929190611fe1565b6020604051808303816000875af1158015611499573d6000803e3d6000fd5b505050506040513d601f19601f820116820180604052508101906114bd9190611cc1565b5080600560008473ffffffffffffffffffffffffffffffffffffffff1673ffffffffffffffffffffffffffffffffffffffff16815260200190815260200160002060000160008282546115109190611b6e565b9250508190555080600e600001600082825461152c9190611b6e565b925050819055505b505050565b60018081905550565b60008060009054906101000a900473ffffffffffffffffffffffffffffffffffffffff169050816000806101000a81548173ffffffffffffffffffffffffffffffffffffffff021916908373ffffffffffffffffffffffffffffffffffffffff1602179055508173ffffffffffffffffffffffffffffffffffffffff168173ffffffffffffffffffffffffffffffffffffffff167f8be0079c531659141344cd1fd0a4f28419497f9722a3daafe3b4186f6b6457e060405160405180910390a35050565b61160e6116af565b611617816102ed565b600760008373ffffffffffffffffffffffffffffffffffffffff1673ffffffffffffffffffffffffffffffffffffffff1681526020019081526020016000208190555062015180426116699190611ae3565b600660008373ffffffffffffffffffffffffffffffffffffffff1673ffffffffffffffffffffffffffffffffffffffff1681526020019081526020016000208190555050565b600d546009541115806116d857506000600e600001541480156116d757506000600e60010154145b5b156116e2576117f8565b600062015180426116f39190611ae3565b905060006004600e600101546117099190611b14565b600e600001546117199190611b6e565b670de0b6b3a7640000600a5461172f9190611b14565b6117399190611ae3565b90506000600d5490505b8281101561179e576009548110611772576000600c60008381526020019081526020016000208190555061178b565b81600c6000838152602001908152602001600020819055505b808061179690611bc4565b915050611743565b5060008290506009548311156117b45760095490505b6000600d54826117c49190611c4f565b600a546117d19190611b14565b905083600d8190555080600860008282546117ec9190611c4f565b92505081905550505050505b565b600080fd5b600073ffffffffffffffffffffffffffffffffffffffff82169050919050565b600061182a826117ff565b9050919050565b61183a8161181f565b811461184557600080fd5b50565b60008135905061185781611831565b92915050565b600060208284031215611873576118726117fa565b5b600061188184828501611848565b91505092915050565b6000819050919050565b61189d8161188a565b82525050565b60006020820190506118b86000830184611894565b92915050565b6118c78161181f565b82525050565b60006020820190506118e260008301846118be565b92915050565b60008115159050919050565b6118fd816118e8565b811461190857600080fd5b50565b60008135905061191a816118f4565b92915050565b6119298161188a565b811461193457600080fd5b50565b60008135905061194681611920565b92915050565b60008060408385031215611963576119626117fa565b5b60006119718582860161190b565b925050602061198285828601611937565b9150509250929050565b600060ff82169050919050565b6119a28161198c565b81146119ad57600080fd5b50565b6000813590506119bf81611999565b92915050565b6000602082840312156119db576119da6117fa565b5b60006119e9848285016119b0565b91505092915050565b6000604082019050611a076000830185611894565b611a146020830184611894565b9392505050565b611a248161198c565b82525050565b6000602082019050611a3f6000830184611a1b565b92915050565b60008060408385031215611a5c57611a5b6117fa565b5b6000611a6a85828601611937565b9250506020611a7b85828601611937565b9150509250929050565b7f4e487b7100000000000000000000000000000000000000000000000000000000600052601260045260246000fd5b7f4e487b7100000000000000000000000000000000000000000000000000000000600052601160045260246000fd5b6000611aee8261188a565b9150611af98361188a565b925082611b0957611b08611a85565b5b828204905092915050565b6000611b1f8261188a565b9150611b2a8361188a565b9250817fffffffffffffffffffffffffffffffffffffffffffffffffffffffffffffffff0483118215151615611b6357611b62611ab4565b5b828202905092915050565b6000611b798261188a565b9150611b848361188a565b9250827fffffffffffffffffffffffffffffffffffffffffffffffffffffffffffffffff03821115611bb957611bb8611ab4565b5b828201905092915050565b6000611bcf8261188a565b91507fffffffffffffffffffffffffffffffffffffffffffffffffffffffffffffffff821415611c0257611c01611ab4565b5b600182019050919050565b600081519050611c1c81611920565b92915050565b600060208284031215611c3857611c376117fa565b5b6000611c4684828501611c0d565b91505092915050565b6000611c5a8261188a565b9150611c658361188a565b925082821015611c7857611c77611ab4565b5b828203905092915050565b6000604082019050611c9860008301856118be565b611ca56020830184611894565b9392505050565b600081519050611cbb816118f4565b92915050565b600060208284031215611cd757611cd66117fa565b5b6000611ce584828501611cac565b91505092915050565b600082825260208201905092915050565b7f50657263656e74206d757374206265206c657373207468616e203130302e0000600082015250565b6000611d35601e83611cee565b9150611d4082611cff565b602082019050919050565b60006020820190508181036000830152611d6481611d28565b9050919050565b7f416d6f756e74206578636565647320746f6b656e2062616c616e636500000000600082015250565b6000611da1601c83611cee565b9150611dac82611d6b565b602082019050919050565b60006020820190508181036000830152611dd081611d94565b9050919050565b6000611de28261198c565b9150611ded8361198c565b925082821015611e0057611dff611ab4565b5b828203905092915050565b7f4e6f7468696e6720746f2077697468647261772e000000000000000000000000600082015250565b6000611e41601483611cee565b9150611e4c82611e0b565b602082019050919050565b60006020820190508181036000830152611e7081611e34565b9050919050565b7f4f776e61626c653a206e6577206f776e657220697320746865207a65726f206160008201527f6464726573730000000000000000000000000000000000000000000000000000602082015250565b6000611ed3602683611cee565b9150611ede82611e77565b604082019050919050565b60006020820190508181036000830152611f0281611ec6565b9050919050565b7f4475726174696f6e2063616e6e6f7420626520302e0000000000000000000000600082015250565b6000611f3f601583611cee565b9150611f4a82611f09565b602082019050919050565b60006020820190508181036000830152611f6e81611f32565b9050919050565b7f4475726174696f6e2073686f756c6420626520696e20646179732e0000000000600082015250565b6000611fab601b83611cee565b9150611fb682611f75565b602082019050919050565b60006020820190508181036000830152611fda81611f9e565b9050919050565b6000606082019050611ff660008301866118be565b61200360208301856118be565b6120106040830184611894565b949350505050565b7f4f776e61626c653a2063616c6c6572206973206e6f7420746865206f776e6572600082015250565b600061204e602083611cee565b915061205982612018565b602082019050919050565b6000602082019050818103600083015261207d81612041565b9050919050565b7f5265656e7472616e637947756172643a207265656e7472616e742063616c6c00600082015250565b60006120ba601f83611cee565b91506120c582612084565b602082019050919050565b600060208201905081810360008301526120e9816120ad565b905091905056fea26469706673582212201a7f06920c8cf1e6a0a942ba3c42b3199780b2749975d0cd76272050173fd46e64736f6c634300080a0033",
  "linkReferences": {},
  "deployedLinkReferences": {}
}